:0200000460009A
:100000004643464200000156000000000101020084
:1000100000000000000000000000000000000000E0
:1000200000000000000000000000000000000000D0
:1000300000000000000000000000000000000000C0
:1000400000000000010403000000000000000000A8
:100050000000200000000000000000000000000080
:100060000000000000000000000000000000000090
:100070000000000000000000000000000000000080
:10008000EB04180A063204260000000000000000FD
:10009000050404240000000000000000000000002F
:1000A0000000000000000000000000000000000050
:1000B0000604000000000000000000000000000036
:1000C0000000000000000000000000000000000030
:1000D00020041808000000000000000000000000DC
:1000E0000000000000000000000000000000000010
:1000F0000000000000000000000000000000000000
:1001000000000000000000000000000000000000EF
:100110000204180804200000000000000000000095
:1001200000000000000000000000000000000000CF
:10013000600400000000000000000000000000005B
:1001400000000000000000000000000000000000AF
:10015000000000000000000000000000000000009F
:10016000000000000000000000000000000000008F
:10017000000000000000000000000000000000007F
:10018000000000000000000000000000000000006F
:10019000000000000000000000000000000000005F
:1001A000000000000000000000000000000000004F
:1001B000000000000000000000000000000000003F
:1001C000000100000010000001000000000000001D
:1001D000000000000000000000000000000000001F
:1001E000000000000000000000000000000000000F
:1001F00000000000000000000000000000000000FF
:10020000D4D4D4D4D4D4D4D4D4D4D4D4D4D4D4D4AE
:10100000D10020400020006000000000000000002F
:1010100020100060001000600000000000000000D0
:1010200000000060F8D8010000000000EFBEADDE57
:10103000124880F3088812481249016000F036F81F
:10104000114812490022814201D004C0FBE7104838
:101050001049114A814202D008CA08C0FAE70F4875
:101060004FF47001026842EA01020260BFF34F8F41
:10107000BFF36F8F00F014F800DE00000040002086
:1010800008ED00E0004000200050002094B5002052
:10109000B84200205C440020F8D8016088ED00E0F0
:1010A00040F6995CC0F2000C6047D4D41C4840F272
:1010B000924188420CBF1B4A1B4A1C4B5360136869
:1010C00023F0800313601A481A4901BF1A480A0C1A
:1010D0008264C1F30F014164016C41F004010164B9
:1010E0001648174A824205D01649814202D008CAE2
:1010F00008C0FAE71448154A824205D014498142D3
:1011000002D008CA08C0FAE71248134A824205D042
:101110001249814202D008CA08C0FAE770470000AD
:10112000240400000080034000C00B4020C528D9E3
:1011300000C00A40AAAAFAFF00400E4000000000CA
:10114000B8220060487901000040002000200060C3
:10115000B842002000002020009C0160F83C2020C4
:10116000D4D4D4D4D4D4D4D4D4D4D4D4D4D4D4D43F
:10117000D4D4D4D4D4D4D4D4D4D4D4D4D4D4D4D42F
:10118000D4D4D4D4D4D4D4D4D4D4D4D4D4D4D4D41F
:10119000D4D4D4D4D4D4D4D4D4D4D4D4D4D4D4D40F
:102000000040002031100060513900002D7901009E
:102010005139000051390000513900000000000022
:102020000000000000000000000000005139000026
:102030005139000000000000513900005139000002
:102040005139000051390000513900008D0D000058
:102050005139000051390000513900005139000058
:102060005139000051390000513900005139000048
:102070005139000051390000513900005139000038
:1020800051390000000000000000000000000000C6
:102090005139000051390000910D00005139000004
:1020A0005139000051390000513900005139000008
:1020B00051390000513900005139000051390000F8
:1020C00051390000513900005139000051390000E8
:1020D00051390000513900005139000051390000D8
:1020E00051390000513900005139000051390000C8
:1020F00051390000513900005139000051390000B8
:1021000051390000513900005139000051390000A7
:1021100000000000513900000000000051390000AB
:102120005139000051390000513900005139000087
:10213000890D0000513900000000000051390000F5
:102140005139000051390000513900005139000067
:10215000513900005139000000000000000000006B
:102160005139000051390000513900005139000047
:102170005139000051390000513900005139000037
:102180005139000051390000513900005139000027
:102190005139000051390000513900005139000017
:1021A0005139000051390000513900005139000007
:1021B00051390000513900005139000051390000F7
:1021C0005139000051390000513900000000000071
:1021D00051390000513900005139000051390000D7
:1021E00051390000513900005139000051390000C7
:1021F00051390000513900005139000051390000B7
:1022000051390000052D00005139000051390000FE
:102210005139000051390000513900005139000096
:102220005139000051390000950D0000513900006E
:102230005139000051390000513900000000000000
:1022400000000000513900005139000051390000F0
:102250005139000051390000513900005139000056
:102260005139000051390000513900005139000046
:102270005139000051390000513900005139000036
:102280005139000051390000513900005139000026
:102290005139000051390000513900005139000016
:1022A0005139000051390000513900000000000090
:0822B000513900005139000012
:1022B800F0B503AF2DE9000F81B02DED028BADF520
:1022C800127D8946D1E9026A91ED018A4CF6012313
:1022D8000968C3F69A33D0F818E000F15C08069153
:1022E80000F11C019E45CDF81C8028D105900DF108
:1022F800700B0491B64691467CC9DC46ACE87C007C
:102308007CC9ACE87C0091E87D008CE87D00002069
:10231800069AD11E032938BF901EDFE800F0026D2F
:1023280072F5002A00F06D81012A40F0DD81B0EEDF
:10233800480A0EF0B6F88DED250A012062E134ABAB
:10234800CDF808A003968446049280469A468B46A8
:102358009CE87B00DC468AE87B00CDF8E8E00DF1DC
:10236800D00E0EF11C0ABCE87C0051467CC1BCE8CA
:102378007C007CC19CE87D007DC10EF15C0064227C
:1023880007997446059017F0A6FA09F11003029808
:1023980067900DF5D07C0FCB039E8CE80F0064A9E5
:1023A8002046049A6696069E8DED658A649600F02E
:1023B8007BFA2146A64691E87D000DF1580C8CE881
:1023C8007D003A9806900EA8BAE84E004EC09AE8EA
:1023D8004E004EC00EF1450108A817229DF8149131
:1023E8009DED448ADDF80CA116F086FC059964A8D9
:1023F800642217F070FA92E118EE100A8DF8AC001A
:1024080072E15EEA0A0000F06F8126980BF1300451
:102418005346764600254FF000080BF12C01069133
:1024280008E001382A9001202690A91B78EB0301C7
:1024380080F05A81013548F1000840B32A980028F5
:10244800EFD14BF29050C2F200000068022818D970
:10245800012040F26061379040F20060C2F2200033
:1024680040F2086236900020C2F220013990349080
:1024780034A838910321C2F2200200230AF0B9FCE3
:1024880053460EAA07CA84E80700042002E02798EA
:1024980040B10138279000202690A91B78EB030152
:1024A800C8D321E14BF29050C2F200000068022824
:1024B80017D9012040F26061379040F23C60C2F2C7
:1024C800200040F2446236900020C2F22001399088
:1024D800349034A838910321C2F2200200230AF074
:1024E80088FC08F0C2FA0146484609F067FA0698DF
:1024F80008F0C6FA042053462A9001202690A91B0A
:1025080078EB030196D3EFE018EE100A4BF29055E2
:10251800C2F2000507F8290C286802281CD90120F6
:1025280040F24841379040F25042399064A83890C0
:102538000020349046F2A300C0F20100C2F220014C
:102548006590A7F12900649034A83691C2F2200260
:10255800032100230AF04DFC2698A8B317F8291C7C
:102568000BF12C0008F091FAC1B2022900F0BC80EE
:10257800020E8DF820108DF82320020AADF82120D4
:102588002A68022A40D9012040F27C41379040F263
:102598008442399064A838900020349048F6CD00E1
:1025A800C0F20000C2F22001659008A8649034A827
:1025B8003691C2F22002032100230AF01AFCBDF86A
:1025C80022009DF8201020E028680328C0F08C80A5
:1025D800012040F26061379040F2C850C2F22000FA
:1025E80040F2D05236900020C2F220013990349047
:1025F80034A83891C2F22002032100230AF0F9FB23
:1026080072E0002024906FE0000C084333D19DF85D
:102618002100C0F17E0040B24408C007169440D1A2
:102628000DF17008404608F07DFF2968844240F2A9
:10263800A080022917D9012040F26061379040F24A
:102648000850C2F2200040F2105236900020C2F228
:1026580020013990349034A83891C2F22002032125
:1026680000230AF0C6FBB8E82E002CA82EC098E874
:102678002E002EC0B2E0286803282DD3012040F296
:102688006061379040F2B84040F2C042C2F2200088
:1026980036900020C2F22001C2F22002399038910F
:1026A80014E02868032817D3012040F260613790AE
:1026B80040F28050C2F2200040F28852369000204A
:1026C800C2F2200139903891C2F22002349034A825
:1026D800032100230AF08DFB0EAA0423279300236D
:1026E80007CA269328AB07C30BF1290108A84CF6A3
:1026F80001281722C3F69A389DF898909DED258AEF
:10270800249C16F0F9FABBE82E000EA82EC09BE810
:102718002E002EC0CDF81880A246DDE904B80DF1D0
:10272800580C41469CE87D007DC10EA84EC8ABE818
:102738004E0090E84E0008F145008BE84E0008A9CD
:10274800172216F0D9FA079864A9642217F0C3F87B
:10275800069888F8449088ED108AC8F83CA0C8F814
:1027680018000DF5127DBDEC028B01B0BDE8000F1D
:10277800F0BD02291CD9012040F22C51379040F2BB
:102788003452399064A838900020349046F2DF1013
:10279800C0F20100C2F22001659016A8649034A826
:1027A8003691C2F22002032100230AF022FB169C74
:1027B80034A9B8E86C0008466CC098E86C006CC096
:1027C80064AD2246284608F0AFFE649800285ED023
:1027D8004ECD2CA84EC095E84E004EC02CAA9DF8B0
:1027E800ACB09DED258A64A9DDF8908001F10C005C
:1027F80078CA0DF1D00A78C092E8780078C04CF613
:102808000120C3F69A3001386690504608F04CFB18
:10281800BBF1040F08D0032064A9649034A84A4689
:102828008DF894B100F040F8B8F1000F0CD0B0EE7C
:10283800480A0DF073FE012064A9649034A84A4642
:102848008DED650A00F030F851460DF1580C91E80D
:102858007D000EA98CE87D000AF11C00DDF8E880F7
:102868006CC86CC190E86C0008A86CC10AF14501FD
:1028780017229DF814919DED448A439C16F03CFA6A
:102888000AF15C0164A8642217F025F842E740F2D7
:10289800B82040F25052C2F22000C2F220022B218E
:1028A80012F0ADFCFEDED4D4F0B503AF2DE9000F75
:1028B80081B02DED028BBAB006460868904600221A
:1028C800C31E032B38BF821E0596DFE802F0026D97
:1028D80076D93278747891ED010A002A40F0F180B7
:1028E800022C80F0EE80002800F04E81012840F094
:1028F80006829FEDE81A4BF290559FEDE72AC2F247
:10290800000520EE011A8DED060A81EE021A8DED02
:10291800071A286803281FD3022040F230012390A9
:10292800C2F22001259008A824900020209045F6A6
:102938006300C0F2010040F290020B90C2F2200244
:10294800099006A8229107A9089020A80A910321B6
:1029580000230AF04EFA059E2868002C00F03B82FE
:10296800022818D9012040F26061239040F2CC007F
:10297800C2F2200040F2D40222900020C2F22001CC
:102988002590209020A82491C2F220020321002340
:102998000AF02FFA059E06F1100008F04DF90146DD
:1029A80008A808F08DFA39E20879DFE810F0040089
:1029B800120142017701022071E1D1E90234CDF818
:1029C800088053EA040000F0968096F801C04BF2A4
:1029D800905E307806F10208D6E9029AC2F2000E3B
:1029E8004FF0000B0025CDE903C311E00020BDF82E
:1029F8008410A8F80410BBEB0301209A75EB0401BE
:102A080086F801C03070C8F80020C6E9029A73D26F
:102A18001BF1010B45F100050028E7D059EA0A002F
:102A280006D0B9F101094FF001006AF1000ADEE7AA
:102A38008DF81CC0DEF800000228D7D9012040F22A
:102A48006431239040F26C32259008A8249000202D
:102A5800209048F61760C0F20000C2F220010990E9
:102A680007A8089020A822910321C2F2200200237F
:102A780076460AF0BEF9B646DDE903C3059EB5E71A
:102A88004BF29050C2F2000000680328C0F0D981D0
:102A9800012040F26061239040F22830C2F2200009
:102AA80040F2303222900020C2F22001259020907E
:102AB80020A82491C2F22002032100230AF099F9E8
:102AC800BFE1002860D0012840F04F819FEDEB1A4C
:102AD8004BF290559FEDEA2AC2F2000520EE011A4A
:102AE8008DED060A81EE021A8DED071A2868022874
:102AF8003FF612AF30E73078029DF0B106F11000D2
:102B080008F09AF8A0B1461E002007F0A6FF0004BE
:102B180000F09E81304607F0ABFF0146C0B20228A4
:102B280000F09F81284608F049FF013E701CEBD158
:102B3800059E3078002840F0848170780238C0B251
:102B4800022828BF0220012840F07B8106F11000EE
:102B580008F072F8002800F07481441E43F6FF70F4
:102B680007F07BFF000400F07381204607F080FF28
:102B78000146C0B2022800F07481284608F01EFF02
:102B8800013C601CEAD15CE14BF29050C2F20000BB
:102B98000068022818D9012040F26061239040F2B1
:102BA8009420C2F2200040F29C2222900020C2F21F
:102BB80020012590209020A82491C2F22002032110
:102BC80000230AF016F9059E06F1100008F041F8F6
:102BD80037E14BF29050C2F200000068022818D981
:102BE800012040F26061239040F2EC30C2F22000F4
:102BF80040F2F43222900020C2F220012590209069
:102C080020A82491C2F22002032100230AF0F1F83F
:102C1800059E06F11005284608F00EF820AE01467C
:102C2800304608F0C3F92846314608F0B0F80020CD
:102C380035E04BF29050C2F200000068022818D923
:102C4800012040F26061239040F2A830C2F22000D7
:102C580040F2B03222900020C2F22001259020904C
:102C680020A82491C2F22002032100230AF0C1F80F
:102C7800059E06F11005284607F0DEFF20AE014646
:102C8800304608F01DF92846314608F080F8012042
:102C980005E000BF000016440000044403204BF286
:102CA80090518DF81C00C2F20001096802291DD953
:102CB800012040F21041239040F21842259008A8C4
:102CC80024900020209048F61760C0F20000C2F25D
:102CD8002001099007A8089020A82291C2F220029A
:102CE800032100230AF085F89DF81C00059B0021AC
:102CF800022258700120C3E902211870A1E0D1E92D
:102D08000502904280F09D808B6806F1100A0969DF
:102D1800A2EB000B03EB80050DF1800901EB8004A9
:102D280008AE07E0BBF1010B05F1040504F104044A
:102D380000F08780D4ED000A484695ED000A514618
:102D480008F096F822980028ECD0DDE92331DDE977
:102D580020C2CDE908C2CDE90A03101A424601EBA8
:102D68009001304600F0F8F8DCE7D1E9050290421E
:102D780067D28B6806F1100B0969A2EB000803EB18
:102D880080050DF1800A01EB800408AE0DF1E4091D
:102D980006E0B8F1010805F1040504F1040450D077
:102DA800D4ED000A504695ED000A594608F060F83F
:102DB80022980028EDD0DDE92331DDE920C2CDE9F4
:102DC80008C2CDE90A03101A4A4601EB90013046C1
:102DD80000F058F8DDE7022818D9012040F26061B8
:102DE800239040F2D010C2F2200040F2D812229074
:102DF8000020C2F220012590209020A82491C2F240
:102E080020020321002309F0F4FF059E06F11000BB
:102E180007F012FF014608A808F0C8F89DED070A58
:102E28000DF03FFB20AD08A96022B0EE408A28468D
:102E380016F0ECF9B0EE480A06F11000294607F042
:102E480042FF3AB0BDEC028B01B0BDE8000FF0BD07
:102E580040F2B82040F2F422C2F22000C2F220026E
:102E680007E040F2B82040F2E422C2F22000C2F2A9
:102E780020022B2112F0C3F9FEDE00BF0000164429
:102E880000000444F0B503AF4DF804BD2DED0A8BE6
:102E9800D0E90156B54241D0B7EE00AA90ED008ABC
:102EA80090ED039A4C1E9FED2ABA9FED2ACA15EDA4
:102EB800010A80EE090AB4EE4A0AF1EE10FA48BF98
:102EC800B0EE4A0A0DF088FE80EE081AB4EE408A89
:102ED80021EE0B1AF1EE10FA48BFB0EE4B1ABCEE19
:102EE800C10AB5EE401AF1EE10FAB4EE4C1A10EE23
:102EF800100AB8BF0020F1EE10FAC8BF4FF6FF70F5
:102F080007F0ABFD00040ED0204607F0B1FDC0B2BB
:102F1800022811D0043D013CB542C8D1BDEC0A8B52
:102F28005DF804BBF0BD40F2606040F2D462C2F2CA
:102F38002000C2F2200207E040F2606040F2C46262
:102F4800C2F22000C2F220022B2112F058F9FEDE54
:102F580000FC7F4600FF7F47F0B503AF4DF8048DB6
:102F68002DED0A8BD0E90164A64246D0B7EE00AA3F
:102F780090ED008A90ED039A4D1E9FED2DBA904674
:102F88009FED2CCA16ED010A80EE090AB4EE4A0A32
:102F9800F1EE10FA48BFB0EE4A0A0DF01DFE80EEC1
:102FA800081AB4EE408A21EE0B1AF1EE10FA48BF67
:102FB800B0EE4B1ABCEEC10AB5EE401AF1EE10FAAB
:102FC800B4EE4C1A10EE100AB8BF0020F1EE10FA59
:102FD800C8BF4FF6FF7007F040FD000412D0284626
:102FE80007F046FD0146C0B2022814D04046043E10
:102FF80008F0E4FC013DA642C4D1BDEC0A8B5DF8A3
:10300800048BF0BD40F2606040F2D462C2F220004E
:10301800C2F2200207E040F2606040F2C462C2F2ED
:103028002000C2F220022B2112F0E9F8FEDE00BFD8
:1030380000FC7F4600FF7F4701F0B2B901F0BCB940
:1030480001F02EBD01F0CCBA80B56F4600F001F852
:10305800FEDEB0B502AFADF5C95D84B001F06EF823
:10306800D8B1A7F114000DF1080E01210EF5845412
:1030780001F078F80DF6884001F0ABF820680228D6
:1030880017D140F23B7040F2C872C2F22000C2F27F
:1030980020022B2112F0B3F8FEDE40F23B7040F222
:1030A800D872C2F22000C2F220022B2112F0A7F837
:1030B800FEDE1EA80DF688414FF4816216F00BFC67
:1030C8004FF67450C0F2070000F0E0FF80B101F045
:1030D8004CF8C0B2052817D140F23B7040F2A872F4
:1030E800C2F22000C2F220022B2112F088F8FEDE84
:1030F80040F23B7040F2B872C2F22000C2F22002E5
:103108002B2112F07CF8FEDE8DF8830400F0FFFF1F
:10311800002800F09A8300F0E3FF002800F0A18364
:103128000DF59169484602F0B1FB0DF6884A49460B
:10313800504600F07FFDDDF8040FCDF884040DF251
:10314800844002F04DFD1D90A7F11400884601212E
:1031580000F0F1FFC82007F0BEFB504608F0BEF8AB
:10316800D4464946BCE87C000DF1080E0EF5B35B69
:103178007CC1BCE87C007CC19CE87D0009F1400C66
:103188007DC151467CC9ACE87C007CC9ACE87C00B8
:1031980091E87D0051468CE87D0009F1800C7CC9DE
:1031A800ACE87C007CC9ACE87C0091E87D00514625
:1031B8008CE87D0009F1C00C7CC9ACE87C007CC9B6
:1031C800ACE87C0091E87D0051468CE87D0009F56B
:1031D800807C7CC9ACE87C007CC9ACE87C0091E8C8
:1031E8007D0051468CE87D0009F5A07C7CC9ACE8DF
:1031F8007C007CC9ACE87C0091E87D0051468CE8F5
:103208007D0009F5C07C7CC9ACE87C007CC9ACE8D1
:103218007C0091E87D0051468CE87D0009F5E07C52
:103228007CC9ACE87C007CC9ACE87C0091E87D00F6
:1032380051468CE87D0009F5007C7CC9ACE87C002F
:103248007CC9ACE87C0091E87D0051468CE87D00A3
:1032580009F5107C7CC9ACE87C007CC9ACE87C0032
:1032680091E87D0051468CE87D0009F5207C7CC9F9
:10327800ACE87C007CC9ACE87C0091E87D00514654
:103288008CE87D0009F5307C7CC9ACE87C007CC901
:10329800ACE87C0091E87D0051468CE87D0009F59A
:1032A800407C7CC9ACE87C007CC9ACE87C0091E837
:1032B8007D0051468CE87D0009F5507C7CC9ACE85E
:1032C8007C007CC9ACE87C0091E87D0051468CE824
:1032D8007D0009F5607C7CC9ACE87C007CC9ACE861
:1032E8007C0091E87D0051468CE87D0009F5707CF2
:1032F8007CC9ACE87C007CC9ACE87C0091E87D0026
:1033080051468CE87D0009F5806C7CC9ACE87C00EE
:103318007CC9ACE87C0091E87D0051468CE87D00D2
:1033280009F5886C7CC9ACE87C007CC9ACE87C00F9
:1033380091E87D0051468CE87D0009F5906C7CC9C8
:10334800ACE87C007CC9ACE87C0091E87D00514683
:103358008CE87D0009F5986C7CC9ACE87C007CC9D8
:10336800ACE87C0091E87D0051468CE87D0009F5C9
:10337800A06C7CC9ACE87C007CC9ACE87C0091E816
:103388007D0051468CE87D0009F5A86C7CC9ACE845
:103398007C007CC9ACE87C0091E87D0051468CE853
:1033A8007D0009F5B06C7CC9ACE87C007CC9ACE850
:1033B8007C0091E87D0051468CE87D0009F5B86CE9
:1033C8007CC9ACE87C007CC9ACE87C0091E87D0055
:1033D80051468CE87D0009F5C06C7CC9ACE87C00DE
:1033E8007CC9ACE87C0091E87D0051468CE87D0002
:1033F80009F5C86C7CC9ACE87C007CC9ACE87C00E9
:1034080091E87D0051468CE87D0009F5D06C7CC9B7
:10341800ACE87C007CC9ACE87C0091E87D005146B2
:103428008CE87D0009F5D86C7CC9ACE87C007CC9C7
:10343800ACE87C0091E87D0051468CE87D0009F5F8
:10344800E06C7CC9ACE87C007CC9ACE87C0091E805
:103458007D0051468CE87D0009F5E86C7CC9ACE834
:103468007C007CC9ACE87C0091E87D0051468CE882
:103478007D0009F5F06C7CC9ACE87C007CC9ACE83F
:103488007C0091E87D0051468CE87D0009F5F86CD8
:103498007CC9ACE87C007CC9ACE87C0091E87D0084
:1034A8008CE87D00584607F019FF5946D4467CC978
:1034B8000DF1080EACE87C007CC9ACE87C0091E812
:1034C8007D0059468CE87D000AF1400C7CC9ACE8C7
:1034D8007C007CC9ACE87C0091E87D0059468CE80A
:1034E8007D000AF1800C7CC9ACE87C007CC9ACE8A2
:1034F8007C0091E87D0059468CE87D000AF1C00CFB
:103508007CC9ACE87C007CC9ACE87C0091E87D0013
:1035180059468CE87D000AF5807C7CC9ACE87C00C3
:103528007CC9ACE87C0091E87D0059468CE87D00B8
:103538000AF5A07C7CC9ACE87C007CC9ACE87C00BE
:1035480091E87D0059468CE87D000AF5C07C7CC96D
:10355800ACE87C007CC9ACE87C0091E87D00594669
:103568008CE87D000AF5E07C7CC9ACE87C007CC96D
:10357800ACE87C0091E87D0059468CE87D000AF5AE
:10358800007C7CC9ACE87C007CC9ACE87C0091E894
:103598007D0059468CE87D000AF5107C7CC9ACE8B2
:1035A8007C007CC9ACE87C0091E87D0059468CE839
:1035B8007D000AF5207C7CC9ACE87C007CC9ACE8BD
:1035C8007C0091E87D0059468CE87D000AF5307C46
:1035D8007CC9ACE87C007CC9ACE87C0091E87D0043
:1035E80059468CE87D000AF5407C7CC9ACE87C0033
:1035F8007CC9ACE87C0091E87D0059468CE87D00E8
:103608000AF5507C7CC9ACE87C007CC9ACE87C003D
:1036180091E87D0059468CE87D000AF5607C7CC9FC
:10362800ACE87C007CC9ACE87C0091E87D00594698
:103638008CE87D000AF5707C7CC9ACE87C007CC90C
:10364800ACE87C0091E87D0059468CE87D000AF5DD
:10365800806C7CC9ACE87C007CC9ACE87C0091E853
:103668007D0059468CE87D000AF5886C7CC9ACE879
:103678007C007CC9ACE87C0091E87D0059468CE868
:103688007D000AF5906C7CC9ACE87C007CC9ACE88C
:103698007C0091E87D0059468CE87D000AF5986C1D
:1036A8007CC9ACE87C007CC9ACE87C0091E87D0072
:1036B80059468CE87D000AF5A06C7CC9ACE87C0012
:1036C8007CC9ACE87C0091E87D0059468CE87D0017
:1036D8000AF5A86C7CC9ACE87C007CC9ACE87C0025
:1036E80091E87D0059468CE87D000AF5B06C7CC9EC
:1036F800ACE87C007CC9ACE87C0091E87D005946C8
:103708008CE87D000AF5B86C7CC9ACE87C007CC903
:10371800ACE87C0091E87D0059468CE87D000AF50C
:10372800C06C7CC9ACE87C007CC9ACE87C0091E842
:103738007D0059468CE87D000AF5C86C7CC9ACE868
:103748007C007CC9ACE87C0091E87D0059468CE897
:103758007D000AF5D06C7CC9ACE87C007CC9ACE87B
:103768007C0091E87D0059468CE87D000AF5D86C0C
:103778007CC9ACE87C007CC9ACE87C0091E87D00A1
:1037880059468CE87D000AF5E06C7CC9ACE87C0001
:103798007CC9ACE87C0091E87D0059468CE87D0046
:1037A8000AF5E86C7CC9ACE87C007CC9ACE87C0014
:1037B80091E87D0059468CE87D000AF5F06C7CC9DB
:1037C800ACE87C007CC9ACE87C0091E87D008CE822
:1037D8007D000AF5F860BBE86E006EC0BBE86E00BD
:1037E8006EC09BE87E007EC00EF5A4548021204662
:1037F80015F0A4F80DF1080E80210EF5A8563046F4
:1038080015F09CF80DF1080E20200EF5B35BCDE9FC
:103818000004CDE90206494604900DF1080E584609
:10382800202253460EF5845907F05AFED9F8E005D0
:1038380018BB40F23B7040F27872C2F22000C2F22C
:1038480020022B2111F0DBFCFEDE40F23B7040F23F
:103858009872C2F22000C2F220022B2111F0CFFC94
:10386800FEDE40F23B7040F28872C2F22000C2F2E3
:1038780020022B2111F0C3FCFEDE0DF1080ECDF85D
:1038880020805A460EF5AC51DDF874A00DF1080EF3
:1038980078CA084678C092E8780078C00EF5AD502E
:1038A80007F0F8FB58464FF400714FF4007415F018
:1038B80045F80020C9F8E0B7C9F8E807C9F8EC07E7
:1038C80046F2A810C9F8E44700F0AEFB58B940F238
:1038D8003B7040F26872C2F22000C2F220022B2133
:1038E80011F08DFCFEDE0AF01F000121C9F8F02757
:1038F80001FA00F0C9F8F4370690A7F1500000F17A
:10390800100B05301C90A7F1A80010300590D9F8CD
:10391800EC0750B935E00DF1080ECDF81CA066464D
:103928000EF58459D9F8EC0758B30DF1080E451E69
:103938000EF58451D1F8E047D1F8E4A7D1F8E8971B
:10394800D145484624BFA9EB0A00504580F06A815A
:10395800215CA7F1140000F0B8FBC0B2022810D116
:1039680009F101000DF1080EB0EB0A0918BF8146F4
:103978000EF58450C0F8EC57013DC0F8E897681C74
:10398800DED10DF2834000F001FC0446A7F1A80047
:103998001EA900F037FC0321E2B2042A08BF062161
:1039A8000F9818BF10460F9057F8A80C09910328D4
:1039B8001B9206D106200DF1080E0A900EF58459C7
:1039C80013E0059B0DF1080E0A900EF5845957F87F
:1039D800A45C09F5FF6C0FCB0E9557F8A05C0D950C
:1039E80057F89C5C0C958CE80F00A7F1C000089D67
:1039F80000F035FB0446A7F114000B929A4600F03C
:103A080059FB179B10F0010208BF0B46109917933A
:103A1800002C18BF5146109111990B9B18BF1946DD
:103A280011911B990A9B042904D1062B08BF002C6D
:103A380000F0E0800999002C4FF0040447F8701C4E
:103A480047F8783C08BF0624C00747F8804C4FF079
:103A58000500A7F1500918BF062047F8880C0E98F2
:103A6800DDF81CA01B94000A0B902FE057F8804C3F
:103A7800DDF858C0A7F13006A7F1680E1B944ECEAA
:103A88008EE84E000DF1600E21469EE80045A7F134
:103A980068061C9DCDF874E04ECE47F848EC0DF151
:103AA800080E8BE84E004FEA1841A7F1D00247F8FC
:103AB800500C0EF5AD50A9704946A5F80080664631
:103AC80007F84CCC47F844ACFEF7F2FBB4F1080118
:103AD800A7F1700018BF0146082C09D1B446DDF8DB
:103AE80074E057F8880C072863D1A7F1580066E0FE
:103AF8000868B446B0F1080218BF0A46DDF874E059
:103B0800082837D01068072803D0062808D10720CE
:103B1800106057F8780C07280BD1A7F1180021E09E
:103B28000621DDF83CC011601592CDE913C3129649
:103B380055E002AA47F8180C02F58456A7F1A80028
:103B480006F5FF66A7F150096CCE47F89C6C2CC0AF
:103B5800A7F178000D9A15920C9A14920E9A139266
:103B68000B9A12920622026057F8180C06282FD1D9
:103B780008200860072C02D1A7F1200009E00021E5
:103B8800A7F18000189111991A91109947F8204CC3
:103B980019910621016057F8200C06287FF466AFBA
:103BA800082108201B9047F8801C57F8880C072824
:103BB8009BD0DDF85CC047F8580CA7F188000621B7
:103BC800016057F8580C06283FF4A5AE08245EE7B4
:103BD80015991A9114991991DDE9121C1891A7F1F8
:103BE800A8061B9CA7F1300ECDF858C04ECE8EE823
:103BF8004E003FE7002A3FF41DAFA7F1140401214E
:103C0800204600F081FA06F075FE06980021C5F8F6
:103C18008C00204600F078FAD9F8EC0700287FF4E9
:103C280084AEAEE640F21C725146C2F2200211F098
:103C3800FDFAFEDEF0B503AF2DE9000FADF5177DF7
:103C480011AD04464FF4E072284615F044FE05F124
:103C5800340005F1380105F1540200F08FFF439854
:103C680003F0B2FF5B98016841F0010101605B98C5
:103C7800016821F002010160419E0021C0F808118D
:103C8800C0F81811C0F82811C4E98000C4E98200FE
:103C9800C0F83811306820F001003060306840F416
:103CA800004030603068000409D53068000444BF23
:103CB80030685FEA004002D530680004F2D43F2043
:103CC800B060306820F001003060DDF80881D8F875
:103CD800000020F00100C8F80000D8F8000040F407
:103CE8000040C8F80000D8F8000000040CD5D8F847
:103CF8000000000444BFD8F800005FEA004003D584
:103D0800D8F800000004EED43F20C8F80800D8F81E
:103D1800000020F00100C8F80000689803F055FF83
:103D2800DDF84490CDE90F1040F26341D9F848001E
:103D380040F00100C9F84800D9F844000843C9F820
:103D48004400D9F84400012161F38300C9F8440014
:103D5800D9F8440020F08000C9F84400D9F8480098
:103D680040F02000C9F84800D9F8440040F4404029
:103D7800C9F84400D9F8440040F44470C9F8440034
:103D8800D9F8480040F08000C9F84800D9F8580030
:103D980000070CD0D9F8580000071CBFD9F8580004
:103DA8005FEA007003D0D9F858000007EED1D9F8BF
:103DB800480040F2634140F02000C9F84800D9F8B3
:103DC800440020F44040C9F84400D9F84400DDF824
:103DD80048A020F4447000F58870C9F84400DAF867
:103DE800480040F00100CAF84800DAF844000843E7
:103DF800CAF84400DAF84400012161F38300CAF8E4
:103E08004400DAF8440020F08000CAF84400DAF8E8
:103E1800480040F02000CAF84800DAF8440040F4AE
:103E28004040CAF84400DAF8440040F44470CAF844
:103E38004400DAF8480040F08000CAF84800DAF890
:103E4800580000070CD0DAF8580000071CBFDAF851
:103E580058005FEA007003D0DAF858000007EED186
:103E6800DAF8480040F02000CAF84800DAF84400C0
:103E780020F44040CAF84400DAF8440020F44470C2
:103E880000F58870CAF84400DDF8C0B103F0DAFD27
:103E9800054603F0D9FD034681A859462A4603F092
:103EA800D5FD6B9993A84FF4805203F094FE38988F
:103EB8000C903A980B9077980E9075980D90729890
:103EC8000A903C98DDE9281209903B980890204612
:103ED80003F04FFE5D994FF470420F2301F5907087
:103EE800C4F8D00201F1C000C4F8CC0201F16000AE
:103EF800C4F8C802C4E9B011A1F88C21A1F88E3128
:103F08001E9804901F98039049980290589807901B
:103F18005398069052980590549801905E98DDF851
:103F280098B000F59075C4F8E45200F1C005DDF8CA
:103F380058E1DDF840C14B99C4F8E052A0F88C2153
:103F4800C4E9B500A0F88E316030C4F8DC025F988F
:103F580000F1C005C4F8F45200F16005C4F8F0524D
:103F680000F59075C4F8F852A0F88C21C4E9BA009D
:103F7800A0F88E31609800F16005C4F8045300F190
:103F8800C005C4F80853A0F88C2100F59072C4F855
:103F98000C2304F52872C4E9BF00A0F88E310498F8
:103FA800C4F894020398C4E9A60B0298C4E9C49A19
:103FB80082E8035004F51B7148220198C4F8B00246
:103FC8000598C4F8B4020698C4F8B8020798C4F86B
:103FD800BC020F98C4F86802109881E8410181A9D1
:103FE8000C98C4F878020B98C4F87C020898C4F8B6
:103FF80080020998C4F884020A98C4F888020D98C7
:10400800C4F88C020E98C4F8900204F5087015F0F4
:1040180062FC93AB04F5047C0FCB8CE80F000DF524
:10402800177DBDE8000FF0BD80B56F4645F2000171
:10403800C2F200010A7822B10020002100220023E8
:1040480080BD00EB400001220A704FF0FF3101EB08
:10405800C00000F0DBFA00210022002380BDD0B5AB
:1040680002AF044600F008FBD4E9002381EA030C00
:10407800C4E9000180EA020454EA0C0418BF0124D0
:10408800821A61EB030320460021D0BDD0B502AFF0
:1040980045F20101C2F200010C781CB1B4FA84F0B7
:1040A8004009D0BD01220A7000F0A6FBB4FA84F0E2
:1040B8004009D0BD80B56F4600F05CFC0146002881
:1040C80080B248BF0121C00B80BD80B56F46C8B221
:1040D80000F06EFC0221002808BF0121084680BDBF
:1040E800D0B502AF45F20200C2F2000004781CB15C
:1040F800B4FA84F04009D0BD0121017000F0FEFA45
:10410800B4FA84F04009D0BD084600F0EBBAD0B547
:1041180002AF45F20300C2F2000004781CB1B4FA01
:1041280084F04009D0BD0121017000F0D7FAB4FA3B
:1041380084F04009D0BD084600F0CCBAD0B502AF33
:1041480045F20400C2F2000004781CB1B4FA84F00D
:104158004009D0BD0121017000F04AFBB4FA84F097
:104168004009D0BD084600F03FBB80B56F4645F218
:104178000500C2F20000017800291CBF052080BD9F
:104188000121017000F092FA042080BDD0B502AF81
:10419800044600F077FA0138C1B2072904D88B2207
:1041A80022FA01F1C90705D121780420042918BF92
:1041B8002070D0BD40F6100240B2C2F22002217831
:1041C800105C042903D0814204BF0420D0BD2070B4
:1041D800D0BDD0B502AF044645F20600C2F20000D9
:1041E800017800291EBF0220C4F80004D0BD0121B7
:1041F800017000F053F9204640F2044114F09EFB90
:10420800D0BDD4D4F0B503AF4DF804BD0D46044677
:1042180000F09EF8B5EE400A0020F1EE10FA58BF03
:10422800012005F58062D5F80034B5EE400A111D6D
:10423800F1EE10FA39D4002B41D092ED011A9FED1E
:10424800282A80EE011AB4EE421AF1EE10FA36DC92
:104258009FED242AB4EE421AF1EE10FA2FD405F598
:10426800007680202946324600F03EF890B3812837
:104278003FBF4FF0000C06EB800205EB80030221E4
:104288003FBF84E82A0004F10C0181E84410C4E926
:1042980006003CBF5DF804BBF0BD40F62802802153
:1042A800C2F2200212F055FDFEDE9BB1C5F80004F3
:1042B800002081ED000A20605DF804BBF0BDC5F860
:1042C8000004012081ED000A84ED010A20605DF8F8
:1042D80004BBF0BD032020605DF804BBF0BD00BF47
:1042E800C520803F77BE7F3FF0B5064672B6144BB7
:1042F800144D1C682B6862B69C4238BF04F5C06434
:10430800E01AB04228BF3046B0B10F4F01EB80042D
:104318000E4E07EB830E06EB830C0133DEF800E04C
:10432800B3F5C06FDCF800C041F804EB08BF002308
:104338008C4242F804CBECD172B62B6062B6F0BD69
:10434800105000200C500020145000201468002049
:10435800114B9A68520616D5104A5B6C92ED007A9A
:1043680023F07F43B8EE477A00EE103A9FED085BE2
:10437800B7EEC77AB8EEC00B87EE056B20EE060BDA
:10438800B7EEC00B7047BFEE000A7047AFF300806E
:10439800000000000000E84100003840B84200205A
:1043A800044B1A6942F004021A611A6942F4801235
:1043B8001A617047000038402F4803212F4B304ABC
:1043C800A3F5807C70B504682E482469D1779C4297
:1043D80038BF9C462C4B01681A68914205D2026886
:1043E800196802F120038B4245D22CF01F030CF50B
:1043F8008071BFF34F8F4FF0E022C2F85C3F20334B
:104408009942FAD8BFF34F8FBFF36F8F00211F4D2A
:104418000CF1040EDFED1E6A1E4C5CF83160026878
:1044280046F30F265EF831300A4407EE106A43F36C
:104438000F23B8EEC77A07EE903A05EB8203F8EE41
:10444800E77A27EE267A67EEA67A83ED007A036884
:104458000B44013104EB83032029C3ED007ADCD13E
:1044680002680D4B2032A3FB02139B0A03EB4303A4
:10447800A2EB4323036070BD085000205C45002078
:1044880000800E40105000200C50002014500020D6
:104498000000003814680020ABAAAAAA42480321E9
:1044A800424B4FF0E02CC26FF0B542F0C00240F230
:1044B80082443F4E4FF0400E3E4FC2671C600024BE
:1044C80099763D4A99771976D97737600426D46763
:1044D80056670626A2F876E0A2F87EE0A2F87C608D
:1044E800364E374D1666374E1667374EEC60EE601F
:1044F8006FF00705D9760823344ECCF80031C36F26
:1045080043F44043C367324B32485066186840F45E
:1045180080001860186820F400001860186820F4FB
:10452800C01018601868C2E91A6540F48010A5F533
:10453800FC75956718601A6842F480221A601A6838
:1045480022F003021A60244AC2F8081141F2B001AD
:10455800C2F8F8121A68214922F480021A609A688F
:1045680022F4F0629A609A6822F038029A60DA6857
:1045780042F48012DA60DA6842F00402DA60D0228B
:1045880081F83C204FF08052CCF804211A6942F09F
:1045980004021A611A6942F480121A615C601A688E
:1045A80042F400721A60F0BD00C00F4000800E4057
:1045B8000850002060900E4000900E4014003840D3
:1045C80000C00E405C4400205500008008E0FFBF9A
:1045D800000038400400020200801F4000E400E0B0
:1045E800084B1B68DA6862B1074AD2E9000130B4A7
:1045F800441C41F100050121C2E9004530BCD960E5
:1046080070477047BC42002018800020154A1649A0
:10461800D36E30B443F440530124144DD3660C6078
:1046280000212B68124C03E010330121A34214D857
:104638009A68002AF8D101B12B6003221860FF2480
:104648000C499A604FF0E0234FF0806281F87A407D
:104658000120C3F80C2130BC7047002318462B609A
:1046680030BC704700C00F4000400840BC420020EA
:104678003F41084000E400E0014BD3E900017047E6
:104688001880002038B50024254604F10900C0B27E
:1046980000F062F8B0FA80F04009A0400134054308
:1046A800042CEDB2F1D1284638BD00BF08B502216F
:1046B800092000F063F802210A2000F05FF80221C7
:1046C8000B2000F05BF802210C20BDE8084000F048
:1046D80055B800BF0146062000F014B80221062094
:1046E80000F04CB8044B4FF4003210B1C3F88420EA
:1046F8007047C3F888207047004000420121072016
:1047080000F03CB8272816D80201104B03EB001024
:104718009B5810B4C2685C68144205D061B95DF852
:10472800044BC3F888207047836851B1084A5DF884
:10473800044B1A60704770475DF8044BC3F8842037
:104748007047044A5DF8044B1A6070473808202007
:1047580038F001003830010027280BD8064B020139
:1047680003EB00109A58C36892681A4214BF0120DC
:10477800002070470020704738082020272827D8B5
:104788000201154B012903EB00109B5830B45A68FD
:10479800D0E902540DD004290BD022EA04025A6051
:1047A80099B1022915D003290CBF0C4B0C4B2B6077
:1047B80006E0224301295A6007D040F638032B60EF
:1047C8004368152230BC1A60704738232B60F7E71E
:1047D8007047044B2B60F3E738082020383001007D
:1047E8003800010038F0010001460D20FFF78ABFAC
:1047F80001210D20FFF7C2BF07EE900A9FED507A06
:104808000422B6EE005AF8EE677A4FF0010C104613
:104818009FED4C6A41F6FF71C7EE275A70B407EE58
:10482800902AF8EEE77A85EEA77A77EE057AFDEE1C
:10483800E77A17EE903A8B42A8BF0B46012BB8BF18
:10484800012307EE903AF8EEE76A76EEC76AC6EEFD
:10485800877AF5EEC07AF1EE10FA48BFF1EE677A82
:10486800F4EEC67AF1EE10FA03D8B0EE676A104695
:104878009C460132212AD2D10021334B334A0225EA
:1048880019600828324B334C1960334B334E19608A
:10489800334B1960334B1970936E43F4405393664E
:1048A80000F1FF33D4F80821C8BF00204FEA0363A2
:1048B800D8BF01201660D4F8042103F0F85315601E
:1048C80043EA0C03284A43EA40432848C2F838110F
:1048D800D4E94526D924346040241560244A03616C
:1048E8004FF0E023C16094754FF48002C3F80021B3
:1048F800836AEB4003F01C030F2B1BD85B082B408B
:104908001A4A926A920002F01C020F2A14D8D203A3
:1049180002F44032154913434FF47012CB628B6A8C
:1049280043F088038B628A614B6923F0805370BC23
:104938004B6170470323E3E74FF44032EAE700BFD7
:10494800001BB74BEC78AD603080002000C00F40F2
:104958002C800020380820202880002038F0010012
:10496800248000202080002000841F4000C01840C0
:1049780000E400E00B4A0C491368096899420DD01D
:1049880001333F2B04D8194608481160C05C7047B2
:10499800002106480B461160C05C70474FF0FF309D
:1049A800704700BF2C800020308000203480002019
:1049B8002DE9F047344F86463B6803F1010CBCF102
:1049C800270F5ED900218C46DFF8CC80D8F800305C
:1049D8008B423ED10A4600252C4C2D4EDFF8BC9068
:1049E80015E0EFF3118303F1FF3ABAF1FE0F43D854
:1049F800402B0AD863691B0207D5272A02F1010355
:104A080037D01A46F35C0125E3618A421ED1EFF3E1
:104A18001383002BEED1EFF31083002BEAD1EFF3D1
:104A280005800028DDD00F2802D8EFF31183E1E7D5
:104A380000EB0903A3F541631878EFF311830BB179
:104A48009842D5D84028D5D98A42E0D00DB1C8F8C7
:104A580000200F4B03F80CE072B60C4A01200D4BF6
:104A680039601870936943F40003936162B6BDE836
:104A7800F08700221346C5E70DB1C8F80020BDE84D
:104A8800F0876146A0E700BF2880002000C01840DA
:104A980074800020208000202480002000F000E0A6
:104AA8002E494B6913F4401FF0B41CD0CB6A13F0A5
:104AB800E06FC3F3026212D0294F2A4B2A4E38689E
:104AC8001D68431C013ACC69402B28BF0023AB4228
:104AD80001D01846F45412F0FF02F2D138601F4B8F
:104AE8005A69D00230D41D4A906901021DD5536914
:104AF8001B021AD51D4B1E4E1C681E4D336808E05C
:104B08000133282B28BF0023E95CD161D16A4F0506
:104B18001FD4A342F4D13360104B9A6922F40002E7
:104B28009A619A6942F480029A6141020AD50B4B54
:104B38005A69520206D5104A002111709A6922F466
:104B480080029A61F0BC70475A6942F480125A6137
:104B5800C9E7A3423360E8D1DEE700BF00C01840D0
:104B6800308000202C800020348000202880002005
:104B7800248000207480002020800020F0B503AF3E
:104B88004DF804BD0E4600211546044602F0BDFF4F
:104B9800284640F2E24102F0BFFF304603F090F8A9
:104BA80040F290152146C2F22005002228463668B8
:104BB80003F050F8A81C2146002203F04BF8281DEA
:104BC8002146002203F046F8A81D2146002203F0E2
:104BD80041F805F108002146002203F03BF805F1F1
:104BE8000A002146002203F035F805F10C002146A1
:104BF800002203F02FF805F10E002146002203F0F1
:104C080029F805F110002146002203F023F805F1E8
:104C180012002146002203F01DF805F11400214678
:104C2800002203F017F805F116002146002203F0D0
:104C380011F805F118002146002203F00BF805F1E0
:104C48001A002146002203F005F805F11C00214650
:104C5800002202F0FFFF05F11E002146002202F0AB
:104C6800F9FF20684169890107D5416921F0007180
:104C78004161204602F03AFF20684169012221F093
:104C8800605141612068816962F30D31816120467C
:104C980002F02CFF2068416941F000714161204613
:104CA80002F024FF4FF480503060642030604FF4ED
:104CB800005070603068002809D4306800285CBF54
:104CC8003068002803D43068B0F1FF3FF2DC206878
:104CD8000122016962F302010161204602F006FF28
:104CE8002068416921F4E0514161204602F0FEFE4E
:104CF8002068816941F4402181612068416921F07F
:104D080000714161204602F0F1FE206840F6080576
:104D1800C2F220050022416941F4407141612846F0
:104D2800214602F097FFA81C2146002202F092FFBC
:104D3800281D2146002202F08DFFA81D21460022D1
:104D480002F088FF2068022640F2F0750022C2F2C5
:104D58002005816B66F3D84181632068816B41F43B
:104D6800802181632846214602F074FFA81C214651
:104D7800002202F06FFF281D2146002202F06AFF80
:104D8800A81D2146002202F065FF206840F6B825DC
:104D98000322C2F22005816966F30511816120684A
:104DA800816962F39C61816128462146002202F0F4
:104DB80051FFA81C2146002202F04CFF281D214665
:104DC800002202F047FFA81D2146002202F042FF00
:104DD80005F108002146002202F03CFF2068172256
:104DE80040F26425C2F22005C16962F30501C16180
:104DF80020680022C16941F04001C161284621466E
:104E080002F028FFA81C2146002202F023FF281DDB
:104E18002146002202F01EFFA81D2146002202F0B2
:104E280019FF05F108002146002202F013FF05F1E1
:104E38000A002146002202F00DFF05F10C00214670
:104E4800002202F007FF05F10E002146002202F0C1
:104E580001FF206840F6C225C2F220050322416AFC
:104E680041F0400141622068416A66F305014162F0
:104E78002846214602F0EEFEA81C2146032202F035
:104E8800E9FE281D2146032202F0E4FEA81D214662
:104E9800032202F0DFFE05F108002146032202F09A
:104EA800D9FE05F10A002146032202F0D3FE05F1DE
:104EB8000C002146032202F0CDFE05F10E0021462A
:104EC800032202F0C7FE05F110002146032202F07A
:104ED800C1FE05F112002146032202F0BBFE05F1D6
:104EE80014002146032202F0B5FE05F11600214602
:104EF800032202F0AFFE05F118002146032202F05A
:104F0800A9FE05F11A002146032202F0A3FE05F1CD
:104F18001C002146032202F09DFE05F11E002146D9
:104F2800032202F097FE05F120002146032202F039
:104F380091FE05F122002146032202F08BFE05F1C5
:104F480024002146032202F085FE05F126002146B1
:104F5800032202F07FFE05F128002146032202F019
:104F680079FE05F12A002146032202F073FE05F1BD
:104F78002C002146032202F06DFE05F12E00214689
:104F8800032202F067FE05F130002146032202F0F9
:104F980061FE05F132002146032202F05BFE05F1B5
:104FA8003400214603225DF804BBBDE8F04002F05E
:104FB80051BE7047F0B503AF2DE9000B8AB048F237
:104FC8009C06C2F20006306828B10AB0BDE8000BA2
:104FD800BDE8F040004749F200000021C4F20D008E
:104FE800C4F22E01039044F2C020C2F20000CDE9C1
:104FF80001118068062809D104A801A9012200F03E
:1050080077F8049800285DD1059D1BE000F0DAFED2
:1050180000F0D7FE04904BF27810C2F20000012293
:1050280000F21240BFF35F8FD0E84F1FC0E8432F54
:10503800002BF9D1BFF35F8F49B10DF1040999E84D
:105048003002BCBB35600AB0BDE8000BF0BD4BF2C6
:1050580078154FF48061C2F20005284613F06EFC03
:1050680005F025FC44F2C0218046C2F20001284622
:1050780002F0C9FB20B10DF1040999E8300214E0EF
:1050880001AA07AB07CA07C34BF2781207A804ABFB
:10509800C2F20002012100F07AF843F67B10C0F258
:1050A800000002F0BCFC05460024404605F00AFC5E
:1050B800002CC7D007A880E8300240F6A430C2F21E
:1050C800200007E004AA07AB07CA07C340F69430DC
:1050D800C2F2200040F62433009040F6F82007AAD8
:1050E800C2F22000C2F220032B2110F03AF9FEDEB2
:1050F800F0B503AF4DF8048D84B015460E4604464E
:1051080000F060FE00F05DFE00904BF27810C2F2F5
:105118000000012200F21240BFF35F8FD0E84F1F5A
:10512800C0E8432F002BF9D1BFF35F8F31B196E868
:10513800070007C404B05DF8048BF0BD4BF2781883
:105148004FF48061C2F20008404613F0F7FB96E87E
:10515800070001AB07C305F0AAFB0646404600F06E
:1051680050FD01A86B462946424600F010F843F668
:105178007B10C0F2000002F052FC0021C4E90010CC
:10518800304605F09FFB04B05DF8048BF0BDF0B528
:1051980003AF2DE90007C6B00E4601464BF23410A6
:1051A8000DF1080AC2F200001D46026048F2B00282
:1051B80049F2000301200090C2F20002C2F200038B
:1051C80050468DF8076000F09AF85046314604F0D2
:1051D80028F80DF10702504600212B464FF0000831
:1051E80000F006F951464BF200096CC9C2F20009F9
:1051F80009F10C006CC07CC97CC091E87C00494670
:105208007CC04FF480604022A9F804005046C9F8D9
:105218004480C9F80880C9F8008000F075F9BAE838
:105228007E004BF23810C2F200007EC09AE87E0081
:105238007EC0322002ACCDF812010220C4F2000078
:105248003CAACDF80E011020ADF80C0145F624005B
:10525800C2F2DD704946429009203F9040F6B430D2
:10526800C2F22000CDF800813E902046CDF8F080B3
:1052780000F041FA0C9D8121284604F02DF82846BB
:10528800012104F029F82846822104F025F828464F
:10529800022104F021F82846832104F01DF828464D
:1052A800032104F019F82846842104F015F828464B
:1052B800042104F011F82846852104F00DF8284649
:1052C800052104F009F82846862104F005F8284647
:1052D800062104F001F82846872103F0FDFF28463F
:1052E800072103F0F9FF4BF248002146C2F2000003
:1052F800E82214F0F0FA46B0BDE80007F0BDF0B5BA
:1053080003AF2DE9000F8DB01D4616460C468146A9
:1053180005F0F2FAD7F8088041F23810D4F800A066
:10532800D4F808B02C18BFF35F8F54E8000F40F092
:10533800004144E80012002AF7D1B0F1FF3FBFF363
:105348005F8F3DDD06F5C0700122BFF35F8FD0E8A7
:105358004F1FC0E8432F002BF9D1BFF35F8FD9BB94
:1053680030464FF4C07104F006FECDE903AB0DF1F1
:10537800040B05F586530622CDE901014FF0000A1A
:1053880058464146CDE9082305F58053ADF830A0CD
:105398000B940A920793CDE9055202F0B7FCBBE8DB
:1053A8007E0009F104007EC09BE87E007EC00120DB
:1053B80089F83400C9F800A00DB0BDE8000FF0BDB1
:1053C80040F6F06040F68472C2F22000C2F2200279
:1053D8001F210FF0E1FEFEDE40F2701040F67472FD
:1053E800C2F22000C2F2200220210FF0D5FEFEDE1C
:1053F800F0B503AF2DE9000784B0044690F83400F7
:105408001D4691460E4680B32068002869D14FF0AA
:10541800FF303146206004F10C0003F0F1FD01AECD
:10542800CDE90101D5F80080304699F8005003F025
:10543800FEFD304603F043FE002D18BF012530461F
:10544800294603F048FE3046012103F008FE3046A5
:10545800414603F012FE304603F0F5FD20680130A6
:10546800206004B0BDE80007F0BD05F040FA8046B2
:1054780005F02DFA05F040FA206890BB4FF0FF3098
:105488003146206004F10C0003F0BAFD01AECDE90D
:105498000101D5F800A0304699F8005003F0C7FD87
:1054A800304603F00CFE002D18BF01253046294672
:1054B80003F011FE3046012103F0D1FD304651467C
:1054C80003F0DBFD304603F0BEFD206801302060AC
:1054D8005FEAC87008BF05F0FCF904B0BDE8000732
:1054E800F0BD40F6304040F6C033C2F2200003AAB7
:1054F800009040F25420C2F22000C2F22003102192
:105508000FF02FFFFEDE7047F0B503AF2DE9000F57
:1055180087B004460868002840F0A78091F804B0D6
:10552800002008600E460BF1010008718868002809
:1055380040F096804FF0FF3006F10C059146B060C0
:10554800FF20082103220290CDE90021284680216E
:10555800002204F0AAF88A46B168C00701F10101E7
:10556800B16040F09480306800287ED196F80480BD
:1055780000200029306008F10102327170D14FF02B
:10558800FF310022B1600221CDE90019002102900B
:10559800284604F08AF8B268C00702F10102B26036
:1055A80040F08A80002A04915AD14FF0FF30002140
:1055B800B0600220CDE9000928460291802100222E
:1055C80004F073F8C00701BFB0680130B06084F818
:1055D8002CB001BF4FF40070A4F8270084F82610FF
:1055E800A4F8249001BF06F14401216284F82D80BB
:1055F80040F2FF3201BFA4F80F2084F80EA0082261
:10560800A28101BFA160A4F81B000498A07601BF85
:10561800A4F8189061610020E08501BFA071A28004
:105628004FF4FA50206002BF07B0BDE8000FF0BD8C
:10563800B06840F6504307F8211CC2F2200301303D
:10564800B06040F6C040A7F12102C2F220000090ED
:1056580040F64040C2F220000F210FF082FEFEDE2D
:1056680040F66450C2F2200003E040F6A450C2F2B3
:10567800200040F6F443009040F2542006AAC2F2FB
:105688002000C2F2200310210FF06BFEFEDE40F670
:10569800D04040F65043C2F22000A7F12302009008
:1056A80040F64040C2F22000C2F2200307F823ACC3
:1056B8000F210FF056FEFEDE40F6C04040F6504384
:1056C800C2F2200007F8221C009040F64040C2F2C7
:1056D8002000C2F22003A7F122020F210FF041FEA1
:1056E800FEDE7047084640F6E041C2F22001122271
:1056F80011F0C4B87047F0B503AF2DE9000F85B0BD
:1057080004468868002878D192F821B04FF0FF301D
:1057180001F10C058860002090460E46CDE9000B8B
:105728000290284600210122002303F0BEFF89468B
:10573800B168C00701F10101B16063D100295CD1F2
:105748004FF0FF308021B0600020CDE9000B01222E
:1057580002902846802303F0A8FF8A46B168C00754
:1057680001F10101B1605FD13068002871D14FF0BB
:10577800FF300029306071D1B060284604F020F86D
:10578800B0680130B0606ED34FF0FF308021B06058
:1057980004F12C00BFF35F8F7564BFF35F8F13F0C4
:1057A800CDF84FF0000C06F14401A4F8D4C0A4F8D9
:1057B800CFC084F8CEA0A4F8CCB0C4F8C810C4F800
:1057C800BC102146A4F8C3C084F8C290A4F8C0B0A5
:1057D800C4E92DCCC4F8ACC0A562B8E86D006DC1B1
:1057E80098E86D006DC14FF4806084F8E4C0C4F897
:1057F800E00005B0BDE8000FF0BD40F66450C2F20D
:10580800200034E040F6286040F6B453C2F220008D
:10581800A7F12202009040F2F000C2F22000C2F28A
:10582800200307F8229C10E040F6386040F6B45395
:10583800C2F2200007F821AC009040F2F000C2F25A
:105848002000C2F22003A7F1210220210FF089FDD8
:10585800FEDE40F67450C2F2200008E040F68450A4
:10586800C2F2200003E040F69450C2F2200040F655
:10587800F443009040F2542004AAC2F22000C2F27D
:10588800200310210FF06DFDFEDE7047F0B503AF69
:105898002DE9000F81B048F2A0014FF0010CC2F2CF
:1058A8000001BFF35F8FD1E84F2FC1E843CF002B32
:1058B800F9D1BFF35F8F002A01BF48F20001C4F29B
:1058C8000D010022C4F22F0201BF02F5542C02F58B
:1058D800502E02F54C28A1F5004401BFA1F5003572
:1058E80001F5F61601F5F413C0E9683601BFC0E901
:1058F8006A54C0E96C8EC0E96EC101F5005E01BF53
:1059080001F5805640F2040CC4F22E0C01F5021485
:1059180001BF0CF5FE7501F5004300F5C07888E875
:10592800380001BF00F5C67383E81210C0E9666E3F
:10593800A1F5404C01BF01F5881E01F5861801F557
:10594800841401F5821301BF01F5003602F5102514
:10595800C0E9585600F5B47501BF85E81A41C0F88A
:105968007CC1A1F5804C02F51C2E01BF02F5182858
:1059780002F51424A1F5E03301F5282601BF01F54D
:10598800EE15C0E9505600F5A47585E8184101BF29
:10599800C0E9562C02F5782802F5742902F570241E
:1059A80001BF02F56C234CF2000CC4F2070C0CF595
:1059B800004601BF01F5E03E01F58E15C0E9485EDD
:1059C800C0E94A6101BF00F5987585E81802C0F87A
:1059D8003C8101F5482801BF01F5442901F5402A19
:1059E80001F53C2B01F5382301BF01F5342401F5FD
:1059F800302501F52C26C0E9406501BFC0E94243C6
:105A0800C0E944BAC0E9469802F5302801BF02F55A
:105A18002C2902F5282A02F5242B02F5861301BF4A
:105A280002F5841402F5821502F58016C0E938657E
:105A380001BFC0E93A43C0E93CBAC0E93E9801F564
:105A4800F01801BF01F59219A1F5503AA1F5403BB4
:105A5800A1F5303301BF01F5901401F58C1501F55E
:105A68008A16C0E9306501BFC0E93243C0E934BADB
:105A7800C0E9369844F2000B01BFC4F2002B0BF5C5
:105A880000490BF5804A4FF0844801BF01F56C26A8
:105A980001F5682401F56425A1F5C03301BFC0E90B
:105AA800283500F1A80383E85009C0E92EA901BFF1
:105AB80001F5602801F5E61901F5E81AA1F5203687
:105AC80001BF0BF5E03301F5582401F55425C0E971
:105AD800205401BF00F1880484E84804C0E9259EE9
:105AE800C0F89C8001BFA1F5103E01F5FE1801F534
:105AF800001902F5642A01BF02F5602302F55C264D
:105B080002F5582501F5A03401BF00F1600B8BE8C0
:105B18007000C0E91B3AC0E91D9801BFC0F87CE0DD
:105B280001F5803E02F540480CF5804901BF01F5BA
:105B3800804A01F5F21344F20806C4F2090601BFCF
:105B480006F1100506F10804C0E91064C0E9125313
:105B580001BFC0E914A9C0E9168E0CF5C03E01F5D5
:105B6800103801BF01F5801901F57C2401F578236F
:105B780002F57C2601BF02F54825C0E9085600F168
:105B8800280585E8180201BFC0E90D81C0F83CE08E
:105B980002F5442E02F50C2601BF01F5D21501F5D8
:105BA800242402F54022A1F5803301BFA1F5A031DC
:105BB800C0E90013C0E9022C103001BF80E8704032
:105BC80001B0BDE8000FF0BD40F6486040F6E06265
:105BD800C2F22000C2F2200235210FF010FBFEDED7
:105BE800016848F24810C4F21F000523026863F3F5
:105BF80003020260486840F00800486003207047CC
:105C0800FEE748F2A401C2F2000188600120BFF358
:105C18005F8F08707047006810F0A5B80A46D0E991
:105C28000031184610F014BF7047F0B503AF2DE9E6
:105C3800000B84B040F694704BF230184BF24805D4
:105C4800C2F220000390C2F2000808F10800C2F274
:105C5800000502A902902846012200F017FB04461D
:105C6800A86A002101F0F7F8064695F8E21098F8BE
:105C78000000022933D148B9A86A03F0D5FCA86A04
:105C8800002101F060F9012088F80000D8F81C0014
:105C98000168BFF35F8F002900F08780002098F823
:105CA800222040F6C873009002A8C2F220033443B1
:105CB80003F027FF7CB1D8F804000122BFF35F8FFF
:105CC80000F58264D4E84F1FC4E8432F002BF9D1B4
:105CD800BFF35F8F79B104B0BDE8000BF0BD18B118
:105CE800A86A002101F08FF9002088F8000004B0AC
:105CF800BDE8000BF0BDD0F80014BFF35F8FD0F8FB
:105D08000824BFF35F8FD0F8043400F20445BFF3D2
:105D18005F8F934205D199423EBFBFF35F8F002347
:105D28002B60994228BF0A469A4236D0D8F82810E4
:105D38000968BFF35F8FC1B3A2EB030998F82E205F
:105D4800034402A84E46B9F1400F28BF40260096EA
:105D580003F01CFE9DF8080068B12078BFF35F8F40
:105D68000028B8D0BFF35F8F55E8000F45E8000161
:105D78000029F9D111E003982178BFF35F8F00293A
:105D8800A9D0814538BF4846BFF35F8F55E8001F4B
:105D9800014445E80012002AF8D10020BFF35F8FC4
:105DA800207004B0BDE8000BF0BD41F21C3041F298
:105DB800A432C2F22000C2F2200222210FF01FFA00
:105DC800FEDE70474FF47A607047F0B503AF2DE9F7
:105DD800000F81B000F12C0B1E4690468946824682
:105DE800D4000D466CB1F5E8020132464B6A5946BB
:105DF8009847BAF8D400083C00F00D000428F1D008
:105E080033E0707AA8B3BAF8D40000F00D00042883
:105E18002BD1DAF8BC000921AAF8D4100068BFF326
:105E28005F8FB0B19AF8C210012203F025FFDAF8AB
:105E3800C8000068BFF35F8F00281FBF9AF8CE1014
:105E4800012201B0BDE8000F1CBFBDE8F04003F01F
:105E580013BF41F21C3041F2A432C2F22000C2F258
:105E6800200222210FF0CBF9FEDE01B0BDE8000FC1
:105E7800F0BD317AB079022921D0012933D0002927
:105E8800C1D1002858D0062875D0082804BFBAF810
:105E9800D4000428B7D19AF8E2000121AAF8D41056
:105EA80000220238BAF8DA10B0FA80F0002918BFD8
:105EB80001214009CAE92D218AF82C0057E0002861
:105EC800A1D17188DAF8280001F08F0103F055FF9D
:105ED800BAF8D410042996D1AAF82C000120AAF8FF
:105EE800D40000201EE090B10A2804BFBAF8D400FC
:105EF80004287FF488AFBAF8DA10002001228AF863
:105F08002C00AAF8D420002918BF01210FE0BAF804
:105F1800D40004287FF477AF00200121AAF82C00D0
:105F2800AAF8D410BAF8DA10022928BF0221CAF850
:105F3800B400CAF8B8101AE0BAF8D40004287FF4FC
:105F480062AFBAF8DA3001229AF8E300AAF8D4204E
:105F580000229AF8E410022B28BF0223CAE92D2355
:105F6800002818BF012041EA4000AAF82C00584632
:105F780000F025FC47E75046494642465B460096F6
:105F880000F0D6F83FE7D4D4F0B503AF2DE9000B05
:105F980084B000F12C0699460C468046D5006DB1B8
:105FA800F4E802014A460B6A31469847B8F8D4002B
:105FB800083D00F00D000428F1D02AE099F8090006
:105FC80058B3B8F8D40000F00D00042821D1D8F84F
:105FD800BC000921A8F8D4100068BFF35F8F00281F
:105FE80065D098F8C210012203F046FED8F8C80020
:105FF8000068BFF35F8F00281FBF98F8CE100122FA
:1060080004B0BDE8000B1CBFBDE8F04003F034BE8F
:106018004DE004B0BDE8000BF0BD99F8082099F8F0
:106028000600B9F800109AB1012A22D0022AC8D174
:10603800032848D0012808BF0029C2D1B9F80210A6
:106048000022D8F8280001F08F0103F015FE64E063
:1060580001380828B5D8DFE800F0060543054A05E9
:1060680005055400ADE70129ABD1002088F8E3000D
:1060780053E00B28A5D1002904BFB8F8D40006289E
:106088007FF49FAFD8F8C8000168BFF35F8F71B184
:1060980098F8CE20002041F25803009002A8C2F2DE
:1060A800200303F073FC0820A8F8D40089E741F224
:1060B8001C3041F2A432C2F22000C2F22002222196
:1060C8000FF09DF8FEDE00297FF47BAFB9F80210CF
:1060D8000122D8F8280001F08F0103F0CDFD1CE063
:1060E80001297FF46EAF012088F8E30015E0481E0F
:1060F80080B27F28BFF465AFD8F8280003F013FBFF
:1061080008E021B101297FF45CAF022003E098F890
:10611800E20038B1012088F8E2003046494600F034
:106128006DFE4EE73046494600F036FE49E7D4D4C6
:10613800F0B503AF2DE9000B88B00646B8681446E1
:106148000D4698460196018902684068ADF810101E
:10615800CDE9022002A803F0A2FF4FF0FF3252FA65
:1061680080F00E2800F26380DFE800F008101C6160
:10617800616161616161616161612A0001A94046F3
:1061880000F046FD08B0BDE8000BF0BD01A805A968
:1061980007904046CDE9055400F049FC08B0BDE839
:1061A800000BF0BDC8B2032813D8DFE800F00226C0
:1061B8002A3A404600F08BFD08B0BDE8000BF0BD60
:1061C80040462946224600F0ABFC08B0BDE8000B6B
:1061D800F0BD084603F044FF4CB38146BDF80A60A1
:1061E80005EBC404D5E9000132464B694946984796
:1061F80068B90835A542F5D119E0311D306828B9CC
:1062080015E006F10C010836306880B10968CDE95F
:10621800050105A9404600F0A9FB08B0BDE8000B40
:10622800F0BD06F11401103630680028EED1B8F838
:10623800A80000F00D000428A4D1D8F89000092186
:10624800A8F8A8100068BFF35F8F98B198F8961067
:10625800012203F011FDD8F89C000068BFF35F8F9E
:1062680040B198F8A210012203F006FD08B0BDE87D
:10627800000BF0BD41F21C3041F2A432C2F2200002
:10628800C2F2200222210EF0BAFFFEDEF0B503AF03
:106298002DE9000F8DB0846A064605A88846924607
:1062A800214603F021FE96F8E200BDF814500328B9
:1062B80016D1002D4FF0000018BF032D03D10DB0EB
:1062C800BDE8000FF0BD204603F00DFE96F8E10092
:1062D800042800F00681042186F8E20086F8E1101F
:1062E800DFE805F003082448030000200DB0BDE8EE
:1062F800000FF0BDB06A03F0A7FA4FF48060BAF15E
:10630800000FC6F8E0004FF00000A6F8D400ECD06B
:1063180008EBCA04A8F1080555F8080F69688969E7
:10632800884705F10800A042F6D1DEE7BDF816005F
:10633800BDF81810BDF81A200290084340EA020977
:10634800049103925FEAC97054D00498C0071CBF37
:1063580006F12C0000F096FA0398C00719D10298AC
:10636800C00720D104208DF825009DF825000428B9
:1063780022D13DE0B06A03F0B6FD96F8E2000321B1
:1063880086F8E21086F8E10000200DB0BDE8000FA5
:10639800F0BD06F12C0107A800F056F99DF825007C
:1063A800042809D124E006F12C0107A800F0A5F87B
:1063B8009DF8250004281BD09DF8230000287AD0DA
:1063C800802815D1DDE907010AABBDF82420CDE905
:1063D8000A013046ADF8302041465246FFF7F5FC39
:1063E80029F00109B9F1000FCDE9008A07D14DE084
:1063F80029F00109B9F1000FCDE9008A46D00199C9
:10640800002953D0009801264FF0020B00EBC10879
:10641800A0F1080503981BEA000F0BD02C4654F88E
:10642800080F61688A6A3146904704F108004045C0
:10643800F5D10EE002981BEA000F0AD02C4654F85A
:10644800080F6168CA6A3146904704F10800404560
:10645800F5D104981BEA000F0DD066F07F04AA4618
:106468005AF8080FDAF804100A6B214690470AF127
:1064780008004045F4D129EA0B095FEA094005D034
:10648800701C0F2E4FEA4B0B0646C3D3019969B116
:10649800009800EBC104A0F1080555F8080F6968D9
:1064A800C969884705F10800A042F6D101200DB05E
:1064B800BDE8000FF0BDDDE907010AABBDF82420F7
:1064C800CDE90A013046ADF8302041465246FFF783
:1064D8005BFD29F00109B9F1000FCDE9008A8ED1E1
:1064E800D4E740F6C87041F24802C2F22000C2F276
:1064F80020021C210EF050FEFEDEF0B503AF4DF871
:1065080004BD86B00446B1F8A8000D46411E032913
:106518002AD3052828D007283BD1D5F88800D5F8F4
:10652800AE30B5F8B2108128D5F8AA20ADF80C1015
:10653800CDE9012380F08080D5F890100968BFF379
:106548005F8F00296CD0C0F1800395F896200093E6
:106558002B1804A803F0D5FA9DF81000002849D09C
:106568009DF8110038BB3FE0D5F890000168BFF3F3
:106578005F8F002954D095F8962041F2580304A85B
:106588000026C2F22003009603F0BBFAA5F8A86023
:106598002AE0D5F890000168BFF35F8F00293FD04B
:1065A800002095F8962041F25803009004A8C2F202
:1065B800200303F0A6FAD5F890000921A5F8A81041
:1065C8000068BFF35F8F58B395F89610012203F067
:1065D80053FBD5F89C000068BFF35F8F00B395F8B4
:1065E800A210012203F048FB0420607206B05DF897
:1065F80004BBF0BD0598D5E922120844C5F8880007
:106608009042F1D3DDE901010623BDF80C20A5F87D
:10661800A83020606160228106B05DF804BBF0BD3F
:1066280041F21C3041F2A432C2F22000C2F2200230
:1066380022210EF0E4FDFEDE41F2C0028021C2F20A
:10664800200210F061FBFEDEF0B503AF2DE9000F6C
:1066580085B00446D1F890000D460168BFF35F8FFE
:10666800002900F09680802095F89620009002A8D6
:106678002B4603F046FA9DF8080018B19DF809006A
:1066880060B926E0039A812A80F08F8002A8294603
:1066980003F0E7FC9DF81100042820D1D5F89000FC
:1066A8000921A5F8A8100068BFF35F8F002870D0F3
:1066B80095F89610012203F0DFFAD5F89C000068DF
:1066C800BFF35F8F002864D095F8A210012203F071
:1066D800D3FA0420607205B0BDE8000FF0BDD5F80C
:1066E8009000BDF810A09DF80F609DF80E90BDF8C1
:1066F8000CB0DDF808800068BFF35F8F002848D031
:1067080095F89610002203F0B7FACEB10420A5F848
:10671800B2A085F8B16085F8B090A5F8AEB0C5F81C
:10672800AA80A5F8A800A4F808A0E67184F8069045
:10673800A4F804B0C4F8008005B0BDE8000FF0BDAF
:10674800BBF1000F13D0BBF1800FA7D800200721A1
:10675800A5F8B2A085F8B10085F8B090A5F8AEB05C
:10676800C5F8AA80A5F8A810C5E9220BB1E706204C
:10677800A4F808A0A5F8A8000020C5F88C00E071CE
:1067880084F80690A080C4F8008005B0BDE8000F2A
:10679800F0BD41F21C3041F2A432C2F22000C2F234
:1067A800200222210EF02BFDFEDE41F2D00310461E
:1067B800C2F2200380211A4610F0CBFAFEDEB0B5F3
:1067C80002AF84B00446D0E92051D0F88800D4F84C
:1067D8008CC0002DB4F8A030AE46ACEB000208BF68
:1067E800A6469A4238BF1346002D03EB000C08BF9B
:1067F80080219C4529D38C452FD8D4F89C10096852
:10680800BFF35F8F89B394F8A22000930EEB0003C7
:1068180002A803F0BBF89DF8080008B104B0B0BDA9
:106828000398D4E922120144C4F888109142F5D3A0
:106838000021B4F8A020C4F880100321904208BFBA
:106848000221A4F8A81004B0B0BD41F2E0026146EC
:10685800C2F2200210F0A2FAFEDE41F2E002604627
:10686800C2F2200210F075FAFEDE41F21C3041F24D
:10687800A432C2F22000C2F2200222210EF0BFFC94
:10688800FEDED4D4B0B502AF84B00446B0F8A80098
:10689800013807283AD8DFE800F0040B27393939DE
:1068A80039562046FFF78BFF0025284604B0B0BDB7
:1068B800D4F89C000168BFF35F8F00294AD094F890
:1068C800A22041F2580302A80025C2F22003009535
:1068D80003F05CF89DF80800002804BF0320A4F822
:1068E800A800284604B0B0BDD4F890000068BFF3F3
:1068F8005F8F78B394F896100022002503F0BCF956
:106908000520A4F8A800284604B0B0BDD4F890002B
:106918000921A4F8A8100068BFF35F8FD0B194F8DC
:106928009610012203F0A8F9D4F89C000068BFF380
:106938005F8F78B194F8A210012203F09DF9002529
:10694800284604B0B0BD00200125A4F8A8002846B8
:1069580004B0B0BD41F21C3041F2A432C2F22000B2
:10696800C2F2200222210EF04AFCFEDEF0B503AF8F
:106978002DE9000B88B00446B0F8A800042834D1EB
:10698800E846D1E90056404621468022B4F8AE9048
:1069980003F088FB40462946324603F0B7FDC0B2F3
:1069A80008281ED1684603F084FB802822D9D4F831
:1069B80090000921A4F8A8100068BFF35F8F50B3B6
:1069C80094F89610012203F057F9D4F89C00006857
:1069D800BFF35F8FF8B194F8A210012203F04CF9CD
:1069E800022008B0BDE8000BF0BD072008B0BDE8E4
:1069F800000BF0BD01214845A4F8A81038BF814616
:106A080000212046C4E92219FFF7D9FE082008B062
:106A1800BDE8000BF0BD41F21C3041F2A432C2F2D5
:106A28002000C2F2200222210EF0E9FBFEDEF0B5C2
:106A380003AF2DE9000788B08246B0F8A800042803
:106A48004CD16D46D1E900698C68284651468022B0
:106A5800BAF8AE8003F026FB2168284603F013FC41
:106A6800C0B2082836D1B9F1000F10D006EBC9041E
:106A78006D46D6E90001CA6829469047C0B2082881
:106A880028D1284603F068FC0836A642F1D16D46A5
:106A9800284603F064FC284603F00BFB802822D923
:106AA800DAF890000921AAF8A8100068BFF35F8FF0
:106AB80050B39AF89610012203F0DEF8DAF89C0039
:106AC8000068BFF35F8FF8B19AF8A210012203F0B3
:106AD800D3F8022008B0BDE80007F0BD072008B0D1
:106AE800BDE80007F0BD01214045AAF8A81038BF4D
:106AF800804600215046CAE92218FFF760FE0820A8
:106B080008B0BDE80007F0BD41F21C3041F2A432E4
:106B1800C2F22000C2F2200222210EF070FBFEDE3B
:106B2800F0B503AF2DE9000F8BB08346B0F8A8008D
:106B3800042825D1E94690460D4648465946802204
:106B4800BBF8AEA003F0AEFA08AE4946304603F0F3
:106B58009BFD304603F09CFDC0B208280CD108AE5E
:106B68004FEAC8048CB1F5E802010A69314690473A
:106B7800083CC0B20828F5D00BB0BDE8000FF0BD46
:106B880007200BB0BDE8000FF0BD08A803F054FEC5
:106B9800684603F08EFA80281DD9DBF89000092199
:106BA800ABF8A8100068BFF35F8F28B39BF8961066
:106BB800012203F061F8DBF89C000068BFF35F8FE7
:106BC800D0B19BF8A210012203F056F802200BB0B6
:106BD800BDE8000FF0BD01215045ABF8A81038BF43
:106BE800824600215846CBE9221AFFF7E8FD082023
:106BF8000BB0BDE8000FF0BD41F21C3041F2A432E9
:106C0800C2F22000C2F2200222210EF0F8FAFEDEC3
:106C1800F0B503AF4DF8048D88B00446B0F8A8006D
:106C2800042832D16E460D68304621468022B4F8D9
:106C3800AE8003F037FA3046294603F089FAC0B22D
:106C480008281ED1684603F034FA802822D9D4F8DF
:106C580090000921A4F8A8100068BFF35F8F50B313
:106C680094F89610012203F007F8D4F89C00006805
:106C7800BFF35F8FF8B194F8A210012202F0FCFF75
:106C8800022008B05DF8048BF0BD072008B05DF85D
:106C9800048BF0BD01214045A4F8A81038BF8046F8
:106CA80000212046C4E92218FFF789FD082008B012
:106CB8005DF8048BF0BD41F21C3041F2A432C2F2FF
:106CC8002000C2F2200222210EF099FAFEDEF0B571
:106CD80003AF4DF804BD8AB00446B0F8A8000428F4
:106CE80038D101AD21468022B4F8AE60284603F0C1
:106CF800D9F940F20940A7F1120227F8120C2846E8
:106D08000321022303F0D7F9C0B208281ED101A835
:106D180003F0CFF9802822D9D4F890000921A4F8EB
:106D2800A8100068BFF35F8F50B394F89610012243
:106D380002F0A2FFD4F89C000068BFF35F8FF8B19F
:106D480094F8A210012202F097FF02200AB05DF821
:106D580004BBF0BD07200AB05DF804BBF0BD0121FB
:106D6800B042A4F8A81038BF064600212046C4E95E
:106D78002216FFF724FD08200AB05DF804BBF0BD19
:106D880041F21C3041F2A432C2F22000C2F22002C9
:106D980022210EF034FAFEDED0B502AF0446B0F878
:106DA800A80000F00D0004281AD1D4F89000092199
:106DB800A4F8A8100068BFF35F8F98B194F89610F4
:106DC800012202F059FFD4F89C000068BFF35F8FDE
:106DD80040B194F8A210012202F04EFF0820D0BD65
:106DE8000720D0BD41F21C3041F2A432C2F220008B
:106DF800C2F2200222210EF002FAFEDED0B502AF66
:106E080084B00446B0F8A800062815D1D4F89C0030
:106E18000168BFF35F8F91B1002094F8A22041F27E
:106E28005803009002A8C2F2200302F0AFFD082028
:106E3800A4F8A80004B0D0BD072004B0D0BD41F22A
:106E48001C3041F2A432C2F22000C2F220022221F8
:106E58000EF0D5F9FEDEF0B503AF4DF804BD84B0F1
:106E6800044690F834000E46D8B12068002858D15E
:106E78004FF0FF31204640F80C1B314602F0C0F8B5
:106E8800CDE9010101A802F00AF960B301AD284675
:106E980002F015F9284602F002F90028F7D1012678
:106EA80026E003F024FD054603F011FD03F024FD60
:106EB8002068B0BB4FF0FF31204640F80C1B31462C
:106EC80002F09EF8CDE9010101A802F0E8F8B8B196
:106ED80001AE304602F0F3F8304602F0E0F8002840
:106EE800F7D1012611E001A802F097F880F0010619
:106EF800206801302060304604B05DF804BBF0BD66
:106F080001A802F08AF880F00106206801302060AC
:106F1800E80708BF03F0DDFC304604B05DF804BBA9
:106F2800F0BD41F2701041F20013C2F2200003AA32
:106F3800009040F25420C2F22000C2F22003102137
:106F48000EF00FFAFEDEF0B503AF4DF804BD84B0C5
:106F5800044690F834000E46E0B12068002840D17D
:106F68004FF0FF31204640F80C1B314602F048F83C
:106F7800CDE9010101A802F0C6F800281CBF0DF1F7
:106F8800040002F03EF820680130206004B05DF88B
:106F980004BBF0BD03F0ABFC054603F098FC03F01E
:106FA800ABFC2068E8B94FF0FF31204640F80C1BD5
:106FB800314602F025F8CDE9010101A802F0A3F855
:106FC80000281CBF0DF1040002F01BF820680130F6
:106FD8002060E80708BF03F07CFC04B05DF804BB40
:106FE800F0BD41F2701041F20013C2F2200003AA72
:106FF800009040F25420C2F22000C2F22003102177
:107008000EF0AFF9FEDEF0B503AF4DF804BD84B065
:10701800044690F834000D46A8B12068A0BB4FF094
:10702800FF302946206004F10C0001F0E9FFCDE9AA
:10703800010101A801F0FBFF20680130206004B0C5
:107048005DF804BBF0BD03F052FC064603F03FFCBC
:1070580003F052FC2068B8B94FF0FF302946206091
:1070680004F10C0001F0CCFFCDE9010101A801F009
:10707800DEFF206801302060F00708BF03F029FC1C
:1070880004B05DF804BBF0BD41F2701041F200138A
:10709800C2F2200003AA009040F25420C2F220005D
:1070A800C2F2200310210EF05CF9FEDE70470020CA
:1070B80070477047082070477047F0B503AF4DF828
:1070C800048D0546507A012802BF1646107A012819
:1070D80002D05DF8048BF0BD95F82C0088467488C2
:1070E80002F0BEFFC0B28442F3D1B079212804BFB8
:1070F800B088072830D0B8F8A80000F00D000428A0
:10710800E7D1D8F890000921A8F8A8100068BFF3C3
:107118005F8FA8B198F89610012202F0ADFDD8F85B
:107128009C000068BFF35F8F00281FBF98F8A2106B
:1071380001225DF8048BBDE8F04018BF02F09CBD49
:1071480041F21C3041F2A432C2F22000C2F2200205
:1071580022210EF054F8FEDEB8F8A8000428B8D1B1
:10716800B8F8AE00012329796A790728A8F8A83069
:10717800AB792E684FF00005C8F8006088F8043035
:1071880088F8052088F8061028BF0720C8E922508B
:1071980040465DF8048BBDE8F040FFF710BBF0B542
:1071A80003AF4DF8048D84B00546507A012802BF1C
:1071B8001646107A012803D004B05DF8048BF0BDA0
:1071C80095F82C008846748802F04AFFC0B28442C1
:1071D800F2D1B07988B1202814D0222847D130784C
:1071E800B8F8A81000F0010285F82E20C0F340007E
:1071F80085F82F000629DFD121E0B8F8A800062875
:10720800DAD11CE0D8F88C00812862D206282ED961
:1072180098F80400D8F80010296000F001FC98F8EC
:107228000510C0B2A871084600F0FFFB98F80620C8
:10723800C0B2B8F8A81068712A710629BCD1D8F86C
:107248009C000168BFF35F8FB9B398F8A2200020B3
:1072580041F25803009002A8C2F2200302F096FB04
:107268000820A8F8A80004B05DF8048BF0BDB8F8B1
:10727800A80000F00D0004289ED1D8F8900009213C
:10728800A8F8A8100068BFF35F8FB0B198F89610FF
:10729800012202F0F1FCD8F89C000068BFF35F8F70
:1072A80000281FBF98F8A210012204B05DF8048BD3
:1072B8001CBFBDE8F04002F0DFBC41F21C3041F2D7
:1072C800A432C2F22000C2F2200222210DF097FF60
:1072D800FEDE41F2F0028021C2F220020FF039FDF9
:1072E800FEDEF0B503AF2DE9000B84B090F82C60FA
:1072F800814600250220CDE900050C4608463146A6
:107308000222022303F03CF8C0B208286ED12046BE
:10731800314602220223009503F089F8C0B20828FA
:1073280064D141F280122046C2F2200224210323B4
:1073380002F0C1FEC0B2082858D141F2831220469B
:10734800C2F220022421022302F0B5FEC0B20828AE
:107358004CD1304602F084FE99F82D80064640460E
:1073680002F07EFE07F81C0C0620A7F11E0207F8A3
:107378001E0C20462421032307F81D6C02F09BFEF7
:10738800C0B2082832D1404602F06AFE07F8190C4C
:107398000120A7F11B0227F81B0C204624210323F8
:1073A80002F089FEC0B2082820D109F10801204660
:1073B80000F02FF8C0B2082818D1002041460090EC
:1073C80020460A22002303F032F8C0B208280DD163
:1073D80009F12001204600F01CF8C0B2082805D1A8
:1073E80009F11401204600F014F8C0B204B0BDE859
:1073F800000BF0BDD0B502AF82B00446684600F07D
:1074080019FBDDE90001C4E900010020E08502B0B4
:10741800D0BDF0B503AF4DF8048D8C46016981B33A
:10742800416843698B4249D20268D0F818E0D45CBD
:107438000134D4540EF102038B421ED80EF5807429
:10744800A14238BF0C469C4248D3E41A052C14D3F9
:107458009CF80640BCF80450D45413440EF10704B9
:107468009CF808608C429CF807805E704FEA1526ED
:107478009D7083F80480DE7007D902205DF8048BC4
:10748800F0BD07205DF8048BF0BD8E451ED20723A2
:1074980002F80E300EF101038B423FBF0521D15493
:1074A800846108203CBF5DF8048BF0BD41F20C22DA
:1074B800C2F2200218460DF0B9FEFEDE41F21C228F
:1074C800C2F2200218460DF0B1FEFEDE41F2FC12B7
:1074D8007046C2F220020DF0A9FEFEDE41F2EC1267
:1074E8001846C2F2200221460FF058FCFEDE704713
:1074F800F0B503AF4DF804BD84B000688029066874
:107508004FF00000029003D201248DF8081034E0F7
:10751800B1F5006F09D20224084664F39F108DF874
:107528000900C02040EA911025E002200A4660F3D5
:107538009F12B1F5803F0DD28DF80A208A0960F3B9
:107548009F12E02040EA11308DF809208DF80800DC
:10755800032412E08DF80B208A0960F39F128DF83E
:107568000A200A0B042460F39F12880C1E218DF850
:10757800092061F3DF008DF8080003F098F905464B
:107588003068B0B94FF0FF30321D306002A8214694
:1075980000F057F90446306801303060284603F09F
:1075A80091F9E0B2033818BF012004B05DF804BBBC
:1075B800F0BD41F2E42041F26C23C2F2200003AA9C
:1075C800009040F25420C2F22000C2F220031021A1
:1075D8000DF0C7FEFEDEF0B503AF4DF8048D88B0A0
:1075E800D0F800C002AA91E8714141F22C2113465B
:1075F800C2F2200183E8714101A8CDF804C00EF061
:10760800B7FB08B05DF8048BF0BDF0B503AF4DF8DB
:10761800048D82B0006815460E46046803F047F9E9
:1076280080462068B0B94FF0FF30221D20603046F8
:10763800294600F006F905462068013020604046DA
:1076480003F040F9E8B2033818BF012002B05DF832
:10765800048BF0BD41F2E42041F26C23C2F2200019
:1076680001AA009040F25420C2F22000C2F2200386
:1076780010210DF076FEFEDEF0B503AF2DE9000710
:107688004BF29052D1F80880C2F200021368B8EBAE
:10769800030218BF0122984538BF4FF0FF32531C30
:1076A8001CBFD2B2002A29D1C2685AB3806800250B
:1076B800D1E9009A02EB4201061D8C0005E00C3C62
:1076C80006F10C0605F1010518D030685045F6D1D1
:1076D80056F8040C4946524611F09AFD0028EED19E
:1076E800706800218045A0F10600B0FA80F098BFCC
:1076F800012140090843BDE80007F0BD0020BDE8AE
:107708000007F0BD0120BDE80007F0BDF0B503AFEC
:107718002DE9000F93B000904BF29050C2F2000098
