:0200000460009A
:100000004643464200000156000000000101020084
:1000100000000000000000000000000000000000E0
:1000200000000000000000000000000000000000D0
:1000300000000000000000000000000000000000C0
:1000400000000000010403000000000000000000A8
:100050000000200000000000000000000000000080
:100060000000000000000000000000000000000090
:100070000000000000000000000000000000000080
:10008000EB04180A063204260000000000000000FD
:10009000050404240000000000000000000000002F
:1000A0000000000000000000000000000000000050
:1000B0000604000000000000000000000000000036
:1000C0000000000000000000000000000000000030
:1000D00020041808000000000000000000000000DC
:1000E0000000000000000000000000000000000010
:1000F0000000000000000000000000000000000000
:1001000000000000000000000000000000000000EF
:100110000204180804200000000000000000000095
:1001200000000000000000000000000000000000CF
:10013000600400000000000000000000000000005B
:1001400000000000000000000000000000000000AF
:10015000000000000000000000000000000000009F
:10016000000000000000000000000000000000008F
:10017000000000000000000000000000000000007F
:10018000000000000000000000000000000000006F
:10019000000000000000000000000000000000005F
:1001A000000000000000000000000000000000004F
:1001B000000000000000000000000000000000003F
:1001C000000100000010000001000000000000001D
:1001D000000000000000000000000000000000001F
:1001E000000000000000000000000000000000000F
:1001F00000000000000000000000000000000000FF
:10020000D4D4D4D4D4D4D4D4D4D4D4D4D4D4D4D4AE
:10100000D10020400020006000000000000000002F
:1010100020100060001000600000000000000000D0
:101020000000006094B1000000000000EFBEADDEE3
:10103000124880F3088812481249016000F036F81F
:10104000114812490022814201D004C0FBE7104838
:101050001049114A814202D008CA08C0FAE70F4875
:101060004FF47001026842EA01020260BFF34F8F41
:10107000BFF36F8F00F014F800DE00000040002086
:1010800008ED00E000400020005000209485002082
:10109000B842002054440020A0B1006088ED00E078
:1010A00040F28F5CC0F2000C6047D4D41C4840F280
:1010B000924188420CBF1B4A1B4A1C4B5360136869
:1010C00023F0800313601A481A4901BF1A480A0C1A
:1010D0008264C1F30F014164016C41F004010164B9
:1010E0001648174A824205D01649814202D008CAE2
:1010F00008C0FAE71448154A824205D014498142D3
:1011000002D008CA08C0FAE71248134A824205D042
:101110001249814202D008CA08C0FAE770470000AD
:10112000240400000080034000C00B4020C528D9E3
:1011300000C00A40AAAAFAFF00400E4000000000CA
:10114000B82200604C7A00000040002000200060BF
:10115000B842002000002020109D00609014202044
:10116000D4D4D4D4D4D4D4D4D4D4D4D4D4D4D4D43F
:10117000D4D4D4D4D4D4D4D4D4D4D4D4D4D4D4D42F
:10118000D4D4D4D4D4D4D4D4D4D4D4D4D4D4D4D41F
:10119000D4D4D4D4D4D4D4D4D4D4D4D4D4D4D4D40F
:102000000040002031100060CD190000317A00003E
:10201000CD190000CD190000CD190000000000000E
:10202000000000000000000000000000CD190000CA
:10203000CD19000000000000CD190000CD190000EE
:10204000CD190000CD190000CD190000CD190000F8
:10205000CD190000CD190000CD190000CD190000E8
:10206000CD190000CD190000CD190000CD190000D8
:10207000CD190000CD190000CD190000CD190000C8
:10208000CD1900000000000000000000000000006A
:10209000CD190000CD190000CD190000CD190000A8
:1020A000CD190000CD190000CD190000CD19000098
:1020B000CD190000CD190000CD190000CD19000088
:1020C000CD190000CD190000CD190000CD19000078
:1020D000CD190000CD190000CD190000CD19000068
:1020E000CD190000CD190000CD190000CD19000058
:1020F000CD190000CD190000CD190000CD19000048
:10210000CD190000CD190000CD190000CD19000037
:1021100000000000CD19000000000000CD190000F3
:10212000CD190000CD190000CD190000CD19000017
:10213000CD190000CD19000000000000CD190000ED
:10214000CD190000CD190000CD190000CD190000F7
:10215000CD190000CD1900000000000000000000B3
:10216000CD190000CD190000CD190000CD190000D7
:10217000CD190000CD190000CD190000CD190000C7
:10218000CD190000CD190000CD190000CD190000B7
:10219000CD190000CD190000CD190000CD190000A7
:1021A000CD190000CD190000CD190000CD19000097
:1021B000CD190000CD190000CD190000CD19000087
:1021C000CD190000CD190000CD190000000000005D
:1021D000CD190000CD190000CD190000CD19000067
:1021E000CD190000CD190000CD190000CD19000057
:1021F000CD190000CD190000CD190000CD19000047
:10220000CD190000810D0000CD190000CD1900008E
:10221000CD190000CD190000CD190000CD19000026
:10222000CD190000CD190000CD190000CD19000016
:10223000CD190000CD190000CD19000000000000EC
:1022400000000000CD190000CD190000CD190000DC
:10225000CD190000CD190000CD190000CD190000E6
:10226000CD190000CD190000CD190000CD190000D6
:10227000CD190000CD190000CD190000CD190000C6
:10228000CD190000CD190000CD190000CD190000B6
:10229000CD190000CD190000CD190000CD190000A6
:1022A000CD190000CD190000CD190000000000007C
:0822B000CD190000CD1900005A
:1022B8007047F0B503AF2DE9000782B0D0E9009070
:1022C8000D460021802D019102D28DF804503AE08C
:1022D80002212A46B5F5006F0DD261F39F12C02185
:1022E80041EA95118DF805208DF804104FF000088B
:1022F8004FF0010A2BE061F39F12B5F5803F10D231
:102308008DF80620AA0961F39F12E02141EA1531F0
:102318008DF805208DF804104FF001084FF0000AE1
:1023280015E08DF80720AA0961F39F128DF80620A1
:102338002A0B61F39F128DF80520A90C1E2262F367
:10234800DF018DF804104FF0000A4FF000089DF8E7
:102358000460C46848463146A0470028FAD1802D59
:102368001AD39DF8055048462946A0470028FAD1B7
:10237800BAF1000F10D19DF8065048462946A047EB
:102388000028FAD1B8F1000F06D19DF80750484649
:102398002946A0470028FAD1002002B0BDE800076E
:1023A800F0BDF0B503AF2DE9000B88B0D0E900CE41
:1023B80002AA91E8710340F200011346C2F220011B
:1023C80083E871036846CDE900CE06F0E7FC08B063
:1023D800BDE8000BF0BDF0B503AF2DE9000B82B1ED
:1023E800D0E90050894601EB0208C46899F80060FA
:1023F80028463146A0470028FAD109F10109C1450C
:10240800F4D10020BDE8000BF0BD80B56F4601682F
:102418004869896A03F008FD00F40000012181EA97
:10242800D05080BDB0B502AF05680C466869A96A8E
:1024380003F0FAFC010200F4000044BFE1B2E961D4
:10244800012181EAD050B0BDF0B503AF2DE9000FEE
:10245800ADF5177D11AD04464FF4E072284607F03C
:1024680075FA05F1340005F1380105F1540200F060
:10247800A1FB439803F04EFD5B98016841F0010110
:1024880001605B98016821F002010160419E002112
:10249800C0F80811C0F81811C0F82811C4E9800064
:1024A800C4E98200C0F83811306820F001003060BB
:1024B800306840F4004030603068000409D5306866
:1024C800000444BF30685FEA004002D53068000469
:1024D800F2D43F20B060306820F001003060DDF8B1
:1024E8000881D8F8000020F00100C8F80000D8F8EA
:1024F800000040F40040C8F80000D8F800000004CC
:102508000CD5D8F80000000444BFD8F800005FEAF2
:10251800004003D5D8F800000004EED43F20C8F8E6
:102528000800D8F8000020F00100C8F800006898FA
:1025380003F0F1FCDDF84490CDE90F1040F263415F
:10254800D9F8480040F00100C9F84800D9F844001B
:102558000843C9F84400D9F84400012161F3830015
:10256800C9F84400D9F8440020F08000C9F84400B4
:10257800D9F8480040F02000C9F84800D9F84400CC
:1025880040F44040C9F84400D9F8440040F444708D
:10259800C9F84400D9F8480040F08000C9F848005C
:1025A800D9F8580000070CD0D9F8580000071CBF0C
:1025B800D9F858005FEA007003D0D9F8580000072E
:1025C800EED1D9F8480040F2634140F02000C9F844
:1025D8004800D9F8440020F44040C9F84400D9F82C
:1025E8004400DDF848A020F4447000F58870C9F86C
:1025F8004400DAF8480040F00100CAF84800DAF868
:1026080044000843CAF84400DAF84400012161F3A1
:102618008300CAF84400DAF8440020F08000CAF8C1
:102628004400DAF8480040F02000CAF84800DAF818
:10263800440040F44040CAF84400DAF8440040F44A
:102648004470CAF84400DAF8480040F08000CAF83C
:102658004800DAF8580000070CD0DAF858000007EC
:102668001CBFDAF858005FEA007003D0DAF85800A7
:102678000007EED1DAF8480040F02000CAF8480018
:10268800DAF8440020F44040CAF84400DAF844007C
:1026980020F4447000F58870CAF84400DDF8C0B131
:1026A80003F0C7FA054603F0C6FA034681A859465F
:1026B8002A4603F0C2FA6B9993A84FF4805203F0AC
:1026C80030FC38980C903A980B9077980E90759843
:1026D8000D9072980A903C98DDE9281209903B9871
:1026E8000890204603F0EBFB5D994FF470420F23EE
:1026F80001F59070C4F8D00201F1C000C4F8CC0212
:1027080001F16000C4F8C802C4E9B011A1F88C2135
:10271800A1F88E311E9804901F9803904998029052
:10272800589807905398069052980590549801909D
:102738005E98DDF898B000F59075C4F8E45200F1A1
:10274800C005DDF858E1DDF840C14B99C4F8E05206
:10275800A0F88C21C4E9B500A0F88E316030C4F827
:10276800DC025F9800F1C005C4F8F45200F160057E
:10277800C4F8F05200F59075C4F8F852A0F88C210E
:10278800C4E9BA00A0F88E31609800F16005C4F879
:10279800045300F1C005C4F80853A0F88C2100F5D3
:1027A8009072C4F80C2304F52872C4E9BF00A0F89D
:1027B8008E310498C4F894020398C4E9A60B0298D1
:1027C800C4E9C49A82E8035004F51B7148220198B1
:1027D800C4F8B0020598C4F8B4020698C4F8B80260
:1027E8000798C4F8BC020F98C4F86802109881E8EA
:1027F800410181A90C98C4F878020B98C4F87C02AE
:102808000898C4F880020998C4F884020A98C4F8A1
:1028180088020D98C4F88C020E98C4F8900204F54A
:10282800087007F093F893AB04F5047C0FCB8CE8A1
:102838000F000DF5177DBDE8000FF0BD704780B59E
:102848006F4600F001F8FEDE80B56F46ADF5A06D6D
:10285800CCAC204601F058F806A82146FFF7F4FD55
:10286800A8AB06AEA5980DF1080C0ECB0590304626
:10287800A29DB39C8CE80E0000F0B8FB02A930467C
:1028880000F0B9FB05A801F0E9F901918146286833
:1028980040F2E73102224FF0010820F001002860E1
:1028A800686861F30B006860286820F4B8608030BD
:1028B8002860286820F001002860A86840F02000FF
:1028C800A860E86820F02000E860286820F400701C
:1028D8002860286840F002002860A86840F00100DD
:1028E800A860E86820F00100E860A86840F00200ED
:1028F800A860E86820F00200E860A86840F00400DA
:10290800A860E86820F00400E86048F20410C4F207
:102918001F00016862F303010160016821F01001E2
:10292800016048F23051C4F21F01C1F800804168CB
:1029380062F303014160416821F010014160C0F871
:1029480028840020A2604FF4E131A060A06940F41F
:102958004020A061A669A06920F44020A061A06A77
:1029680040F48040A062A06A40F40040A06206A83B
:1029780000F016F9DDE9060141F6FF72914238BF11
:102988000A4621694EF20003CEF2FD03202801EA2F
:102998000301A7F10C0A41EA02019DF8202028BF93
:1029A8002020042898BF04204FF4FA7B41EA4241D2
:1029B8004FF0F85202EB006000F0F8500843206135
:1029C800A069B10C47F28F5661F39340A06109F0FA
:1029D8001F0047F8104C40F20004C0F2000608FA45
:1029E80000F9C2F2200400200AE0A86840F00100C3
:1029F800A860286820F00100286057F80C0C013006
:102A08000199C1F88C9047F80C0C48F29050C2F22A
:102A180000000068022817D940F2540040F27402FE
:102A2800C2F2200003210890CCA80A90002006904A
:102A380006A8C2F220020023CDF82480CDF82C800D
:102A4800CDE9CCA603F0A2F840F2180006AAC2F21B
:102A580020002146CD90A7F11000CC90A7F10800E6
:102A68000A900220099040F2BC00C2F2200047E917
:102A780002A6089000200690CCA8CDF82C8006F07D
:102A88008DF9C5F810B0286840F001002860A868E2
:102A9800C007AAD1A868C00704BFA8685FEAC070C9
:102AA800A3D1A868C007F2D09FE780B56F4600F0B1
:102AB80001F8FEDE80B56F4648F248100521C4F2E1
:102AC8001F004FF2800301603821C0F8F0114CF26A
:102AD8006C00C4F20A004DF2801E01684AF2003C04
:102AE800C0F2FA23C0F6F00E21F0080101604CF2A2
:102AF8008400C1F2E11CC4F21B0050F8801C41F0B4
:102B0800080140F8801C082101601A46013AFDD1ED
:102B180041601A46013AFDD101601A46013AFDD1D9
:102B280041601A46013AFDD101601A46013AFDD1C9
:102B380041601A46013AFDD101607246013AFDD161
:102B480041607246013AFDD101607246013AFDD1F9
:102B580041607246013AFDD101607246013AFDD1E9
:102B680041607246013AFDD101601A46013AFDD131
:102B780041601A46013AFDD101601A46013AFDD179
:102B880041601A46013AFDD101601A46013AFDD169
:102B980041601A46013AFDD16246013AFDD1B3E7D8
:102BA80080B56F460A4641F20021C0F27A0103F06F
:102BB80094F880BDF0B503AF4DF804BD0E46002172
:102BC8001546044603F047F9284640F2E24103F06F
:102BD80049F9304603F01AFA40F22C152146C2F2A0
:102BE800200500222846366803F0DAF9A81C214699
:102BF800002203F0D5F9281D2146002203F0D0F960
:102C0800A81D2146002203F0CBF905F10800214652
:102C1800002203F0C5F905F10A002146002203F05D
:102C2800BFF905F10C002146002203F0B9F905F1BE
:102C38000E002146002203F0B3F905F110002146E9
:102C4800002203F0ADF905F112002146002203F03D
:102C5800A7F905F114002146002203F0A1F905F1B6
:102C680016002146002203F09BF905F118002146C1
:102C7800002203F095F905F11A002146002203F01D
:102C88008FF905F11C002146002203F089F905F1AE
:102C98001E002146002203F083F92068416989015A
:102CA80007D5416921F000714161204603F0C4F85D
:102CB80020684169012221F06051416120688169E1
:102CC80062F30D318161204603F0B6F8206841694E
:102CD80041F000714161204603F0AEF84FF4805096
:102CE8003060642030604FF4005070603068002815
:102CF80009D4306800285CBF3068002803D43068E5
:102D0800B0F1FF3FF2DC20680122016962F30201A1
:102D18000161204603F090F82068416921F4E051F0
:102D28004161204603F088F82068816941F4402118
:102D380081612068416921F000714161204603F0FA
:102D48007BF8206840F2BE15C2F2200500224169D6
:102D580041F4407141612846214603F021F9A81C3D
:102D68002146002203F01CF9281D2146002203F009
:102D780017F9A81D2146002203F012F9206802263F
:102D880040F2B6150022C2F22005816B66F3D841E5
:102D980081632068816B41F4802181632846214644
:102DA80003F0FEF8A81C2146002203F0F9F8281DBC
:102DB8002146002203F0F4F8A81D2146002203F062
:102DC800EFF8206840F26C150322C2F220058169F1
:102DD80066F3051181612068816962F39C618161F4
:102DE80028462146002203F0DBF8A81C21460022D1
:102DF80003F0D6F8281D2146002203F0D1F8A81DBB
:102E08002146002203F0CCF805F1080021460022F3
:102E180003F0C6F82068172240F29615C2F2200582
:102E2800C16962F30501C16120680022C16941F0EE
:102E38004001C1612846214603F0B2F8A81C21468A
:102E4800002203F0ADF8281D2146002203F0A8F85F
:102E5800A81D2146002203F0A3F805F10800214629
:102E6800002203F09DF805F10A002146002203F034
:102E780097F805F10C002146002203F091F805F1BE
:102E88000E002146002203F08BF8206840F2C61598
:102E9800C2F220050322416A41F0400141622068E4
:102EA800416A66F3050141622846214603F078F835
:102EB800A81C2146032203F073F8281D214603228B
:102EC80003F06EF8A81D2146032203F069F805F106
:102ED80008002146032203F063F805F10A002146A1
:102EE800032203F05DF805F10C002146032203F0EC
:102EF80057F805F10E002146032203F051F805F1B9
:102F080010002146032203F04BF805F11200214678
:102F1800032203F045F805F114002146032203F0CB
:102F28003FF805F116002146032203F039F805F1B0
:102F380018002146032203F033F805F11A00214650
:102F4800032203F02DF805F11C002146032203F0AB
:102F580027F805F11E002146032203F021F805F1A8
:102F680020002146032203F01BF805F12200214628
:102F7800032203F015F805F124002146032203F08B
:102F88000FF805F126002146032203F009F805F1A0
:102F980028002146032203F003F805F12A00214600
:102FA800032202F0FDFF05F12C002146032202F066
:102FB800F7FF05F12E002146032202F0F1FF05F18B
:102FC80030002146032202F0EBFF05F132002146D2
:102FD800032202F0E5FF05F13400214603225DF8E3
:102FE80004BBBDE8F04002F0DBBF704780B56F4618
:102FF80000F058FE80BD80B56F464EF20C1C4FF4B1
:10300800003ECEF2000C44F2B822CCF880E0C2F2C6
:103018000002BFF35F8FD0E900318068C2E9003158
:103028009060BFF35F8FCCF800E1CCF800E080BD82
:10303800F0B503AF2DE9000B8AB045F20006C2F2E5
:103048000006306828B10AB0BDE8000BBDE8F040C2
:10305800004749F200000021C4F20D00C4F22E011D
:10306800039044F2B820C2F20000CDE90111806853
:10307800062809D104A801A9012200F077F80498CC
:1030880000285DD1059D1BE000F0E4FE00F0E1FEA4
:10309800049048F27810C2F20000012200F21240B7
:1030A800BFF35F8FD0E84F1FC0E8432F002BF9D143
:1030B800BFF35F8F49B10DF1040999E83002BCBB39
:1030C80035600AB0BDE8000BF0BD48F278154FF442
:1030D8008061C2F20005284606F063FD05F08DFD0B
:1030E80044F2B8218046C2F20001284602F0D3FB20
:1030F80020B10DF1040999E8300214E001AA07ABE8
:1031080007CA07C348F2781207A804ABC2F2000244
:10311800012100F07AF841F60B20C0F2000002F01D
:10312800C6FC05460024404605F072FD002CC7D0B9
:1031380007A880E8300240F2A820C2F2200007E089
:1031480004AA07AB07CA07C340F29820C2F22000BE
:1031580040F22823009040F2FC1007AAC2F2200097
:10316800C2F220032B2105F0EEFDFEDEF0B503AF21
:103178004DF8048D84B015460E46044600F06AFEEC
:1031880000F067FE009048F27810C2F200000122B9
:1031980000F21240BFF35F8FD0E84F1FC0E8432F03
:1031A800002BF9D1BFF35F8F31B196E8070007C450
:1031B80004B05DF8048BF0BD48F278184FF48061D4
:1031C800C2F20008404606F0ECFC96E8070001ABA6
:1031D80007C305F012FD0646404600F050FD01A861
:1031E8006B462946424600F010F841F60B20C0F223
:1031F800000002F05CFC0021C4E90010304605F034
:1032080007FD04B05DF8048BF0BDF0B503AF2DE900
:103218000007C6B00E46014648F234100DF1080A00
:10322800C2F200001D46026045F2140246F2000395
:1032380001200090C2F20002C2F2000350468DF84D
:10324800076000F09AF85046314604F090F90DF105
:103258000702504600212B464FF0000800F006F9FF
:10326800514648F200096CC9C2F2000909F10C0084
:103278006CC07CC97CC091E87C0049467CC04FF496
:1032880080604022A9F804005046C9F84480C9F873
:103298000880C9F8008000F075F9BAE87E0048F2A5
:1032A8003810C2F200007EC09AE87E007EC032204C
:1032B80002ACCDF812010220C4F200003CAACDF8FD
:1032C8000E011020ADF80C0145F62400C2F2DD70A5
:1032D8004946429009203F9040F2B820C2F22000AF
:1032E800CDF800813E902046CDF8F08000F041FAFC
:1032F8000C9D8121284604F095F92846012104F007
:1033080091F92846822104F08DF92846022104F01B
:1033180089F92846832104F085F92846032104F019
:1033280081F92846842104F07DF92846042104F017
:1033380079F92846852104F075F92846052104F015
:1033480071F92846862104F06DF92846062104F013
:1033580069F92846872104F065F92846072104F011
:1033680061F948F248002146C2F20000E82206F05E
:10337800EDFA46B0BDE80007F0BDF0B503AF2DE9A2
:10338800000F8DB01D4616460C46814605F052FCCE
:10339800D7F8088041F23810D4F800A0D4F808B063
:1033A8002C18BFF35F8F54E8000F40F0004144E849
:1033B8000012002AF7D1B0F1FF3FBFF35F8F3DDD68
:1033C80006F5C0700122BFF35F8FD0E84F1FC0E839
:1033D800432F002BF9D1BFF35F8FD9BB30464FF491
:1033E800C07104F06EFFCDE903AB0DF1040B05F5D8
:1033F80086530622CDE901014FF0000A584641469E
:10340800CDE9082305F58053ADF830A00B940A9256
:103418000793CDE9055202F01FFEBBE87E0009F1D3
:1034280004007EC09BE87E007EC0012089F834003D
:10343800C9F800A00DB0BDE8000FF0BD40F2E050A3
:1034480040F27062C2F22000C2F220021F2105F091
:1034580010FCFEDE40F20C1040F26062C2F2200066
:10346800C2F22002202105F004FCFEDEF0B503AF15
:103478002DE9000784B0044690F834001D469146B3
:103488000E4680B32068002869D14FF0FF303146DE
:10349800206004F10C0003F059FF01AECDE90101F1
:1034A800D5F80080304699F8005003F066FF3046A2
:1034B80003F0ABFF002D18BF01253046294603F065
:1034C800B0FF3046012103F070FF3046414603F05B
:1034D8007AFF304603F05DFF20680130206004B0B9
:1034E800BDE80007F0BD05F0A2FB804605F095FB9E
:1034F80005F0A0FB206890BB4FF0FF3031462060FC
:1035080004F10C0003F022FF01AECDE90101D5F86A
:1035180000A0304699F8005003F02FFF304603F022
:1035280074FF002D18BF01253046294603F079FFA6
:103538003046012103F039FF3046514603F043FF7E
:10354800304603F026FF2068013020605FEAC8702B
:1035580008BF05F064FB04B0BDE80007F0BD40F209
:10356800303040F2C423C2F2200003AA009040F297
:103578008610C2F22000C2F22003102105F0E3FBFE
:10358800FEDE7047F0B503AF2DE9000F87B00446A3
:103598000868002840F0A78091F804B0002008606F
:1035A8000E460BF1010008718868002840F09680EB
:1035B8004FF0FF3006F10C059146B060FF2008215E
:1035C80003220290CDE9002128468021002204F040
:1035D80012FA8A46B168C00701F10101B16040F0F2
:1035E8009480306800287ED196F804800020002955
:1035F800306008F10102327170D14FF0FF310022C2
:10360800B1600221CDE9001900210290284604F09A
:10361800F2F9B268C00702F10102B26040F08A8094
:10362800002A04915AD14FF0FF300021B0600220E7
:10363800CDE90009284602918021002204F0DBF937
:10364800C00701BFB0680130B06084F82CB001BF7A
:103658004FF40070A4F8270084F82610A4F82490EA
:1036680001BF06F14401216284F82D8040F2FF3247
:1036780001BFA4F80F2084F80EA00822A28101BF80
:10368800A160A4F81B000498A07601BFA4F81890C4
:1036980061610020E08501BFA071A2804FF4FA505B
:1036A800206002BF07B0BDE8000FF0BDB06840F26F
:1036B800503307F8211CC2F220030130B06040F2F9
:1036C800BC30A7F12102C2F22000009040F2403045
:1036D800C2F220000F2105F036FBFEDE40F25C400E
:1036E800C2F2200003E040F29C40C2F2200040F207
:1036F800F033009040F2861006AAC2F22000C2F20F
:103708002003102105F01FFBFEDE40F2CC3040F212
:103718005033C2F22000A7F12302009040F240305B
:10372800C2F22000C2F2200307F823AC0F2105F0F3
:103738000AFBFEDE40F2BC3040F25033C2F22000F9
:1037480007F8221C009040F24030C2F22000C2F27A
:103758002003A7F122020F2105F0F5FAFEDE7047DB
:10376800084640F2DC31C2F22001122205F09DBE6B
:103778007047F0B503AF2DE9000F85B0044688689F
:10378800002878D192F821B04FF0FF3001F10C05F4
:103798008860002090460E46CDE9000B029028462E
:1037A80000210122002304F026F98946B168C007E8
:1037B80001F10101B16063D100295CD14FF0FF3004
:1037C8008021B0600020CDE9000B0122029028463C
:1037D800802304F010F98A46B168C00701F101019D
:1037E800B1605FD13068002871D14FF0FF300029F7
:1037F800306071D1B060284604F088F9B0680130B3
:10380800B0606ED34FF0FF308021B06004F12C001F
:10381800BFF35F8F7564BFF35F8F06F0C2F94FF097
:10382800000C06F14401A4F8D4C0A4F8CFC084F871
:10383800CEA0A4F8CCB0C4F8C810C4F8BC10214677
:10384800A4F8C3C084F8C290A4F8C0B0C4E92DCCD1
:10385800C4F8ACC0A562B8E86D006DC198E86D0009
:103868006DC14FF4806084F8E4C0C4F8E00005B08E
:10387800BDE8000FF0BD40F25C40C2F2200034E029
:1038880040F21C5040F2AC43C2F22000A7F12202E1
:10389800009040F2CC00C2F22000C2F2200307F8E8
:1038A800229C10E040F22C5040F2AC43C2F22000BF
:1038B80007F821AC009040F2CC00C2F22000C2F21E
:1038C8002003A7F12102202105F03DFAFEDE40F297
:1038D8006C40C2F2200008E040F27C40C2F22000B6
:1038E80003E040F28C40C2F2200040F2F033009036
:1038F80040F2861004AAC2F22000C2F2200310216E
:1039080005F021FAFEDE7047F0B503AF2DE9000F90
:1039180081B045F204014FF0010CC2F20001BFF37F
:103928005F8FD1E84F2FC1E843CF002BF9D1BFF308
:103938005F8F002A01BF48F20001C4F20D01002286
:10394800C4F22F0201BF02F5542C02F5502E02F5E5
:103958004C28A1F5004401BFA1F5003501F5F61684
:1039680001F5F413C0E9683601BFC0E96A54C0E93B
:103978006C8EC0E96EC101F5005E01BF01F580568D
:1039880040F2040CC4F22E0C01F5021401BF0CF530
:10399800FE7501F5004300F5C07888E8380001BFDE
:1039A80000F5C67383E81210C0E9666EA1F5404CB5
:1039B80001BF01F5881E01F5861801F5841401F58B
:1039C800821301BF01F5003602F51025C0E95856EB
:1039D80000F5B47501BF85E81A41C0F87CC1A1F5AE
:1039E800804C02F51C2E01BF02F5182802F514249C
:1039F800A1F5E03301F5282601BF01F5EE15C0E970
:103A0800505600F5A47585E8184101BFC0E9562C49
:103A180002F5782802F5742902F5702401BF02F531
:103A28006C234CF2000CC4F2070C0CF5004601BFE5
:103A380001F5E03E01F58E15C0E9485EC0E94A612E
:103A480001BF00F5987585E81802C0F83C8101F5BA
:103A5800482801BF01F5442901F5402A01F53C2B0E
:103A680001F5382301BF01F5342401F5302501F5AE
:103A78002C26C0E9406501BFC0E94243C0E944BA09
:103A8800C0E9469802F5302801BF02F52C2902F555
:103A9800282A02F5242B02F5861301BF02F58414A7
:103AA80002F5821502F58016C0E9386501BFC0E944
:103AB8003A43C0E93CBAC0E93E9801F5F01801BFA5
:103AC80001F59219A1F5503AA1F5403BA1F5303323
:103AD80001BF01F5901401F58C1501F58A16C0E9AE
:103AE800306501BFC0E93243C0E934BAC0E936984D
:103AF80044F2000B01BFC4F2002B0BF500490BF593
:103B0800804A4FF0844801BF01F56C2601F568240E
:103B180001F56425A1F5C03301BFC0E9283500F1DE
:103B2800A80383E85009C0E92EA901BF01F5602860
:103B380001F5E61901F5E81AA1F5203601BF0BF5E4
:103B4800E03301F5582401F55425C0E9205401BF9C
:103B580000F1880484E84804C0E9259EC0F89C80E8
:103B680001BFA1F5103E01F5FE1801F5001902F597
:103B7800642A01BF02F5602302F55C2602F5582588
:103B880001F5A03401BF00F1600B8BE87000C0E9BB
:103B98001B3AC0E91D9801BFC0F87CE001F5803EE2
:103BA80002F540480CF5804901BF01F5804A01F54E
:103BB800F21344F20806C4F2090601BF06F1100523
:103BC80006F10804C0E91064C0E9125301BFC0E956
:103BD80014A9C0E9168E0CF5C03E01F5103801BFD6
:103BE80001F5801901F57C2401F5782302F57C267E
:103BF80001BF02F54825C0E9085600F1280585E807
:103C0800180201BFC0E90D81C0F83CE002F5442E5E
:103C180002F50C2601BF01F5D21501F5242402F5A1
:103C28004022A1F5803301BFA1F5A031C0E90013FE
:103C3800C0E9022C103001BF80E8704001B0BDE837
:103C4800000FF0BD40F23C5040F2D052C2F22000CA
:103C5800C2F22002352105F03FF8FEDE016848F285
:103C68004810C4F21F000523026863F303020260D0
:103C7800486840F00800486003207047FEE745F2B6
:103C88000801C2F2000188600120BFF35F8F08704D
:103C980070470A46D0E90031184605F00CBC0068A8
:103CA80005F077B840F2806205230021C2F22002B5
:103CB800C0E90021836070477047F0B503AF2DE974
:103CC800000B84B040F2806048F2301848F2480592
:103CD800C2F220000390C2F2000808F10800C2F204
:103CE800000502A902902846012200F017FB0446AD
:103CF800A86A002101F0F7F8064695F8E21098F84E
:103D08000000022933D148B9A86A03F033FEA86A33
:103D1800002101F060F9012088F80000D8F81C00A3
:103D28000168BFF35F8F002900F08780002098F8B2
:103D3800222040F2B463009002A8C2F22003344368
:103D480004F085F87CB1D8F804000122BFF35F8F36
:103D580000F58264D4E84F1FC4E8432F002BF9D143
:103D6800BFF35F8F79B104B0BDE8000BF0BD18B1A7
:103D7800A86A002101F08FF9002088F8000004B03B
:103D8800BDE8000BF0BDD0F80014BFF35F8FD0F88A
:103D98000824BFF35F8FD0F8043400F20445BFF362
:103DA8005F8F934205D199423EBFBFF35F8F0023D7
:103DB8002B60994228BF0A469A4236D0D8F8281074
:103DC8000968BFF35F8FC1B3A2EB030998F82E20EF
:103DD800034402A84E46B9F1400F28BF402600967A
:103DE80003F07AFF9DF8080068B12078BFF35F8F71
:103DF8000028B8D0BFF35F8F55E8000F45E80001F1
:103E08000029F9D111E003982178BFF35F8F0029C9
:103E1800A9D0814538BF4846BFF35F8F55E8001FDA
:103E2800014445E80012002AF8D10020BFF35F8F53
:103E3800207004B0BDE8000BF0BD40F6F81040F665
:103E48007C22C2F22000C2F22002222104F044FFA8
:103E5800FEDE70474FF47A607047F0B503AF2DE986
:103E6800000F81B000F12C0B1E4690468946824611
:103E7800D4000D466CB1F5E8020132464B6A59464A
:103E88009847BAF8D400083C00F00D000428F1D097
:103E980033E0707AA8B3BAF8D40000F00D00042813
:103EA8002BD1DAF8BC000921AAF8D4100068BFF3B6
:103EB8005F8FB0B19AF8C210012204F083F8DAF8E3
:103EC800C8000068BFF35F8F00281FBF9AF8CE10A4
:103ED800012201B0BDE8000F1CBFBDE8F04004F0AE
:103EE80071B840F6F81040F67C22C2F22000C2F207
:103EF8002002222104F0F0FEFEDE01B0BDE8000F32
:103F0800F0BD317AB079022921D0012933D00029B6
:103F1800C1D1002858D0062875D0082804BFBAF89F
:103F2800D4000428B7D19AF8E2000121AAF8D410E5
:103F380000220238BAF8DA10B0FA80F0002918BF67
:103F480001214009CAE92D218AF82C0057E00028F0
:103F5800A1D17188DAF8280001F08F0104F0B3F8D4
:103F6800BAF8D410042996D1AAF82C000120AAF88E
:103F7800D40000201EE090B10A2804BFBAF8D4008B
:103F880004287FF488AFBAF8DA10002001228AF8F2
:103F98002C00AAF8D420002918BF01210FE0BAF894
:103FA800D40004287FF477AF00200121AAF82C0060
:103FB800AAF8D410BAF8DA10022928BF0221CAF8E0
:103FC800B400CAF8B8101AE0BAF8D40004287FF48C
:103FD80062AFBAF8DA3001229AF8E300AAF8D420DE
:103FE80000229AF8E410022B28BF0223CAE92D23E5
:103FF800002818BF012041EA4000AAF82C005846C2
:1040080000F025FC47E75046494642465B46009685
:1040180000F0D6F83FE7D4D4F0B503AF2DE9000B94
:1040280084B000F12C0699460C468046D5006DB147
:10403800F4E802014A460B6A31469847B8F8D400BA
:10404800083D00F00D000428F1D02AE099F8090095
:1040580058B3B8F8D40000F00D00042821D1D8F8DE
:10406800BC000921A8F8D4100068BFF35F8F0028AE
:1040780065D098F8C210012203F0A4FFD8F8C80050
:104088000068BFF35F8F00281FBF98F8CE10012289
:1040980004B0BDE8000B1CBFBDE8F04003F092BFC0
:1040A8004DE004B0BDE8000BF0BD99F8082099F880
:1040B8000600B9F800109AB1012A22D0022AC8D104
:1040C800032848D0012808BF0029C2D1B9F8021036
:1040D8000022D8F8280001F08F0103F073FF64E094
:1040E80001380828B5D8DFE800F0060543054A0579
:1040F80005055400ADE70129ABD1002088F8E3009D
:1041080053E00B28A5D1002904BFB8F8D40006282D
:104118007FF49FAFD8F8C8000168BFF35F8F71B113
:1041280098F8CE20002040F24073009002A8C2F216
:10413800200303F0D1FD0820A8F8D40089E740F651
:10414800F81040F67C22C2F22000C2F2200222219E
:1041580004F0C2FDFEDE00297FF47BAFB9F802103F
:104168000122D8F8280001F08F0103F02BFF1CE092
:1041780001297FF46EAF012088F8E30015E0481E9E
:1041880080B27F28BFF465AFD8F8280003F071FC2F
:1041980008E021B101297FF45CAF022003E098F820
:1041A800E20038B1012088F8E2003046494600F0C4
:1041B8006DFE4EE73046494600F036FE49E7D4D456
:1041C800F0B503AF2DE9000B88B00646B868144671
:1041D8000D4698460196018902684068ADF81010AE
:1041E800CDE9022002A804F0CDFC4FF0FF3252FACC
:1041F80080F00E2800F26380DFE800F008101C61F0
:10420800616161616161616161612A0001A9404682
:1042180000F0F4FB08B0BDE8000BF0BD01A805A94B
:1042280007904046CDE9055400F085FD08B0BDE88B
:10423800000BF0BDC8B2032813D8DFE800F002264F
:104248002A3A404600F012FD08B0BDE8000BF0BD68
:1042580040462946224600F030FC08B0BDE8000B75
:10426800F0BD084604F091F84CB38146BDF80A60E9
:1042780005EBC404D5E9000132464B694946984725
:1042880068B90835A542F5D119E0311D306828B95B
:1042980015E006F10C010836306880B10968CDE9EF
:1042A800050105A9404600F080FC08B0BDE8000BF8
:1042B800F0BD06F11401103630680028EED1B8F8C8
:1042C800A80000F00D000428A4D1D8F89000092116
:1042D800A8F8A8100068BFF35F8F98B198F89610F7
:1042E800012203F06FFED8F89C000068BFF35F8FCF
:1042F80040B198F8A210012203F064FE08B0BDE8AE
:10430800000BF0BD40F6F81040F67C22C2F2200007
:10431800C2F22002222104F0DFFCFEDEF0B503AF7A
:104328002DE9000F8DB0846A064605A88846924696
:10433800214603F07FFF96F8E200BDF814500328E9
:1043480016D1002D4FF0000018BF032D03D10DB07A
:10435800BDE8000FF0BD204603F06BFF96F8E100C2
:10436800042800F00681042186F8E20086F8E110AE
:10437800DFE805F003082448030000200DB0BDE87D
:10438800000FF0BDB06A03F005FC4FF48060BAF18D
:10439800000FC6F8E0004FF00000A6F8D400ECD0FB
:1043A80008EBCA04A8F1080555F8080F6968896977
:1043B800884705F10800A042F6D1DEE7BDF81600EF
:1043C800BDF81810BDF81A200290084340EA020907
:1043D800049103925FEAC97054D00498C0071CBFC7
:1043E80006F12C0000F096FA0398C00719D102983C
:1043F800C00720D104208DF825009DF82500042849
:1044080022D13DE0B06A03F014FF96F8E2000321E0
:1044180086F8E21086F8E10000200DB0BDE8000F34
:10442800F0BD06F12C0107A800F056F99DF825000B
:10443800042809D124E006F12C0107A800F0A5F80A
:104448009DF8250004281BD09DF8230000287AD069
:10445800802815D1DDE907010AABBDF82420CDE994
:104468000A013046ADF8302041465246FFF7F5FCC8
:1044780029F00109B9F1000FCDE9008A07D14DE013
:1044880029F00109B9F1000FCDE9008A46D0019958
:10449800002953D0009801264FF0020B00EBC10809
:1044A800A0F1080503981BEA000F0BD02C4654F81E
:1044B800080F61688A6A3146904704F10800404550
:1044C800F5D10EE002981BEA000F0AD02C4654F8EA
:1044D800080F6168CA6A3146904704F108004045F0
:1044E800F5D104981BEA000F0DD066F07F04AA46A8
:1044F8005AF8080FDAF804100A6B214690470AF1B7
:1045080008004045F4D129EA0B095FEA094005D0C3
:10451800701C0F2E4FEA4B0B0646C3D3019969B1A5
:10452800009800EBC104A0F1080555F8080F696868
:10453800C969884705F10800A042F6D101200DB0ED
:10454800BDE8000FF0BDDDE907010AABBDF8242086
:10455800CDE90A013046ADF8302041465246FFF712
:104568005BFD29F00109B9F1000FCDE9008A8ED170
:10457800D4E740F2B46040F23072C2F22000C2F2D6
:1045880020021C2104F075FBFEDEF0B503AF4DF8E8
:1045980004BD86B00446B1F8A8000D46411E0329A3
:1045A8002AD3052828D007283BD1D5F88800D5F884
:1045B800AE30B5F8B2108128D5F8AA20ADF80C10A5
:1045C800CDE9012380F08080D5F890100968BFF309
:1045D8005F8F00296CD0C0F1800395F89620009376
:1045E8002B1804A803F033FC9DF81000002849D0CC
:1045F8009DF8110038BB3FE0D5F890000168BFF383
:104608005F8F002954D095F8962040F2407304A893
:104618000026C2F22003009603F019FCA5F8A86052
:104628002AE0D5F890000168BFF35F8F00293FD0DA
:10463800002095F8962040F24073009004A8C2F23A
:10464800200303F004FCD5F890000921A5F8A81070
:104658000068BFF35F8F58B395F89610012203F0F6
:10466800B1FCD5F89C000068BFF35F8F00B395F8E4
:10467800A210012203F0A6FC0420607206B05DF8C7
:1046880004BBF0BD0598D5E922120844C5F8880096
:104698009042F1D3DDE901010623BDF80C20A5F80D
:1046A800A83020606160228106B05DF804BBF0BDCF
:1046B80040F6F81040F67C22C2F22000C2F2200236
:1046C800222104F009FBFEDE40F2A8728021C2F22A
:1046D800200204F0F6FEFEDEF0B503AF2DE9000F70
:1046E80085B00446D1F890000D460168BFF35F8F8E
:1046F800002900F09680802095F89620009002A866
:104708002B4603F0A4FB9DF8080018B19DF809009A
:1047180060B926E0039A812A80F08F8002A8294692
:1047280004F012FA9DF81100042820D1D5F8900061
:104738000921A5F8A8100068BFF35F8F002870D082
:1047480095F89610012203F03DFCD5F89C0000680E
:10475800BFF35F8F002864D095F8A210012203F000
:1047680031FC0420607205B0BDE8000FF0BDD5F83B
:104778009000BDF810A09DF80F609DF80E90BDF850
:104788000CB0DDF808800068BFF35F8F002848D0C0
:1047980095F89610002203F015FCCEB10420A5F878
:1047A800B2A085F8B16085F8B090A5F8AEB0C5F8AC
:1047B800AA80A5F8A800A4F808A0E67184F80690D5
:1047C800A4F804B0C4F8008005B0BDE8000FF0BD3F
:1047D800BBF1000F13D0BBF1800FA7D80020072131
:1047E800A5F8B2A085F8B10085F8B090A5F8AEB0EC
:1047F800C5F8AA80A5F8A810C5E9220BB1E70620DC
:10480800A4F808A0A5F8A8000020C5F88C00E0715D
:1048180084F80690A080C4F8008005B0BDE8000FB9
:10482800F0BD40F6F81040F67C22C2F22000C2F239
:104838002002222104F050FAFEDE40F2B87310463E
:10484800C2F2200380211A4604F060FEFEDEB0B5F5
:1048580002AF84B00446D0E92051D0F88800D4F8DB
:104868008CC0002DB4F8A030AE46ACEB000208BFF7
:10487800A6469A4238BF1346002D03EB000C08BF2A
:1048880080219C4529D38C452FD8D4F89C100968E1
:10489800BFF35F8F89B394F8A22000930EEB000357
:1048A80002A803F019FA9DF8080008B104B0B0BDD9
:1048B8000398D4E922120144C4F888109142F5D330
:1048C8000021B4F8A020C4F880100321904208BF4A
:1048D8000221A4F8A81004B0B0BD40F2C872614625
:1048E800C2F2200204F037FEFEDE40F2C8726046D3
:1048F800C2F2200204F00AFEFEDE40F6F81040F68E
:104908007C22C2F22000C2F22002222104F0E4F943
:10491800FEDED4D4B0B502AF84B00446B0F8A80027
:10492800013807283AD8DFE800F0040B273939396D
:1049380039562046FFF78BFF0025284604B0B0BD46
:10494800D4F89C000168BFF35F8F00294AD094F81F
:10495800A22040F2407302A80025C2F2200300956D
:1049680003F0BAF99DF80800002804BF0320A4F852
:10497800A800284604B0B0BDD4F890000068BFF382
:104988005F8F78B394F896100022002503F01AFB85
:104998000520A4F8A800284604B0B0BDD4F89000BB
:1049A8000921A4F8A8100068BFF35F8FD0B194F86C
:1049B8009610012203F006FBD4F89C000068BFF3B0
:1049C8005F8F78B194F8A210012203F0FBFA00255A
:1049D800284604B0B0BD00200125A4F8A800284648
:1049E80004B0B0BD40F6F81040F67C22C2F22000B8
:1049F800C2F22002222104F06FF9FEDEF0B503AF07
:104A08004DF8048D88B00446B0F8A800042832D1C7
:104A18006E460D68304621468022B4F8AE8003F019
:104A2800B5FC3046294603F007FDC0B208281ED160
:104A3800684603F0B2FC802822D9D4F890000921F6
:104A4800A4F8A8100068BFF35F8F50B394F89610CD
:104A5800012203F0B7FAD4F89C000068BFF35F8F17
:104A6800F8B194F8A210012203F0ACFA022008B0C1
:104A78005DF8048BF0BD072008B05DF8048BF0BD2D
:104A880001214045A4F8A81038BF804600212046DF
:104A9800C4E92218FFF7DBFE082008B05DF8048B94
:104AA800F0BD40F6F81040F67C22C2F22000C2F2B7
:104AB8002002222104F010F9FEDEF0B503AF2DE943
:104AC800000F8BB08346B0F8A800042825D1E9462A
:104AD80090460D46484659468022BBF8AEA003F0E2
:104AE80055FC08AE4946304603F042FF304603F015
:104AF80043FFC0B208280CD108AE4FEAC8048CB1F5
:104B0800F5E802010A6931469047083CC0B2082816
:104B1800F5D00BB0BDE8000FF0BD07200BB0BDE825
:104B2800000FF0BD08A803F0FBFF684603F035FC52
:104B380080281DD9DBF890000921ABF8A81000687F
:104B4800BFF35F8F28B39BF89610012203F03AFA5F
:104B5800DBF89C000068BFF35F8FD0B19BF8A21010
:104B6800012203F02FFA02200BB0BDE8000FF0BDC0
:104B780001215045ABF8A81038BF8246002158469D
:104B8800CBE9221AFFF763FE08200BB0BDE8000F3F
:104B9800F0BD40F6F81040F67C22C2F22000C2F2C6
:104BA8002002222104F098F8FEDEF0B503AF2DE9CB
:104BB800000B88B00446B0F8A800042834D1E846B1
:104BC800D1E90056404621468022B4F8AE9003F061
:104BD800DDFB40462946324603F00CFEC0B20828E9
:104BE8001ED1684603F0D9FB802822D9D4F890005A
:104BF8000921A4F8A8100068BFF35F8F50B394F898
:104C08009610012203F0DEF9D4F89C000068BFF387
:104C18005F8FF8B194F8A210012203F0D3F90220B3
:104C280008B0BDE8000BF0BD072008B0BDE8000BD8
:104C3800F0BD01214845A4F8A81038BF81460021DD
:104C48002046C4E92219FFF702FE082008B0BDE893
:104C5800000BF0BD40F6F81040F67C22C2F22000AE
:104C6800C2F22002222104F037F8FEDEF0B503AFCD
:104C78004DF804BD8AB00446B0F8A800042838D11D
:104C880001AD21468022B4F8AE60284603F07EFBD1
:104C980040F20940A7F1120227F8120C2846032116
:104CA800022303F07CFBC0B208281ED101A803F040
:104CB80074FB802822D9D4F890000921A4F8A81000
:104CC8000068BFF35F8F50B394F89610012203F089
:104CD80079F9D4F89C000068BFF35F8FF8B194F8B5
:104CE800A210012203F06EF902200AB05DF804BB9D
:104CF800F0BD07200AB05DF804BBF0BD0121B04249
:104D0800A4F8A81038BF064600212046C4E9221698
:104D1800FFF79DFD08200AB05DF804BBF0BD40F622
:104D2800F81040F67C22C2F22000C2F220022221B2
:104D380003F0D2FFFEDEF0B503AF2DE9000788B01F
:104D48008246B0F8A80004284CD16D46D1E9006924
:104D58008C68284651468022BAF8AE8003F016FBCC
:104D68002168284603F003FCC0B2082836D1B9F1FF
:104D7800000F10D006EBC9046D46D6E90001CA68D9
:104D880029469047C0B2082828D1284603F058FC85
:104D98000836A642F1D16D46284603F054FC284651
:104DA80003F0FBFA802822D9DAF890000921AAF842
:104DB800A8100068BFF35F8F50B39AF896100122CD
:104DC80003F000F9DAF89C000068BFF35F8FF8B1D0
:104DD8009AF8A210012203F0F5F8022008B0BDE805
:104DE8000007F0BD072008B0BDE80007F0BD0121AD
:104DF8004045AAF8A81038BF804600215046CAE9A5
:104E08002218FFF724FD082008B0BDE80007F0BD10
:104E180040F6F81040F67C22C2F22000C2F22002CE
:104E2800222103F059FFFEDED0B502AF0446B0F8E8
:104E3800A80000F00D0004281AD1D4F89000092128
:104E4800A4F8A8100068BFF35F8F98B194F8961083
:104E5800012203F0B7F8D4F89C000068BFF35F8F15
:104E680040B194F8A210012203F0ACF80820D0BD9C
:104E78000720D0BD40F6F81040F67C22C2F2200090
:104E8800C2F22002222103F027FFFEDED0B502AFD6
:104E980084B00446B0F8A800062815D1D4F89C00C0
:104EA8000168BFF35F8F91B1002094F8A22040F20F
:104EB8004073009002A8C2F2200302F00DFF082000
:104EC800A4F8A80004B0D0BD072004B0D0BD40F6B7
:104ED800F81040F67C22C2F22000C2F22002222101
:104EE80003F0FAFEFEDEF0B503AF4DF804BD84B062
:104EF800044690F834000E46D8B12068002858D1EE
:104F08004FF0FF31204640F80C1B314602F01EFAE4
:104F1800CDE9010101A802F068FA60B301AD2846A5
:104F280002F073FA284602F060FA0028F7D1012649
:104F380026E003F07CFE054603F06FFE03F07AFEE0
:104F48002068B0BB4FF0FF31204640F80C1B3146BB
:104F580002F0FCF9CDE9010101A802F046FAB8B166
:104F680001AE304602F051FA304602F03EFA00280F
:104F7800F7D1012611E001A802F0F5F980F0010649
:104F8800206801302060304604B05DF804BBF0BDF5
:104F980001A802F0E8F980F00106206801302060DD
:104FA800E80708BF03F03BFE304604B05DF804BBD9
:104FB800F0BD40F6540040F2E873C2F2200003AAA4
:104FC800009040F28610C2F22000C2F220031021A5
:104FD80003F0B9FEFEDEF0B503AF4DF804BD84B0B2
:104FE800044690F834000E46E0B12068002840D10D
:104FF8004FF0FF31204640F80C1B314602F0A6F96D
:10500800CDE9010101A802F024FA00281CBF0DF126
:10501800040002F09CF920680130206004B05DF8BB
:1050280004BBF0BD03F003FE054603F0F6FD03F0F4
:1050380001FE2068E8B94FF0FF31204640F80C1B0C
:10504800314602F083F9CDE9010101A802F001FA25
:1050580000281CBF0DF1040002F079F92068013026
:105068002060E80708BF03F0DAFD04B05DF804BB70
:10507800F0BD40F6540040F2E873C2F2200003AAE3
:10508800009040F28610C2F22000C2F220031021E4
:1050980003F059FEFEDEF0B503AF4DF804BD84B051
:1050A800044690F834000D46A8B12068A0BB4FF024
:1050B800FF302946206004F10C0002F047F9CDE9E1
:1050C800010101A802F059F920680130206004B0FC
:1050D8005DF804BBF0BD03F0AAFD064603F09DFD94
:1050E80003F0A8FD2068B8B94FF0FF3029462060CA
:1050F80004F10C0002F02AF9CDE9010101A802F03F
:105108003CF9206801302060F00708BF03F087FDF4
:1051180004B05DF804BBF0BD40F6540040F2E873FB
:10512800C2F2200003AA009040F28610C2F22000CA
:10513800C2F22003102103F006FEFEDE70470020B5
:1051480070477047082070477047F0B503AF4DF8B7
:10515800048D0546507A012802BF1646107A0128A8
:1051680002D05DF8048BF0BD95F82C008846748851
:1051780003F00BF9C0B28442F3D1B079212804BFFF
:10518800B088072830D0B8F8A80000F00D0004282F
:10519800E7D1D8F890000921A8F8A8100068BFF353
:1051A8005F8FA8B198F89610012202F00BFFD8F88B
:1051B8009C000068BFF35F8F00281FBF98F8A210FB
:1051C80001225DF8048BBDE8F04018BF02F0FABE7A
:1051D80040F6F81040F67C22C2F22000C2F220020B
:1051E800222103F079FDFEDEB8F8A8000428B8D122
:1051F800B8F8AE00012329796A790728A8F8A830F9
:10520800AB792E684FF00005C8F8006088F80430C4
:1052180088F8052088F8061028BF0720C8E922501A
:1052280040465DF8048BBDE8F040FFF710BBF0B5D1
:1052380003AF4DF8048D84B00546507A012802BFAB
:105248001646107A012803D004B05DF8048BF0BD2F
:1052580095F82C008846748803F097F8C0B2844209
:10526800F2D1B07988B1202814D0222847D13078DB
:10527800B8F8A81000F0010285F82E20C0F340000D
:1052880085F82F000629DFD121E0B8F8A800062804
:10529800DAD11CE0D8F88C00812862D206282ED9F1
:1052A80098F80400D8F80010296000F001FC98F87C
:1052B8000510C0B2A871084600F0FFFB98F8062058
:1052C800C0B2B8F8A81068712A710629BCD1D8F8FC
:1052D8009C000168BFF35F8FB9B398F8A220002043
:1052E80040F24073009002A8C2F2200302F0F4FCDE
:1052F8000820A8F8A80004B05DF8048BF0BDB8F841
:10530800A80000F00D0004289ED1D8F890000921CB
:10531800A8F8A8100068BFF35F8FB0B198F896108E
:10532800012202F04FFED8F89C000068BFF35F8F9F
:1053380000281FBF98F8A210012204B05DF8048B62
:105348001CBFBDE8F04002F03DBE40F6F81040F644
:105358007C22C2F22000C2F22002222103F0BCFC0F
:10536800FEDE40F2D8728021C2F2200204F0CEF8AC
:10537800FEDEF0B503AF2DE9000B84B090F82C6089
:10538800814600250220CDE900050C460846314635
:105398000222022303F068F9C0B208286ED1204621
:1053A800314602220223009503F0B5F9C0B208285D
:1053B80064D140F664022046C2F22002242103236D
:1053C80002F0EDFFC0B2082858D140F66702204627
:1053D800C2F220022421022302F0E1FFC0B2082811
:1053E8004CD1304602F0D1FF99F82D800646404650
:1053F80002F0CBFF07F81C0C0620A7F11E0207F8E5
:105408001E0C20462421032307F81D6C02F0C7FF59
:10541800C0B2082832D1404602F0B7FF07F8190C8D
:105428000120A7F11B0227F81B0C20462421032387
:1054380002F0B5FFC0B2082820D109F108012046C2
:1054480000F02FF8C0B2082818D10020414600907B
:1054580020460A22002303F05EF9C0B208280DD1C5
:1054680009F12001204600F01CF8C0B2082805D137
:1054780009F11401204600F014F8C0B204B0BDE8E8
:10548800000BF0BDD0B502AF82B00446684600F00C
:1054980019FBDDE90001C4E900010020E08502B044
:1054A800D0BDF0B503AF4DF8048D8C46016981B3CA
:1054B800416843698B4249D20268D0F818E0D45C4D
:1054C8000134D4540EF102038B421ED80EF58074B9
:1054D800A14238BF0C469C4248D3E41A052C14D389
:1054E8009CF80640BCF80450D45413440EF1070449
:1054F8009CF808608C429CF807805E704FEA15267D
:105508009D7083F80480DE7007D902205DF8048B53
:10551800F0BD07205DF8048BF0BD8E451ED2072331
:1055280002F80E300EF101038B423FBF0521D15422
:10553800846108203CBF5DF8048BF0BD40F6EC02A6
:10554800C2F22002184603F0DEFBFEDE40F6FC0243
:10555800C2F22002184603F0D6FBFEDE40F6DC025B
:105568007046C2F2200203F0CEFBFEDE40F6CC020B
:105578001846C2F22002214603F0EDFFFEDE704716
:10558800F0B503AF4DF804BD84B000688029066803
:105598004FF00000029003D201248DF8081034E087
:1055A800B1F5006F09D20224084664F39F108DF804
:1055B8000900C02040EA911025E002200A4660F365
:1055C8009F12B1F5803F0DD28DF80A208A0960F349
:1055D8009F12E02040EA11308DF809208DF808006C
:1055E800032412E08DF80B208A0960F39F128DF8CE
:1055F8000A200A0B042460F39F12880C1E218DF8E0
:10560800092061F3DF008DF8080003F0F6FA05467B
:105618003068B0B94FF0FF30321D306002A8214623
:1056280000F057F90446306801303060284603F02E
:10563800EFFAE0B2033818BF012004B05DF804BBEC
:10564800F0BD40F6C01040F64C13C2F2200003AA89
:10565800009040F28610C2F22000C2F2200310210E
:1056680003F071FBFEDEF0B503AF4DF8048D88B092
:10567800D0F800C002AA91E8714140F60C11134617
:10568800C2F2200183E8714101A8CDF804C003F0FB
:1056980085FB08B05DF8048BF0BDF0B503AF4DF89D
:1056A800048D82B0006815460E46046803F0A5FA1A
:1056B80080462068B0B94FF0FF30221D2060304688
:1056C800294600F006F9054620680130206040466A
:1056D80003F09EFAE8B2033818BF012002B05DF863
:1056E800048BF0BD40F6C01040F64C13C2F2200007
:1056F80001AA009040F28610C2F22000C2F22003F4
:10570800102103F020FBFEDEF0B503AF2DE9000702
:1057180048F29052D1F80880C2F200021368B8EB40
:10572800030218BF0122984538BF4FF0FF32531CBF
:105738001CBFD2B2002A29D1C2685AB3806800259A
:10574800D1E9009A02EB4201061D8C0005E00C3CF1
:1057580006F10C0605F1010518D030685045F6D160
:1057680056F8040C4946524604F0F2F80028EED1E7
:10577800706800218045A0F10600B0FA80F098BF5B
:10578800012140090843BDE80007F0BD0020BDE83D
:105798000007F0BD0120BDE80007F0BDF0B503AF7C
:1057A8002DE9000F93B0009048F29050C2F200002B
:1057B8008A46D1F828900168B9EB010018BF01208A
:1057C800894538BF4FF0FF30411C1CBFC0B20028CC
:1057D80022D10099C86818B3896800EB4000DAE95B
:1057E80008B54FF000080C1D860005E00C3E04F1DA
:1057F8000C0408F101080FD02068A842F6D154F82B
:10580800040C59462A4604F0A3F80028EED1606833
:10581800062818BF814505D913B0BDE8000FF0BDB3
:10582800DAE908B5009840F60C11019041F6EF103E
:10583800C0F200000DAA07900BA8069041F6E310ED
:10584800C0F20000C2F22001059009A8049043F6B6
:105858002700C0F20000CDF82090039008A802901D
:1058680001A80C900320129002A811900420109017
:1058780040F62C10C2F22000CDE909B50F900020A7
:105888000D900CA8CDF82CA003F088FA13B0BDE851
:10589800000FF0BD7047D0B502AF48F268120C4651
:1058A800D1E900C3C2F200020021C2E902C3C2E981
:1058B800001040F6DC11C2F22001104600F01DF97C
:1058C800002801BFA16848F29052C2F2000211609C
:1058D800D0BDF0B503AF2DE9000F81B0D2F800803C
:1058E80089460446012108F21145BFF35F8FD5E8C8
:1058F8004F0FC5E8421F002AF9D1BFF35F8F20B1CF
:10590800012001B0BDE8000FF0BDD8F80004BFF3D6
:105918005F8FD8F80414BFF35F8F814204D9C24364
:1059280011EB020B0BD179E0B0F5806F05D101299D
:1059380074D9A1F1010B002001E0C0F5806BCA46C3
:10594800CB4538BFDA460AEB00014044BFF35F8F0E
:10595800C8F80C142146524603F0F6FF98F81104D3
:1059680008F20C46BFF35F8F58B3D8F80004BFF3B2
:105978005F8FBFF35F8F56E8001F46E80012002ACA
:10598800F9D1BFF35F8FB0F5806FD8F80824BFF363
:105998005F8FD8F80C14BFF35F8F01D0814203D317
:1059A800914205D94FF48060BFF35F8FC8F80804AF
:1059B800BFF35F8FC8F800140020BFF35F8F88F82B
:1059C8001104CB456ED204EB0A01A9EB0A020123AC
:1059D800BFF35F8FD5E84F0FC5E8443F002CF9D1DE
:1059E800BFF35F8F20B1012001B0BDE8000FF0BD0B
:1059F800D8F80004BFF35F8FD8F80434BFF35F8F83
:105A0800834203D9C4431B1913D107E0B0F5806F53
:105A18000DD1012B02D9013B00200AE00020002112
:105A2800BFF35F8F297001B0BDE8000FF0BDC0F56E
:105A38008063934238BF1A4613184044BFF35F8F00
:105A4800C8F80C3403F080FF98F81104BFF35F8F97
:105A580040B3D8F80004BFF35F8FBFF35F8F56E8F9
:105A6800001F46E80012002AF9D1BFF35F8FB0F596
:105A7800806FD8F80824BFF35F8FD8F80C14BFF3F1
:105A88005F8F01D0814203D3914205D94FF48060E2
:105A9800BFF35F8FC8F80804BFF35F8FC8F800141E
:105AA8000320BCE7032001B0BDE8000FF0BD70473C
:105AB800C1B2032928BF00207047C1B2052928BFF9
:105AC8000020704708218180002181714FF4FA512C
:105AD800016070477047006840F6D422C2F2200285
:105AE8000B4652F8301002EBC0004268184603F02B
:105AF800AABB002070477047704780B56F4648F2D0
:105B08008C5EC2F2000E5EE8003F53B94FF0010C04
:105B1800BFF35F8F4EE800C22AB15EE8003F002B5A
:105B2800F8D0BFF32F8FBFF35F8F13B1012B1ED0B7
:105B38002AE044F2C422C2F20002C2E900010220B3
:105B4800BFF35F8FCEF800000020BFF35F8F80BDEA
:105B580010BFDEF80000BFF35F8F012801BF10BF40
:105B6800DEF80000BFF35F8F01280DD110BFDEF80B
:105B78000000BFF35F8F012801BF10BFDEF80000EF
:105B8800BFF35F8F0128E3D0012080BDF0B503AFDC
:105B98002DE9000F91B0002B3FD102F1100BD2E993
:105BA800009AD2E9026348F28C52C2F200029BE8E2
:105BB8003008D2F800E044F2C422BFF35F8FC2F28B
:105BC8000002CDE90C630026D2E900C8BEF1020F3D
:105BD800CDE90F450A9190E83E00406905904FF0E5
:105BE8000100069040F69820C2F220008DE83E00A1
:105BF8006946CDE9089A0E960B96CDF81CB008BFF9
:105C08004046426940F68C20C2F2200008BF604638
:105C1800904711B0BDE8000FF0BD40F65A3040F68D
:105C2800B032C2F22000C2F22002552103F054F82B
:105C3800FEDE022070470F207047B0B502AF054660
:105C480008680C4640F480300860086840F040005E
:105C58000860222063F31340486040F26850C0F2A5
:105C68000C10086240F29510C0F2B2004862DC20C5
:105C7800C0F27A0088627D20C0F25800C8624B20CA
:105C8800C0F2400008632F20C0F22E0048638863EA
:105C980046F62010C86040F6A31088604FF4C8404C
:105CA800C8614FF4C860886140F6C410C0F68040EF
:105CB80008613F204861086820F00300104308602D
:105CC800086820F480300860C86F4021284603F037
:105CD80068FF1020C5E91004B0BDF0B503AF2DE989
:105CE800000F85B0019001204FF0080C4FF0000E16
:105CF8004FF0FF334FF0200900254FF0010A09E06B
:105D08000CF1010C09F104094FF4005A0020BCF110
:105D1800210F6FD0C007F3D00AF101000AFB0CFB7A
:105D28004FF000080CFB00F004900AF102000CFB95
:105D380000F003900AF103000CFB00F002901BEB4B
:105D4800080065D0B1FBF0F00446824238BF144623
:105D580088BF1046001B98423EBFE646554603469C
:105D68000AF10100B0F5005FCAD0049C14EB0804E6
:105D78004ED0B1FBF4F42646A24238BF164688BF7F
:105D88001446A41B9C423EBFE64605462346013006
:105D9800B0F5005FB4D0039C14EB080438D0B1FB15
:105DA800F4F42646A24238BF164688BF1446A41B00
:105DB8009C423EBFE646054623460130B0F5005FEB
:105DC8009ED0029C14EB080422D0B1FBF4F4C84422
:105DD8002646A24238BF164688BF1446A41B00F1C7
:105DE800010A9C423EBFE64605462346BAF5005FD7
:105DF800A5D185E72EF0030001990438B0FA80F0A8
:105E0800C1E900E54009087205B0BDE8000FF0BD22
:105E180040F6304040F64C42C2F22000C2F2200266
:105E2800192102F059FFFEDE40EA111043F2000189
:105E3800C0F2FF1108407047006803E0816C002938
:105E480008BF7047816C29B1816C00291CBF816C27
:105E58000029F3D170470068426D22F00302114314
:105E68004165704740F22762914238BF0A46B2F551
:105E7800487F98BF4FF44872A2F5487144F2AF7357
:105E880000688AB25A43C368A1EB124189B2490833
:105E980001EB124123F01F0242EA1111C16004E034
:105EA8000168B1F1FF3FD8BF70470168002905D4E8
:105EB800016800295CBF01680029F1D57047F0B579
:105EC80003AF2DE9000B84B04FF40071044603F0D2
:105ED80068FE44F2CC29A4F11005C2F2000900269C
:105EE800E8464C46D9E9600103940291CDE9006087
:105EF800404602F05BFE9DE80F0001360C3445F881
:105F0800100F202E05F104000EC0EBD104B0BDE83F
:105F1800000BF0BD704700F1340200F1500110464B
:105F28007047F0B503AF2DE9000B44F2E043C4F22B
:105F38001F031B68C3F30B2E4FEA135CE6451FBF14
:105F48000124C1F88841DBB24FF47A781FBF03FB04
:105F580008F9ACEB0E04D1F8906149F658651FBFFB
:105F6800CFF6FF7513FB085393FBF4F3C2EA06025E
:105F78001FBFC1F89021C0E9003EC0E90291BDE809
:105F8800000B18BFF0BD40F6E04040F6CC42C2F22C
:105F98002000C2F22002192102F09EFEFEDED4D4B7
:105FA80090F801C0DFE80CF004080C1014181C204D
:105FB800096801F1680C1AE0096801F16C0C16E037
:105FC800096801F1700C12E0096801F1740C0EE027
:105FD800096801F1780C0AE0096801F17C0C06E017
:105FE800096801F1800C02E0096801F1840C00786D
:105FF8000321DCF800304000C0B2824001FA00F012
:1060080023EA00001043CCF80000704780B56F46C3
:1060180000684FF400514FF480524FF0400C4FF499
:10602800803E00E0416103699B04FBD50369DB0402
:1060380001D44261F7E70369B3F1FF3FF3DC036979
:10604800DB0306D403695B0648BF80BDC0F814C0F3
:10605800E9E7C0F818E0E6E780B56F46D0E9022E18
:106068004FF0004C4FF08043CEF834C0CEF838C023
:10607800CEF838300023CEF800300223C2F8403181
:10608800D2F840319B070CD5D2F840319B0744BF6A
:10609800D2F840315FEA837303D5D2F840319B07C9
:1060A800EED44FF0000C0A23C2F840C10029C2F810
:1060B800A831D2F8843123F0807308BF03F18073CC
:1060C800C2F88431D2F844110069C2F84411C2F808
:1060D80048C1C2F8580180BD80B56F460246436981
:1060E800C8B2490041EAD011C8B2834216D9936AAE
:1060F80001F00F011B68BFF35F8F9BB223FA01F118
:10610800C9070BD0516A814284BF012080BD40F687
:10611800D862C2F2200202F0F6FDFEDE002080BD49
:10612800F0B503AF2DE9000F83B080464869002819
:106138001FBF886A0068BFF35F8F5FEAC0700BD12A
:1061480040F6585040F68452C2F22000C2F22002B3
:106158002B2102F0C1FDFEDE486A002800F0138101
:1061680051F8084F91460122082B886990F910E0F0
:10617800D4F8AC510EF01F0C02FA0CF66ED316EAE6
:1061880005026BD08568C4F8AC61D4F8402142F4AC
:106198000052C4F84021D5E90A36D4F840219204C7
:1061A80025D4D4F8402142F40052C4F84021D5E95E
:1061B8000A36D4F8402192045FBFD4F8402142F453
:1061C8000052C4F84021D5E90A365CBFD4F8402112
:1061D8005FEA82420BD4D4F8402142F40052C4F85A
:1061E8004021D5E90A36D4F840219204CDD5D4F817
:1061F8004021012522F40052C4F84021C9F8046066
:10620800C9F80030027CD4F8B86153B202F01F021A
:10621800002B48BF360C95402E40360614D14FF45B
:106228008036B3F1FF3FC8BF01264FF47F0306FA5B
:1062380002F2C8BFFF231A40C4F8782182681268A6
:10624800C2F30A4200F011FE0820C8F8040000203A
:1062580088F8000003B0BDE8000FF0BDC2685268BE
:1062680012F0680F01D0072009E0D4F8B821BEF178
:10627800000F48BF120C3240120609D0002088F8DF
:106288000100012088F8000003B0BDE8000FF0BD50
:106298004FF480364FF47F02BEF1FF3FC8BF01269E
:1062A800C8BFFF2206FA0CF63240C4F8BC2190F9A8
:1062B80010204FF4803A4FF47F05B2F1FF3F02F00F
:1062C8001F02C4BFFF254FF0010A0AFA02F22A4052
:1062D800C4F87821D0E9026235685468D269C5F3F8
:1062E8000A4CC4F30E459C45A2EB050228BF9C4608
:1062F800944528BF94469C454ED8D0F804B0DC4558
:1063080038BFE346BBF1000F35D0D0F800A009EB49
:106318000C03ABF1010EABF1020200260292ABF1C5
:1063280003020192B44525D00AEB06044A46B64555
:10633800257802F8015B18BF9A421BD0627889F869
:106348000120029AB2421CBF09F102029A4211D0FE
:10635800A27889F80220019AB2421CBF09F103020F
:106368009A4207D0E278043689F8032009F1040933
:10637800B345D7D186683268C2F30A4200F075FD8A
:10638800C8F804B063E740F6E8620020C2F22002D1
:10639800002102F0B8FCFEDE40F668626046C2F2F8
:1063A8002002194603F0B2F8FEDEF0B503AF2DE97E
:1063B800000F85B0834648690228C0F02981886AA1
:1063C8000E460068BFF35F8F800740F12181716A34
:1063D800012940F20C81356A296A496811F0680F71
:1063E80001D0072015E0B24695F824105AF8089F06
:1063F800904601244FFA81FC01F01F01D9F8B82119
:10640800BCF1000F48BF120C8C402240120609D084
:1064180000208BF8010001208BF8000005B0BDE8D2
:10642800000FF0BD4FF48032BCF1FF3FC8BF01221E
:106438004FF47F0402FA01F1C8BFFF242140C9F8D4
:106448007811D5E9062105F114000968C1F30A415C
:10645800994238BF0B46934238BF1A46002A4DD09E
:10646800D51E0495056808EB0301541EA2F1020C21
:10647800CDE9029A4FF00009019010464B4529D00A
:10648800424605EB090A12F801EB4C458AF800E090
:1064980018BF8A421ED098F80120CC458AF80120FE
:1064A8001CBF08F102028A4214D098F802208AF828
:1064B8000220049A4A451CBF08F103028A4209D007
:1064C80098F8032009F1040908F1040848458AF8F6
:1064D8000320D3D1012101EB541A0AF00309044621
:1064E80002F09FFB4EF6707025F01F01CEF20000FF
:1064F800A046612C08D2DDF80CA017E09046514662
:10650800002200F0B2FC23E02AF00302DDF80CA020
:1065180001F120030160036001F14003036001F110
:106528006003043A01F180010360F1D1B9F1000F71
:106538001CBF0160B9F1010F50D102F072FB02F0EB
:1065480073FB01985146424600F08FFCDDF8089035
:10655800B06A0068BFF35F8FC00765D0706A002813
:106568004DD0306A0126017CD9F8B8314AB201F021
:106578001F01002A48BF1B0C8E4033401B0624D144
:10658800B2F1FF3F4FF48032C8BF01224FF47F05BC
:1065980002FA01F1C8BFFF252940C9F8BC1190F9DA
:1065A80010104FF480334FF47F060022B1F1FF3F03
:1065B80001F01F01C4BFFF26012303FA01F1314096
:1065C800C9F87811514600F050FCCBF8048000203F
:1065D8008BF8000005B0BDE8000FF0BD01F1200206
:1065E8000260B9F1020F1CBF40310160A5E740F617
:1065F800E8620120C2F2200202F085FBFEDE40F6CE
:10660800E8620020C2F22002002102F07CFBFEDEDC
:1066180040F6585040F6A452C2F22000C2F22002BE
:106628002B2102F059FBFEDE40F6585040F69452FA
:10663800C2F22000C2F220022B2102F04DFBFEDE46
:10664800F0B503AF2DE9000F83B08046387A914644
:106658000C464A69410041EAD011C8B2824240F270
:10666800C480A26A01F00F011268BFF35F8F92B273
:1066780022FA01F1C90700F0B880616A814240F24C
:10668800AD80216A00EB800001EB8000C168496899
:1066980011F0680F01D0072012E02146027C51F862
:1066A80008CF02F01F0E56B20122DCF8B85102FAE8
:1066B8000EF2002E48BF2D0C2A40120609D00020E9
:1066C80088F80100012088F8000003B0BDE8000F39
:1066D800F0BDA28D06F00F04E240D207EFD0B6F16C
:1066E800FF3F4FF480344FF47F06C8BF0124C8BF72
:1066F800FF2604FA0EF42640CCF8BC6190F910602D
:106708004FF480324FF47F05B6F1FF3F06F01F06C5
:10671800C4BFFF250122B2402A40CCF87821D0E935
:10672800026235685468D269C5F30A4CC4F30E4551
:106738009C45A2EB050228BF9C46944528BF944679
:106748009C455ED8D0F804B0DC4538BFE346BBF1C1
:10675800000F35D0D0F800A009EB0C03ABF1010E07
:10676800ABF1020200260292ABF103020192B4459A
:1067780025D00AEB06044A46B645257802F8015B9F
:1067880018BF9A421BD0627889F80120029AB24257
:106798001CBF09F102029A4211D0A27889F802209E
:1067A800019AB2421CBF09F103029A4207D0E2786B
:1067B800043689F8032009F10409B345D7D186685E
:1067C8003268C2F30A4200F050FBC8F804B0002057
:1067D80088F8000003B0BDE8000FF0BD40F6E8629D
:1067E800C2F2200202F08FFAFEDE40F6585040F660
:1067F800B452C2F22000C2F220022B2102F06CFA3D
:10680800FEDE40F668626046C2F22002194602F0D7
:106818007DFEFEDEF0B503AF2DE9000F83B08346A1
:10682800387A96460D464A69410041EAD011C8B205
:10683800824240F2D380AA6A01F00F011268BFF3C6
:106848005F8F92B222FA01F1C90700F0C780696A26
:10685800814240F2BC80296A00EB800001EB80098C
:10686800D9F80C00406810F0680F01D0072011E03B
:1068780099F81010012655F8080F4CB201F01F01C5
:10688800D0F8B821002C48BF120C8E4032401206B6
:1068980009D000208BF8010001208BF8000003B01C
:1068A800BDE8000FF0BD4FF48032B4F1FF3FC8BF20
:1068B80001224FF47F0602FA01F1C8BFFF263140DA
:1068C800C0F87811D9E901800068C0F30A409842FD
:1068D80038BF0346434538BF9846B8F1000F5FD02C
:1068E800A8F10200D9F800600290A8F103000EEBAD
:1068F8000301A8F1010A01900020834225D07246C5
:10690800341812F801CB824584F800C018BF8A42B7
:106918001BD09EF801206270029A82421CBF0EF1C1
:1069280002028A4211D09EF80220A270019A824285
:106938001CBF0EF103028A4207D09EF803200430E0
:106948000EF1040E8045E270D7D1012000EB5A14F5
:1069580004F0030A02F065F94EF6707026F01F0184
:10696800CEF20000B8F1610F0FD324F0030201F159
:1069780020030160036001F14003036001F160033B
:10698800043A01F180010360F1D1BAF1000F1CBF94
:106998000160BAF1010F11D102F043F902F044F994
:1069A80048462946424600F060FACBF804800020A9
:1069B8008BF8000003B0BDE8000FF0BD01F1200224
:1069C8000260BAF1020F1CBF40310160E4E740F6F3
:1069D800E862C2F2200202F096F9FEDE40F6585054
:1069E80040F6C452C2F22000C2F220022B2102F06B
:1069F80073F9FEDEF0B503AF4DF8048D15468846F1
:106A0800E9B26B0043EAD1114269CBB29A4246D946
:106A1800826A01F00F011268BFF35F8F92B222FA07
:106A280001F1C9073BD0416A994230D9016A03EBA9
:106A3800830200F1080401EB8206424621463046F3
:106A480000F098FA68B2002812D4B8F1000F0FD1FC
:106A580020680122D0F8B80196F91010002901F039
:106A68001F0148BF000C02FA01F10840000602D0DD
:106A78005DF8048BF0BDB06821460068C0F30A4297
:106A880030465DF8048BBDE8F04000F0EEB940F602
:106A9800E8621846C2F2200202F035F9FEDE40F63E
:106AA800585040F6D452C2F22000C2F220022B21E4
:106AB80002F012F9FEDED4D4F0B503AF2DE90007D9
:106AC800A2B001AD0026082100F1100A00F1080467
:106AD80005F130090DF16808CDE90B6101210020AD
:106AE8000F960D960A9106960296CDF804A009E035
:106AF800284641464A4600F039FB70B1214600F06D
:106B0800C3FA0D981A9500281EBF0E980E960028F5
:106B18000FD102980D960228EAD10F980D960028F9
:106B28001EBF10981096002807D0017C4906E5D1B1
:106B380003E0017C4906E1D1EBE700260820CDE916
:106B48000B6001200DF168080A9000200F960D9641
:106B58000696CDE901A600E00D981A9500281EBFFB
:106B68000E980E9600281BD102980D9602280AD07E
:106B7800284641464A4600F0F9FA20B1017C11F056
:106B88007F0211D13FE00F980D9600281EBF109884
:106B98001096002844D0017C11F07F0204D13FE018
:106BA800017C11F07F02DFD01192013A062A3BD80E
:106BB800DFE802F004080C1014181C00226802F523
:106BC800E27216E0226802F5E47212E0226802F529
:106BD800E6720EE0226802F5E8720AE0226802F521
:106BE800EA7206E0226802F5EC7202E0226802F519
:106BF800EE724BB21268B3F1FF3F4FF40003C8BF07
:106C080080231A42A8D049B2B1F1FF3FA4DD8168C0
:106C18000968C1F30A42214600F027F90D989CE75C
:106C280022B0BDE80007F0BD012040F6F8711590CC
:106C380046F6E3221790C2F220011F9020A81E906A
:106C480047F28F50149118A9C0F20002C0F2000058
:106C580016910021CDE918820222219011A81D92D7
:106C680041F22402209012A81291C2F220021A9135
:106C780041F29001C2F220011C9202F017F8FEDEE8
:106C8800F0B503AF2DE9000F91B00E46804656F8D7
:106C9800080F0D46D0F844B15FEA4B611CD45FEA97
:106CA8004B714BD504214FF0000AC0F8441108205D
:106CB800CDE90AA00120099005F110006C4604F105
:106CC800300900900020CDF838A0CDF830A0CDF8DC
:106CD80014A0CDF804A010E04021C0F84411012010
:106CE800A8F8000011B0BDE8000FF0BD017C49060E
:106CF8000BD0314600F04EF80C98109400281EBFB7
:106D08000D98CDF834A00028F0D10198CDF830A026
:106D1800022806D010A920464A4600F027FA002883
:106D2800E7D10E98CDF830A040B10F98CDF83CA02F
:106D380000281CBF017C5FEA4161DAD15FEACB70B1
:106D480006D10020A8F8000011B0BDE8000FF0BD82
:106D5800A8680121C0F84411A868D0F8BC11C9B2CC
:106D6800A985D0F8BC11C1F307410A04C0F8BC21B9
:106D7800A868D0F8AC01A8F80600A88DA8F8020009
:106D88000220A8F80410A8F8000011B0BDE8000F10
:106D9800F0BDD4D480B56F4692B0007C10F07F026D
:106DA80034D00192013A062A32D8DFE802F004080A
:106DB8000C1014181C00096801F5E27116E0096846
:106DC80001F5E47112E0096801F5E6710EE0096861
:106DD80001F5E8710AE0096801F5EA7106E0096859
:106DE80001F5EC7102E0096801F5EE7140B24FF46B
:106DF8000022B0F1FF3FC8BF082208686FF40C03F7
:106E0800C8BF6FF08C0318401043086012B080BDF3
:106E1800012040F6F87146F6E32205900790C2F289
:106E280020010F9010A8C0F200020E9047F28F5078
:106E3800049108A909920AAAC0F20000069100214B
:106E480008920222119001A80D9241F2240210909A
:106E580002A80291C2F220020A9141F29001C2F204
:106E680020010C9201F022FFFEDEF0B503AF4DF8D1
:106E7800048D82B005468846EE68012100683160BD
:106E88007168F26162F31E417160CAB1B06040F688
:106E9800FF71B068884300F58050F060F0686FF3C8
:106EA8000B0000F58050306130696FF30B0000F57E
:106EB8008050706170696FF30B0000F5805004E03A
:106EC8000020B060F06030617061B061802170684E
:106ED80040F400407060706861F3070070600096CD
:106EE80001F09FFE4EF670746846CEF2000420F062
:106EF8001C00206001F095FE01F096FEA8688660EF
:106F0800C16821F0FF01C160019001F08AFE01A86B
:106F180020F01C0020602030206001F082FE01F08B
:106F280083FE95F910204FF47F01D8F800004FF444
:106F38008033B2F1FF3F02F01F02C8BFFF21C8BF74
:106F4800012303FA02F21140C0F8B011D0F8B011D1
:106F580059B1D0F8B01100291CBFD0F8B0110029E0
:106F680003D0D0F8B0110029F0D102B05DF8048B3D
:106F7800F0BDD4D480B56F4692B0007C00F07F039A
:106F88000193072B52D84FFA80FCDFE803F0042462
:106F98000C141C2C3442086800F5E0710B68BCF135
:106FA800000F3DD52EE0086800F5E4710B68BCF1D0
:106FB800000F35D526E0086800F5E6710B68BCF1CE
:106FC800000F2DD51EE0086800F5E8710B68BCF1CC
:106FD800000F25D516E0086800F5E2710B68BCF1D2
:106FE800000F1DD50EE0086800F5EA710B68BCF1CA
:106FF800000F15D506E0086800F5EC710B68BCF1C8
:10700800000F0DD523F4803062F31040086012B0F1
:1070180080BD086800F5EE710B68BCF1000FF1D473
:1070280023F001001044086012B080BD012040F632
:10703800F87146F6E32205900790C2F220010F90FE
:1070480010A8C0F200020E9047F28F50049108A9D0
:1070580009920AAAC0F200000691002108920222B1
:10706800119001A80D9241F22402109002A80291F9
:10707800C2F220020A9141F29001C2F220010C9260
:1070880001F014FEFEDED4D480B56F4692B090F8BD
:1070980010C01CF07F033AD00193013B062B38D86F
:1070A800DFE803F004080C1014181C00096801F547
:1070B800E27116E0096801F5E47112E0096801F56A
:1070C800E6710EE0096801F5E8710AE0096801F562
:1070D800EA7106E0096801F5EC7102E0096801F55A
:1070E800EE71407C4FFA8CF20B68002A08D400F04D
:1070F8000F0023F00C0242EA800040F0C00005E0D7
:1071080023F44C0242EA804040F44000086012B088
:1071180080BD012040F6F87146F6E32205900790FD
:10712800C2F220010F9010A8C0F200020E9047F2A0
:107138008F50049108A909920AAAC0F2000006918A
:10714800002108920222119001A80D9241F2240216
:10715800109002A80291C2F220020A9141F2900115
:10716800C2F220010C9201F0A1FDFEDEF0B503AFE2
:107178002DE9000F85B0416800291CBFD0E9021332
:107188008B4274D102AE84464ACE4CF8081FDCF814
:107198001C10CCE90136002952D0D0E90A91894562
:1071A80001914DD200F110054FF0010B4FF0000E88
:1071B80002E001998A4543D0022109F1010AC16020
:1071C80049F080015FFA89F3D14643EA012101823F
:1071D8000021C0F804B0C0F828A007E0C2F800B049
:1071E800D0E90213C2F804E08B42E2D04B1C836062
:1071F800695C06684B0043EAD111D6F80480CBB22B
:107208009845EBD9B46901F00F012468BFF35F8F8B
:10721800A4B224FA01F1C907E0D07169994240F299
:107228008D80316903EB8303C2E900BE01EB830162
:107238000B7C5B06D4D0084605B0BDE8000FF0BD56
:1072480002AE002545604ACE8CE84A004169002913
:107258001CBFD0E906138B423DD102AE0021143089
:107268004CCE4EC0084605B0BDE8000FF0BD00F199
:1072780010064FF0000E4FF0010C08E0C2F800C0F5
:10728800D0E90213C2F804E08B423FF47BAF4B1CF9
:107298008360715C04684B0043EAD1116568CBB226
:1072A8009D42EBD9A56901F00F012D68BFF35F8FEF
:1072B800ADB225FA01F1C907E0D0616999423DD91B
:1072C800216903EB8303C2E900CE01EB83010B7C48
:1072D8005B06D5D0AFE700F120064FF0000E4FF067
:1072E800010C07E0C2F800C0D0E90613C2F804E0B8
:1072F8008B42B2D04B1C8361715C04684B0043EA3B
:10730800D1116568CBB29D42ECD9A56901F00F0196
:107318002D68BFF35F8FADB225FA01F1C907E1D03F
:10732800616999420AD9216903EB8303C2E900CE56
:1073380001EB83010B7C5B06D6D07CE740F6E86264
:107348001846C2F2200201F0DEFCFEDE7047D0E9EA
:1073580000108C220028096808BF8422885840F051
:10736800004088507047D0E900108C220028096836
:1073780008BF84228858C00F7047D0E900108C22BB
:107388000028096808BF8422885820F000408850E7
:107398007047D0E900108C220028096808BF8422B1
:1073A800885840F0804088507047D0E900208C23EE
:1073B8000028126808BF8423D05820F0807040EA63
:1073C8000160D0507047D0E900208823002808BF0A
:1073D80080236FF07F408142126838BF0846012839
:1073E80098BF01200138D0507047D0E900104FF005
:1073F800007200280968D1F8441108BF4FF0807264
:1074080011EA020018BF01207047D0E900104FF0C0
:1074180000720028096808BF4FF08072C1F8442143
:107428007047D0E900204FF0007300286FF000701B
:10743800126808BF4FF08073D2F848C108BF6FF0D8
:107448008070002900EA0C0018BF1843C2F84801F0
:107458007047D0E900104FF0007200280968D1F891
:10746800481108BF4FF0807211EA020018BF0120CE
:107478007047F0B503AF2DE9000B84464668C8B2E3
:107488004D0045EAD014E0B2864217D9DCF81890CE
:1074980004F00F04D7F80880012606FA04FEBFF3AB
:1074A8005F8F59E8006F46EA0E0449E80045002D51
:1074B800F7D116EA0E0FBFF35F8F03D00020BDE8A7
:1074C800000BF0BDDCF80CE0864542D9DCF814E08E
:1074D800864543D9DCF800601D46B3F5806F06EB9E
:1074E8008014266846F000562660266828BF4FF4A8
:1074F80080656FF31A4646EA0546266026685FEA05
:107508000865DCF808E026F40049DCF810C04EB243
:107518004D4608BF05F50045B6F1FF3FD8BF4D46BB
:107528002560450101264EF805600EEB401600EB7C
:107538008000756825F0FF0575604CF820200CEB7D
:1075480080000174011D80F8118058C1BDE8000B4E
:10755800F0BD40F6F862C2F2200203E040F608727D
:10756800C2F22002714601F0CEFBFEDE7047F0B594
:1075780003AF4DF804BD82B0044690F834000D46C0
:10758800A8B12068E0BBE0684FF0FF312160D0F877
:10759800481121F0450165F3000165F3820165F3A7
:1075A8008611C0F8481120680130206024E001F0FD
:1075B8003EFB064601F031FB01F03CFB2068F8B9C0
:1075C800E0684FF0FF312160D0F8481121F0450103
:1075D80065F3000165F3820165F38611C0F848116F
:1075E800206801302060F00706D102B05DF804BBC6
:1075F800BDE8F04001F013BB02B05DF804BBF0BD7C
:1076080040F6BC7040F6AC73C2F2200001AA0090AC
:1076180040F28610C2F22000C2F22003102101F0CD
:1076280092FBFEDEF0B503AF4DF804BD82B0044610
:1076380090F834000E4648B32068002869D14FF00E
:10764800FF3071002060F0B241EAD011A269C8B2DF
:10765800824217D9E26A01F00F011268BFF35F8F07
:1076680092B222FA01F1C9070CD0A16A814249D924
:10767800616A00EB800001EB80008068016821F0FE
:107688000051016020680130206037E001F0CFFA36
:10769800054601F0C2FA01F0CDFA2068C8BB4FF0E8
:1076A800FF3071002060F0B241EAD011A269C8B27F
:1076B800824217D9E26A01F00F011268BFF35F8FA7
:1076C80092B222FA01F1C9070CD0A16A814219D9F4
:1076D800616A00EB800001EB80008068016821F09E
:1076E80000510160206801302060E80706D102B02F
:1076F8005DF804BBBDE8F04001F091BA02B05DF856
:1077080004BBF0BD40F6E862C2F2200201F0FBFAC9
:10771800FEDE40F6BC7040F6AC73C2F2200001AA4F
