:0200000460009A
:100000004643464200000156000000000101020084
:1000100000000000000000000000000000000000E0
:1000200000000000000000000000000000000000D0
:1000300000000000000000000000000000000000C0
:1000400000000000010403000000000000000000A8
:100050000000200000000000000000000000000080
:100060000000000000000000000000000000000090
:100070000000000000000000000000000000000080
:10008000EB04180A063204260000000000000000FD
:10009000050404240000000000000000000000002F
:1000A0000000000000000000000000000000000050
:1000B0000604000000000000000000000000000036
:1000C0000000000000000000000000000000000030
:1000D00020041808000000000000000000000000DC
:1000E0000000000000000000000000000000000010
:1000F0000000000000000000000000000000000000
:1001000000000000000000000000000000000000EF
:100110000204180804200000000000000000000095
:1001200000000000000000000000000000000000CF
:10013000600400000000000000000000000000005B
:1001400000000000000000000000000000000000AF
:10015000000000000000000000000000000000009F
:10016000000000000000000000000000000000008F
:10017000000000000000000000000000000000007F
:10018000000000000000000000000000000000006F
:10019000000000000000000000000000000000005F
:1001A000000000000000000000000000000000004F
:1001B000000000000000000000000000000000003F
:1001C000000100000010000001000000000000001D
:1001D000000000000000000000000000000000001F
:1001E000000000000000000000000000000000000F
:1001F00000000000000000000000000000000000FF
:10020000D4D4D4D4D4D4D4D4D4D4D4D4D4D4D4D4AE
:10100000D10020400020006000000000000000002F
:1010100020100060001000600000000000000000D0
:101020000000006088FB010000000000EFBEADDEA4
:10103000124880F3088812481249016000F036F81F
:10104000114812490022814201D004C0FBE7104838
:101050001049114A814202D008CA08C0FAE70F4875
:101060004FF47001026842EA01020260BFF34F8F41
:10107000BFF36F8F00F014F800DE00000040002086
:1010800008ED00E0004000200050002094B5002052
:10109000B84200205C44002088FB016088ED00E03D
:1010A00042F2956CC0F2000C6047D4D41C4840F268
:1010B000924188420CBF1B4A1B4A1C4B5360136869
:1010C00023F0800313601A481A4901BF1A480A0C1A
:1010D0008264C1F30F014164016C41F004010164B9
:1010E0001648174A824205D01649814202D008CAE2
:1010F00008C0FAE71448154A824205D014498142D3
:1011000002D008CA08C0FAE71248134A824205D042
:101110001249814202D008CA08C0FAE770470000AD
:10112000240400000080034000C00B4020C528D9E3
:1011300000C00A40AAAAFAFF00400E4000000000CA
:10114000B822006078970100004000200020006075
:10115000B84200200000202030BA01605841202011
:10116000D4D4D4D4D4D4D4D4D4D4D4D4D4D4D4D43F
:10117000D4D4D4D4D4D4D4D4D4D4D4D4D4D4D4D42F
:10118000D4D4D4D4D4D4D4D4D4D4D4D4D4D4D4D41F
:10119000D4D4D4D4D4D4D4D4D4D4D4D4D4D4D4D40F
:102000000040002031100060C55000005D970100C5
:10201000C5500000C5500000C55000000000000081
:10202000000000000000000000000000C55000009B
:10203000C550000000000000C5500000C550000061
:10204000C5500000C5500000C55000008D2600009E
:10205000C5500000C5500000C5500000C55000002C
:10206000C5500000C5500000C5500000C55000001C
:10207000C5500000C5500000C5500000C55000000C
:10208000C55000000000000000000000000000003B
:10209000C5500000C5500000C5500000C5500000EC
:1020A000C5500000C5500000C5500000C5500000DC
:1020B000C5500000C5500000C5500000C5500000CC
:1020C000C5500000C5500000C5500000C5500000BC
:1020D000C5500000C5500000C5500000C5500000AC
:1020E000C5500000C5500000C5500000C55000009C
:1020F000C5500000C5500000C5500000C55000008C
:10210000C5500000C5500000C5500000C55000007B
:1021100000000000C550000000000000C550000095
:10212000C5500000C5500000C5500000C55000005B
:1021300089260000C550000000000000C5500000C6
:10214000C5500000C5500000C5500000C55000003B
:10215000C5500000C5500000000000000000000055
:10216000C5500000C5500000C5500000C55000001B
:10217000C5500000C5500000C5500000C55000000B
:10218000C5500000C5500000C5500000C5500000FB
:10219000C5500000C5500000C5500000C5500000EB
:1021A000C5500000C5500000C5500000C5500000DB
:1021B000C5500000C5500000C5500000C5500000CB
:1021C000C5500000C5500000C550000000000000D0
:1021D000C5500000C5500000C5500000C5500000AB
:1021E000C5500000C5500000C5500000C55000009B
:1021F000C5500000C5500000C5500000C55000008B
:10220000C550000079440000C5500000C5500000D2
:10221000C5500000C5500000C5500000C55000006A
:10222000C5500000C550000091260000C5500000B8
:10223000C5500000C5500000C5500000000000005F
:1022400000000000C5500000C5500000C55000004F
:10225000C5500000C5500000C5500000C55000002A
:10226000C5500000C5500000C5500000C55000001A
:10227000C5500000C5500000C5500000C55000000A
:10228000C5500000C5500000C5500000C5500000FA
:10229000C5500000C5500000C5500000C5500000EA
:1022A000C5500000C5500000C550000000000000EF
:0822B000C5500000C5500000FC
:1022B800F0B503AF2DE9000F81B02DED028BADF520
:1022C800127D8946D1E9026A91ED018A4CF6012313
:1022D8000968C3F69A33D0F818E000F15C08069153
:1022E80000F11C019E45CDF81C8028D105900DF108
:1022F800700B0491B64691467CC9DC46ACE87C007C
:102308007CC9ACE87C0091E87D008CE87D00002069
:10231800069AD11E032938BF901EDFE800F0026D2F
:1023280072F5002A00F06D81012A40F0DD81B0EEDF
:10233800480A0FF04AFE8DED250A012062E134AB10
:10234800CDF808A003968446049280469A468B46A8
:102358009CE87B00DC468AE87B00CDF8E8E00DF1DC
:10236800D00E0EF11C0ABCE87C0051467CC1BCE8CA
:102378007C007CC19CE87D007DC10EF15C0064227C
:1023880007997446059019F0BEF909F110030298EF
:1023980067900DF5D07C0FCB039E8CE80F0064A9E5
:1023A8002046049A6696069E8DED658A649600F02E
:1023B8007BFA2146A64691E87D000DF1580C8CE881
:1023C8007D003A9806900EA8BAE84E004EC09AE8EA
:1023D8004E004EC00EF1450108A817229DF8149131
:1023E8009DED448ADDF80CA118F09EFB059964A8C0
:1023F800642219F088F992E118EE100A8DF8AC0001
:1024080072E15EEA0A0000F06F8126980BF1300451
:102418005346764600254FF000080BF12C01069133
:1024280008E001382A9001202690A91B78EB0301C7
:1024380080F05A81013548F1000840B32A980028F5
:10244800EFD14BF29050C2F200000068022818D970
:10245800012040F28061379040F22060C2F22000F3
:1024680040F2286236900020C2F220013990349060
:1024780034A838910321C2F2200200230CF04BFA51
:1024880053460EAA07CA84E80700042002E02798EA
:1024980040B10138279000202690A91B78EB030152
:1024A800C8D321E14BF29050C2F200000068022824
:1024B80017D9012040F28061379040F25C60C2F287
:1024C800200040F2646236900020C2F22001399068
:1024D800349034A838910321C2F2200200230CF072
:1024E8001AFA0AF054F8014648460AF0F9FF069825
:1024F8000AF058F8042053462A9001202690A91B78
:1025080078EB030196D3EFE018EE100A4BF29055E2
:10251800C2F2000507F8290C286802281CD90120F6
:1025280040F26841379040F27042399064A8389080
:102538000020349047F6D360C0F20100C2F22001B7
:102548006590A7F12900649034A83691C2F2200260
:10255800032100230CF0DFF92698A8B317F8291CEB
:102568000BF12C000AF023F8C1B2022900F0BC805C
:10257800020E8DF820108DF82320020AADF82120D4
:102588002A68022A40D9012040F29C41379040F243
:10259800A442399064A83890002034904AF2F1306F
:1025A800C0F20000C2F22001659008A8649034A827
:1025B8003691C2F22002032100230CF0ACF9BDF8D9
:1025C80022009DF8201020E028680328C0F08C80A5
:1025D800012040F28061379040F2E850C2F22000BA
:1025E80040F2F05236900020C2F220013990349027
:1025F80034A83891C2F22002032100230CF08BF991
:1026080072E0002024906FE0000C084333D19DF85D
:102618002100C0F17E0040B24408C007169440D1A2
:102628000DF1700840460AF00FFD2968844240F217
:10263800A080022917D9012040F28061379040F22A
:102648002850C2F2200040F2305236900020C2F2E8
:1026580020013990349034A83891C2F22002032125
:1026680000230CF058F9B8E82E002CA82EC098E8E2
:102678002E002EC0B2E0286803282DD3012040F296
:102688008061379040F2D84040F2E042C2F2200028
:1026980036900020C2F22001C2F22002399038910F
:1026A80014E02868032817D3012040F2806137908E
:1026B80040F2A050C2F2200040F2A852369000200A
:1026C800C2F2200139903891C2F22002349034A825
:1026D800032100230CF01FF90EAA042327930023DB
:1026E80007CA269328AB07C30BF1290108A84CF6A3
:1026F80001281722C3F69A389DF898909DED258AEF
:10270800249C18F011FABBE82E000EA82EC09BE8F6
:102718002E002EC0CDF81880A246DDE904B80DF1D0
:10272800580C41469CE87D007DC10EA84EC8ABE818
:102738004E0090E84E0008F145008BE84E0008A9CD
:10274800172218F0F1F9079864A9642218F0DBFF42
:10275800069888F8449088ED108AC8F83CA0C8F814
:1027680018000DF5127DBDEC028B01B0BDE8000F1D
:10277800F0BD02291CD9012040F24C51379040F29B
:102788005452399064A838900020349048F20F00D1
:10279800C0F20100C2F22001659016A8649034A826
:1027A8003691C2F22002032100230CF0B4F8169CE3
:1027B80034A9B8E86C0008466CC098E86C006CC096
:1027C80064AD224628460AF041FC649800285ED091
:1027D8004ECD2CA84EC095E84E004EC02CAA9DF8B0
:1027E800ACB09DED258A64A9DDF8908001F10C005C
:1027F80078CA0DF1D00A78C092E8780078C04CF613
:102808000120C3F69A300138669050460AF0DEF887
:10281800BBF1040F08D0032064A9649034A84A4689
:102828008DF894B100F040F8B8F1000F0CD0B0EE7C
:10283800480A0FF007FC012064A9649034A84A46AE
:102848008DED650A00F030F851460DF1580C91E80D
:102858007D000EA98CE87D000AF11C00DDF8E880F7
:102868006CC86CC190E86C0008A86CC10AF14501FD
:1028780017229DF814919DED448A439C18F054F951
:102888000AF15C0164A8642218F03DFF42E740F2B7
:10289800D82040F27052C2F22000C2F220022B214E
:1028A80014F041FAFEDED4D4F0B503AF2DE9000FE1
:1028B80081B02DED028BBAB006460868904600221A
:1028C800C31E032B38BF821E0596DFE802F0026D97
:1028D80076D93278747891ED010A002A40F0F180B7
:1028E800022C80F0EE80002800F04E81012840F094
:1028F80006829FEDE81A4BF290559FEDE72AC2F247
:10290800000520EE011A8DED060A81EE021A8DED02
:10291800071A286803281FD3022040F230012390A9
:10292800C2F22001259008A824900020209047F2A8
:102938009360C0F2010040F290020B90C2F22002B4
:10294800099006A8229107A9089020A80A910321B6
:1029580000230BF0E0FF059E2868002C00F03B8266
:10296800022818D9012040F28061239040F2CC005F
:10297800C2F2200040F2D40222900020C2F22001CC
:102988002590209020A82491C2F220020321002340
:102998000BF0C1FF059E06F1100009F0DFFE0146AD
:1029A80008A80AF01FF839E20879DFE810F00400F7
:1029B800120142017701022071E1D1E90234CDF818
:1029C800088053EA040000F0968096F801C04BF2A4
:1029D800905E307806F10208D6E9029AC2F2000E3B
:1029E8004FF0000B0025CDE903C311E00020BDF82E
:1029F8008410A8F80410BBEB0301209A75EB0401BE
:102A080086F801C03070C8F80020C6E9029A73D26F
:102A18001BF1010B45F100050028E7D059EA0A002F
:102A280006D0B9F101094FF001006AF1000ADEE7AA
:102A38008DF81CC0DEF800000228D7D9012040F22A
:102A48008431239040F28C32259008A824900020ED
:102A580020904AF63B10C0F20000C2F22001099013
:102A680007A8089020A822910321C2F2200200237F
:102A780076460BF050FFB646DDE903C3059EB5E781
:102A88004BF29050C2F2000000680328C0F0D981D0
:102A9800012040F28061239040F24830C2F22000C9
:102AA80040F2503222900020C2F22001259020905E
:102AB80020A82491C2F22002032100230BF02BFF4F
:102AC800BFE1002860D0012840F04F819FEDEB1A4C
:102AD8004BF290559FEDEA2AC2F2000520EE011A4A
:102AE8008DED060A81EE021A8DED071A2868022874
:102AF8003FF612AF30E73078029DF0B106F11000D2
:102B080009F02CFEA0B1461E002009F038FD000493
:102B180000F09E81304609F03DFD0146C0B2022812
:102B280000F09F8128460AF0DBFC013E701CEBD1C7
:102B3800059E3078002840F0848170780238C0B251
:102B4800022828BF0220012840F07B8106F11000EE
:102B580009F004FE002800F07481441E43F6FF705B
:102B680009F00DFD000400F07381204609F012FD04
:102B78000146C0B2022800F0748128460AF0B0FC71
:102B8800013C601CEAD15CE14BF29050C2F20000BB
:102B98000068022818D9012040F28061239040F291
:102BA800B420C2F2200040F2BC2222900020C2F2DF
:102BB80020012590209020A82491C2F22002032110
:102BC80000230BF0A8FE059E06F1100009F0D3FDC6
:102BD80037E14BF29050C2F200000068022818D981
:102BE800012040F28061239040F20C40C2F22000A4
:102BF80040F2144222900020C2F220012590209039
:102C080020A82491C2F22002032100230BF083FEA6
:102C1800059E06F11005284609F0A0FD20AE0146E4
:102C2800304609F055FF2846314609F042FE00209B
:102C380035E04BF29050C2F200000068022818D923
:102C4800012040F28061239040F2C830C2F2200097
:102C580040F2D03222900020C2F22001259020902C
:102C680020A82491C2F22002032100230BF053FE76
:102C7800059E06F11005284609F070FD20AE0146B4
:102C8800304609F0AFFE2846314609F012FE012011
:102C980005E000BF000016440000044403204BF286
:102CA80090518DF81C00C2F20001096802291DD953
:102CB800012040F23041239040F23842259008A884
:102CC8002490002020904AF63B10C0F20000C2F287
:102CD8002001099007A8089020A82291C2F220029A
:102CE800032100230BF017FE9DF81C00059B002113
:102CF800022258700120C3E902211870A1E0D1E92D
:102D08000502904280F09D808B6806F1100A0969DF
:102D1800A2EB000B03EB80050DF1800901EB8004A9
:102D280008AE07E0BBF1010B05F1040504F104044A
:102D380000F08780D4ED000A484695ED000A514618
:102D480009F028FE22980028ECD0DDE92331DDE9DE
:102D580020C2CDE908C2CDE90A03101A424601EBA8
:102D68009001304601F090FBDCE7D1E90502904282
:102D780067D28B6806F1100B0969A2EB000803EB18
:102D880080050DF1800A01EB800408AE0DF1E4091D
:102D980006E0B8F1010805F1040504F1040450D077
:102DA800D4ED000A504695ED000A594609F0F2FDA7
:102DB80022980028EDD0DDE92331DDE920C2CDE9F4
:102DC80008C2CDE90A03101A4A4601EB90013046C1
:102DD80001F0CAFBDDE7022818D9012040F2806122
:102DE800239040F2F010C2F2200040F2F812229034
:102DF8000020C2F220012590209020A82491C2F240
:102E08002002032100230BF086FD059E06F1100029
:102E180009F0A4FC014608A809F05AFE9DED070A2E
:102E28000FF0D3F820AD08A96022B0EE408A2846FA
:102E380018F004F9B0EE480A06F11000294609F026
:102E4800D4FC3AB0BDEC028B01B0BDE8000FF0BD78
:102E580040F2D82040F21432C2F22000C2F220021E
:102E680007E040F2D82040F20432C2F22000C2F259
:102E780020022B2113F057FFFEDE00BF000016448E
:102E8800000004447047F0B503AF4DF804BD82B0AC
:102E9800046800208029019003D201208DF80410D5
:102EA80032E002200A4660F39F12B1F5006F07D2A4
:102EB8008DF80520C02242EA91118DF8041023E014
:102EC800B1F5803F0DD28DF806208A0960F39F1274
:102ED800E02040EA11308DF804008DF80520032029
:102EE80012E08DF807208A0960F39F128DF80620FA
:102EF8000A0B60F39F12880C1E218DF8052061F3E0
:102F0800DF008DF80400042001AE351807E043EA1D
:102F18008211861C204600F0C7F9AE4226D0304602
:102F280016F9012BB2F1FF3FD1B2F3DC437801F07F
:102F38001F02DF2903F03F03E9D98678F02906F05C
:102F48003F0646EA83130DD3C17802F0070201F069
:102F58003F0141EA831141EA8241B1F5881F05D05A
:102F6800061DD7E743EA0231C61CD3E7002002B0AA
:102F78005DF804BBF0BDF0B503AF4DF8048D88B023
:102F8800D0F800C002AA91E8714140F2806113466E
:102F9800C2F2200183E8714101A8CDF804C014F001
:102FA8007BFC08B05DF8048BF0BDF0B503AF4DF8BD
:102FB80004BD92B304688E180D4607E043EA8211F7
:102FC800851C204600F070F9B54226D0284615F930
:102FD800012BB2F1FF3FD1B2F3DC437801F01F02BD
:102FE800DF2903F03F03E9D98578F02905F03F058B
:102FF80045EA83130DD3C17802F0070201F03F01BF
:1030080041EA831141EA8241B1F5881F05D0051DC7
:10301800D7E743EA0231C51CD3E700205DF804BBBB
:10302800F0BDD4D4F0B503AF4DF804BD82B004466A
:10303800057A062021468DF8040000208DF800004E
:10304800684602F0DBFBC0B2072840F02681182052
:1030580021468DF804000820ADF80000684602F00B
:10306800CDFBC0B2072840F01881142021468DF806
:1030780004003F208DF80000684602F0BFFBC0B294
:10308800072840F00A81162000268DF804006846BB
:1030980021468DF8006002F0B1FBC0B2072840F06D
:1030A800FC80122021468DF8040068468DF80060E7
:1030B80002F0A4FBC0B2072840F0EF801C20214694
:1030C8008DF8040001208DF80000684602F096FB98
:1030D800C0B2072840F0E1800E2021468DF8040098
:1030E80002208DF80000684602F088FBC0B207286D
:1030F80040F0D380172021468DF804000120ADF858
:103108000000684602F07AFBC0B2072840F0C5808C
:103118002572DFE805F00219052C1320012501E0CE
:10312800132000258DF80400684621468DF80050CC
:1031380002F064FBC0B2072840F0AF8015208DF87C
:1031480000508DF8040026E0132021468DF8040075
:1031580000208DF80000684602F050FBC0B2072836
:1031680040F09B8015208DF80400012011E0132009
:1031780021468DF8040001208DF80000684602F011
:103188003DFBC0B2072840F0888015208DF8040068
:1031980000208DF800006846214602F02FFBC0B2DF
:1031A80007287AD102F03BFC0D4619218DF8010061
:1031B80001208DF8041021468DF80000684602F0C1
:1031C8001DFBC0B2072868D1032021468DF80400F2
:1031D80068468DF8005002F011FBC0B207285CD198
:1031E8001A2004258DF80400684621468DF8005001
:1031F80002F004FBC0B207284FD18DF80450002517
:10320800684621468DF8005002F0F8FAC0B2072847
:1032180043D1052021468DF8040068468DF80050FA
:1032280002F0ECFAC0B2072837D1092021468DF800
:10323800040000208DF80000684602F0DFFAC0B2F2
:1032480007282AD1062001258DF804006846214662
:103258008DF8005002F0D2FAC0B207281DD1207AAA
:10326800022148F240026172C8F24002C10044F2F1
:103278008000C4F28000C84022FA01F102F0E5FBA8
:10328800C4F80B002046A5720021002202B05DF8A8
:1032980004BBBDE8F04000F0A1B902B05DF804BB82
:1032A800BDE8F04002F06DBCF0B503AF2DE9000FAA
:1032B80087B004460A2925D00D294ED10D20214674
:1032C8008DF8140000208DF8100004A802F096FA7A
:1032D800C0B207284AD1A07A002800F0738104F10F
:1032E8000B05284602F022FCA07A002800F06A812B
:1032F8000A462846002102F006FC092007B0BDE86E
:10330800000FF0BDA07A002800F05C8104F10B00EA
:1033180002F0DAFB05460D208DF8140000208DF828
:10332800100004A8214602F069FAC0B207281DD18E
:10333800E80002F077FBC0B211218DF8100004A854
:103348008DF81410214602F059FAC0B207280DD1A1
:10335800092007B0BDE8000FF0BD207ADFE800F0D3
:10336800020D020D02A800F0A1F905E107B0BDE8C1
:10337800000FBDE8F04002F004BC04A800F096F984
:10338800DDE904304FF0040A4FF0020C4FF0400B17
:103398004FF020094FF08008190ADAB241EA0061BB
:1033A800019200914CEA921649060AEA13550BEA73
:1033B800104158BFC2F380162944082202EAD36597
:1033C80008EAD05E2944102505EA90020A4409EA71
:1033D80050210A440821724432448DF80E2009EA2B
:1033E8001022C3F3401632440CEA133632440AEA78
:1033F800D346324401EA9366324405EA5006324421
:103408000BEAD036324408EA905632438DF80D2044
:1034180000F01002C3F3001632440CEAD3263244FB
:103428000AEA9346324401EA5366324409EAD0165E
:1034380032440BEA9036324408EA505632438DF84B
:103448000C206FF07F0203F0010602EA5042C3F33A
:10345800C00532440CEAD31632440AEA93363244A1
:1034680001EA5356324400F00106C3F3800142EAF0
:10347800061209EAD00632440BEA902632438DF848
:1034880008201A0E42EA002E0EF008022A440CEA1E
:1034980093252A440AEA53452A4400F0080542EADB
:1034A800450209EA90152A440BEA50352A4408EAED
:1034B80010552A438DF80B200CEA53251A0C42EAC2
:1034C800004C08220CF00406314402EAD356294481
:1034D800009A314400F00406C3F3400541EA86012E
:1034E80009EA501631440BEA1036314408EAD0464E
:1034F800314302F002068DF80A102E440AEAD3314D
:103508000825314405EA9353194400F0020341EABF
:10351800C30109EA101319440BEAD023194408EA35
:10352800904319438DF80910019953B2002B4FFAB3
:103538008CF24FEAD11148BF0231002A48BF04314A
:103548004FFA8EF2002A48BF083142B2002A48BF1B
:1035580041F0100140F30722002A48BF41F0200142
:1035680040F30742002A48BF41F04001002848BF05
:1035780041F080018DF80F10082004A9069002A8D8
:10358800059000200490204600F095FEC0B2072860
:103598001DD1A07AB0B104F10B05284602F05DFAFE
:1035A800284602F0C3FA02460B46114620461A4640
:1035B80000F014F8C0B2092808BF092007B0BDE818
:1035C800000FF0BD072007B0BDE8000FF0BD02F006
:1035D800D8FAC0B207B0BDE8000FF0BDF0B503AF30
:1035E8004DF8048D82B00646807A002851D006F145
:1035F8000B0814460D46404602F09CFAC3B2EAB2E4
:1036080093424FF0080082BFE2B2C9B2914203D898
:1036180002B05DF8048BF0BD307ADFE800F00211EB
:1036280002110D2031468DF80400E8008DF80000E5
:10363800684602F0E3F8C0B207282FD1E0000DE099
:103648000D2031468DF80400E0008DF80000684632
:1036580002F0D4F8C0B2072820D1E80002F0E2F95D
:103668001121C0B28DF8041031468DF8000068466B
:1036780002F0C4F8C0B2072810D1B07A48B1404669
:103688002946224602F03FFA092002B05DF8048B71
:10369800F0BD072002B05DF8048BF0BD02B05DF804
:1036A800048BBDE8F04002F06CBAD4D421395D290E
:1036B80000F26880DFE811F05E006A0070007B00AD
:1036C80084008F009A00A400AE00B100BA00C300C5
:1036D800C600CA00D400DD00E500ED00F700FF00D9
:1036E80008011201170122012C0136013A01440197
:1036F8004C015601580160016B0175017701790190
:1037080081018B019501A001AA01B301BD01C80186
:10371800D201D501E001EA01F401FF010A02140215
:103728001F02290234023F024A0250025B0265026C
:103738006E02780281028D0297029D02A302A50201
:10374800A802AE02B502BE02C702CE02D602DE024F
:10375800E302EC02F502FE0204030D0315031E0347
:1037680026032F03380341034A0353035C0364030E
:103778006C03740300212F22C0F8031082700180AB
:10378800C1717047002141600160704700214160AC
:103798004FF003210160704743F61271C0F2120125
:1037A800416041F20021C1F23F210160704743F6B8
:1037B8002A21416042F60061C7F62A71016070470C
:1037C80043F20421C0F23101416042F20031C0F6F7
:1037D80013010160704741F22A01C0F220014160E3
:1037E80041F20001C2F22A51016070470021012212
:1037F80082704FF40072C0F803100280C1717047E4
:103808000021212282704FF4F052C0F80310028088
:10381800C171704700211E22BEE140F62A014160B5
:1038280040F60001C1F62A410160704740F60801E0
:10383800416040F60001C3F608610160704700214D
:10384800602275E04FF00831082284E00021302220
:1038580082704FF44052C0F803100280C171704763
:103868004FF40171416042F20001C0F6100101609D
:10387800704742F22531C0F21E01416041F60061F5
:1038880071E142F22001C0F22001416042F20021C0
:10389800C1E02621C1804FF02931C0F802104FF451
:1038A80048510180704742F22551C0F21A01416027
:1038B80041F200219CE041F23F01416041F60001E4
:1038C800C1F21421016070471921C1804FF02531E0
:1038D800C0F802104FF4B851018070471821C18018
:1038E8004FF02531CCE040F20951C0F203014160AC
:1038F80040F20011C3F20111016070471A21C18022
:103908004FF02531C0F802104FF4D05101807047B4
:103918001E21C1804FF02931C0F802104FF4C06158
:103928000180704700214FF410522CE200216422DC
:10393800C0F8031082704FF400420280C1717047D2
:103948000021416040F60001C2F214210160704775
:103958004FF014311422C0F8011000210170427197
:10396800C18070470021EAE140F22951C0F202010A
:10397800416040F20021BAE042F62B51C0F20E013C
:10398800416041F60061C2F62151016070473E2155
:10399800C1804FF00931C0F802104FF4785101800E
:1039A80070471A210AE0122167E041F22121C0F292
:1039B8000C01416043F600711AE02121C1804FF0EB
:1039C8002531C0F802104FF47C5101807047012165
:1039D800C1804FF00531C0F802104FF47C510180CE
:1039E800704742F62111C0F21A01416041F60061A8
:1039F800C2F22111016070473F21C1804FF00431AC
:103A0800C0F802104FF47C510180704742F2211136
:103A1800416042F20011C3F62171016070471F2115
:103A2800C1804FF02031C0F802104FF4805101805E
:103A3800704741F20A11C0F22001416043F600715B
:103A4800C0F60441016070474FF02031C0F8021001
:103A58004FF47C5101802021C180704740F204213D
:103A680001E041F20801C0F23F01416043F60071F4
:103A7800C0F20241016070471E21C1804FF0213120
:103A8800C0F802104FF4F051018070470621C18040
:103A98004FF00931C0F802104FF47C510180704793
:103AA80042F23111C0F25E01416041F60061C2F696
:103AB80021110160704741F60911C0F226014160E9
:103AC80043F60071C0F60911016070471821C180E2
:103AD8004FF02531C0F802104FF490510180704723
:103AE80040F23F11C0F20101416040F20011C0F202
:103AF8000111016070471F21C1804FF02031C0F8CB
:103B080002104FF4F8510180704741F22001C0F2D1
:103B18000F01416040F60071C2F210010160704768
:103B280042F21001C0F21F01416041F60071C1F27A
:103B380020010160704741F20C21C0F2210141606F
:103B480042F20011C0F61241016070474FF48171D2
:103B5800416040F2001197E042F22531C0F22101A4
:103B6800416042F20011C2F6311101607047002134
:103B7800212282704FF47C52C0F803100280C17178
:103B8800704742F21001416040F20021C0F6040182
:103B98000160704700213F22C0F8031082704FF483
:103BA80004520280C171704740F20241416040F204
:103BB8000041C3F60271016070474FF0403144F292
:103BC8004002C0F8011000210170A0F80520C17161
:103BD80070470021022282704FF48072C0F80310EF
:103BE8000280C171704743F62A41416041F20001E9
:103BF8007CE041F62401416043F6007165E0222132
:103C080051E043F624715DE042F22A41416041F6F9
:103C180000416BE0012141600021C0F23E5101608A
:103C2800704747F6A441416041F60001CAF2A44139
:103C38000160704743F60401416043F60071C0F229
:103C4800044101607047202141600021C3F62451DE
:103C5800016070473D21416042F20001C4F2400119
:103C6800016070472021416043F60071C1F20C21C8
:103C7800016070470021416041F6007147E043F65A
:103C88000241416043F60061C3F60241016070479A
:103C980043F60241416043F60061C0F2022101602F
:103CA800704741F62241416041F60041C2F22221AB
:103CB8000160704741F6240141604FF6004104E07D
:103CC8004FF62441416041F60001C2F224410160EF
:103CD80070470221416043F60061C0F2042101608F
:103CE800704741F22A01416042F20041C2F62A219E
:103CF800016070472021416040F20021C2F21F217B
:103D0800016070474FF4F151416041F60061C2F221
:103D18002001016070474FF4C361416040F20061C7
:103D2800C2F218010160704741F63061416041F606
:103D38000061C1F630410160704742F214214160D0
:103D480042F20021C0F614010160704747F6A04115
:103D5800416041F60041CAF2A0010160704742F299
:103D68002621416042F20021C2F6322101607047EB
:103D78000021416040F60041C2F23F1101607047E6
:103D880000214FF47C52C0F802100280C1807047B5
:103D98000021416042F20011C0F63F4101607047C6
:103DA8000121416040F20021C0F201210160704709
:103DB800F0B503AF2DE9000784B004460E208DF856
:103DC800080001A8002521468DF8045001F016FDD1
:103DD800C0B207286ED10F2021468DF808004FF495
:103DE800FE40ADF8040001A8657201F007FDC0B2FD
:103DF80007285FD1607A022816D0002001F012FE51
:103E080005463F2001F00EFE1021C0B28DF80810C3
:103E1800E9B28DF8050001A88DF80410214601F0DB
:103E2800EDFCC0B2072845D140F2D86A01AD4FF089
:103E380000084FF00809C2F2200A002670B2B0F15B
:103E4800FF3F0CDD20462946CDF80C90CDE9018ACC
:103E580000F031FA0136C0B20728EFD02AE00E2070
:103E680002258DF8080001A821468DF8045001F0BC
:103E7800C5FCC0B207281DD1207A48F24002C8F21A
:103E880040026572C10044F28000C4F28000C8405C
:103E980022FA01F101F0D9FDC4F80B000120A0724B
:103EA80020460021002204B0BDE80007BDE8F0402C
:103EB800FFF794BB04B0BDE80007BDE8F04001F08F
:103EC80060BEF0B503AF2DE9000FADF5177D11AD5C
:103ED80004464FF4E072284617F015FC05F134004B
:103EE80005F1380105F1540202F002FA439805F091
:103EF800E5FA5B98016841F0010101605B9801688F
:103F080021F002010160419E0021C0F80811C0F8AB
:103F18001811C0F82811C4E98000C4E98200C0F86B
:103F28003811306820F001003060306840F40040FB
:103F380030603068000409D53068000444BF306838
:103F48005FEA004002D530680004F2D43F20B06038
:103F5800306820F001003060DDF80881D8F80000F2
:103F680020F00100C8F80000D8F8000040F4004034
:103F7800C8F80000D8F8000000040CD5D8F80000F4
:103F8800000444BFD8F800005FEA004003D5D8F821
:103F980000000004EED43F20C8F80800D8F800005C
:103FA80020F00100C8F80000689805F088FADDF8EC
:103FB8004490CDE90F1040F26341D9F8480040F031
:103FC8000100C9F84800D9F844000843C9F844007A
:103FD800D9F84400012161F38300C9F84400D9F8F5
:103FE800440020F08000C9F84400D9F8480040F0A7
:103FF8002000C9F84800D9F8440040F44040C9F806
:104008004400D9F8440040F44470C9F84400D9F891
:10401800480040F08000C9F84800D9F85800000767
:104028000CD0D9F8580000071CBFD9F858005FEA2F
:10403800007003D0D9F858000007EED1D9F848002D
:1040480040F2634140F02000C9F84800D9F8440024
:1040580020F44040C9F84400D9F84400DDF848A0ED
:1040680020F4447000F58870C9F84400DAF8480074
:1040780040F00100CAF84800DAF844000843CAF8DA
:104088004400DAF84400012161F38300CAF84400CF
:10409800DAF8440020F08000CAF84400DAF8480052
:1040A80040F02000CAF84800DAF8440040F44040E4
:1040B800CAF84400DAF8440040F44470CAF84400EE
:1040C800DAF8480040F08000CAF84800DAF85800EA
:1040D80000070CD0DAF8580000071CBFDAF85800BF
:1040E8005FEA007003D0DAF858000007EED1DAF87A
:1040F800480040F02000CAF84800DAF8440020F4EC
:104108004040CAF84400DAF8440020F4447000F54E
:104118008870CAF84400DDF8C0B105F04DF80546CE
:1041280005F04CF8034681A859462A4605F048F898
:104138006B9993A84FF4805205F0DFFA38980C90E9
:104148003A980B9077980E9075980D9072980A90FF
:104158003C98DDE9281209903B980890204605F024
:1041680082F95D994FF470420F2301F59070C4F8FD
:10417800D00201F1C000C4F8CC0201F16000C4F81B
:10418800C802C4E9B011A1F88C21A1F88E311E989B
:1041980004901F9803904998029058980790539854
:1041A800069052980590549801905E98DDF898B062
:1041B80000F59075C4F8E45200F1C005DDF858E147
:1041C800DDF840C14B99C4F8E052A0F88C21C4E94D
:1041D800B500A0F88E316030C4F8DC025F9800F1B9
:1041E800C005C4F8F45200F16005C4F8F05200F5B7
:1041F8009075C4F8F852A0F88C21C4E9BA00A0F868
:104208008E31609800F16005C4F8045300F1C005D0
:10421800C4F80853A0F88C2100F59072C4F80C2358
:1042280004F52872C4E9BF00A0F88E310498C4F8D8
:1042380094020398C4E9A60B0298C4E9C49A82E8D8
:10424800035004F51B7148220198C4F8B002059880
:10425800C4F8B4020698C4F8B8020798C4F8BC02B7
:104268000F98C4F86802109881E8410181A90C9858
:10427800C4F878020B98C4F87C020898C4F8800245
:104288000998C4F884020A98C4F888020D98C4F8FA
:104298008C020E98C4F8900204F5087017F033FAEF
:1042A80093AB04F5047C0FCB8CE80F000DF5177D5C
:1042B800BDE8000FF0BDF0B503AF2DE9000786B0EB
:1042C80080460868042833D000284ED18C68002C1A
:1042D80000F0CC80A7F129094D68002009F1010AF6
:1042E80047F81C0C47F8200C47F8240C47F8280C12
:1042F80098F8050007F8290C002C00F0B78026462E
:10430800102C28BF102650462946324616F00CFCC1
:1043180098F80410731C40464A46A41B354400F024
:104328008DF90028E8D0012006B0BDE80007F0BDEF
:10433800D1E90150C468002098F8051047F81C0C12
:1043480047F81F0C47F8230C47F8270C284607F8AE
:10435800291CA047C00700F08980284607F8281CB8
:10436800A047C00706D1032373E0042006B0BDE8C8
:104378000007F0BD284607F8271CA047C00701D151
:10438800042366E0284607F8261CA047C00701D189
:1043980005235EE0284607F8251CA047C00701D181
:1043A800062356E0284607F8241CA047C00701D179
:1043B80007234EE0284607F8231CA047C00701D171
:1043C800082346E0284607F8221CA047C00701D169
:1043D80009233EE0284607F8211CA047C00701D161
:1043E8000A2336E0284607F8201CA047C00701D159
:1043F8000B232EE0284607F81F1CA047C00701D151
:104408000C2326E0284607F81E1CA047C00701D148
:104418000D231EE0284607F81D1CA047C00701D140
:104428000E2316E0284607F81C1CA047C00701D138
:104438000F230EE0284607F81B1CA047C00701D130
:10444800102306E0284607F81A1CA047C00712D117
:10445800112398F80410A7F12902404600F0EEF85D
:1044680020B1012006B0BDE80007F0BD072006B066
:10447800BDE80007F0BD40F294721220C2F220029B
:10448800112114F07EFBFEDEF0B503AF4DF8048D6C
:104498002DED0A8BD0E90164A64246D0B7EE00AAFA
:1044A80090ED008A90ED039A4D1E9FED2DBA90462F
:1044B8009FED2CCA16ED010A80EE090AB4EE4A0AED
:1044C800F1EE10FA48BFB0EE4A0A0EF019F980EE84
:1044D800081AB4EE408A21EE0B1AF1EE10FA48BF22
:1044E800B0EE4B1ABCEEC10AB5EE401AF1EE10FA66
:1044F800B4EE4C1A10EE100AB8BF0020F1EE10FA14
:10450800C8BF4FF6FF7008F03AF8000412D02846EA
:1045180008F040F80146C0B2022814D04046043ED4
:1045280008F0DEFF013DA642C4D1BDEC0A8B5DF860
:10453800048BF0BD40F2A47040F61802C2F22000CD
:10454800C2F2200207E040F2A47040F60802C2F26C
:104558002000C2F220022B2112F0E5FBFEDE00BF94
:1045680000FC7F4600FF7F47F0B503AF4DF804BD60
:104578002DED0A8BD0E90156B54241D0B7EE00AA1D
:1045880090ED008A90ED039A4C1E9FED2ABA9FED9C
:104598002ACA15ED010A80EE090AB4EE4A0AF1EEBC
:1045A80010FA48BFB0EE4A0A0EF0AAF880EE081AD0
:1045B800B4EE408A21EE0B1AF1EE10FA48BFB0EEC5
:1045C8004B1ABCEEC10AB5EE401AF1EE10FAB4EE81
:1045D8004C1A10EE100AB8BF0020F1EE10FAC8BF4E
:1045E8004FF6FF7007F0CBFF00040ED0204607F00F
:1045F800D1FFC0B2022811D0043D013CB542C8D158
:10460800BDEC0A8B5DF804BBF0BD40F2A47040F627
:104618001802C2F22000C2F2200207E040F2A470A1
:1046280040F60802C2F22000C2F220022B2112F04A
:104638007AFBFEDE00FC7F4600FF7F47F0B503AF44
:104648002DE9000B86B006460120356847F6037948
:10465800CDE90223C0F2003901908846686900EA72
:104668000904204604F031FF88B9286901AA4146A7
:1046780040F4407028614FF4FE40686102208DF8D4
:10468800140004A8049600F0A6F830B10C460120E6
:10469800214606B0BDE8000BF0BD049806687569B0
:1046A80005EA0904204604F018FF0028EFD1E807BE
:1046B800F5D04FF4806004F015FF3066756905EA9F
:1046C8000904204604F009FF002808BF15F480718A
:1046D800F4D00028DBD10020214606B0BDE8000B4D
:1046E800F0BDF0B503AF4DF8048D82B0044648F232
:1046F800FC00C4F21F000D46016803224FF00108B8
:1047080062F303010160016841F010010160C0F823
:10471800D083416862F303014160416841F01001B0
:104728004160C0F8D48302202061206980073FD40B
:104738006846294604F0DAFF9DF801109DF800004C
:104748009DF8022001F03F0160F30D219DF8033030
:1047580002F03F0041EA004003F03F0140EA0160F7
:10476800A064606A20F00706284604F0C4FF2968A0
:10477800304460624FF20006A06ACFF2F0069DF85E
:1047880004206FF31F3130409DF8053062F31B6041
:10479800084403F00F0140EA0140A0624FF0011005
:1047A800A0652046C4F8108002B05DF8048BF0BD07
:1047B8000020206121698907BAD52061216989070C
:1047C80042BF206121695FEA8171B1D52061216909
:1047D8008907EED4ACE7F0B503AF2DE9000F81B03F
:1047E80093460446007947F603791268C0F2003907
:1047F800022801D11AB943E0002A40D0D0B1D4F838
:1048080000A00091DAF80050D5F8148008EA0906EB
:10481800304604F062FE00287DD15FEAC870F3D00C
:1048280000982546DAF800404000C0B204F05AFE6D
:1048380020662C46DBF80800002872D0DBF804B0AC
:10484800D4F800A00BEB00080094DAF800506C696B
:1048580004EA0906304604F040FE00285BD1E00770
:10486800F5D01BF8010BDAF8004000F5007004F0F1
:1048780039FEC3452066E8D1009C002054E0C0B949
:10488800D4F800A088460094DAF800506C6904EA6D
:104898000906304604F021FEE8BBE007F6D04FEAEF
:1048A8004800DAF800400130C0B204F01BFE206670
:1048B800009CDBF808A0BAF1000F34D0D4F80080CF
:1048C8000094D8F800506C6904EA0906304604F0F0
:1048D80004FE00BBE007F6D00321504661F31F2019
:1048E800D8F8004004F0FEFDDBF804B02066009C18
:1048F800DA44D8F80050686900EA0906304604F03E
:10490800ECFD40B9286F4104F5D40BF8010B0120E8
:10491800D345EED108E00120314601B0BDE8000FD3
:10492800F0BD002000E0012020710020314601B0D8
:10493800BDE8000FF0BD704701F0A2BA01F0ACBAB3
:1049480001F0BEBB80B56F4600F001F8FEDEB0B5E1
:1049580002AFADF5CB5D82B00DF5976A0DF1180E7B
:104968000EF5855B504602F04BFB0DF6B8405146FC
:10497800FFF7A7FA0DF6B845DDF8340F25900121A9
:104988002846DDF8288FDDF8584FDDF8706F01F004
:10499800A5FC20462946FFF7A4FE044626A80A30AF
:1049A80001F0F0F844F23C00CDE926404FF40070E5
:1049B800ADF8A0000DF6B84001F07BF9DBF8000077
:1049C80002280BD140F61C1040F69812C2F22000C3
:1049D800C2F220022B2112F0A6F9FEDE2BA80DF65A
:1049E800B8414FF4816216F08EFE48F2141002228C
:1049F800C4F21F00002301680DF6B84962F30301F1
:104A08000160016821F01001016048F23851C4F2D8
:104A18001F014B60456862F303054560456825F052
:104A2800100545600B604FF4E121B260B360B069D6
:104A380040F44020B061B469B06920F44020B0610E
:104A4800B06A40F48040B062B06A40F40040B0629E
:104A5800484601F039FCDDF8BC1C41F6FF73DDF86F
:104A6800B80C326999429DF8C05C38BF0B464EF2CB
:104A780000012028CEF2FD0128BF20201140042883
:104A880098BF042019434FF0F85202EB006041EA46
:104A9800454100F0F85008433061B069A10C1D96FB
:104AA80061F39340B06101F09EF8C0B205280BD1C4
:104AB80040F61C1040F68812C2F22000C2F2200212
:104AC8002B2112F030F9FEDE8DF8B70401F074F8EE
:104AD800002800F0AC8301F058F8002800F0B383F8
:104AE80025A802F037FC0446A7F11400079101211C
:104AF80001F076F8D8F8000040F2E73120F0010024
:104B0800C8F80000D8F8040061F30B00C8F80400E6
:104B1800D8F8000020F4B8608030C8F80000C82039
:104B280007F06BFC26A8FEF77DFAC0B2092840F012
:104B3800968326A8FFF73CF9C0B2092840F096836F
:104B48004846249408F05CF9CC465146BCE87C0001
:104B58000DF1180ED8460EF5B45B7CC1BCE87C009C
:104B68007CC19CE87D000AF1400C7DC149467CC9A6
:104B7800ACE87C007CC9ACE87C0091E87D00494643
:104B88008CE87D000AF1800C7CC9ACE87C007CC90B
:104B9800ACE87C0091E87D0049468CE87D000AF18C
:104BA800C00C7CC9ACE87C007CC9ACE87C0091E80E
:104BB8007D0049468CE87D000AF5807C7CC9ACE81C
:104BC8007C007CC9ACE87C0091E87D0049468CE813
:104BD8007D000AF5A07C7CC9ACE87C007CC9ACE807
:104BE8007C0091E87D0049468CE87D000AF5C07C90
:104BF8007CC9ACE87C007CC9ACE87C0091E87D000D
:104C080049468CE87D000AF5E07C7CC9ACE87C006C
:104C18007CC9ACE87C0091E87D0049468CE87D00C1
:104C28000AF5007C7CC9ACE87C007CC9ACE87C0057
:104C380091E87D0049468CE87D000AF5107C7CC926
:104C4800ACE87C007CC9ACE87C0091E87D00494672
:104C58008CE87D000AF5207C7CC9ACE87C007CC926
:104C6800ACE87C0091E87D0049468CE87D000AF5B7
:104C7800307C7CC9ACE87C007CC9ACE87C0091E85D
:104C88007D0049468CE87D000AF5407C7CC9ACE88B
:104C98007C007CC9ACE87C0091E87D0049468CE842
:104CA8007D000AF5507C7CC9ACE87C007CC9ACE886
:104CB8007C0091E87D0049468CE87D000AF5607C1F
:104CC8007CC9ACE87C007CC9ACE87C0091E87D003C
:104CD80049468CE87D000AF5707C7CC9ACE87C000C
:104CE8007CC9ACE87C0091E87D0049468CE87D00F1
:104CF8000AF5806C7CC9ACE87C007CC9ACE87C0017
:104D080091E87D0049468CE87D000AF5886C7CC9ED
:104D1800ACE87C007CC9ACE87C0091E87D004946A1
:104D28008CE87D000AF5906C7CC9ACE87C007CC9F5
:104D3800ACE87C0091E87D0049468CE87D000AF5E6
:104D4800986C7CC9ACE87C007CC9ACE87C0091E834
:104D58007D0049468CE87D000AF5A06C7CC9ACE86A
:104D68007C007CC9ACE87C0091E87D0049468CE871
:104D78007D000AF5A86C7CC9ACE87C007CC9ACE86D
:104D88007C0091E87D0049468CE87D000AF5B06C0E
:104D98007CC9ACE87C007CC9ACE87C0091E87D006B
:104DA80049468CE87D000AF5B86C7CC9ACE87C0003
:104DB8007CC9ACE87C0091E87D0049468CE87D0020
:104DC8000AF5C06C7CC9ACE87C007CC9ACE87C0006
:104DD80091E87D0049468CE87D000AF5C86C7CC9DD
:104DE800ACE87C007CC9ACE87C0091E87D004946D1
:104DF8008CE87D000AF5D06C7CC9ACE87C007CC9E5
:104E0800ACE87C0091E87D0049468CE87D000AF515
:104E1800D86C7CC9ACE87C007CC9ACE87C0091E823
:104E28007D0049468CE87D000AF5E06C7CC9ACE859
:104E38007C007CC9ACE87C0091E87D0049468CE8A0
:104E48007D000AF5E86C7CC9ACE87C007CC9ACE85C
:104E58007C0091E87D0049468CE87D000AF5F06CFD
:104E68007CC9ACE87C007CC9ACE87C0091E87D009A
:104E780049468CE87D000AF5F86C7CC9ACE87C00F2
:104E88007CC9ACE87C0091E87D008CE87D00584640
:104E980007F0B6FF5946CC467CC90DF1180EACE8B0
:104EA8007C007CC9ACE87C0091E87D0059468CE820
:104EB8007D0009F1400C7CC9ACE87C007CC9ACE8F9
:104EC8007C0091E87D0059468CE87D0009F1800C52
:104ED8007CC9ACE87C007CC9ACE87C0091E87D002A
:104EE80059468CE87D0009F1C00C7CC9ACE87C000F
:104EF8007CC9ACE87C0091E87D0059468CE87D00CF
:104F080009F5807C7CC9ACE87C007CC9ACE87C00F5
:104F180091E87D0059468CE87D0009F5A07C7CC9A4
:104F2800ACE87C007CC9ACE87C0091E87D0059467F
:104F38008CE87D0009F5C07C7CC9ACE87C007CC9A4
:104F4800ACE87C0091E87D0059468CE87D0009F5C5
:104F5800E07C7CC9ACE87C007CC9ACE87C0091E8CA
:104F68007D0059468CE87D0009F5007C7CC9ACE8D9
:104F78007C007CC9ACE87C0091E87D0059468CE84F
:104F88007D0009F5107C7CC9ACE87C007CC9ACE8E4
:104F98007C0091E87D0059468CE87D0009F5207C6D
:104FA8007CC9ACE87C007CC9ACE87C0091E87D0059
:104FB80059468CE87D0009F5307C7CC9ACE87C005A
:104FC8007CC9ACE87C0091E87D0059468CE87D00FE
:104FD80009F5407C7CC9ACE87C007CC9ACE87C0065
:104FE80091E87D0059468CE87D0009F5507C7CC924
:104FF800ACE87C007CC9ACE87C0091E87D005946AF
:105008008CE87D0009F5607C7CC9ACE87C007CC933
:10501800ACE87C0091E87D0059468CE87D0009F5F4
:10502800707C7CC9ACE87C007CC9ACE87C0091E869
:105038007D0059468CE87D0009F5806C7CC9ACE898
:105048007C007CC9ACE87C0091E87D0059468CE87E
:105058007D0009F5886C7CC9ACE87C007CC9ACE8AB
:105068007C0091E87D0059468CE87D0009F5906C3C
:105078007CC9ACE87C007CC9ACE87C0091E87D0088
:1050880059468CE87D0009F5986C7CC9ACE87C0031
:105098007CC9ACE87C0091E87D0059468CE87D002D
:1050A80009F5A06C7CC9ACE87C007CC9ACE87C0044
:1050B80091E87D0059468CE87D0009F5A86C7CC90B
:1050C800ACE87C007CC9ACE87C0091E87D005946DE
:1050D8008CE87D0009F5B06C7CC9ACE87C007CC923
:1050E800ACE87C0091E87D0059468CE87D0009F524
:1050F800B86C7CC9ACE87C007CC9ACE87C0091E861
:105108007D0059468CE87D0009F5C06C7CC9ACE887
:105118007C007CC9ACE87C0091E87D0059468CE8AD
:105128007D0009F5C86C7CC9ACE87C007CC9ACE89A
:105138007C0091E87D0059468CE87D0009F5D06C2B
:105148007CC9ACE87C007CC9ACE87C0091E87D00B7
:1051580059468CE87D0009F5D86C7CC9ACE87C0020
:105168007CC9ACE87C0091E87D0059468CE87D005C
:1051780009F5E06C7CC9ACE87C007CC9ACE87C0033
:1051880091E87D0059468CE87D0009F5E86C7CC9FA
:10519800ACE87C007CC9ACE87C0091E87D0059460D
:1051A8008CE87D0009F5F06C7CC9ACE87C007CC912
:1051B800ACE87C0091E87D008CE87D0009F5F8609A
:1051C800BBE86E006EC0BBE86E006EC09BE87E0058
:1051D8007EC00EF5A5548021204615F0C7FA0DF1C2
:1051E800180E80210EF5A955284615F0BFFA0DF1C5
:1051F800180E20200EF5B45BCDE90004CDE90205B8
:1052080051460490584620224B4607F0FBFED8F83A
:10521800E00500283FD140F61C1040F65812C2F2B3
:105228002000C2F220022B2111F07DFDFEDE40F6A7
:105238001C1040F67812C2F22000C2F220022B2184
:1052480011F071FDFEDE40F61C1040F66812C2F245
:105258002000C2F220022B2111F065FDFEDE8DF840
:10526800B80C40F67400C2F2200005E08DF8B80CC6
:1052780040F68400C2F2200040F65403009040F645
:1052880028000DF6B842C2F22000C2F220032B21FA
:1052980011F0FBFDFEDE58460DF1180E0EF5AD516E
:1052A80078C80DF1180E0A4678C290E878000EF515
:1052B800AE5078C207F080FC58464FF400714FF4A6
:1052C800007415F053FA002546F2A810C8F8E0B7A4
:1052D800C8F8E447C8F8E857C8F8EC5700F0B7FC36
:1052E80058B940F61C1040F64812C2F22000C2F22B
:1052F80020022B2111F017FDFEDE249801214646DD
:10530800C8F8F02700F01F00C8F8F437C8F8FC57B1
:1053180001FA00F00690A7F1500000F1100A0530DC
:105328002190A7F1A8001030059040F6BC00C2F209
:1053380020004F300990D6F8EC07B0461D9A40B3CC
:10534800D8F8E067451ED8F8E4474146D8F8E8970A
:10535800A145484624BFA9EB0400A04280F0308252
:1053680016F800B05069916A04F032F81D9A0002EC
:105378000FD509F10100C2F81CB0B0EB040918BF41
:105388008146C8F8EC574046013D681CC8F8E897C4
:10539800DED10DF2B74000F037FC0446A7F1A800B3
:1053A8002BA900F09FFC0320E1B2042908BF0620C6
:1053B8000A9014980F9118BF0846149057F8A80C33
:1053C800032803D10620C346109010E0059BC3466E
:1053D800109008F5006C57F8A46C0FCB139657F88B
:1053E800A06C129657F89C6C11968CE80F00A7F1E8
:1053F800C80000F047FC1D9C0E92CDE90C03E06943
:105408000B9003F0D7FF064603F0D1FF804665698D
:1054180003F0D0FF03F0D7FF43F200098543C0F241
:105428001F0906EA090003F0CEFF28436061A56A58
:1054380003F0BDFF03F0C2FF854308EA090003F04B
:10544800BDFF28430DF19808A7F1A806A0620D201A
:10545800012507F8A40C3046414607F8A85C00F07F
:10546800CDF9A7F13000CBF8200840F6A00048F2AB
:105478000F04C2F2200040F2806147F8A00C00201F
:1054880047F8A80CA7F16800C0F20104C2F2200195
:105498003246A7F1BC0947F82C4C47F8309C47F82E
:1054A800688CCBF8245847F89C5C12F0F5F9404614
:1054B8000A21FDF7F9FE0D20414607F8A40C3046F5
:1054C80007F8A85C00F09AF9A7F13000CBF820089B
:1054D80040F6B40040F28061C2F22000C2F220011E
:1054E80047F8A00C002047F8A80CA7F1680032463E
:1054F80047E90C9447F8688CCBF8245847F89C5C2B
:1055080012F0CAF9DDE90B231C9912F4704008BFA8
:1055180011461C91002B19990D9E18BF31461991FF
:105528001A990E9E18BF31461A910F99042910999D
:1055380004D1062908BF002B00F0E8800A98002B48
:1055480047F8700C4FF004094FF0050047F8781C35
:1055580008BF4FF0060947F8809C12F4704F18BF37
:10556800062047F8880CCB461398DDF82080000AFF
:1055780010902FE057F8809CDDF86CC0A7F130063A
:10558800A7F1680ECB464ECE8EE84E000DF1780E90
:105598009EE84041A7F16805219CCDF888E02ECD12
:1055A80047F848EC0DF1180E8AE82E00310CA7F1E7
:1055B800D802A170A7F1500147F8500C0EF5AE5073
:1055C80026802396CDF890C007F84CCC47F8448C39
:1055D800FCF76EFEB9F10801A7F1700018BF01468B
:1055E800B9F1080F0AD1DDF890C0DDE922E657F8D5
:1055F800880C072864D1A7F1580067E00868B0F163
:10560800080218BF0A46DDF890C0DDE922E608283E
:1056180037D01068072803D0062808D10720106063
:1056280057F8780C07280BD1A7F1180021E00621BC
:10563800DDF850C011601892CDE916C3159655E0F3
:1056480006AA47F8180C02F58554A7F1A80004F536
:105658000065D4F80C482CCD47F89C4C2CC0A7F119
:105668007800129A1892119A1792139A1692109A11
:1056780015920622026057F8180C06282FD1082028
:105688000860B9F1070F02D1A7F1200009E0002155
:10569800A7F180001E911A992091199947F8209C2A
:1056A8001F910621016057F8200C06287FF462AF8D
:1056B8004FF0080B47F880BC57F8880C07289AD099
:1056C800DDF870C047F8580CA7F188000621016082
:1056D80057F8580C062814D04FF008095AE71899BB
:1056E800209117991F91DDE9151C1E91A7F1A806B5
:1056F800D946A7F1300ECDF86CC04ECE8EE84E00DC
:105708003CE7CDF82080CDF890C012E000283FF4A7
:1057180015AFA7F114040121204600F04AFA06F05B
:105728007BFEDDE90610C0F88C102046002100F051
:1057380040FA099D40F6BC040DF19808C2F2200415
:1057480007E043EA8211841C4046FDF7ADFDAC42F8
:1057580026D0204614F9012BB2F1FF3FD1B2F3DC79
:10576800437801F01F02DF2903F03F03E9D9867867
:10577800F02906F03F0646EA83130DD3C17802F0FC
:10578800070201F03F0141EA831141EA8241B1F584
:10579800881F05D0041DD7E743EA0231C41CD3E7AC
:1057A8004046FEF705FBC0B2092811D10DF1180ECD
:1057B8000EF58556D6F8FC070130C6F8FC07BAE5A1
:1057C80040F218722146C2F2200211F0C3FAFEDE3E
:1057D80007F8A80C40F60C10C2F2200040F654035B
:1057E800009040F62800C2F22000C2F22003A7F180
:1057F800A8022B2111F049FBFEDED4D4F0B503AF8B
:105808002DE9000F85B0037988464FF0010A4FF063
:10581800000CD91E4FF0E30E4FF000094FF0000BBB
:10582800CAB21B2A28BF0521CDB2002400210022BC
:10583800DFE805F00E15191D212D383C45494E5756
:105848005E677074797D848A919DA6B1CCB9C200D7
:105858004FF0020A90F800C04FF0810EB6E00078D1
:1058680060F05B0EB2E0007860F0590EAEE00078B0
:1058780060F0510EAAE090F800904FF0070A4478C3
:10588800FF2290F802B0C07840F0260E9EE0017822
:1058980043F0280E90F801904FF0060A847890F8AB
:1058A80003B093E0007840F02E0E8FE04FF0030A2B
:1058B80090F800C090F801904FF0A30E86E00078B1
:1058C80000F00F0E82E090F800E06AF31F1E7DE002
:1058D80000784FF0020A00F00F0E000900F1100CDA
:1058E80074E04FF0020A90F800C04FF0200E6DE00F
:1058F8004FF0030A90F800C090F801904FF0210E85
:1059080064E04FF0030A90F800C090F801904FF05F
:10591800220E5BE0007860F04F0E57E090F800E050
:105928006AF39F1E52E0007860F05F0E4EE04FF081
:10593800020A90F800C04FF0A80E47E000786FF018
:105948003F0141EAC00E40E04FF0020A90F800C063
:105958004FF0D30E3AE001784FF0020A40784FF04A
:10596800DA0E090141EA401000F1020C2DE001783D
:105978004FF0020A40784FF0D50E00F00F0022E0F9
:1059880001784FF0020A40784FF0D90E01F00F016C
:1059980041EA001C19E000784FF0020A4FF0DB0ED4
:1059A8004FEA001C12E0007810214FF0020A4FF075
:1059B8008D0E41EA800C08E001784FF0020A407829
:1059C8004FF0AD0E400140EA011C0021002002AE5C
:1059D80007F82A1CA7F12F01CDE90200701C07F86F
:1059E800292C524607F82B4C07F82CBC07F82D9C9D
:1059F80007F82ECC07F82FEC15F096F898F8041055
:105A08000AF1010340463246FEF718FE012100283C
:105A180008BF0721084605B0BDE8000FF0BD022009
:105A28005F217047C0B240283CBFC008704780B5AE
:105A38006F4640F6A81040F61822C2F22000C2F2C3
:105A480020020D2111F06FF9FEDE01F0F80100F0DF
:105A5800F800490541EA4030704780B56F468178C3
:105A6800E9B102780132D2B2B2FBF1F303FB1122A1
:105A7800027022B1D0B2B0FA80F0400980BDC1787E
:105A8800B1B1437801335FFA83FCBCFBF1F303FB4C
:105A980011C14170D0B2B0FA80F0400980BD40F623
:105AA800A02040F69022C2F22000C2F2200207E0B5
:105AB80040F6A02040F6DC22C2F22000C2F220020A
:105AC800392111F030F9FEDE80B56F46C178002922
:105AD8001FBF42780132D2B2B2FBF1F31FBF03FB02
:105AE80011210022027041701CBF084680BD40F69B
:105AF800A02040F6EC22C2F22000C2F22002392196
:105B080011F011F9FEDE8378C9B290F803C0013BA9
:105B1800DBB2994238BF0B46D1B2ACF10102037037
:105B2800D2B2914238BF0A46427070470278417833
:105B3800104670478278C1781046704700780A4648
:105B48004FF0010CC11F0020CBB2022B38BF5CFA0A
:105B580081F040B101280DD140F606300D21C2F286
:105B6800200012F009BD40F613300E21C2F22000C9
:105B780012F002BD40F6FC200A21C2F2200012F009
:105B8800FBBC7047002101707047D0B502AF45F2E9
:105B98000000C2F2000004781CB1B4FA84F0400995
:105BA800D0BD0121017000F019FBB4FA84F040095E
:105BB800D0BD084600F006BBD0B502AF45F20100E3
:105BC800C2F2000004781CB1B4FA84F04009D0BDD8
:105BD8000121017000F0F2FAB4FA84F04009D0BD56
:105BE800084600F0E7BA80B56F4645F20200C2F2F7
:105BF8000000017800291CBF052080BD012101702B
:105C080000F0C4FA042080BDD0B502AF044600F00D
:105C1800A9FA0138C1B2072904D88B2222FA01F166
:105C2800C90705D121780420042918BF2070D0BDE8
:105C380040F2C06240B2C2F220022178105C04290E
:105C480003D0814204BF0420D0BD2070D0BD80B5F0
:105C58006F4645F20301C2F200010A7822B1002022
:105C680000210022002380BD00EB400001220A70C1
:105C78004FF0FF3101EBC00000F038FA002100229C
:105C8800002380BDD0B502AF044600F065FAD4E920
:105C9800002381EA030CC4E9000180EA020454EA03
:105CA8000C0418BF0124821A61EB0303204600216B
:105CB800D0BDD0B502AF044645F20400C2F20000E0
:105CC800017800291EBF0220C4F80004D0BD0121BC
:105CD800017000F053F9204640F2044114F046FDEB
:105CE800D0BDD4D4F0B503AF4DF804BD0D4604467D
:105CF80000F09EF8B5EE400A0020F1EE10FA58BF09
:105D0800012005F58062D5F80034B5EE400A111D72
:105D1800F1EE10FA39D4002B41D092ED011A9FED23
:105D2800282A80EE011AB4EE421AF1EE10FA36DC97
:105D38009FED242AB4EE421AF1EE10FA2FD405F59D
:105D4800007680202946324600F03EF890B381283C
:105D58003FBF4FF0000C06EB800205EB80030221E9
:105D68003FBF84E82A0004F10C0181E84410C4E92B
:105D780006003CBF5DF804BBF0BD40F6243280212C
:105D8800C2F2200212F0FDFEFEDE9BB1C5F800044F
:105D9800002081ED000A20605DF804BBF0BDC5F865
:105DA8000004012081ED000A84ED010A20605DF8FD
:105DB80004BBF0BD032020605DF804BBF0BD00BF4C
:105DC800C520803F77BE7F3FF0B5064672B6144BBC
:105DD800144D1C682B6862B69C4238BF04F5C06439
:105DE800E01AB04228BF3046B0B10F4F01EB800433
:105DF8000E4E07EB830E06EB830C0133DEF800E052
:105E0800B3F5C06FDCF800C041F804EB08BF00230D
:105E18008C4242F804CBECD172B62B6062B6F0BD6E
:105E2800105000200C50002014500020146800204E
:105E3800114B9A68520616D5104A5B6C92ED007A9F
:105E480023F07F43B8EE477A00EE103A9FED085BE7
:105E5800B7EEC77AB8EEC00B87EE056B20EE060BDF
:105E6800B7EEC00B7047BFEE000A7047AFF3008073
:105E7800000000000000E84100003840B84200205F
:105E8800044B1A6942F004021A611A6942F480123A
:105E98001A617047000038402F4803212F4B304AC1
:105EA800A3F5807C70B504682E482469D1779C429C
:105EB80038BF9C462C4B01681A68914205D202688B
:105EC800196802F120038B4245D22CF01F030CF510
:105ED8008071BFF34F8F4FF0E022C2F85C3F203350
:105EE8009942FAD8BFF34F8FBFF36F8F00211F4D30
:105EF8000CF1040EDFED1E6A1E4C5CF8316002687E
:105F080046F30F265EF831300A4407EE106A43F371
:105F18000F23B8EEC77A07EE903A05EB8203F8EE46
:105F2800E77A27EE267A67EEA67A83ED007A036889
:105F38000B44013104EB83032029C3ED007ADCD143
:105F480002680D4B2032A3FB02139B0A03EB4303A9
:105F5800A2EB4323036070BD085000205C4500207D
:105F680000800E40105000200C50002014500020DB
:105F78000000003814680020ABAAAAAA42480321EE
:105F8800424B4FF0E02CC26FF0B542F0C00240F235
:105F980082443F4E4FF0400E3E4FC2671C600024C3
:105FA80099763D4A99771976D97737600426D46768
:105FB80056670626A2F876E0A2F87EE0A2F87C6092
:105FC800364E374D1666374E1667374EEC60EE6024
:105FD8006FF00705D9760823344ECCF80031C36F2B
:105FE80043F44043C367324B32485066186840F464
:105FF80080001860186820F400001860186820F401
:10600800C01018601868C2E91A6540F48010A5F538
:10601800FC75956718601A6842F480221A601A683D
:1060280022F003021A60244AC2F8081141F2B001B2
:10603800C2F8F8121A68214922F480021A609A6894
:1060480022F4F0629A609A6822F038029A60DA685C
:1060580042F48012DA60DA6842F00402DA60D02290
:1060680081F83C204FF08052CCF804211A6942F0A4
:1060780004021A611A6942F480121A615C601A6893
:1060880042F400721A60F0BD00C00F4000800E405C
:106098000850002060900E4000900E4014003840D8
:1060A80000C00E405C4400205500008008E0FFBF9F
:1060B800000038400400020200801F4000E400E0B5
:1060C800084B1B68DA6862B1074AD2E9000130B4AC
:1060D800441C41F100050121C2E9004530BCD960EA
:1060E80070477047BC42002018800020154A1649A6
:1060F800D36E30B443F440530124144DD3660C607E
:1061080000212B68124C03E010330121A34214D85C
:106118009A68002AF8D101B12B6003221860FF2485
:106128000C499A604FF0E0234FF0806281F87A4082
:106138000120C3F80C2130BC7047002318462B609F
:1061480030BC704700C00F4000400840BC420020EF
:106158003F41084000E400E0014BD3E900017047EB
:106168001880002038B50024254604F10900C0B283
:1061780000F062F8B0FA80F04009A040013405430D
:10618800042CEDB2F1D1284638BD00BF08B5022174
:10619800092000F063F802210A2000F05FF80221CC
:1061A8000B2000F05BF802210C20BDE8084000F04D
:1061B80055B800BF0146062000F014B80221062099
:1061C80000F04CB8044B4FF4003210B1C3F88420EF
:1061D8007047C3F88820704700400042012107201B
:1061E80000F03CB8272816D80201104B03EB00102A
:1061F8009B5810B4C2685C68144205D061B95DF858
:10620800044BC3F888207047836851B1084A5DF889
:10621800044B1A60704770475DF8044BC3F884203C
:106228007047044A5DF8044B1A607047340B20200D
:1062380038F001003830010027280BD8064B02013E
:1062480003EB00109A58C36892681A4214BF0120E1
:106258000020704700207047340B2020272827D8BB
:106268000201154B012903EB00109B5830B45A6802
:10627800D0E902540DD004290BD022EA04025A6056
:1062880099B1022915D003290CBF0C4B0C4B2B607C
:1062980006E0224301295A6007D040F638032B60F4
:1062A8004368152230BC1A60704738232B60F7E723
:1062B8007047044B2B60F3E7340B20203830010083
:1062C8003800010038F0010080B56F460A4641F2F7
:1062D8000021C0F27A0102F0C3FF80BD80B56F468D
:1062E8000A4641F20021C0F27A0103F023F980BD89
:1062F800F0B503AF4DF804BD0E460021154604461F
:1063080003F07DF8284640F2E24103F07FF830467A
:1063180003F068FA40F2B0152146C2F220050022C7
:106328002846366803F028FAA81C2146002203F004
:1063380023FA281D2146002203F01EFAA81D214633
:10634800002203F019FA05F108002146002203F0A3
:1063580013FA05F10A002146002203F00DFA05F1AF
:106368000C002146002203F007FA05F10E00214631
:10637800002203F001FA05F110002146002203F083
:10638800FBF905F112002146002203F0F5F905F1A9
:1063980014002146002203F0EFF905F1160021460A
:1063A800002203F0E9F905F118002146002203F064
:1063B800E3F905F11A002146002203F0DDF905F1A1
:1063C8001C002146002203F0D7F905F11E002146E2
:1063D800002203F0D1F920684169890107D5416994
:1063E80021F000714161204602F0FAFF20684169FE
:1063F800012221F0605141612068816962F30D3109
:106408008161204602F0ECFF2068416941F000718B
:106418004161204602F0E4FF4FF480503060642070
:1064280030604FF4005070603068002809D430683C
:1064380000285CBF3068002803D43068B0F1FF3F03
:10644800F2DC20680122016962F302010161204641
:1064580002F0C6FF2068416921F4E05141612046FD
:1064680002F0BEFF2068816941F440218161206803
:10647800416921F000714161204602F0B1FF2068B6
:1064880040F2B865C2F220050022416941F440712A
:1064980041612846214603F06FF9A81C21460022D5
:1064A80003F06AF9281D2146002203F065F9A81DAA
:1064B8002146002203F060F92068022640F2A06518
:1064C8000022C2F22005816B66F3D84181632068FF
:1064D800816B41F4802181632846214603F04CF901
:1064E800A81C2146002203F047F9281D2146002256
:1064F80003F042F9A81D2146002203F03DF9206867
:1065080040F6B4550322C2F22005816966F30511ED
:1065180081612068816962F39C6181612846214616
:10652800002203F029F9A81C2146002203F024F9CF
:10653800281D2146002203F01FF9A81D214600222C
:1065480003F01AF905F108002146002203F014F9B6
:106558002068172240F28425C2F22005C16962F33F
:106568000501C16120680022C16941F04001C16193
:106578002846214603F000F9A81C2146002203F012
:10658800FBF8281D2146002203F0F6F8A81D214635
:10659800002203F0F1F805F108002146002203F07B
:1065A800EBF805F10A002146002203F0E5F805F1B1
:1065B8000C002146002203F0DFF805F10E00214609
:1065C800002203F0D9F8206840F6BE55C2F2200533
:1065D8000322416A41F0400141622068416A66F342
:1065E800050141622846214603F0C6F8A81C214649
:1065F800032203F0C1F8281D2146032203F0BCF84A
:10660800A81D2146032203F0B7F805F1080021462A
:10661800032203F0B1F805F10A002146032203F032
:10662800ABF805F10C002146032203F0A5F805F1AB
:106638000E002146032203F09FF805F110002146C1
:10664800032203F099F805F112002146032203F012
:1066580093F805F114002146032203F08DF805F1A3
:1066680016002146032203F087F805F11800214699
:10667800032203F081F805F11A002146032203F0F2
:106688007BF805F11C002146032203F075F805F19B
:106698001E002146032203F06FF805F12000214671
:1066A800032203F069F805F122002146032203F0D2
:1066B80063F805F124002146032203F05DF805F193
:1066C80026002146032203F057F805F12800214649
:1066D800032203F051F805F12A002146032203F0B2
:1066E8004BF805F12C002146032203F045F805F18B
:1066F8002E002146032203F03FF805F13000214621
:10670800032203F039F805F132002146032203F091
:1067180033F805F13400214603225DF804BBBDE8D7
:10672800F04003F029B87047F0B503AF2DE9000B2E
:106738008AB048F22006C2F20006306828B10AB0D2
:10674800BDE8000BBDE8F040004749F20000002119
:10675800C4F20D00C4F22E01039044F2C020C2F22C
:106768000000CDE901118068062809D104A801A913
:10677800012200F077F8049800285DD1059D1BE000
:1067880000F0DAFE00F0D7FE04904BF27810C2F267
:106798000000012200F21240BFF35F8FD0E84F1FC4
:1067A800C0E8432F002BF9D1BFF35F8F49B10DF13A
:1067B800040999E83002BCBB35600AB0BDE8000B9B
:1067C800F0BD4BF278154FF48061C2F200052846FF
:1067D80013F0CCFF05F0FDFD44F2C0218046C2F263
:1067E8000001284602F0C9FB20B10DF1040999E81F
:1067F800300214E001AA07AB07CA07C34BF27812AC
:1068080007A804ABC2F20002012100F07AF845F2B1
:10681800EF00C0F2000002F0BCFC05460024404630
:1068280005F0E2FD002CC7D007A880E8300240F64A
:10683800A060C2F2200007E004AA07AB07CA07C39A
:1068480040F69060C2F2200040F62063009040F6C7
:10685800F45007AAC2F22000C2F220032B2110F044
:1068680014FBFEDEF0B503AF4DF8048D84B0154679
:106878000E46044600F060FE00F05DFE00904BF20C
:106888007810C2F20000012200F21240BFF35F8FBD
:10689800D0E84F1FC0E8432F002BF9D1BFF35F8F1B
:1068A80031B196E8070007C404B05DF8048BF0BD69
:1068B8004BF278184FF48061C2F20008404613F09A
:1068C80055FF96E8070001AB07C305F082FD0646B1
:1068D800404600F050FD01A86B462946424600F0AC
:1068E80010F845F2EF00C0F2000002F052FC00215F
:1068F800C4E90010304605F077FD04B05DF8048B5C
:10690800F0BDF0B503AF2DE90007C6B00E4601464D
:106918004BF234100DF1080AC2F200001D46026065
:1069280048F2340249F2000301200090C2F200024A
:10693800C2F2000350468DF8076000F09AF85046FE
:10694800314604F000FA0DF10702504600212B46AB
:106958004FF0000800F006F951464BF200096CC9E7
:10696800C2F2000909F10C006CC07CC97CC091E836
:106978007C0049467CC04FF480604022A9F804009E
:106988005046C9F84480C9F80880C9F8008000F06A
:1069980075F9BAE87E004BF23810C2F200007EC0EA
:1069A8009AE87E007EC0322002ACCDF812010220A7
:1069B800C4F200003CAACDF80E011020ADF80C017D
:1069C80045F62400C2F2DD704946429009203F9006
:1069D80040F6B060C2F22000CDF800813E9020461B
:1069E800CDF8F08000F041FA0C9D8121284604F092
:1069F80005FA2846012104F001FA2846822104F00C
:106A0800FDF92846022104F0F9F92846832104F00B
:106A1800F5F92846032104F0F1F92846842104F009
:106A2800EDF92846042104F0E9F92846852104F007
:106A3800E5F92846052104F0E1F92846862104F005
:106A4800DDF92846062104F0D9F92846872104F003
:106A5800D5F92846072104F0D1F94BF24800214620
:106A6800C2F20000E82214F04EFE46B0BDE800076E
:106A7800F0BDF0B503AF2DE9000F8DB01D461646E9
:106A88000C46814605F0CAFCD7F8088041F2381058
:106A9800D4F800A0D4F808B02C18BFF35F8F54E8DE
:106AA800000F40F0004144E80012002AF7D1B0F18D
:106AB800FF3FBFF35F8F3DDD06F5C0700122BFF3D6
:106AC8005F8FD0E84F1FC0E8432F002BF9D1BFF3E9
:106AD8005F8FD9BB30464FF4C07104F0DEFFCDE9BB
:106AE80003AB0DF1040B05F586530622CDE9010130
:106AF8004FF0000A58464146CDE9082305F5805372
:106B0800ADF830A00B940A920793CDE9055202F034
:106B18008FFEBBE87E0009F104007EC09BE87E0082
:106B28007EC0012089F83400C9F800A00DB0BDE886
:106B3800000FF0BD41F2EC1041F28022C2F22000B9
:106B4800C2F220021F2110F0BBF8FEDE40F29010C6
:106B580041F27022C2F22000C2F22002202110F07D
:106B6800AFF8FEDEF0B503AF2DE9000784B00446A8
:106B780090F834001D4691460E4680B320680028E0
:106B880069D14FF0FF303146206004F10C0003F06A
:106B9800C9FF01AECDE90101D5F80080304699F86A
:106BA800005003F0D6FF304604F01BF8002D18BF44
:106BB80001253046294604F020F83046012103F02B
:106BC800E0FF3046414603F0EAFF304603F0CDFFD0
:106BD80020680130206004B0BDE80007F0BD05F072
:106BE80018FC804605F005FC05F018FC206890BBF1
:106BF8004FF0FF303146206004F10C0003F092FFA3
:106C080001AECDE90101D5F800A0304699F8005051
:106C180003F09FFF304603F0E4FF002D18BF012565
:106C28003046294603F0E9FF3046012103F0A9FF69
:106C38003046514603F0B3FF304603F096FF206814
:106C4800013020605FEAC87008BF05F0D4FB04B0CB
:106C5800BDE80007F0BD40F62C7040F6BC63C2F2F8
:106C6800200003AA009040F27420C2F22000C2F271
:106C78002003102110F009F9FEDE7047F0B503AFCC
:106C88002DE9000F87B004460868002840F0A78067
:106C980091F804B0002008600E460BF1010008715D
:106CA8008868002840F096804FF0FF3006F10C0508
:106CB8009146B060FF20082103220290CDE900210F
:106CC80028468021002204F082FA8A46B168C0076B
:106CD80001F10101B16040F09480306800287ED154
:106CE80096F8048000200029306008F10102327112
:106CF80070D14FF0FF310022B1600221CDE90019B7
:106D080000210290284604F062FAB268C00702F136
:106D18000102B26040F08A80002A04915AD14FF0F3
:106D2800FF300021B0600220CDE900092846029119
:106D38008021002204F04BFAC00701BFB06801307F
:106D4800B06084F82CB001BF4FF40070A4F827009D
:106D580084F82610A4F8249001BF06F144012162AA
:106D680084F82D8040F2FF3201BFA4F80F2084F888
:106D78000EA00822A28101BFA160A4F81B000498FC
:106D8800A07601BFA4F8189061610020E08501BFDA
:106D9800A071A2804FF4FA50206002BF07B0BDE88E
:106DA800000FF0BDB06840F64C7307F8211CC2F222
:106DB80020030130B06040F6BC70A7F12102C2F296
:106DC8002000009040F63C70C2F220000F2110F025
:106DD8005CF8FEDE41F26000C2F2200003E041F2FE
:106DE800A000C2F2200040F6F073009040F2742038
:106DF80006AAC2F22000C2F22003102110F045F8C2
:106E0800FEDE40F6CC7040F64C73C2F22000A7F1CB
:106E18002302009040F63C70C2F22000C2F2200328
:106E280007F823AC0F2110F030F8FEDE40F6BC70F6
:106E380040F64C73C2F2200007F8221C009040F67E
:106E48003C70C2F22000C2F22003A7F122020F21F7
:106E580010F01BF8FEDE7047084640F6DC71C2F2FF
:106E68002001122211F09EBA7047F0B503AF2DE948
:106E7800000F85B004468868002878D192F821B0C0
:106E88004FF0FF3001F10C058860002090460E4657
:106E9800CDE9000B0290284600210122002304F0CE
:106EA80096F98946B168C00701F10101B16063D163
:106EB80000295CD14FF0FF308021B0600020CDE97F
:106EC800000B012202902846802304F080F98A46AC
:106ED800B168C00701F10101B1605FD130680028D5
:106EE80071D14FF0FF300029306071D1B060284671
:106EF80004F0F8F9B0680130B0606ED34FF0FF309D
:106F08008021B06004F12C00BFF35F8F7564BFF37C
:106F18005F8F13F02BFC4FF0000C06F14401A4F82E
:106F2800D4C0A4F8CFC084F8CEA0A4F8CCB0C4F8DC
:106F3800C810C4F8BC102146A4F8C3C084F8C29095
:106F4800A4F8C0B0C4E92DCCC4F8ACC0A562B8E8B8
:106F58006D006DC198E86D006DC14FF4806084F8D4
:106F6800E4C0C4F8E00005B0BDE8000FF0BD41F290
:106F78006000C2F2200034E041F2241041F2B00374
:106F8800C2F22000A7F12202009040F2F000C2F203
:106F98002000C2F2200307F8229C10E041F23410CE
:106FA80041F2B003C2F2200007F821AC009040F291
:106FB800F000C2F22000C2F22003A7F12102202132
:106FC8000FF063FFFEDE41F27000C2F2200008E01D
:106FD80041F28000C2F2200003E041F29000C2F2C8
:106FE800200040F6F073009040F2742004AAC2F228
:106FF8002000C2F2200310210FF047FFFEDE704789
:10700800F0B503AF2DE9000F81B048F224014FF02D
:10701800010CC2F20001BFF35F8FD1E84F2FC1E826
:1070280043CF002BF9D1BFF35F8F002A01BF48F28D
:107038000001C4F20D010022C4F22F0201BF02F5C3
:10704800542C02F5502E02F54C28A1F5004401BF3E
:10705800A1F5003501F5F61601F5F413C0E9683617
:1070680001BFC0E96A54C0E96C8EC0E96EC101F580
:10707800005E01BF01F5805640F2040CC4F22E0CEC
:1070880001F5021401BF0CF5FE7501F5004300F58A
:10709800C07888E8380001BF00F5C67383E812108D
:1070A800C0E9666EA1F5404C01BF01F5881E01F5E7
:1070B800861801F5841401F5821301BF01F5003625
:1070C80002F51025C0E9585600F5B47501BF85E8EA
:1070D8001A41C0F87CC1A1F5804C02F51C2E01BFF5
:1070E80002F5182802F51424A1F5E03301F5282645
:1070F80001BF01F5EE15C0E9505600F5A47585E805
:10710800184101BFC0E9562C02F5782802F5742908
:1071180002F5702401BF02F56C234CF2000CC4F296
:10712800070C0CF5004601BF01F5E03E01F58E1590
:10713800C0E9485EC0E94A6101BF00F5987585E875
:107148001802C0F83C8101F5482801BF01F544291F
:1071580001F5402A01F53C2B01F5382301BF01F563
:10716800342401F5302501F52C26C0E9406501BF1E
:10717800C0E94243C0E944BAC0E9469802F530285C
:1071880001BF02F52C2902F5282A02F5242B02F565
:10719800861301BF02F5841402F5821502F58016E4
:1071A800C0E9386501BFC0E93A43C0E93CBAC0E963
:1071B8003E9801F5F01801BF01F59219A1F5503A72
:1071C800A1F5403BA1F5303301BF01F5901401F55D
:1071D8008C1501F58A16C0E9306501BFC0E9324354
:1071E800C0E934BAC0E9369844F2000B01BFC4F2D2
:1071F800002B0BF500490BF5804A4FF0844801BF7E
:1072080001F56C2601F5682401F56425A1F5C03364
:1072180001BFC0E9283500F1A80383E85009C0E997
:107228002EA901BF01F5602801F5E61901F5E81A54
:10723800A1F5203601BF0BF5E03301F5582401F51F
:107248005425C0E9205401BF00F1880484E84804AB
:10725800C0E9259EC0F89C8001BFA1F5103E01F54C
:10726800FE1801F5001902F5642A01BF02F5602332
:1072780002F55C2602F5582501F5A03401BF00F19E
:10728800600B8BE87000C0E91B3AC0E91D9801BF8C
:10729800C0F87CE001F5803E02F540480CF58049D5
:1072A80001BF01F5804A01F5F21344F20806C4F261
:1072B800090601BF06F1100506F10804C0E91064CB
:1072C800C0E9125301BFC0E914A9C0E9168E0CF534
:1072D800C03E01F5103801BF01F5801901F57C2485
:1072E80001F5782302F57C2601BF02F54825C0E99F
:1072F800085600F1280585E8180201BFC0E90D818C
:10730800C0F83CE002F5442E02F50C2601BF01F559
:10731800D21501F5242402F54022A1F5803301BFDE
:10732800A1F5A031C0E90013C0E9022C103001BF5B
:1073380080E8704001B0BDE8000FF0BD41F2441094
:1073480041F2DC12C2F22000C2F2200235210FF015
:10735800EAFCFEDE016848F24810C4F21F0005236B
:10736800026863F303020260486840F0080048605E
:1073780003207047FEE748F22801C2F20001886046
:107388000120BFF35F8F08707047006810F07FBA64
:107398000A46D0E90031184611F072BA7047F0B5C4
:1073A80003AF2DE9000B84B041F290204BF2301866
:1073B8004BF24805C2F220000390C2F2000808F11F
:1073C8000800C2F2000502A902902846012200F036
:1073D80017FB0446A86A002101F0F7F8064695F85D
:1073E800E21098F80000022933D148B9A86A03F0DE
:1073F800ADFEA86A002101F0B3F9012088F8000069
:10740800D8F81C000168BFF35F8F002900F087805F
:10741800002098F8222041F2C423009002A8C2F26A
:107428002003344304F0FFF87CB1D8F804000122AB
:10743800BFF35F8F00F58264D4E84F1FC4E8432F81
:10744800002BF9D1BFF35F8F79B104B0BDE8000B11
:10745800F0BD18B1A86A002101F02FF9002088F8C2
:10746800000004B0BDE8000BF0BDD0F80014BFF375
:107478005F8FD0F80824BFF35F8FD0F8043400F290
:107488000445BFF35F8F934205D199423EBFBFF3D6
:107498005F8F00232B60994228BF0A469A4236D054
:1074A800D8F828100968BFF35F8FC1B3A2EB0309AE
:1074B80098F82E20034402A84E46B9F1400F28BF81
:1074C8004026009603F0F4FF9DF8080068B1207884
:1074D800BFF35F8F0028B8D0BFF35F8F55E8000F68
:1074E80045E800010029F9D111E003982178BFF39C
:1074F8005F8F0029A9D0814538BF4846BFF35F8F09
:1075080055E8001F014445E80012002AF8D1002080
:10751800BFF35F8F207004B0BDE8000BF0BD41F2EF
:10752800186041F2A062C2F22000C2F220022221B9
:107538000FF0F9FBFEDE70474FF47A607047F0B544
:1075480003AF2DE9000F81B000F12C0B1E469046C9
:1075580089468246D4000D466CB1F5E802013246F0
:107568004B6A59469847BAF8D400083C00F00D0019
:107578000428F1D033E0707AA8B3BAF8D40000F048
:107588000D0004282BD1DAF8BC000921AAF8D41080
:107598000068BFF35F8FB0B19AF8C210012204F0FF
:1075A800FDF8DAF8C8000068BFF35F8F00281FBF36
:1075B8009AF8CE10012201B0BDE8000F1CBFBDE84B
:1075C800F04004F0EBB841F2186041F2A062C2F258
:1075D8002000C2F2200222210FF0A5FBFEDE01B03E
:1075E800BDE8000FF0BD317AB079022921D0012918
:1075F80033D00029C1D1002858D0062875D00828D2
:1076080004BFBAF8D4000428B7D19AF8E2000121DF
:10761800AAF8D41000220238BAF8DA10B0FA80F0CA
:10762800002918BF01214009CAE92D218AF82C0038
:1076380057E00028A1D17188DAF8280001F08F01FD
:1076480004F02DF9BAF8D410042996D1AAF82C0020
:107658000120AAF8D40000201EE090B10A2804BF37
:10766800BAF8D40004287FF488AFBAF8DA100020FA
:1076780001228AF82C00AAF8D420002918BF012179
:107688000FE0BAF8D40004287FF477AF0020012176
:10769800AAF82C00AAF8D410BAF8DA10022928BFE0
:1076A8000221CAF8B400CAF8B8101AE0BAF8D4002F
:1076B80004287FF462AFBAF8DA3001229AF8E300BE
:1076C800AAF8D42000229AF8E410022B28BF02233B
:1076D800CAE92D23002818BF012041EA4000AAF872
:1076E8002C00584600F025FC47E7504649464246DC
:1076F8005B46009600F0D6F83FE7D4D4F0B503AF68
:107708002DE9000B84B000F12C0699460C46804602
:10771800D5006DB1F4E802014A460B6A3146984734
