:0200000460009A
:100000004643464200000156000000000101020084
:1000100000000000000000000000000000000000E0
:1000200000000000000000000000000000000000D0
:1000300000000000000000000000000000000000C0
:1000400000000000010403000000000000000000A8
:100050000000200000000000000000000000000080
:100060000000000000000000000000000000000090
:100070000000000000000000000000000000000080
:10008000EB04180A063204260000000000000000FD
:10009000050404240000000000000000000000002F
:1000A0000000000000000000000000000000000050
:1000B0000604000000000000000000000000000036
:1000C0000000000000000000000000000000000030
:1000D00020041808000000000000000000000000DC
:1000E0000000000000000000000000000000000010
:1000F0000000000000000000000000000000000000
:1001000000000000000000000000000000000000EF
:100110000204180804200000000000000000000095
:1001200000000000000000000000000000000000CF
:10013000600400000000000000000000000000005B
:1001400000000000000000000000000000000000AF
:10015000000000000000000000000000000000009F
:10016000000000000000000000000000000000008F
:10017000000000000000000000000000000000007F
:10018000000000000000000000000000000000006F
:10019000000000000000000000000000000000005F
:1001A000000000000000000000000000000000004F
:1001B000000000000000000000000000000000003F
:1001C000000100000010000001000000000000001D
:1001D000000000000000000000000000000000001F
:1001E000000000000000000000000000000000000F
:1001F00000000000000000000000000000000000FF
:10020000D4D4D4D4D4D4D4D4D4D4D4D4D4D4D4D4AE
:10100000D10020400020006000000000000000002F
:1010100020100060001000600000000000000000D0
:101020000000006050DE010000000000EFBEADDEF9
:10103000124880F3088812481249016000F036F81F
:10104000114812490022814201D004C0FBE7104838
:101050001049114A814202D008CA08C0FAE70F4875
:101060004FF47001026842EA01020260BFF34F8F41
:10107000BFF36F8F00F014F800DE00000040002086
:1010800008ED00E0004000200050002094B5002052
:10109000B84200205C44002058DE016088ED00E08A
:1010A00040F6237CC0F2000C6047D4D41C4840F2C8
:1010B000924188420CBF1B4A1B4A1C4B5360136869
:1010C00023F0800313601A481A4901BF1A480A0C1A
:1010D0008264C1F30F014164016C41F004010164B9
:1010E0001648174A824205D01649814202D008CAE2
:1010F00008C0FAE71448154A824205D014498142D3
:1011000002D008CA08C0FAE71248134A824205D042
:101110001249814202D008CA08C0FAE770470000AD
:10112000240400000080034000C00B4020C528D9E3
:1011300000C00A40AAAAFAFF00400E4000000000CA
:10114000B8220060507D01000040002000200060B7
:10115000B84200200000202010A00160483E20205E
:10116000D4D4D4D4D4D4D4D4D4D4D4D4D4D4D4D43F
:10117000D4D4D4D4D4D4D4D4D4D4D4D4D4D4D4D42F
:10118000D4D4D4D4D4D4D4D4D4D4D4D4D4D4D4D41F
:10119000D4D4D4D4D4D4D4D4D4D4D4D4D4D4D4D40F
:102000000040002031100060E53B0000357D0100FC
:10201000E53B0000E53B0000E53B00000000000060
:10202000000000000000000000000000E53B000090
:10203000E53B000000000000E53B0000E53B000040
:10204000E53B0000E53B0000E53B0000E53B000010
:10205000E53B0000E53B0000E53B0000E53B000000
:10206000E53B0000E53B0000E53B0000E53B0000F0
:10207000E53B0000E53B0000E53B0000E53B0000E0
:10208000E53B000000000000000000000000000030
:10209000E53B0000E53B0000E53B0000E53B0000C0
:1020A000E53B0000E53B0000E53B0000E53B0000B0
:1020B000E53B0000E53B0000E53B0000E53B0000A0
:1020C000E53B0000E53B0000E53B0000E53B000090
:1020D000E53B0000E53B0000E53B0000E53B000080
:1020E000E53B0000E53B0000E53B0000E53B000070
:1020F000E53B0000E53B0000E53B0000E53B000060
:10210000E53B0000E53B0000E53B0000E53B00004F
:1021100000000000E53B000000000000E53B00007F
:10212000E53B0000E53B0000E53B0000E53B00002F
:10213000E53B0000E53B000000000000E53B00003F
:10214000E53B0000E53B0000E53B0000E53B00000F
:10215000E53B0000E53B000000000000000000003F
:10216000E53B0000E53B0000E53B0000E53B0000EF
:10217000E53B0000E53B0000E53B0000E53B0000DF
:10218000E53B0000E53B0000E53B0000E53B0000CF
:10219000E53B0000E53B0000E53B0000E53B0000BF
:1021A000E53B0000E53B0000E53B0000E53B0000AF
:1021B000E53B0000E53B0000E53B0000E53B00009F
:1021C000E53B0000E53B0000E53B000000000000AF
:1021D000E53B0000E53B0000E53B0000E53B00007F
:1021E000E53B0000E53B0000E53B0000E53B00006F
:1021F000E53B0000E53B0000E53B0000E53B00005F
:10220000E53B0000992F0000E53B0000E53B0000A6
:10221000E53B0000E53B0000E53B0000E53B00003E
:10222000E53B0000E53B0000E53B0000E53B00002E
:10223000E53B0000E53B0000E53B0000000000003E
:1022400000000000E53B0000E53B0000E53B00002E
:10225000E53B0000E53B0000E53B0000E53B0000FE
:10226000E53B0000E53B0000E53B0000E53B0000EE
:10227000E53B0000E53B0000E53B0000E53B0000DE
:10228000E53B0000E53B0000E53B0000E53B0000CE
:10229000E53B0000E53B0000E53B0000E53B0000BE
:1022A000E53B0000E53B0000E53B000000000000CE
:1022B000E53B0000E53B0000F0B503AF2DE9000F62
:1022C00081B02DED028BADF5127D8946D1E9026A10
:1022D00091ED018A4CF601230968C3F69A33D0F8D0
:1022E00018E000F15C08069100F11C019E45CDF854
:1022F0001C8028D105900DF1700B0491B6469146D3
:102300007CC9DC46ACE87C007CC9ACE87C0091E888
:102310007D008CE87D000020069AD11E032938BF7D
:10232000901EDFE800F0026D72F5002A00F06D816A
:10233000012A40F0DD81B0EE480A0EF0BAFA8DEDC8
:10234000250A012062E134ABCDF808A0039684464B
:10235000049280469A468B469CE87B00DC468AE8DD
:102360007B00CDF8E8E00DF1D00E0EF11C0ABCE8C0
:102370007C0051467CC1BCE87C007CC19CE87D00AF
:102380007DC10EF15C00642207997446059017F038
:10239000AAFC09F11003029867900DF5D07C0FCBD1
:1023A000039E8CE80F0064A92046049A6696069E58
:1023B0008DED658A649600F07BFA2146A64691E889
:1023C0007D000DF1580C8CE87D003A9806900EA81F
:1023D000BAE84E004EC09AE84E004EC00EF14501DC
:1023E00008A817229DF814919DED448ADDF80CA1F0
:1023F00016F08AFE059964A8642217F074FC92E135
:1024000018EE100A8DF8AC0072E15EEA0A0000F0E6
:102410006F8126980BF130045346764600254FF025
:1024200000080BF12C01069108E001382A900120E8
:102430002690A91B78EB030180F05A81013548F101
:10244000000840B32A980028EFD14BF29050C2F216
:1024500000000068022818D9012040F2506137902E
:1024600040F2F050C2F2200040F2F85236900020C4
:10247000C2F220013990349034A838910321C2F27D
:10248000200200230AF0BBFE53460EAA07CA84E8C6
:102490000700042002E0279840B10138279000206F
:1024A0002690A91B78EB0301C8D321E14BF2905091
:1024B000C2F200000068022817D9012040F25061E2
:1024C000379040F22C60C2F2200040F23462369025
:1024D0000020C2F220013990349034A838910321B1
:1024E000C2F2200200230AF08AFE08F0C4FC014672
:1024F000484609F069FC069808F0C8FC04205346D9
:102500002A9001202690A91B78EB030196D3EFE0D7
:1025100018EE100A4BF29055C2F2000507F8290C8C
:10252000286802281CD9012040F23841379040F237
:102530004042399064A838900020349046F2AB4075
:10254000C0F20100C2F220016590A7F12900649059
:1025500034A83691C2F22002032100230AF04FFE74
:102560002698A8B317F8291C0BF12C0008F093FC4F
:10257000C1B2022900F0BC80020E8DF820108DF847
:102580002320020AADF821202A68022A40D901201E
:1025900040F26C41379040F27442399064A8389010
:1025A0000020349048F6D140C0F20000C2F2200171
:1025B000659008A8649034A83691C2F220020321E5
:1025C00000230AF01CFEBDF822009DF8201020E038
:1025D00028680328C0F08C80012040F250613790B9
:1025E00040F2B850C2F2200040F2C05236900020B3
:1025F000C2F220013990349034A83891C2F22002FE
:10260000032100230AF0FBFD72E0002024906FE01C
:10261000000C084333D19DF82100C0F17E0040B288
:102620004408C007169440D10DF17008404609F0E7
:102630007FF92968844240F2A080022917D901203D
:1026400040F25061379040F2F840C2F2200040F270
:10265000005236900020C2F220013990349034A804
:102660003891C2F22002032100230AF0C8FDB8E825
:102670002E002CA82EC098E82E002EC0B2E02868AC
:1026800003282DD3012040F25061379040F2A8403A
:1026900040F2B042C2F2200036900020C2F2200187
:1026A000C2F220023990389114E02868032817D329
:1026B000012040F25061379040F27050C2F2200089
:1026C00040F2785236900020C2F2200139903891C1
:1026D000C2F22002349034A8032100230AF08FFDB7
:1026E0000EAA04232793002307CA269328AB07C307
:1026F0000BF1290108A84CF601281722C3F69A38D5
:102700009DF898909DED258A249C16F0FDFCBBE871
:102710002E000EA82EC09BE82E002EC0CDF81880EB
:10272000A246DDE904B80DF1580C41469CE87D0055
:102730007DC10EA84EC8ABE84E0090E84E0008F1EF
:1027400045008BE84E0008A9172216F0DDFC07981B
:1027500064A9642217F0C7FA069888F8449088EDB7
:10276000108AC8F83CA0C8F818000DF5127DBDEC21
:10277000028B01B0BDE8000FF0BD02291CD9012079
:1027800040F21C51379040F22452399064A838909E
:102790000020349046F2E750C0F20100C2F220015E
:1027A000659016A8649034A83691C2F220020321E5
:1027B00000230AF024FD169C34A9B8E86C000846F2
:1027C0006CC098E86C006CC064AD2246284609F0E5
:1027D000B1F8649800285ED04ECD2CA84EC095E884
:1027E0004E004EC02CAA9DF8ACB09DED258A64A980
:1027F000DDF8908001F10C0078CA0DF1D00A78C0A4
:1028000092E8780078C04CF60120C3F69A3001387F
:102810006690504608F04EFDBBF1040F08D003202F
:1028200064A9649034A84A468DF894B100F040F849
:10283000B8F1000F0CD0B0EE480A0EF077F8012086
:1028400064A9649034A84A468DED650A00F030F81A
:1028500051460DF1580C91E87D000EA98CE87D00E1
:102860000AF11C00DDF8E8806CC86CC190E86C00CF
:1028700008A86CC10AF1450117229DF814919DED3D
:10288000448A439C16F040FC0AF15C0164A864226F
:1028900017F029FA42E740F2A82040F24052C2F273
:1028A0002000C2F220022B2112F0B1FEFEDED4D4B1
:1028B000F0B503AF2DE9000F81B02DED028BBAB05A
:1028C0000646086890460022C31E032B38BF821EAE
:1028D0000596DFE802F0026D76D93278747891EDD2
:1028E000010A002A40F0F180022C80F0EE800028DE
:1028F00000F04E81012840F006829FEDE81A4BF26D
:1029000090559FEDE72AC2F2000520EE011A8DEDE9
:10291000060A81EE021A8DED071A286803281FD3D4
:10292000022040F230012390C2F22001259008A835
:1029300024900020209045F66B40C0F2010040F248
:1029400090020B90C2F22002099006A8229107A9DA
:10295000089020A80A91032100230AF050FC059E4C
:102960002868002C00F03B82022818D9012040F290
:102970005061239040F2CC00C2F2200040F2D40219
:1029800022900020C2F220012590209020A82491BE
:10299000C2F22002032100230AF031FC059E06F159
:1029A000100008F04FFB014608A808F08FFC39E240
:1029B0000879DFE810F004001201420177010220DB
:1029C00071E1D1E90234CDF8088053EA040000F047
:1029D000968096F801C04BF2905E307806F10208BE
:1029E000D6E9029AC2F2000E4FF0000B0025CDE9A5
:1029F00003C311E00020BDF88410A8F80410BBEB5D
:102A00000301209A75EB040186F801C03070C8F804
:102A10000020C6E9029A73D21BF1010B45F10005B3
:102A20000028E7D059EA0A0006D0B9F101094FF0B1
:102A300001006AF1000ADEE78DF81CC0DEF8000034
:102A40000228D7D9012040F25431239040F25C3261
:102A5000259008A824900020209049F21B20C0F265
:102A60000000C2F22001099007A8089020A8229136
:102A70000321C2F22002002376460AF0C0FBB646CC
:102A8000DDE903C3059EB5E74BF29050C2F20000AA
:102A900000680328C0F0D981012040F250612390E2
:102AA00040F21830C2F2200040F220322290002082
:102AB000C2F220012590209020A82491C2F2200289
:102AC000032100230AF09BFBBFE1002860D001280E
:102AD00040F04F819FEDEB1A4BF290559FEDEA2AA3
:102AE000C2F2000520EE011A8DED060A81EE021AEF
:102AF0008DED071A286802283FF612AF30E73078CC
:102B0000029DF0B106F1100008F09CFAA0B1461E3B
:102B1000002008F0A8F9000400F09E81304608F07B
:102B2000ADF90146C0B2022800F09F81284609F0A5
:102B30004BF9013E701CEBD1059E3078002840F027
:102B4000848170780238C0B2022828BF0220012890
:102B500040F07B8106F1100008F074FA002800F0C4
:102B60007481441E43F6FF7008F07DF9000400F004
:102B70007381204608F082F90146C0B2022800F0B5
:102B80007481284609F020F9013C601CEAD15CE11F
:102B90004BF29050C2F200000068022818D90120C0
:102BA00040F25061239040F28420C2F2200040F2B3
:102BB0008C2222900020C2F220012590209020A893
:102BC0002491C2F22002032100230AF018FB059E83
:102BD00006F1100008F043FA37E14BF29050C2F2D0
:102BE00000000068022818D9012040F250612390AB
:102BF00040F2DC30C2F2200040F2E43222900020A9
:102C0000C2F220012590209020A82491C2F2200237
:102C1000032100230AF0F3FA059E06F11005284669
:102C200008F010FA20AE0146304608F0C5FB2846F1
:102C3000314608F0B2FA002035E04BF29050C2F273
:102C400000000068022818D9012040F2506123904A
:102C500040F29830C2F2200040F2A03222900020D0
:102C6000C2F220012590209020A82491C2F22002D7
:102C7000032100230AF0C3FA059E06F11005284639
:102C800008F0E0F920AE0146304608F01FFB284668
:102C9000314608F082FA012005E000BF000016442A
:102CA0000000044403204BF290518DF81C00C2F246
:102CB0000001096802291DD9012040F2004123903A
:102CC00040F20842259008A824900020209049F264
:102CD0001B20C0F20000C2F22001099007A8089052
:102CE00020A82291C2F22002032100230AF087FAD1
:102CF0009DF81C00059B0021022258700120C3E9A9
:102D000002211870A1E0D1E90502904280F09D8077
:102D10008B6806F1100A0969A2EB000B03EB800532
:102D20000DF1800901EB800408AE07E0BBF1010B57
:102D300005F1040504F1040400F08780D4ED000AD5
:102D4000484695ED000A514608F098FA2298002866
:102D5000ECD0DDE92331DDE920C2CDE908C2CDE9BF
:102D60000A03101A424601EB9001304600F0F8F8D1
:102D7000DCE7D1E90502904267D28B6806F1100BBF
:102D80000969A2EB000803EB80050DF1800A01EB55
:102D9000800408AE0DF1E40906E0B8F1010805F180
:102DA000040504F1040450D0D4ED000A504695ED1A
:102DB000000A594608F062FA22980028EDD0DDE9B1
:102DC0002331DDE920C2CDE908C2CDE90A03101A9A
:102DD0004A4601EB9001304600F058F8DDE7022842
:102DE00018D9012040F25061239040F2D010C2F275
:102DF000200040F2D81222900020C2F2200125903B
:102E0000209020A82491C2F22002032100230AF07E
:102E1000F6F9059E06F1100008F014F9014608A81D
:102E200008F0CAFA9DED070A0DF043FD20AD08A990
:102E30006022B0EE408A284616F0F0FBB0EE480A59
:102E400006F11000294608F044F93AB0BDEC028BB7
:102E500001B0BDE8000FF0BD40F2A82040F2E4222E
:102E6000C2F22000C2F2200207E040F2A82040F2A5
:102E7000D422C2F22000C2F220022B2112F0C7FBA2
:102E8000FEDE00BF0000164400000444F0B503AFAE
:102E90004DF804BD2DED0A8BD0E90156B54241D065
:102EA000B7EE00AA90ED008A90ED039A4C1E9FEDBC
:102EB0002ABA9FED2ACA15ED010A80EE090AB4EE7E
:102EC0004A0AF1EE10FA48BFB0EE4A0A0EF08CF84A
:102ED00080EE081AB4EE408A21EE0B1AF1EE10FAD9
:102EE00048BFB0EE4B1ABCEEC10AB5EE401AF1EE87
:102EF00010FAB4EE4C1A10EE100AB8BF0020F1EE32
:102F000010FAC8BF4FF6FF7007F0ADFF00040ED0F7
:102F1000204607F0B3FFC0B2022811D0043D013CA7
:102F2000B542C8D1BDEC0A8B5DF804BBF0BD40F2E0
:102F3000986040F20C72C2F22000C2F2200207E058
:102F400040F2986040F2FC62C2F22000C2F220021D
:102F50002B2112F05CFBFEDE00FC7F4600FF7F476A
:102F6000F0B503AF4DF8048D2DED0A8BD0E9016467
:102F7000A64246D0B7EE00AA90ED008A90ED039AE3
:102F80004D1E9FED2DBA90469FED2CCA16ED010AFD
:102F900080EE090AB4EE4A0AF1EE10FA48BFB0EE2C
:102FA0004A0A0EF021F880EE081AB4EE408A21EEAB
:102FB0000B1AF1EE10FA48BFB0EE4B1ABCEEC10A84
:102FC000B5EE401AF1EE10FAB4EE4C1A10EE100AFB
:102FD000B8BF0020F1EE10FAC8BF4FF6FF7007F03F
:102FE00042FF000412D0284607F048FF0146C0B255
:102FF000022814D04046043E08F0E6FE013DA642F9
:10300000C4D1BDEC0A8B5DF8048BF0BD40F2986032
:1030100040F20C72C2F22000C2F2200207E040F23D
:10302000986040F2FC62C2F22000C2F220022B2122
:1030300012F0EDFAFEDE00BF00FC7F4600FF7F4786
:103040007047F0B503AF2DE9000782B0D0E90090DA
:103050000D460021802D019102D28DF804503AE0F6
:1030600002212A46B5F5006F0DD261F39F12C021EF
:1030700041EA95118DF805208DF804104FF00008F5
:103080004FF0010A2BE061F39F12B5F5803F10D29B
:103090008DF80620AA0961F39F12E02141EA15315B
:1030A0008DF805208DF804104FF001084FF0000A4C
:1030B00015E08DF80720AA0961F39F128DF806200C
:1030C0002A0B61F39F128DF80520A90C1E2262F3D2
:1030D000DF018DF804104FF0000A4FF000089DF852
:1030E0000460C46848463146A0470028FAD1802DC4
:1030F0001AD39DF8055048462946A0470028FAD122
:10310000BAF1000F10D19DF8065048462946A04755
:103110000028FAD1B8F1000F06D19DF807504846B3
:103120002946A0470028FAD1002002B0BDE80007D8
:10313000F0BDF0B503AF2DE9000B88B0D0E900CEAB
:1031400002AA91E8710340F21C711346C2F22001F9
:1031500083E871036846CDE900CE13F011F808B09A
:10316000BDE8000BF0BDF0B503AF2DE9000B82B157
:10317000D0E90050894601EB0208C46899F8006064
:1031800028463146A0470028FAD109F10109C14576
:10319000F4D10020BDE8000BF0BD80B56F4601689A
:1031A0004869896A04F0A1FE00F40000012181EA67
:1031B000D05080BDB0B502AF05680C466869A96AF9
:1031C00004F093FE010200F4000044BFE1B2E961A3
:1031D000012181EAD050B0BD704780B56F4600F044
:1031E00001F8FEDEB0B502AFADF5D85D82B01FA824
:1031F00002F09AFC01F06AF9D0B1A7F114000121A4
:1032000001F078F90DF5666001F0ABF90DF5805E1F
:10321000DEF86002022817D140F2EC7040F6780226
:10322000C2F22000C2F220022B2112F0F0F9FEDEE1
:1032300040F2EC7040F68802C2F22000C2F2200296
:103240002B2112F0E4F9FEDE8FA80DF566614FF434
:10325000816216F048FD4FF67450C0F2070001F08D
:103260003DFA80B101F049F9C0B2052817D140F20A
:10327000EC7040F65802C2F22000C2F220022B216C
:1032800012F0C5F9FEDE40F2EC7040F66802C2F2C0
:103290002000C2F220022B2112F0B9F9FEDE8DF8D7
:1032A000470601F0FCF8002800F0788401F0E0F80F
:1032B000002800F07F840DF5CC691FA90DF1140ED4
:1032C0004FF4E07248460EF5885416F00CFD0DF5EB
:1032D0006660494600F0D2FE0DF5805E25680DF56A
:1032E00066640DF5C96CDEF8D0800DF5805EDEF801
:1032F000DC000DF5805ECDF854062046DEF8E810BF
:103300000DF5805EDEF8EC200DF5805EDEF8F03025
:103310008CE80E0001F07AFF0DF5C961204601F03E
:103320007AFF0DF2546002F0A9FD0A9140F2E731F4
:103330001E900222D8F80000012300240DF5666BD0
:1033400020F00100C8F80000D8F8040061F30B0079
:10335000C8F80400D8F8000020F4B8608030C8F83D
:103360000000D8F8000020F00100C8F80000D8F8EC
:10337000080040F02000C8F80800D8F80C0020F041
:103380002000C8F80C00D8F8000020F40070C8F83D
:103390000000D8F8000040F00200C8F80000D8F89B
:1033A000080040F00100C8F80800D8F80C0020F030
:1033B0000100C8F80C00D8F8080040F00200C8F876
:1033C0000800D8F80C0020F00200C8F80C00D8F86B
:1033D000080040F00400C8F80800D8F80C0020F0FD
:1033E0000400C8F80C0048F20410C4F21F00016881
:1033F00062F303010160016821F01001016048F2ED
:103400003051C4F21F010B60416862F30301416057
:10341000416821F010014160C0F828344FF4E131D7
:10342000AA60AC60A86940F44020A861D5F818A053
:10343000A86920F44020A861A86A40F48040A862EE
:10344000A86A40F40040A862584601F0B9FCDDF8D3
:10345000641E41F6FF73DDF8600E2A6999429DF8FB
:10346000686E38BF0B464EF200012028CEF2FD01F7
:1034700001EA02014FF0200228BF1046042898BF3D
:10348000042019434FF0F85202EB006041EA464134
:1034900000F0F85008432861A8694FEA9A4161F3A7
:1034A0009340A861A7F114000121CDF85856CDF83A
:1034B0005C4601F008F8C82007F013FC584608F0F5
:1034C00013F95946CC467CC90DF5C25AACE87C00CC
:1034D0007CC9ACE87C0091E87D0059468CE87D0011
:1034E00009F1400C7CC9ACE87C007CC9ACE87C00EC
:1034F00091E87D0059468CE87D0009F1800C7CC97B
:10350000ACE87C007CC9ACE87C0091E87D005946C1
:103510008CE87D0009F1C00C7CC9ACE87C007CC95A
:10352000ACE87C0091E87D0059468CE87D0009F507
:10353000807C7CC9ACE87C007CC9ACE87C0091E86C
:103540007D0059468CE87D0009F5A07C7CC9ACE87B
:103550007C007CC9ACE87C0091E87D0059468CE891
:103560007D0009F5C07C7CC9ACE87C007CC9ACE876
:103570007C0091E87D0059468CE87D0009F5E07CEF
:103580007CC9ACE87C007CC9ACE87C0091E87D009B
:1035900059468CE87D0009F5007C7CC9ACE87C00CC
:1035A0007CC9ACE87C0091E87D0059468CE87D0040
:1035B00009F5107C7CC9ACE87C007CC9ACE87C00D7
:1035C00091E87D0059468CE87D0009F5207C7CC996
:1035D000ACE87C007CC9ACE87C0091E87D005946F1
:1035E0008CE87D0009F5307C7CC9ACE87C007CC9A6
:1035F000ACE87C0091E87D0059468CE87D0009F537
:10360000407C7CC9ACE87C007CC9ACE87C0091E8DB
:103610007D0059468CE87D0009F5507C7CC9ACE8FA
:103620007C007CC9ACE87C0091E87D0059468CE8C0
:103630007D0009F5607C7CC9ACE87C007CC9ACE805
:103640007C0091E87D0059468CE87D0009F5707C8E
:103650007CC9ACE87C007CC9ACE87C0091E87D00CA
:1036600059468CE87D0009F5806C7CC9ACE87C008B
:103670007CC9ACE87C0091E87D0059468CE87D006F
:1036800009F5886C7CC9ACE87C007CC9ACE87C009E
:1036900091E87D0059468CE87D0009F5906C7CC965
:1036A000ACE87C007CC9ACE87C0091E87D00594620
:1036B0008CE87D0009F5986C7CC9ACE87C007CC97D
:1036C000ACE87C0091E87D0059468CE87D0009F566
:1036D000A06C7CC9ACE87C007CC9ACE87C0091E8BB
:1036E0007D0059468CE87D0009F5A86C7CC9ACE8E2
:1036F0007C007CC9ACE87C0091E87D0059468CE8F0
:103700007D0009F5B06C7CC9ACE87C007CC9ACE8F4
:103710007C0091E87D0059468CE87D0009F5B86C85
:103720007CC9ACE87C007CC9ACE87C0091E87D00F9
:1037300059468CE87D0009F5C06C7CC9ACE87C007A
:103740007CC9ACE87C0091E87D0059468CE87D009E
:1037500009F5C86C7CC9ACE87C007CC9ACE87C008D
:1037600091E87D0059468CE87D0009F5D06C7CC954
:10377000ACE87C007CC9ACE87C0091E87D0059464F
:103780008CE87D0009F5D86C7CC9ACE87C007CC96C
:10379000ACE87C0091E87D0059468CE87D0009F595
:1037A000E06C7CC9ACE87C007CC9ACE87C0091E8AA
:1037B0007D0059468CE87D0009F5E86C7CC9ACE8D1
:1037C0007C007CC9ACE87C0091E87D0059468CE81F
:1037D0007D0009F5F06C7CC9ACE87C007CC9ACE8E4
:1037E0007C0091E87D0059468CE87D0009F5F86C75
:1037F0007CC9ACE87C007CC9ACE87C0091E87D0029
:103800008CE87D00504607F06FFFD4465946BCE86F
:103810007C007CC1BCE87C007CC19CE87D000BF195
:10382000400C7DC151467CC9ACE87C007CC9ACE849
:103830007C0091E87D0051468CE87D000BF1800C06
:103840007CC9ACE87C007CC9ACE87C0091E87D00D8
:1038500051468CE87D000BF1C00C7CC9ACE87C00C3
:103860007CC9ACE87C0091E87D0051468CE87D0085
:103870000BF5807C7CC9ACE87C007CC9ACE87C00A2
:1038800091E87D0051468CE87D000BF5A07C7CC959
:10389000ACE87C007CC9ACE87C0091E87D00514636
:1038A0008CE87D000BF5C07C7CC9ACE87C007CC951
:1038B000ACE87C0091E87D0051468CE87D000BF57A
:1038C000E07C7CC9ACE87C007CC9ACE87C0091E879
:1038D0007D0051468CE87D000BF5007C7CC9ACE88E
:1038E0007C007CC9ACE87C0091E87D0051468CE806
:1038F0007D000BF5107C7CC9ACE87C007CC9ACE891
:103900007C0091E87D0051468CE87D000BF5207C21
:103910007CC9ACE87C007CC9ACE87C0091E87D0007
:1039200051468CE87D000BF5307C7CC9ACE87C000E
:103930007CC9ACE87C0091E87D0051468CE87D00B4
:103940000BF5407C7CC9ACE87C007CC9ACE87C0011
:1039500091E87D0051468CE87D000BF5507C7CC9D8
:10396000ACE87C007CC9ACE87C0091E87D00514665
:103970008CE87D000BF5607C7CC9ACE87C007CC9E0
:10398000ACE87C0091E87D0051468CE87D000BF5A9
:10399000707C7CC9ACE87C007CC9ACE87C0091E818
:1039A0007D0051468CE87D000BF5806C7CC9ACE84D
:1039B0007C007CC9ACE87C0091E87D0051468CE835
:1039C0007D000BF5886C7CC9ACE87C007CC9ACE858
:1039D0007C0091E87D0051468CE87D000BF5906CF1
:1039E0007CC9ACE87C007CC9ACE87C0091E87D0037
:1039F00051468CE87D000BF5986C7CC9ACE87C00E6
:103A00007CC9ACE87C0091E87D0051468CE87D00E3
:103A10000BF5A06C7CC9ACE87C007CC9ACE87C00F0
:103A200091E87D0051468CE87D000BF5A86C7CC9BF
:103A3000ACE87C007CC9ACE87C0091E87D00514694
:103A40008CE87D000BF5B06C7CC9ACE87C007CC9CF
:103A5000ACE87C0091E87D0051468CE87D000BF5D8
:103A6000B86C7CC9ACE87C007CC9ACE87C0091E80F
:103A70007D0051468CE87D000BF5C06C7CC9ACE83C
:103A80007C007CC9ACE87C0091E87D0051468CE864
:103A90007D000BF5C86C7CC9ACE87C007CC9ACE847
:103AA0007C0091E87D0051468CE87D000BF5D06CE0
:103AB0007CC9ACE87C007CC9ACE87C0091E87D0066
:103AC00051468CE87D000BF5D86C7CC9ACE87C00D5
:103AD0007CC9ACE87C0091E87D0051468CE87D0013
:103AE0000BF5E06C7CC9ACE87C007CC9ACE87C00E0
:103AF00091E87D0051468CE87D000BF5E86C7CC9AF
:103B0000ACE87C007CC9ACE87C0091E87D005146C3
:103B10008CE87D000BF5F06C7CC9ACE87C007CC9BE
:103B2000ACE87C0091E87D008CE87D000BF5F86046
:103B3000BAE86E006EC0BAE86E006EC09AE87E0009
:103B40007EC00DF5B3558021284615F0FFF80DF520
:103B5000B7568021304615F0F9F80DF5C25A2020ED
:103B6000CDE9000549460DF1140ECDE90206049099
:103B7000504620225B460EF5885907F0B7FED9F86B
:103B80002C0718BB40F2EC7040F62802C2F220006D
:103B9000C2F220022B2111F03AFDFEDE40F2EC7061
:103BA00040F64802C2F22000C2F220022B2111F09E
:103BB0002EFDFEDE40F2EC7040F63802C2F220002C
:103BC000C2F220022B2111F022FDFEDECDF824806E
:103BD0005246DDF878B00DF5BB5178CA084678C07A
:103BE00092E8780078C00DF5BC5007F059FC5046BB
:103BF0004FF400714FF4007415F0A8F80020C9F8D4
:103C00002CA9C9F83409C9F8380946F2A810C9F82E
:103C1000304900F031FD58B940F2EC7040F618021E
:103C2000C2F22000C2F220022B2111F0F0FCFEDED5
:103C30000BF01F000121C9F83C2901FA00F0C9F876
:103C400040390890A7F1500000F1100B05301D908D
:103C5000A7F1A8001030069006E00DF1140ECDF883
:103C60001C9066460EF588590A98DDE90814C0F8DC
:103C70008C104BF29050C2F200000068022825D947
:103C8000012040F27C7147F89C0CC2F22001C9F877
:103C90006809002047F8A80C46F2E750C0F201007E
:103CA00040F2947247F82C0C0DF25C6047F8A01CAF
:103CB000A7F1300147F8300CA7F1A800C9F8641942
:103CC0000321C2F22002002309F099FA46F2E750DC
:103CD00040F21C71C0F20100A7F1A80247F8640C81
:103CE0000DF25C6047F8680C40F23470C2F22000BC
:103CF000C2F2200147F82C0C0DF5CB6047F8300CD0
:103D0000A7F16800C9F864090120C9F86809022010
:103D100047F89C0C40F2DC70C2F2200047F8A00C7F
:103D2000002047F8A80CA7F1300012F029FA4FF450
:103D3000FA702061206840F001002060A068C00790
:103D400009D1A068C00704BFA0685FEAC07002D1B3
:103D5000A068C007F2D0A06840F00100A060206811
:103D600020F001002060D9F83809DDF85C1601F177
:103D70000101CDF85C1658B30DF1140E451E0EF579
:103D80008851D1F82C49D1F83089D1F83499C145FE
:103D9000484624BFA9EB0800404580F06781215CBC
:103DA000A7F1140000F0B9FCC0B2022810D109F14B
:103DB00001000DF1140EB0EB080918BF81460EF595
:103DC0008850C0F83859013DC0F83499681CDED1DC
:103DD0000DF2476000F0A2FB0446A7F1A8008FA9EE
:103DE00000F0D8FB0321E2B2042A08BF0621109894
:103DF00018BF1046109057F8A80C0B9103281C927E
:103E000006D106200DF1140E0C900EF5885917E01E
:103E1000069B0DF1140E57F8A45C0EF588590F950A
:103E200057F8A05C0C900FCB0E9557F89C5C0D9545
:103E3000C9F84409C9F84819C9F84C29C9F85039D2
:103E4000A7F1C00000F033FC0446A7F1140090462F
:103E50001D4600F057FC189B10F0010208BF0B46EE
:103E600011991893002C18BF29461191129918BF67
:103E7000414612911C990C9B042904D1062B08BFC2
:103E8000002C00F0E3800B99002C4FF0040547F85C
:103E9000701C47F8783C08BF0625C00747F8805CCF
:103EA0004FF00500A7F1500818BF062047F8880C0E
:103EB0000F98DDF81C901C95000A0C902DE057F827
:103EC000805CDDF85CC0A7F13006A7F1680EDDE983
:103ED00019A94ECE1C958EE84E002946DDF86CE0FF
:103EE000A7F168061D9C47F8500C0DF5BC504ECE4E
:103EF000A4F800A08BE84E004FEA1A41A7F1D002C7
:103F0000A1704146CDF878E0664647F848EC07F8DE
:103F10004CCC47F8449CFEF7CFF9B5F10801A7F166
:103F2000700018BF0146082D09D1B446DDF878E0CD
:103F300057F8880C072868D1A7F158006BE008688B
:103F4000B446B0F1080218BF0A46DDF878E0082848
:103F50003CD01068072803D0062808D1072010603D
:103F600057F8780C07280BD1A7F1180026E0062196
:103F7000DDF840C011601692CDE914C313965AE0E3
:103F800005AA47F8180C02F58856A7F1A800A7F172
:103F90005008D6F84429D6F84839D6F84C491CC000
:103FA000A7F178000E9A16920D9A15920F9AD6F8EC
:103FB000506914920C9A47F89C6C13920622026086
:103FC00057F8180C06282FD108200860072D02D1B9
:103FD000A7F1200009E00021A7F1800019911299B2
:103FE0001B91119947F8205C1A910621016057F83E
:103FF000200C06287FF463AF082108201C9047F8A6
:10400000801C57F8880C072896D0DDF860C047F868
:10401000580CA7F188000621016057F8580C0628B3
:104020003FF41BAE08255BE716991B9115991A9171
:10403000DDE9131C1991A7F1A8061C9DA7F1300E0C
:10404000CDF85CC04ECE8EE84E003CE7002A3FF42F
:104050001AAFA7F114040121204600F01DFA06F062
:104060004FFE2046002100F017FAFDE540F288627D
:104070004146C2F2200211F0E1FAFEDEF0B503AFD4
:104080002DE9000FADF5177D11AD04464FF4E07238
:10409000284615F028FE05F1340005F1380105F138
:1040A000540200F097FE439803F095FF5B98016877
:1040B00041F0010101605B98016821F0020101609B
:1040C000419E0021C0F80811C0F81811C0F828114D
:1040D000C4E98000C4E98200C0F83811306820F0DB
:1040E00001003060306840F4004030603068000407
:1040F00009D53068000444BF30685FEA004002D54B
:1041000030680004F2D43F20B060306820F0010035
:104110003060DDF80881D8F8000020F00100C8F810
:104120000000D8F8000040F40040C8F80000D8F8BB
:10413000000000040CD5D8F80000000444BFD8F8F3
:1041400000005FEA004003D5D8F800000004EED478
:104150003F20C8F80800D8F8000020F00100C8F897
:104160000000689803F038FFDDF84490CDE90F10A7
:1041700040F26341D9F8480040F00100C9F8480016
:10418000D9F844000843C9F84400D9F84400012193
:1041900061F38300C9F84400D9F8440020F080009E
:1041A000C9F84400D9F8480040F02000C9F8480098
:1041B000D9F8440040F44040C9F84400D9F844001C
:1041C00040F44470C9F84400D9F8480040F0800039
:1041D000C9F84800D9F8580000070CD0D9F85800A1
:1041E00000071CBFD9F858005FEA007003D0D9F867
:1041F00058000007EED1D9F8480040F2634140F082
:104200002000C9F84800D9F8440020F44040C9F81B
:104210004400D9F84400DDF848A020F4447000F5CB
:104220008870C9F84400DAF8480040F00100CAF884
:104230004800DAF844000843CAF84400DAF84400B9
:10424000012161F38300CAF84400DAF8440020F049
:104250008000CAF84400DAF8480040F02000CAF8AC
:104260004800DAF8440040F44040CAF84400DAF864
:10427000440040F44470CAF84400DAF8480040F0C2
:104280008000CAF84800DAF8580000070CD0DAF8C5
:10429000580000071CBFDAF858005FEA007003D02E
:1042A000DAF858000007EED1DAF8480040F02000B4
:1042B000CAF84800DAF8440020F44040CAF8440044
:1042C000DAF8440020F4447000F58870CAF844001D
:1042D000DDF8C0B103F00EFD054603F00DFD034609
:1042E00081A859462A4603F009FD6B9993A84FF41B
:1042F000805203F077FE38980C903A980B9077989C
:104300000E9075980D9072980A903C98DDE92812ED
:1043100009903B980890204603F032FE5D994FF4D7
:1043200070420F2301F59070C4F8D00201F1C00073
:10433000C4F8CC0201F16000C4F8C802C4E9B011AD
:10434000A1F88C21A1F88E311E9804901F9803903B
:104350004998029058980790539806905298059063
:10436000549801905E98DDF898B000F59075C4F807
:10437000E45200F1C005DDF858E1DDF840C14B9989
:10438000C4F8E052A0F88C21C4E9B500A0F88E3141
:104390006030C4F8DC025F9800F1C005C4F8F45244
:1043A00000F16005C4F8F05200F59075C4F8F852B9
:1043B000A0F88C21C4E9BA00A0F88E31609800F111
:1043C0006005C4F8045300F1C005C4F80853A0F810
:1043D0008C2100F59072C4F80C2304F52872C4E90E
:1043E000BF00A0F88E310498C4F894020398C4E981
:1043F000A60B0298C4E9C49A82E8035004F51B7125
:1044000048220198C4F8B0020598C4F8B40206988E
:10441000C4F8B8020798C4F8BC020F98C4F8680240
:10442000109881E8410181A90C98C4F878020B9892
:10443000C4F87C020898C4F880020998C4F8840281
:104440000A98C4F888020D98C4F88C020E98C4F833
:10445000900204F5087015F046FC93AB04F5047C5B
:104460000FCB8CE80F000DF5177DBDE8000FF0BDF8
:10447000D0B502AF45F20000C2F2000004781CB1D2
:10448000B4FA84F04009D0BD0121017000F0C6FAF1
:10449000B4FA84F04009D0BD084600F0B3BAD0B5F4
:1044A00002AF45F20100C2F2000004781CB1B4FA78
:1044B00084F04009D0BD0121017000F09FFAB4FAE8
:1044C00084F04009D0BD084600F094BAD0B502AFE0
:1044D00045F20200C2F2000004781CB1B4FA84F084
:1044E0004009D0BD0121017000F012FBB4FA84F044
:1044F0004009D0BD084600F007BB80B56F4645F2C5
:104500000300C2F20000017800291CBF052080BD15
:104510000121017000F05AFA042080BDD0B502AF2D
:10452000044600F03FFA0138C1B2072904D88B22B3
:1045300022FA01F1C90705D121780420042918BF06
:104540002070D0BD40F6C00240B2C2F220022178F5
:10455000105C042903D0814204BF0420D0BD207028
:10456000D0BDD0B502AF044645F20400C2F200004F
:10457000017800291EBF0220C4F80004D0BD01212B
:10458000017000F031F9204640F2044114F0DEFBE6
:10459000D0BDD4D4F0B503AF4DF804BD0D460446EC
:1045A00000F0FAF8B5EE400A0020F1EE10FA58BF1C
:1045B000012005F58062D5F80034B5EE400A111DE2
:1045C000F1EE10FA39D4002B41D092ED011A9FED93
:1045D000282A80EE011AB4EE421AF1EE10FA36DC07
:1045E0009FED242AB4EE421AF1EE10FA2FD405F50D
:1045F000007680202946324600F09AF890B3812850
:104600003FBF4FF0000C06EB800205EB8003022158
:104610003FBF84E82A0004F10C0181E84410C4E99A
:1046200006003CBF5DF804BBF0BD40F6E40280210B
:10463000C2F2200212F095FDFEDE9BB1C5F8000427
:10464000002081ED000A20605DF804BBF0BDC5F8D4
:104650000004012081ED000A84ED010A20605DF86C
:1046600004BBF0BD032020605DF804BBF0BD00BFBB
:10467000C520803F77BE7F3F80B56F4645F205017C
:10468000C2F200010A7822B100200021002200239A
:1046900080BD00EB400001220A704FF0FF3101EBBA
:1046A000C00000F043F900210022002380BDD0B5F6
:1046B00002AF044600F070F9D4E9002381EA030C4C
:1046C000C4E9000180EA020454EA0C0418BF012482
:1046D000821A61EB030320460021D0BDD0B502AFA2
:1046E00045F20601C2F200010C781CB1B4FA84F064
:1046F0004009D0BD01220A7000F00EFAB4FA84F02D
:104700004009D0BD80B56F4600F0C4FA01460028CC
:1047100080B248BF0121C00B80BD80B56F46C8B2D2
:1047200000F0D6FA0221002808BF0121084680BD0A
:10473000F0B5064672B6144B144D1C682B6862B671
:104740009C4238BF04F5C064E01AB04228BF30462E
:10475000B0B10F4F01EB80040E4E07EB830E06EB5A
:10476000830C0133DEF800E0B3F5C06FDCF800C065
:1047700041F804EB08BF00238C4242F804CBECD193
:1047800072B62B6062B6F0BD105000200C500020B5
:104790001450002014680020114B9A68520616D558
:1047A000104A5B6C92ED007A23F07F43B8EE477AB3
:1047B00000EE103A9FED085BB7EEC77AB8EEC00B7B
:1047C00087EE056B20EE060BB7EEC00B7047BFEE11
:1047D000000A7047AFF30080000000000000E841CD
:1047E00000003840B842002042480321424B4FF0BD
:1047F000E02CC26FF0B542F0C00240F282443F4E5E
:104800004FF0400E3E4FC2671C60002499763D4A2F
:1048100099771976D97737600426D46756670626C4
:10482000A2F876E0A2F87EE0A2F87C60364E374D22
:104830001666374E1667374EEC60EE606FF0070570
:10484000D9760823344ECCF80031C36F43F440438B
:10485000C367324B32485066186840F480001860D5
:10486000186820F400001860186820F4C010186060
:104870001868C2E91A6540F48010A5F5FC759567C3
:1048800018601A6842F480221A601A6822F0030243
:104890001A60244AC2F8081141F2B001C2F8F812B5
:1048A0001A68214922F480021A609A6822F4F062A0
:1048B0009A609A6822F038029A60DA6842F48012AC
:1048C000DA60DA6842F00402DA60D02281F83C2033
:1048D0004FF08052CCF804211A6942F004021A61A8
:1048E0001A6942F480121A615C601A6842F400721C
:1048F0001A60F0BD00C00F4000800E40085000203C
:1049000060900E4000900E401400384000C00E40F1
:104910005C4400205500008008E0FFBF00003840E4
:104920000400020200801F4000E400E0154A16491E
:10493000D36E30B443F440530124144DD3660C605D
:1049400000212B68124C03E010330121A34214D83C
:104950009A68002AF8D101B12B6003221860FF2465
:104960000C499A604FF0E0234FF0806281F87A4062
:104970000120C3F80C2130BC7047002318462B607F
:1049800030BC704700C00F4000400840BC420020CF
:104990003F41084000E400E0014BD3E900017047CB
:1049A0001880002038B50024254604F10900C0B263
:1049B00000F062F8B0FA80F04009A04001340543ED
:1049C000042CEDB2F1D1284638BD00BF08B5022154
:1049D000092000F063F802210A2000F05FF80221AC
:1049E0000B2000F05BF802210C20BDE8084000F02D
:1049F00055B800BF0146062000F014B80221062079
:104A000000F04CB8044B4FF4003210B1C3F88420CE
:104A10007047C3F8882070470040004201210720FA
:104A200000F03CB8272816D80201104B03EB001009
:104A30009B5810B4C2685C68144205D061B95DF837
:104A4000044BC3F888207047836851B1084A5DF869
:104A5000044B1A60704770475DF8044BC3F884201C
:104A60007047044A5DF8044B1A607047F408202030
:104A700038F001003830010027280BD8064B02011E
:104A800003EB00109A58C36892681A4214BF0120C1
:104A90000020704700207047F4082020272827D8DE
:104AA0000201154B012903EB00109B5830B45A68E2
:104AB000D0E902540DD004290BD022EA04025A6036
:104AC00099B1022915D003290CBF0C4B0C4B2B605C
:104AD00006E0224301295A6007D040F638032B60D4
:104AE0004368152230BC1A60704738232B60F7E703
:104AF0007047044B2B60F3E7F408202038300100A6
:104B00003800010038F0010001460D20FFF78ABF90
:104B100001210D20FFF7C2BF07EE900A9FED507AEA
:104B20000422B6EE005AF8EE677A4FF0010C1046F8
:104B30009FED4C6A41F6FF71C7EE275A70B407EE3D
:104B4000902AF8EEE77A85EEA77A77EE057AFDEE01
:104B5000E77A17EE903A8B42A8BF0B46012BB8BFFD
:104B6000012307EE903AF8EEE76A76EEC76AC6EEE2
:104B7000877AF5EEC07AF1EE10FA48BFF1EE677A67
:104B8000F4EEC67AF1EE10FA03D8B0EE676A10467A
:104B90009C460132212AD2D10021334B334A0225CF
:104BA00019600828324B334C1960334B334E19606F
:104BB000334B1960334B1970936E43F44053936633
:104BC00000F1FF33D4F80821C8BF00204FEA036387
:104BD000D8BF01201660D4F8042103F0F853156003
:104BE00043EA0C03284A43EA40432848C2F83811F4
:104BF000D4E94526D924346040241560244A036151
:104C00004FF0E023C16094754FF48002C3F8002197
:104C1000836AEB4003F01C030F2B1BD85B082B406F
:104C20001A4A926A920002F01C020F2A14D8D20388
:104C300002F44032154913434FF47012CB628B6A71
:104C400043F088038B628A614B6923F0805370BC08
:104C50004B6170470323E3E74FF44032EAE700BFBC
:104C6000001BB74BEC78AD603080002000C00F40D7
:104C70002C800020F40820202880002038F001003B
:104C8000248000202080002000841F4000C01840A5
:104C900000E400E00B4A0C491368096899420DD002
:104CA00001333F2B04D8194608481160C05C704797
:104CB000002106480B461160C05C70474FF0FF3082
:104CC000704700BF2C8000203080002034800020FE
:104CD0002DE9F047344F86463B6803F1010CBCF1E7
:104CE000270F5ED900218C46DFF8CC80D8F8003041
:104CF0008B423ED10A4600252C4C2D4EDFF8BC904D
:104D000015E0EFF3118303F1FF3ABAF1FE0F43D838
:104D1000402B0AD863691B0207D5272A02F1010339
:104D200037D01A46F35C0125E3618A421ED1EFF3C6
:104D30001383002BEED1EFF31083002BEAD1EFF3B6
:104D400005800028DDD00F2802D8EFF31183E1E7BA
:104D500000EB0903A3F541631878EFF311830BB15E
:104D60009842D5D84028D5D98A42E0D00DB1C8F8AC
:104D700000200F4B03F80CE072B60C4A01200D4BDB
:104D800039601870936943F40003936162B6BDE81B
:104D9000F08700221346C5E70DB1C8F80020BDE832
:104DA000F0876146A0E700BF2880002000C01840BF
:104DB00074800020208000202480002000F000E08B
:104DC00080B56F460A4641F20021C0F27A0102F036
:104DD000E5FF80BDF0B503AF4DF804BD0E460021E0
:104DE0001546044603F098F8284640F2E24103F0E5
:104DF0009AF8304603F06AF940F290152146C2F263
:104E0000200500222846366803F02AF9A81C21460E
:104E1000002203F025F9281D2146002203F020F985
:104E2000A81D2146002203F01BF905F108002146C8
:104E3000002203F015F905F10A002146002203F0D3
:104E40000FF905F10C002146002203F009F905F1E4
:104E50000E002146002203F003F905F1100021465F
:104E6000002203F0FDF805F112002146002203F0B4
:104E7000F7F805F114002146002203F0F1F805F1DE
:104E800016002146002203F0EBF805F11800214638
:104E9000002203F0E5F805F11A002146002203F094
:104EA000DFF805F11C002146002203F0D9F805F1D6
:104EB0001E002146002203F0D3F8206841698901D1
:104EC00007D5416921F000714161204603F015F8D2
:104ED00020684169012221F06051416120688169A7
:104EE00062F30D318161204603F007F820684169C3
:104EF00041F000714161204602F0FFFF4FF4805005
:104F00003060642030604FF40050706030680028DA
:104F100009D4306800285CBF3068002803D43068AA
:104F2000B0F1FF3FF2DC20680122016962F3020167
:104F30000161204602F0E1FF2068416921F4E0515F
:104F40004161204602F0D9FF2068816941F4402187
:104F500081612068416921F000714161204602F0C1
:104F6000CCFF206840F6B805C2F220050022416956
:104F700041F4407141612846214603F071F8A81CB4
:104F80002146002203F06CF8281D2146002203F080
:104F900067F8A81D2146002203F062F82068022667
:104FA00040F6A0050022C2F22005816B66F3D841CD
:104FB00081632068816B41F480218163284621460A
:104FC00003F04EF8A81C2146002203F049F8281DE2
:104FD0002146002203F044F8A81D2146002203F0D8
:104FE0003FF8206840F674350322C2F2200581693B
:104FF00066F3051181612068816962F39C618161BA
:1050000028462146002203F02BF8A81C2146002246
:1050100003F026F8281D2146002203F021F8A81DE0
:105020002146002203F01CF805F108002146002269
:1050300003F016F82068172240F26425C2F220051A
:10504000C16962F30501C16120680022C16941F0B4
:105050004001C1612846214603F002F8A81C214600
:10506000002202F0FDFF281D2146002202F0F8FF79
:10507000A81D2146002202F0F3FF05F10800214699
:10508000002202F0EDFF05F10A002146002202F0A5
:10509000E7FF05F10C002146002202F0E1FF05F1D7
:1050A0000E002146002202F0DBFF206840F67E352C
:1050B000C2F220050322416A41F0400141622068AA
:1050C000416A66F3050141622846214602F0C8FFA5
:1050D000A81C2146032202F0C3FF281D21460322FB
:1050E00002F0BEFFA81D2146032202F0B9FF05F120
:1050F00008002146032202F0B3FF05F10A00214611
:10510000032202F0ADFF05F10C002146032202F05C
:10511000A7FF05F10E002146032202F0A1FF05F1D1
:1051200010002146032202F09BFF05F112002146E8
:10513000032202F095FF05F114002146032202F03C
:105140008FFF05F116002146032202F089FF05F1C9
:1051500018002146032202F083FF05F11A002146C0
:10516000032202F07DFF05F11C002146032202F01C
:1051700077FF05F11E002146032202F071FF05F1C1
:1051800020002146032202F06BFF05F12200214698
:10519000032202F065FF05F124002146032202F0FC
:1051A0005FFF05F126002146032202F059FF05F1B9
:1051B00028002146032202F053FF05F12A00214670
:1051C000032202F04DFF05F12C002146032202F0DC
:1051D00047FF05F12E002146032202F041FF05F1B1
:1051E00030002146032202F03BFF05F13200214648
:1051F000032202F035FF05F13400214603225DF859
:1052000004BBBDE8F04002F02BBF704780B56F468D
:1052100000F058FE80BD80B56F464EF20C1C4FF476
:10522000003ECEF2000C44F2C022CCF880E0C2F284
:105230000002BFF35F8FD0E900318068C2E900311E
:105240009060BFF35F8FCCF800E1CCF800E080BD48
:10525000F0B503AF2DE9000B8AB048F29C06C2F20C
:105260000006306828B10AB0BDE8000BBDE8F04088
:10527000004749F200000021C4F20D00C4F22E01E3
:10528000039044F2C020C2F20000CDE90111806811
:10529000062809D104A801A9012200F077F8049892
:1052A00000285DD1059D1BE000F0E4FE00F0E1FE6A
:1052B00004904BF27810C2F20000012200F212407A
:1052C000BFF35F8FD0E84F1FC0E8432F002BF9D109
:1052D000BFF35F8F49B10DF1040999E83002BCBBFF
:1052E00035600AB0BDE8000BF0BD4BF278154FF405
:1052F0008061C2F20005284613F028FD05F0DDFCB0
:1053000044F2C0218046C2F20001284602F0D3FBDD
:1053100020B10DF1040999E8300214E001AA07ABAD
:1053200007CA07C34BF2781207A804ABC2F2000207
:10533000012100F07AF843F62340C0F2000002F0A9
:10534000C6FC05460024404605F0C2FC002CC7D030
:1053500007A880E8300240F66040C2F2200007E073
:1053600004AA07AB07CA07C340F65040C2F22000A8
:1053700040F6E033009040F6B43007AAC2F22000B5
:10538000C2F220032B2110F0F4F9FEDEF0B503AFDA
:105390004DF8048D84B015460E46044600F06AFEB2
:1053A00000F067FE00904BF27810C2F2000001227C
:1053B00000F21240BFF35F8FD0E84F1FC0E8432FC9
:1053C000002BF9D1BFF35F8F31B196E8070007C416
:1053D00004B05DF8048BF0BD4BF278184FF4806197
:1053E000C2F20008404613F0B1FC96E8070001AB9A
:1053F00007C305F062FC0646404600F050FD01A8D8
:105400006B462946424600F010F843F62340C0F2AE
:10541000000002F05CFC0021C4E90010304605F0F9
:1054200057FC04B05DF8048BF0BDF0B503AF2DE977
:105430000007C6B00E4601464BF234100DF1080AC3
:10544000C2F200001D46026048F2B00249F20003B9
:1054500001200090C2F20002C2F2000350468DF813
:10546000076000F09AF85046314604F0E0F80DF17C
:105470000702504600212B464FF0000800F006F9C5
:1054800051464BF200096CC9C2F2000909F10C0047
:105490006CC07CC97CC091E87C0049467CC04FF45C
:1054A00080604022A9F804005046C9F84480C9F839
:1054B0000880C9F8008000F075F9BAE87E004BF268
:1054C0003810C2F200007EC09AE87E007EC0322012
:1054D00002ACCDF812010220C4F200003CAACDF8C3
:1054E0000E011020ADF80C0145F62400C2F2DD706B
:1054F0004946429009203F9040F67040C2F2200099
:10550000CDF800813E902046CDF8F08000F041FAC1
:105510000C9D8121284604F0E5F82846012104F07D
:10552000E1F82846822104F0DDF82846022104F043
:10553000D9F82846832104F0D5F82846032104F041
:10554000D1F82846842104F0CDF82846042104F03F
:10555000C9F82846852104F0C5F82846052104F03D
:10556000C1F82846862104F0BDF82846062104F03B
:10557000B9F82846872104F0B5F82846072104F039
:10558000B1F84BF248002146C2F20000E82214F0C4
:10559000AAFB46B0BDE80007F0BDF0B503AF2DE9AA
:1055A000000F8DB01D4616460C46814605F0AAFB3D
:1055B000D7F8088041F23810D4F800A0D4F808B029
:1055C0002C18BFF35F8F54E8000F40F0004144E80F
:1055D0000012002AF7D1B0F1FF3FBFF35F8F3DDD2E
:1055E00006F5C0700122BFF35F8FD0E84F1FC0E8FF
:1055F000432F002BF9D1BFF35F8FD9BB30464FF457
:10560000C07104F0BEFECDE903AB0DF1040B05F54E
:1056100086530622CDE901014FF0000A5846414663
:10562000CDE9082305F58053ADF830A00B940A921C
:105630000793CDE9055202F06FFDBBE87E0009F14A
:1056400004007EC09BE87E007EC0012089F8340003
:10565000C9F800A00DB0BDE8000FF0BD40F6AC7079
:1056600041F24002C2F22000C2F220021F210FF0DC
:105670009BFFFEDE40F2701041F23002C2F22000C9
:10568000C2F2200220210FF08FFFFEDEF0B503AF43
:105690002DE9000784B0044690F834001D46914679
:1056A0000E4680B32068002869D14FF0FF303146A4
:1056B000206004F10C0003F0A9FE01AECDE9010168
:1056C000D5F80080304699F8005003F0B6FE304619
:1056D00003F0FBFE002D18BF01253046294603F0DC
:1056E00000FF3046012103F0C0FE3046414603F082
:1056F000CAFE304603F0ADFE20680130206004B0E1
:10570000BDE80007F0BD05F0F8FA804605F0E5FABF
:1057100005F0F8FA206890BB4FF0FF30314620606A
:1057200004F10C0003F072FE01AECDE90101D5F8E1
:1057300000A0304699F8005003F07FFE304603F099
:10574000C4FE002D18BF01253046294603F0C9FECE
:105750003046012103F089FE3046514603F093FEA6
:10576000304603F076FE2068013020605FEAC870A2
:1057700008BF05F0B4FA04B0BDE80007F0BD40F67C
:10578000EC4040F67C43C2F2200003AA009040F2B5
:105790005420C2F22000C2F2200310210FF0E9FFD2
:1057A000FEDE7047F0B503AF2DE9000F87B0044669
:1057B0000868002840F0A78091F804B00020086035
:1057C0000E460BF1010008718868002840F09680B1
:1057D0004FF0FF3006F10C059146B060FF20082124
:1057E00003220290CDE9002128468021002204F006
:1057F00062F98A46B168C00701F10101B16040F069
:105800009480306800287ED196F80480002000291A
:10581000306008F10102327170D14FF0FF31002287
:10582000B1600221CDE9001900210290284604F060
:1058300042F9B268C00702F10102B26040F08A800A
:10584000002A04915AD14FF0FF300021B0600220AD
:10585000CDE90009284602918021002204F02BF9AD
:10586000C00701BFB0680130B06084F82CB001BF40
:105870004FF40070A4F8270084F82610A4F82490B0
:1058800001BF06F14401216284F82D8040F2FF320D
:1058900001BFA4F80F2084F80EA00822A28101BF46
:1058A000A160A4F81B000498A07601BFA4F818908A
:1058B00061610020E08501BFA071A2804FF4FA5021
:1058C000206002BF07B0BDE8000FF0BDB06840F631
:1058D0000C5307F8211CC2F220030130B06040F6DF
:1058E0007C50A7F12102C2F22000009040F6FC405B
:1058F000C2F220000F210FF03CFFFEDE40F62060D8
:10590000C2F2200003E040F66060C2F2200040F6E0
:10591000B053009040F2542006AAC2F22000C2F216
:10592000200310210FF025FFFEDE40F68C5040F6DC
:105930000C53C2F22000A7F12302009040F6FC4075
:10594000C2F22000C2F2200307F823AC0F210FF0AF
:1059500010FFFEDE40F67C5040F60C53C2F22000F1
:1059600007F8221C009040F6FC40C2F22000C2F270
:105970002003A7F122020F210FF0FBFEFEDE70478D
:10598000084640F69C51C2F22001122211F07EB965
:105990007047F0B503AF2DE9000F85B00446886865
:1059A000002878D192F821B04FF0FF3001F10C05BA
:1059B0008860002090460E46CDE9000B02902846F4
:1059C00000210122002304F076F88946B168C0075F
:1059D00001F10101B16063D100295CD14FF0FF30CA
:1059E0008021B0600020CDE9000B01220290284602
:1059F000802304F060F88A46B168C00701F1010114
:105A0000B1605FD13068002871D14FF0FF300029BC
:105A1000306071D1B060284604F0D8F8B068013029
:105A2000B0606ED34FF0FF308021B06004F12C00E5
:105A3000BFF35F8F7564BFF35F8F13F087F94FF08B
:105A4000000C06F14401A4F8D4C0A4F8CFC084F837
:105A5000CEA0A4F8CCB0C4F8C810C4F8BC1021463D
:105A6000A4F8C3C084F8C290A4F8C0B0C4E92DCC97
:105A7000C4F8ACC0A562B8E86D006DC198E86D00CF
:105A80006DC14FF4806084F8E4C0C4F8E00005B054
:105A9000BDE8000FF0BD40F62060C2F2200034E007
:105AA00040F6E46040F67063C2F22000A7F12202E3
:105AB000009040F2F000C2F22000C2F2200307F88A
:105AC000229C10E040F6F46040F67063C2F22000C1
:105AD00007F821AC009040F2F000C2F22000C2F2C0
:105AE0002003A7F1210220210FF043FEFEDE40F645
:105AF0003060C2F2200008E040F64060C2F22000B0
:105B000003E040F65060C2F2200040F6B05300902F
:105B100040F2542004AAC2F22000C2F22003102155
:105B20000FF027FEFEDE7047F0B503AF2DE9000F42
:105B300081B048F2A0014FF0010CC2F20001BFF3A6
:105B40005F8FD1E84F2FC1E843CF002BF9D1BFF3CE
:105B50005F8F002A01BF48F20001C4F20D0100224C
:105B6000C4F22F0201BF02F5542C02F5502E02F5AB
:105B70004C28A1F5004401BFA1F5003501F5F6164A
:105B800001F5F413C0E9683601BFC0E96A54C0E901
:105B90006C8EC0E96EC101F5005E01BF01F5805653
:105BA00040F2040CC4F22E0C01F5021401BF0CF5F6
:105BB000FE7501F5004300F5C07888E8380001BFA4
:105BC00000F5C67383E81210C0E9666EA1F5404C7B
:105BD00001BF01F5881E01F5861801F5841401F551
:105BE000821301BF01F5003602F51025C0E95856B1
:105BF00000F5B47501BF85E81A41C0F87CC1A1F574
:105C0000804C02F51C2E01BF02F5182802F5142461
:105C1000A1F5E03301F5282601BF01F5EE15C0E935
:105C2000505600F5A47585E8184101BFC0E9562C0F
:105C300002F5782802F5742902F5702401BF02F5F7
:105C40006C234CF2000CC4F2070C0CF5004601BFAB
:105C500001F5E03E01F58E15C0E9485EC0E94A61F4
:105C600001BF00F5987585E81802C0F83C8101F580
:105C7000482801BF01F5442901F5402A01F53C2BD4
:105C800001F5382301BF01F5342401F5302501F574
:105C90002C26C0E9406501BFC0E94243C0E944BACF
:105CA000C0E9469802F5302801BF02F52C2902F51B
:105CB000282A02F5242B02F5861301BF02F584146D
:105CC00002F5821502F58016C0E9386501BFC0E90A
:105CD0003A43C0E93CBAC0E93E9801F5F01801BF6B
:105CE00001F59219A1F5503AA1F5403BA1F53033E9
:105CF00001BF01F5901401F58C1501F58A16C0E974
:105D0000306501BFC0E93243C0E934BAC0E9369812
:105D100044F2000B01BFC4F2002B0BF500490BF558
:105D2000804A4FF0844801BF01F56C2601F56824D4
:105D300001F56425A1F5C03301BFC0E9283500F1A4
:105D4000A80383E85009C0E92EA901BF01F5602826
:105D500001F5E61901F5E81AA1F5203601BF0BF5AA
:105D6000E03301F5582401F55425C0E9205401BF62
:105D700000F1880484E84804C0E9259EC0F89C80AE
:105D800001BFA1F5103E01F5FE1801F5001902F55D
:105D9000642A01BF02F5602302F55C2602F558254E
:105DA00001F5A03401BF00F1600B8BE87000C0E981
:105DB0001B3AC0E91D9801BFC0F87CE001F5803EA8
:105DC00002F540480CF5804901BF01F5804A01F514
:105DD000F21344F20806C4F2090601BF06F11005E9
:105DE00006F10804C0E91064C0E9125301BFC0E91C
:105DF00014A9C0E9168E0CF5C03E01F5103801BF9C
:105E000001F5801901F57C2401F5782302F57C2643
:105E100001BF02F54825C0E9085600F1280585E8CC
:105E2000180201BFC0E90D81C0F83CE002F5442E24
:105E300002F50C2601BF01F5D21501F5242402F567
:105E40004022A1F5803301BFA1F5A031C0E90013C4
:105E5000C0E9022C103001BF80E8704001B0BDE8FD
:105E6000000FF0BD40F6047040F69C72C2F22000B4
:105E7000C2F2200235210FF0CAFBFEDE016848F2B3
:105E80004810C4F21F000523026863F30302026096
:105E9000486840F00800486003207047FEE748F279
:105EA000A401C2F2000188600120BFF35F8F087077
:105EB0007047006810F05FB90A46D0E90031184613
:105EC00010F0CEBF41F2500203230021C2F22002A3
:105ED000C0E90021836070477047F0B503AF2DE93A
:105EE000000B84B041F250004BF230184BF24805E1
:105EF000C2F220000390C2F2000808F10800C2F2CA
:105F0000000502A902902846012200F017FB044672
:105F1000A86A002101F0F7F8064695F8E21098F813
:105F20000000022933D148B9A86A03F083FDA86AAA
:105F3000002101F060F9012088F80000D8F81C0069
:105F40000168BFF35F8F002900F08780002098F878
:105F5000222041F28403009002A8C2F220033443BD
:105F600003F0D5FF7CB1D8F804000122BFF35F8FA6
:105F700000F58264D4E84F1FC4E8432F002BF9D109
:105F8000BFF35F8F79B104B0BDE8000BF0BD18B16D
:105F9000A86A002101F08FF9002088F8000004B001
:105FA000BDE8000BF0BDD0F80014BFF35F8FD0F850
:105FB0000824BFF35F8FD0F8043400F20445BFF328
:105FC0005F8F934205D199423EBFBFF35F8F00239D
:105FD0002B60994228BF0A469A4236D0D8F828103A
:105FE0000968BFF35F8FC1B3A2EB030998F82E20B5
:105FF000034402A84E46B9F1400F28BF4026009640
:1060000003F0CAFE9DF8080068B12078BFF35F8FE7
:106010000028B8D0BFF35F8F55E8000F45E80001B6
:106020000029F9D111E003982178BFF35F8F00298F
:10603000A9D0814538BF4846BFF35F8F55E8001FA0
:10604000014445E80012002AF8D10020BFF35F8F19
:10605000207004B0BDE8000BF0BD41F2D83041F231
:106060006042C2F22000C2F2200222210FF0CFFAD9
:10607000FEDE70474FF47A607047F0B503AF2DE94C
:10608000000F81B000F12C0B1E46904689468246D7
:10609000D4000D466CB1F5E8020132464B6A594610
:1060A0009847BAF8D400083C00F00D000428F1D05D
:1060B00033E0707AA8B3BAF8D40000F00D000428D9
:1060C0002BD1DAF8BC000921AAF8D4100068BFF37C
:1060D0005F8FB0B19AF8C210012203F0D3FFDAF853
:1060E000C8000068BFF35F8F00281FBF9AF8CE106A
:1060F000012201B0BDE8000F1CBFBDE8F04003F075
:10610000C1BF41F2D83041F26042C2F22000C2F277
:10611000200222210FF07BFAFEDE01B0BDE8000F65
:10612000F0BD317AB079022921D0012933D000297C
:10613000C1D1002858D0062875D0082804BFBAF865
:10614000D4000428B7D19AF8E2000121AAF8D410AB
:1061500000220238BAF8DA10B0FA80F0002918BF2D
:1061600001214009CAE92D218AF82C0057E00028B6
:10617000A1D17188DAF8280001F08F0104F003F84A
:10618000BAF8D410042996D1AAF82C000120AAF854
:10619000D40000201EE090B10A2804BFBAF8D40051
:1061A00004287FF488AFBAF8DA10002001228AF8B8
:1061B0002C00AAF8D420002918BF01210FE0BAF85A
:1061C000D40004287FF477AF00200121AAF82C0026
:1061D000AAF8D410BAF8DA10022928BF0221CAF8A6
:1061E000B400CAF8B8101AE0BAF8D40004287FF452
:1061F00062AFBAF8DA3001229AF8E300AAF8D420A4
:1062000000229AF8E410022B28BF0223CAE92D23AA
:10621000002818BF012041EA4000AAF82C00584687
:1062200000F025FC47E75046494642465B4600964B
:1062300000F0D6F83FE7D4D4F0B503AF2DE9000B5A
:1062400084B000F12C0699460C468046D5006DB10D
:10625000F4E802014A460B6A31469847B8F8D40080
:10626000083D00F00D000428F1D02AE099F809005B
:1062700058B3B8F8D40000F00D00042821D1D8F8A4
:10628000BC000921A8F8D4100068BFF35F8F002874
:1062900065D098F8C210012203F0F4FED8F8C800C7
:1062A0000068BFF35F8F00281FBF98F8CE1001224F
:1062B00004B0BDE8000B1CBFBDE8F04003F0E2BE37
:1062C0004DE004B0BDE8000BF0BD99F8082099F846
:1062D0000600B9F800109AB1012A22D0022AC8D1CA
:1062E000032848D0012808BF0029C2D1B9F80210FC
:1062F0000022D8F8280001F08F0103F0C3FE64E00B
:1063000001380828B5D8DFE800F0060543054A053E
:1063100005055400ADE70129ABD1002088F8E30062
:1063200053E00B28A5D1002904BFB8F8D4000628F3
:106330007FF49FAFD8F8C8000168BFF35F8F71B1D9
:1063400098F8CE20002041F21413009002A8C2F267
:10635000200303F021FD0820A8F8D40089E741F2CA
:10636000D83041F26042C2F22000C2F22002222163
:106370000FF04DF9FEDE00297FF47BAFB9F8021073
:106380000122D8F8280001F08F0103F07BFE1CE009
:1063900001297FF46EAF012088F8E30015E0481E64
:1063A00080B27F28BFF465AFD8F8280003F0C1FBA6
:1063B00008E021B101297FF45CAF022003E098F8E6
:1063C000E20038B1012088F8E2003046494600F08A
:1063D0006DFE4EE73046494600F036FE49E7D4D41C
:1063E000F0B503AF2DE9000B88B00646B868144637
:1063F0000D4698460196018902684068ADF8101074
:10640000CDE9022002A804F050F84FF0FF3252FA12
:1064100080F00E2800F26380DFE800F008101C61B5
:10642000616161616161616161612A0001A9404648
:1064300000F046FD08B0BDE8000BF0BD01A805A9BD
:1064400007904046CDE9055400F049FC08B0BDE88E
:10645000000BF0BDC8B2032813D8DFE800F0022615
:106460002A3A404600F08BFD08B0BDE8000BF0BDB5
:1064700040462946224600F0ABFC08B0BDE8000BC0
:10648000F0BD084603F0F2FF4CB38146BDF80A6048
:1064900005EBC404D5E9000132464B6949469847EB
:1064A00068B90835A542F5D119E0311D306828B921
:1064B00015E006F10C010836306880B10968CDE9B5
:1064C000050105A9404600F0A9FB08B0BDE8000B96
:1064D000F0BD06F11401103630680028EED1B8F88E
:1064E000A80000F00D000428A4D1D8F890000921DC
:1064F000A8F8A8100068BFF35F8F98B198F89610BD
:10650000012203F0BFFDD8F89C000068BFF35F8F45
:1065100040B198F8A210012203F0B4FD08B0BDE824
:10652000000BF0BD41F2D83041F26042C2F22000CF
:10653000C2F2200222210FF06AF8FEDEF0B503AFAE
:106540002DE9000F8DB0846A064605A8884692465C
:10655000214603F0CFFE96F8E200BDF81450032860
:1065600016D1002D4FF0000018BF032D03D10DB040
:10657000BDE8000FF0BD204603F0BBFE96F8E10039
:10658000042800F00681042186F8E20086F8E11074
:10659000DFE805F003082448030000200DB0BDE843
:1065A000000FF0BDB06A03F055FB4FF48060BAF104
:1065B000000FC6F8E0004FF00000A6F8D400ECD0C1
:1065C00008EBCA04A8F1080555F8080F696889693D
:1065D000884705F10800A042F6D1DEE7BDF81600B5
:1065E000BDF81810BDF81A200290084340EA0209CD
:1065F000049103925FEAC97054D00498C0071CBF8D
:1066000006F12C0000F096FA0398C00719D1029801
:10661000C00720D104208DF825009DF8250004280E
:1066200022D13DE0B06A03F064FE96F8E200032157
:1066300086F8E21086F8E10000200DB0BDE8000FFA
:10664000F0BD06F12C0107A800F056F99DF82500D1
:10665000042809D124E006F12C0107A800F0A5F8D0
:106660009DF8250004281BD09DF8230000287AD02F
:10667000802815D1DDE907010AABBDF82420CDE95A
:106680000A013046ADF8302041465246FFF7F5FC8E
:1066900029F00109B9F1000FCDE9008A07D14DE0D9
:1066A00029F00109B9F1000FCDE9008A46D001991E
:1066B000002953D0009801264FF0020B00EBC108CF
:1066C000A0F1080503981BEA000F0BD02C4654F8E4
:1066D000080F61688A6A3146904704F10800404516
:1066E000F5D10EE002981BEA000F0AD02C4654F8B0
:1066F000080F6168CA6A3146904704F108004045B6
:10670000F5D104981BEA000F0DD066F07F04AA466D
:106710005AF8080FDAF804100A6B214690470AF17C
:1067200008004045F4D129EA0B095FEA094005D089
:10673000701C0F2E4FEA4B0B0646C3D3019969B16B
:10674000009800EBC104A0F1080555F8080F69682E
:10675000C969884705F10800A042F6D101200DB0B3
:10676000BDE8000FF0BDDDE907010AABBDF824204C
:10677000CDE90A013046ADF8302041465246FFF7D8
:106780005BFD29F00109B9F1000FCDE9008A8ED136
:10679000D4E741F2840041F20412C2F22000C2F2B6
:1067A00020021C210EF000FFFEDEF0B503AF4DF815
:1067B00004BD86B00446B1F8A8000D46411E032969
:1067C0002AD3052828D007283BD1D5F88800D5F84A
:1067D000AE30B5F8B2108128D5F8AA20ADF80C106B
:1067E000CDE9012380F08080D5F890100968BFF3CF
:1067F0005F8F00296CD0C0F1800395F8962000933C
:106800002B1804A803F083FB9DF81000002849D042
:106810009DF8110038BB3FE0D5F890000168BFF348
:106820005F8F002954D095F8962041F2141304A8E4
:106830000026C2F22003009603F069FBA5F8A860C9
:106840002AE0D5F890000168BFF35F8F00293FD0A0
:10685000002095F8962041F21413009004A8C2F28B
:10686000200303F054FBD5F890000921A5F8A810E7
:106870000068BFF35F8F58B395F89610012203F0BC
:1068800001FCD5F89C000068BFF35F8F00B395F85A
:10689000A210012203F0F6FB0420607206B05DF83E
:1068A00004BBF0BD0598D5E922120844C5F888005C
:1068B0009042F1D3DDE901010623BDF80C20A5F8D3
:1068C000A83020606160228106B05DF804BBF0BD95
:1068D00041F2D83041F26042C2F22000C2F22002FE
:1068E00022210EF094FEFEDE41F27C128021C2F2E3
:1068F000200210F011FCFEDEF0B503AF2DE9000F11
:1069000085B00446D1F890000D460168BFF35F8F53
:10691000002900F09680802095F89620009002A82B
:106920002B4603F0F4FA9DF8080018B19DF8090011
:1069300060B926E0039A812A80F08F8002A8294658
:1069400003F095FD9DF81100042820D1D5F89000A2
:106950000921A5F8A8100068BFF35F8F002870D048
:1069600095F89610012203F08DFBD5F89C00006885
:10697000BFF35F8F002864D095F8A210012203F0C6
:1069800081FB0420607205B0BDE8000FF0BDD5F8B2
:106990009000BDF810A09DF80F609DF80E90BDF816
:1069A0000CB0DDF808800068BFF35F8F002848D086
:1069B00095F89610002203F065FBCEB10420A5F8EF
:1069C000B2A085F8B16085F8B090A5F8AEB0C5F872
:1069D000AA80A5F8A800A4F808A0E67184F806909B
:1069E000A4F804B0C4F8008005B0BDE8000FF0BD05
:1069F000BBF1000F13D0BBF1800FA7D800200721F7
:106A0000A5F8B2A085F8B10085F8B090A5F8AEB0B1
:106A1000C5F8AA80A5F8A810C5E9220BB1E70620A1
:106A2000A4F808A0A5F8A8000020C5F88C00E07123
:106A300084F80690A080C4F8008005B0BDE8000F7F
:106A4000F0BD41F2D83041F26042C2F22000C2F201
:106A5000200222210EF0DBFDFEDE41F28C131046F7
:106A6000C2F2200380211A4610F07BFBFEDEB0B597
:106A700002AF84B00446D0E92051D0F88800D4F8A1
:106A80008CC0002DB4F8A030AE46ACEB000208BFBD
:106A9000A6469A4238BF1346002D03EB000C08BFF0
:106AA00080219C4529D38C452FD8D4F89C100968A7
:106AB000BFF35F8F89B394F8A22000930EEB00031D
:106AC00002A803F069F99DF8080008B104B0B0BD50
:106AD0000398D4E922120144C4F888109142F5D3F6
:106AE0000021B4F8A020C4F880100321904208BF10
:106AF0000221A4F8A81004B0B0BD41F29C12614676
:106B0000C2F2200210F052FBFEDE41F29C126046FF
:106B1000C2F2200210F025FBFEDE41F2D83041F235
:106B20006042C2F22000C2F2200222210EF06FFD6C
:106B3000FEDED4D4B0B502AF84B00446B0F8A800ED
:106B4000013807283AD8DFE800F0040B2739393933
:106B500039562046FFF78BFF0025284604B0B0BD0C
:106B6000D4F89C000168BFF35F8F00294AD094F8E5
:106B7000A22041F2141302A80025C2F220030095BE
:106B800003F00AF99DF80800002804BF0320A4F8C8
:106B9000A800284604B0B0BDD4F890000068BFF348
:106BA0005F8F78B394F896100022002503F06AFAFC
:106BB0000520A4F8A800284604B0B0BDD4F8900081
:106BC0000921A4F8A8100068BFF35F8FD0B194F832
:106BD0009610012203F056FAD4F89C000068BFF327
:106BE0005F8F78B194F8A210012203F04BFA0025D0
:106BF000284604B0B0BD00200125A4F8A80028460E
:106C000004B0B0BD41F2D83041F26042C2F220007F
:106C1000C2F2200222210EF0FAFCFEDEF0B503AF34
:106C20002DE9000B88B00446B0F8A800042834D140
:106C3000E846D1E90056404621468022B4F8AE909D
:106C400003F036FC40462946324603F065FEC0B2EA
:106C500008281ED1684603F032FC802822D9D4F8D7
:106C600090000921A4F8A8100068BFF35F8F50B30B
:106C700094F89610012203F005FAD4F89C000068FD
:106C8000BFF35F8FF8B194F8A210012203F0FAF974
:106C9000022008B0BDE8000BF0BD072008B0BDE839
:106CA000000BF0BD01214845A4F8A81038BF81466B
:106CB00000212046C4E92219FFF7D9FE082008B0B8
:106CC000BDE8000BF0BD41F2D83041F26042C2F2A3
:106CD0002000C2F2200222210EF099FCFEDEF0B567
:106CE00003AF2DE9000788B08246B0F8A800042859
:106CF0004CD16D46D1E900698C6828465146802206
:106D0000BAF8AE8003F0D4FB2168284603F0C1FC3A
:106D1000C0B2082836D1B9F1000F10D006EBC90473
:106D20006D46D6E90001CA6829469047C0B20828D6
:106D300028D1284603F016FD0836A642F1D16D464B
:106D4000284603F012FD284603F0B9FB802822D91B
:106D5000DAF890000921AAF8A8100068BFF35F8F45
:106D600050B39AF89610012203F08CF9DAF89C00DF
:106D70000068BFF35F8FF8B19AF8A210012203F008
:106D800081F9022008B0BDE80007F0BD072008B077
:106D9000BDE80007F0BD01214045AAF8A81038BFA2
:106DA000804600215046CAE92218FFF760FE0820FD
:106DB00008B0BDE80007F0BD41F2D83041F26042B2
:106DC000C2F22000C2F2200222210EF020FCFEDEE0
:106DD000F0B503AF2DE9000F8BB08346B0F8A800E3
:106DE000042825D1E94690460D464846594680225A
:106DF000BBF8AEA003F05CFB08AE4946304603F09A
:106E000049FE304603F04AFEC0B208280CD108AE55
:106E10004FEAC8048CB1F5E802010A69314690478F
:106E2000083CC0B20828F5D00BB0BDE8000FF0BD9B
:106E300007200BB0BDE8000FF0BD08A803F002FF6B
:106E4000684603F03CFB80281DD9DBF8900009213F
:106E5000ABF8A8100068BFF35F8F28B39BF89610BB
:106E6000012203F00FF9DBF89C000068BFF35F8F8D
:106E7000D0B19BF8A210012203F004F902200BB05C
:106E8000BDE8000FF0BD01215045ABF8A81038BF98
:106E9000824600215846CBE9221AFFF7E8FD082078
:106EA0000BB0BDE8000FF0BD41F2D83041F26042B6
:106EB000C2F22000C2F2200222210EF0A8FBFEDE68
:106EC000F0B503AF4DF8048D88B00446B0F8A800C3
:106ED000042832D16E460D68304621468022B4F82F
:106EE000AE8003F0E5FA3046294603F037FBC0B226
:106EF00008281ED1684603F0E2FA802822D9D4F887
:106F000090000921A4F8A8100068BFF35F8F50B368
:106F100094F89610012203F0B5F8D4F89C000068AC
:106F2000BFF35F8FF8B194F8A210012203F0AAF822
:106F3000022008B05DF8048BF0BD072008B05DF8B2
:106F4000048BF0BD01214045A4F8A81038BF80464D
:106F500000212046C4E92218FFF789FD082008B067
:106F60005DF8048BF0BD41F2D83041F26042C2F2CC
:106F70002000C2F2200222210EF049FBFEDEF0B515
:106F800003AF4DF804BD8AB00446B0F8A800042849
:106F900038D101AD21468022B4F8AE60284603F016
:106FA00087FA40F20940A7F1120227F8120C28468E
:106FB0000321022303F085FAC0B208281ED101A8DC
:106FC00003F07DFA802822D9D4F890000921A4F892
:106FD000A8100068BFF35F8F50B394F89610012299
:106FE00003F050F8D4F89C000068BFF35F8FF8B14D
:106FF00094F8A210012203F045F802200AB05DF8CF
:1070000004BBF0BD07200AB05DF804BBF0BD012150
:10701000B042A4F8A81038BF064600212046C4E9B3
:107020002216FFF724FD08200AB05DF804BBF0BD6E
:1070300041F2D83041F26042C2F22000C2F2200296
:1070400022210EF0E4FAFEDED0B502AF0446B0F81D
:10705000A80000F00D0004281AD1D4F890000921EE
:10706000A4F8A8100068BFF35F8F98B194F8961049
:10707000012203F007F8D4F89C000068BFF35F8F8B
:1070800040B194F8A210012202F0FCFF0820D0BD0C
:107090000720D0BD41F2D83041F26042C2F2200058
:1070A000C2F2200222210EF0B2FAFEDED0B502AF0B
:1070B00084B00446B0F8A800062815D1D4F89C0086
:1070C0000168BFF35F8F91B1002094F8A22041F2D4
:1070D0001413009002A8C2F2200302F05DFE082003
:1070E000A4F8A80004B0D0BD072004B0D0BD41F280
:1070F000D83041F26042C2F22000C2F220022221C6
:107100000EF085FAFEDEF0B503AF4DF804BD84B095
:10711000044690F834000E46D8B12068002858D1B3
:107120004FF0FF31204640F80C1B314602F06EF95B
:10713000CDE9010101A802F0B8F960B301AD28461C
:1071400002F0C3F9284602F0B0F90028F7D1012671
:1071500026E003F0D2FD054603F0BFFD03F0D2FDAB
:107160002068B0BB4FF0FF31204640F80C1B314681
:1071700002F04CF9CDE9010101A802F096F9B8B18D
:1071800001AE304602F0A1F9304602F08EF9002837
:10719000F7D1012611E001A802F045F980F00106BF
:1071A000206801302060304604B05DF804BBF0BDBB
:1071B00001A802F038F980F0010620680130206053
:1071C000E80708BF03F08BFD304604B05DF804BB50
:1071D000F0BD41F22C2041F2BC13C2F2200003AA00
:1071E000009040F25420C2F22000C2F2200310218D
:1071F0000EF0BFFAFEDEF0B503AF4DF804BD84B06B
:10720000044690F834000E46E0B12068002840D1D2
:107210004FF0FF31204640F80C1B314602F0F6F8E3
:10722000CDE9010101A802F074F900281CBF0DF19D
:10723000040002F0ECF820680130206004B05DF832
:1072400004BBF0BD03F059FD054603F046FD03F015
:1072500059FD2068E8B94FF0FF31204640F80C1B7B
:10726000314602F0D3F8CDE9010101A802F051F94D
:1072700000281CBF0DF1040002F0C9F8206801309D
:107280002060E80708BF03F02AFD04B05DF804BBE6
:10729000F0BD41F22C2041F2BC13C2F2200003AA3F
:1072A000009040F25420C2F22000C2F220031021CC
:1072B0000EF05FFAFEDEF0B503AF4DF804BD84B00A
:1072C000044690F834000D46A8B12068A0BB4FF0EA
:1072D000FF302946206004F10C0002F097F8CDE958
:1072E000010101A802F0A9F820680130206004B073
:1072F0005DF804BBF0BD03F000FD064603F0EDFCB5
:1073000003F000FD2068B8B94FF0FF302946206037
:1073100004F10C0002F07AF8CDE9010101A802F0B5
:107320008CF8206801302060F00708BF03F0D7FC1C
:1073300004B05DF804BBF0BD41F22C2041F2BC1357
:10734000C2F2200003AA009040F25420C2F22000B2
:10735000C2F2200310210EF00CFAFEDE704700206E
:1073600070477047082070477047F0B503AF4DF87D
:10737000048D0546507A012802BF1646107A01286E
:1073800002D05DF8048BF0BD95F82C008846748817
:1073900003F06CF8C0B28442F3D1B079212804BF65
:1073A000B088072830D0B8F8A80000F00D000428F5
:1073B000E7D1D8F890000921A8F8A8100068BFF319
:1073C0005F8FA8B198F89610012202F05BFED8F802
:1073D0009C000068BFF35F8F00281FBF98F8A210C1
:1073E00001225DF8048BBDE8F04018BF02F04ABEF0
:1073F00041F2D83041F26042C2F22000C2F22002D3
:1074000022210EF004F9FEDEB8F8A8000428B8D155
:10741000B8F8AE00012329796A790728A8F8A830BE
:10742000AB792E684FF00005C8F8006088F804308A
:1074300088F8052088F8061028BF0720C8E92250E0
:1074400040465DF8048BBDE8F040FFF710BBF0B597
:1074500003AF4DF8048D84B00546507A012802BF71
:107460001646107A012803D004B05DF8048BF0BDF5
:1074700095F82C008846748802F0F8FFC0B2844268
:10748000F2D1B07988B1202814D0222847D13078A1
:10749000B8F8A81000F0010285F82E20C0F34000D3
:1074A00085F82F000629DFD121E0B8F8A8000628CA
:1074B000DAD11CE0D8F88C00812862D206282ED9B7
:1074C00098F80400D8F80010296000F001FC98F842
:1074D0000510C0B2A871084600F0FFFB98F806201E
:1074E000C0B2B8F8A81068712A710629BCD1D8F8C2
:1074F0009C000168BFF35F8FB9B398F8A220002009
:1075000041F21413009002A8C2F2200302F044FCDE
:107510000820A8F8A80004B05DF8048BF0BDB8F806
:10752000A80000F00D0004289ED1D8F89000092191
:10753000A8F8A8100068BFF35F8FB0B198F8961054
:10754000012202F09FFDD8F89C000068BFF35F8F16
:1075500000281FBF98F8A210012204B05DF8048B28
:107560001CBFBDE8F04002F08DBD41F2D83041F2C1
:107570006042C2F22000C2F2200222210EF047F83F
:10758000FEDE41F2AC128021C2F220020FF0E9FDD2
:10759000FEDEF0B503AF2DE9000B84B090F82C604F
:1075A000814600250220CDE900050C4608463146FB
:1075B0000222022303F0EAF8C0B208286ED1204666
:1075C000314602220223009503F037F9C0B20828A1
:1075D00064D141F23C222046C2F22002242103233E
:1075E00002F06FFFC0B2082858D141F23F22204676
:1075F000C2F220022421022302F063FFC0B2082855
:107600004CD1304602F032FF99F82D8006464046B4
:1076100002F02CFF07F81C0C0620A7F11E0207F849
:107620001E0C20462421032307F81D6C02F049FF9D
:10763000C0B2082832D1404602F018FF07F8190CF2
:107640000120A7F11B0227F81B0C2046242103234D
:1076500002F037FFC0B2082820D109F10801204606
:1076600000F02FF8C0B2082818D100204146009041
:1076700020460A22002303F0E0F8C0B208280DD10A
:1076800009F12001204600F01CF8C0B2082805D1FD
:1076900009F11401204600F014F8C0B204B0BDE8AE
:1076A000000BF0BDD0B502AF82B00446684600F0D2
:1076B00019FBDDE90001C4E900010020E08502B00A
:1076C000D0BDF0B503AF4DF8048D8C46016981B390
:1076D000416843698B4249D20268D0F818E0D45C13
:1076E0000134D4540EF102038B421ED80EF580747F
:1076F000A14238BF0C469C4248D3E41A052C14D34F
:107700009CF80640BCF80450D45413440EF107040E
:107710009CF808608C429CF807805E704FEA152642
:107720009D7083F80480DE7007D902205DF8048B19
