:0200000460009A
:1000000000002820B9020060D33600602F2701606D
:10001000D3360060D3360060D336006000000000A5
:10002000000000000000000000000000D336006067
:10003000D336006000000000D3360060D336006085
:10004000D3360060D3360060D3360060A914006058
:10005000D3360060D3360060D3360060D3360060FC
:10006000D3360060D3360060D3360060D3360060EC
:10007000D3360060D3360060D3360060D3360060DC
:10008000D3360060D3360060D3360060D3360060CC
:10009000D3360060D3360060AD140060D336006004
:1000A000D3360060D3360060D3360060D3360060AC
:1000B000D3360060D3360060D3360060D33600609C
:1000C000D3360060D3360060D3360060D33600608C
:1000D000D3360060D3360060D3360060D33600607C
:1000E000D3360060D3360060D3360060D33600606C
:1000F000D3360060D3360060D3360060D33600605C
:10010000D3360060D3360060D3360060D33600604B
:1001100000000000D3360060D3360060D3360060A4
:10012000D3360060D3360060D3360060D33600602B
:10013000A5140060D336006000000000D3360060D4
:10014000D3360060D3360060D3360060D33600600B
:10015000D3360060D33600600000000000000000CD
:10016000D3360060D3360060D3360060D3360060EB
:10017000D3360060D3360060D3360060D3360060DB
:10018000D3360060D3360060D3360060D3360060CB
:10019000D3360060D3360060D3360060D3360060BB
:1001A000D3360060D3360060D3360060D3360060AB
:1001B000D3360060D3360060D3360060D33600609B
:1001C000D3360060D3360060D336006000000000F4
:1001D000D3360060D3360060D3360060D33600607B
:1001E000D3360060D3360060D3360060D33600606B
:1001F000D3360060D3360060D3360060D33600605B
:10020000D3360060D3360060D3360060D33600604A
:10021000D3360060D3360060D3360060D33600603A
:10022000D3360060D3360060B1140060D33600606E
:10023000D3360060D3360060D33600600000000083
:1002400000000000D3360060D3360060D336006073
:10025000D3360060D3360060D3360060D3360060FA
:10026000D3360060D3360060D3360060D3360060EA
:10027000D3360060D3360060D3360060D3360060DA
:10028000D3360060D3360060D3360060D3360060CA
:10029000D3360060D3360060D3360060D3360060BA
:1002A000D3360060D3360060D33600600000000013
:0802B000D3360060D336006074
:1002B800124880F3088812481249016012F040FA87
:1002C800114812490022814201D004C0FBE71048BE
:1002D8001049114A814202D008CA08C0FAE70F48FB
:1002E8004FF47001026842EA01020260BFF34F8FC7
:1002F800BFF36F8F01F0DAF800DE0000000028205D
:1003080008ED00E0000000609803202098032020FA
:1003180000022020980320207456016088ED00E038
:10032800F0B503AF2DE9000F81B02DED028BADF5CF
:10033800127D8946D1E9026A91ED018A4CF60123C2
:100348000968C3F69A33D0F818E000F15C08069102
:1003580000F11C019E45CDF81C8028D105900DF1B7
:10036800700B0491B64691467CC9DC46ACE87C002B
:100378007CC9ACE87C0091E87D008CE87D00002019
:10038800069AD11E032938BF901EDFE800F0026DDF
:1003980072F5002A00F06D81012A40F0DD81B0EE8F
:1003A800480A08F096FE8DED250A012062E134AB7B
:1003B800CDF808A003968446049280469A468B4658
:1003C8009CE87B00DC468AE87B00CDF8E8E00DF18C
:1003D800D00E0EF11C0ABCE87C0051467CC1BCE87A
:1003E8007C007CC19CE87D007DC10EF15C0064222C
:1003F80007997446059012F04AF809F1100302981B
:1004080067900DF5D07C0FCB039E8CE80F0064A994
:100418002046049A6696069E8DED658A649600F0DD
:100428007BFA2146A64691E87D000DF1580C8CE830
:100438007D003A9806900EA8BAE84E004EC09AE899
:100448004E004EC00EF1450108A817229DF81491E0
:100458009DED448ADDF80CA111F02CFA059964A8E9
:10046800642212F014F892E118EE100A8DF8AC002C
:1004780072E15EEA0A0000F06F8126980BF1300401
:100488005346764600254FF000080BF12C010691E3
:1004980008E001382A9001202690A91B78EB030177
:1004A80080F05A81013548F1000840B32A980028A5
:1004B800EFD140F20C00C2F200000068022818D9FF
:1004C800012042F6E051379042F68050C6F2010012
:1004D80042F6885236900020C6F2010139903490D5
:1004E80034A838910321C6F20102002305F098FAD6
:1004F80053460EAA07CA84E80700042002E027989A
:1005080040B10138279000202690A91B78EB030101
:10051800C8D321E140F20C00C2F2000000680228B2
:1005280017D9012042F6E051379042F6BC50C6F286
:10053800010042F6C45236900020C6F201013990FB
:10054800349034A838910321C6F20102002305F043
:1005580067FA03F0F9F80146484604F09DF8069852
:1005680003F0FDF8042053462A9001202690A91B89
:1005780078EB030196D3EFE018EE100A40F20C0571
:10058800C2F2000507F8290C286802281CD90120A6
:1005980042F6C831379042F6D032399064A8389084
:1005A8000020349040F61770C6F20100C6F201012F
:1005B8006590A7F12900649034A83691C6F201022B
:1005C8000321002305F02CFA2698A8B317F8291C54
:1005D8000BF12C0003F0C8F8C1B2022900F0BC806E
:1005E800020E8DF820108DF82320020AADF8212084
:1005F8002A68022A40D9012042F6FC31379042F697
:100608000442399064A838900020349043F663007F
:10061800C6F20000C6F20101659008A8649034A8EB
:100628003691C6F201020321002305F0F9F9BDF85D
:1006380022009DF8201020E028680328C0F08C8054
:10064800012042F6E051379042F64850C6F20100C8
:1006580042F6505236900020C6F20101399034908B
:1006680034A83891C6F201020321002305F0D8F915
:1006780072E0002024906FE0000C084333D19DF80D
:100688002100C0F17E0040B24408C007169440D152
:100698000DF17008404603F0B3FD2968844240F22A
:1006A800A080022917D9012042F6E051379042F67E
:1006B8008840C6F2010042F6904236900020C6F209
:1006C80001013990349034A83891C6F2010203210F
:1006D800002305F0A5F9B8E82E002CA82EC098E84C
:1006E8002E002EC0B2E0286803282DD3012042F640
:1006F800E051379042F6384042F64042C6F20100D7
:1007080036900020C6F20101C6F2010239903891F4
:1007180014E02868032817D3012042F6E0513790E7
:1007280042F60050C6F2010042F608523690002008
:10073800C6F2010139903891C6F20102349034A80A
:100748000321002305F06CF90EAA04232793002344
:1007580007CA269328AB07C30BF1290108A84CF652
:1007680001281722C3F69A389DF898909DED258A9E
:10077800249C11F09FF8BBE82E000EA82EC09BE821
:100788002E002EC0CDF81880A246DDE904B80DF180
:10079800580C41469CE87D007DC10EA84EC8ABE8C8
:1007A8004E0090E84E0008F145008BE84E0008A97D
:1007B800172211F07FF8079864A9642211F067FEE8
:1007C800069888F8449088ED108AC8F83CA0C8F8C4
:1007D80018000DF5127DBDEC028B01B0BDE8000FCD
:1007E800F0BD02291CD9012042F6AC41379042F6EF
:1007F800B442399064A838900020349041F25300F4
:10080800C6F20100C6F20101659016A8649034A8EA
:100818003691C6F201020321002305F001F9169C66
:1008280034A9B8E86C0008466CC098E86C006CC045
:1008380064AD2246284603F0E5FC649800285ED0A3
:100848004ECD2CA84EC095E84E004EC02CAA9DF85F
:10085800ACB09DED258A64A9DDF8908001F10C000B
:1008680078CA0DF1D00A78C092E8780078C04CF6C2
:100878000120C3F69A3001386690504603F083F998
:10088800BBF1040F08D0032064A9649034A84A4639
:100898008DF894B100F040F8B8F1000F0CD0B0EE2C
:1008A800480A08F053FC012064A9649034A84A4619
:1008B8008DED650A00F030F851460DF1580C91E8BD
:1008C8007D000EA98CE87D000AF11C00DDF8E880A7
:1008D8006CC86CC190E86C0008A86CC10AF14501AD
:1008E80017229DF814919DED448A439C10F0E2FF75
:1008F8000AF15C0164A8642211F0C9FD42E742F6DE
:10090800382042F6D042C6F20100C6F201022B217D
:100918000DF05FFAFEDED4D4F0B503AF2DE9000F79
:1009280081B02DED028BBAB00646086890460022C9
:10093800C31E032B38BF821E0596DFE802F0026D46
:1009480076D93278747891ED010A002A40F0F18066
:10095800022C80F0EE80002800F04E81012840F043
:1009680006829FEDE81A40F20C059FEDE72AC2F2D5
:10097800000520EE011A8DED060A81EE021A8DEDB2
:10098800071A286803281FD3022042F63001239053
:10099800C6F20101259008A824900020209040F27A
:1009A800D760C6F2010042F690020B90C6F201022F
:1009B800099006A8229107A9089020A80A91032166
:1009C800002305F02DF8059E2868002C00F03B82D6
:1009D800022818D9012042F6E051239042F6CC00B3
:1009E800C6F2010042F6D40222900020C6F20101AC
:1009F8002590209020A82491C6F20102032100230B
:100A080005F00EF8059E06F1100002F084FF01467D
:100A180008A803F0C3F839E20879DFE810F0040009
:100A2800120142017701022071E1D1E90234CDF8C7
:100A3800088053EA040000F0968096F801C040F25E
:100A48000C0E307806F10208D6E9029AC2F2000EBE
:100A58004FF0000B0025CDE903C311E00020BDF8DD
:100A68008410A8F80410BBEB0301209A75EB04016D
:100A780086F801C03070C8F80020C6E9029A73D21F
:100A88001BF1010B45F100050028E7D059EA0A00DF
:100A980006D0B9F101094FF001006AF1000ADEE75A
:100AA8008DF81CC0DEF800000228D7D9012042F6D4
:100AB800E421239042F6EC22259008A824900020F7
:100AC800209043F6AB50C6F20000C6F2010109902F
:100AD80007A8089020A822910321C6F2010200234A
:100AE800764604F09DFFB646DDE903C3059EB5E7EB
:100AF80040F20C00C2F2000000680328C0F0D9815F
:100B0800012042F6E051239042F6A820C6F20100E7
:100B180042F6B02222900020C6F2010125902090D2
:100B280020A82491C6F201020321002304F078FFD3
:100B3800BFE1002860D0012840F04F819FEDEB1AFB
:100B480040F20C059FEDEA2AC2F2000520EE011AD8
:100B58008DED060A81EE021A8DED071A2868022823
:100B68003FF612AF30E73078029DF0B106F1100081
:100B780002F0D1FEA0B1461E002002F0DDFD000407
:100B880000F09E81304602F0E2FD0146C0B2022824
:100B980000F09F81284603F07FFD013E701CEBD1D9
:100BA800059E3078002840F0848170780238C0B201
:100BB800022828BF0220012840F07B8106F110009E
:100BC80002F0A9FE002800F07481441E43F6FF706D
:100BD80002F0B2FD000400F07381204602F0B7FD78
:100BE8000146C0B2022800F07481284603F054FD83
:100BF800013C601CEAD15CE140F20C00C2F200004A
:100C08000068022818D9012042F6E051239042F6E4
:100C18001420C6F2010042F61C2222900020C6F2DF
:100C280001012590209020A82491C6F201020321F9
:100C3800002304F0F5FE059E06F1100002F078FE90
:100C480037E140F20C00C2F200000068022818D90F
:100C5800012042F6E051239042F66C30C6F20100C2
:100C680042F6743222900020C6F2010125902090AD
:100C780020A82491C6F201020321002304F0D0FE2B
:100C8800059E06F11005284602F045FE20AE0146F5
:100C9800304602F0F9FF2846314602F0E7FE002010
:100CA80035E040F20C00C2F200000068022818D9B2
:100CB800012042F6E051239042F62830C6F20100A6
:100CC80042F6303222900020C6F201012590209091
:100CD80020A82491C6F201020321002304F0A0FEFB
:100CE800059E06F11005284602F015FE20AE0146C5
:100CF800304602F053FF2846314602F0B7FE012085
:100D080005E000BF0000164400000444032040F240
:100D18000C018DF81C00C2F20001096802291DD9D6
:100D2800012042F69031239042F69832259008A887
:100D380024900020209043F6AB50C6F20000C6F283
:100D48000101099007A8089020A82291C6F2010283
:100D58000321002304F064FE9DF81C00059B00217C
:100D6800022258700120C3E902211870A1E0D1E9DC
:100D78000502904280F09D808B6806F1100A09698F
:100D8800A2EB000B03EB80050DF1800901EB800459
:100D980008AE07E0BBF1010B05F1040504F10404FA
:100DA80000F08780D4ED000A484695ED000A5146C8
:100DB80002F0CDFE22980028ECD0DDE92331DDE9F0
:100DC80020C2CDE908C2CDE90A03101A424601EB58
:100DD8009001304600F08EF8DCE7D1E90502904238
:100DE80067D28B6806F1100B0969A2EB000803EBC8
:100DF80080050DF1800A01EB800408AE0DF1E409CD
:100E080006E0B8F1010805F1040504F1040450D026
:100E1800D4ED000A504695ED000A594602F097FEB7
:100E280022980028EDD0DDE92331DDE920C2CDE9A3
:100E380008C2CDE90A03101A4A4601EB9001304670
:100E480000F0C8F8DDE7022818D9012042F6E05181
:100E5800239042F67010C6F2010042F678122290F2
:100E68000020C6F201012590209020A82491C6F206
:100E780001020321002304F0D3FD059E06F11000B2
:100E880002F049FD014608A802F0FEFE9DED070AA2
:100E980008F01FF920AD08A96022B0EE408A284664
:100EA80010F092FFB0EE480A06F11000294602F051
:100EB80079FD3AB0BDEC028B01B0BDE8000FF0BD82
:100EC80042F6382042F67422C6F20100C6F2010248
:100ED80007E042F6382042F66422C6F20100C6F264
:100EE80001022B210CF075FFFEDE00BF0000164446
:100EF80000000444F0B503AF4DF8048D2DED0A8BC6
:100F0800D0E90164A64246D0B7EE00AA90ED008A67
:100F180090ED039A4D1E9FED2DBA90469FED2CCA79
:100F280016ED010A80EE090AB4EE4A0AF1EE10FA4B
:100F380048BFB0EE4A0A08F067FC80EE081AB4EE23
:100F4800408A21EE0B1AF1EE10FA48BFB0EE4B1AA8
:100F5800BCEEC10AB5EE401AF1EE10FAB4EE4C1A26
:100F680010EE100AB8BF0020F1EE10FAC8BF4FF615
:100F7800FF7002F0E1FB000412D0284602F0E7FB04
:100F88000146C0B2022814D04046043E03F084FB58
:100F9800013DA642C4D1BDEC0A8B5DF8048BF0BDBF
:100FA80042F6E05042F65462C6F20100C6F201026F
:100FB80007E042F6E05042F64462C6F20100C6F28B
:100FC80001022B210CF005FFFEDE00BF00FC7F466E
:100FD80000FF7F47F0B503AF4DF804BD2DED0A8B38
:100FE800D0E90156B54241D0B7EE00AA90ED008A8B
:100FF80090ED039A4C1E9FED2ABA9FED2ACA15ED73
:10100800010A80EE090AB4EE4A0AF1EE10FA48BF66
:10101800B0EE4A0A08F0F8FB80EE081AB4EE408AEF
:1010280021EE0B1AF1EE10FA48BFB0EE4B1ABCEEE7
:10103800C10AB5EE401AF1EE10FAB4EE4C1A10EEF1
:10104800100AB8BF0020F1EE10FAC8BF4FF6FF70C3
:1010580002F072FB00040ED0204602F078FBC0B20A
:10106800022811D0043D013CB542C8D1BDEC0A8B21
:101078005DF804BBF0BD42F6E05042F65462C6F299
:101088000100C6F2010207E042F6E05042F644626F
:10109800C6F20100C6F201022B210CF09AFEFEDE18
:1010A80000FC7F4600FF7F47F0B503AF2DE9000F36
:1010B800ADF5177D11AD04464FF4E072284611F0E6
:1010C800E6F905F1340005F1380105F1540201F0A3
:1010D800A5FD439802F029FA5B98016841F00101E7
:1010E80001605B98016821F002010160419E0021C6
:1010F800C0F80811C0F81811C0F82811C4E9800018
:10110800C4E98200C0F83811306820F0010030606E
:10111800306840F4004030603068000409D5306819
:10112800000444BF30685FEA004002D5306800041C
:10113800F2D43F20B060306820F001003060DDF864
:101148000881D8F8000020F00100C8F80000D8F89D
:10115800000040F40040C8F80000D8F8000000047F
:101168000CD5D8F80000000444BFD8F800005FEAA6
:10117800004003D5D8F800000004EED43F20C8F89A
:101188000800D8F8000020F00100C8F800006898AE
:1011980002F0CCF9DDF84490CDE90F1040F263413C
:1011A800D9F8480040F00100C9F84800D9F84400CF
:1011B8000843C9F84400D9F84400012161F38300C9
:1011C800C9F84400D9F8440020F08000C9F8440068
:1011D800D9F8480040F02000C9F84800D9F8440080
:1011E80040F44040C9F84400D9F8440040F4447041
:1011F800C9F84400D9F8480040F08000C9F8480010
:10120800D9F8580000070CD0D9F8580000071CBFBF
:10121800D9F858005FEA007003D0D9F858000007E1
:10122800EED1D9F8480040F2634140F02000C9F8F7
:101238004800D9F8440020F44040C9F84400D9F8DF
:101248004400DDF848A020F4447000F58870C9F81F
:101258004400DAF8480040F00100CAF84800DAF81B
:1012680044000843CAF84400DAF84400012161F355
:101278008300CAF84400DAF8440020F08000CAF875
:101288004400DAF8480040F02000CAF84800DAF8CC
:10129800440040F44040CAF84400DAF8440040F4FE
:1012A8004470CAF84400DAF8480040F08000CAF8F0
:1012B8004800DAF8580000070CD0DAF858000007A0
:1012C8001CBFDAF858005FEA007003D0DAF858005B
:1012D8000007EED1DAF8480040F02000CAF84800CC
:1012E800DAF8440020F44040CAF84400DAF8440030
:1012F80020F4447000F58870CAF84400DDF8C0B1E5
:1013080002F051F8054602F050F8034681A8594604
:101318002A4602F04CF86B9993A84FF4805202F0D9
:101328000BF938980C903A980B9077980E9075981E
:101338000D9072980A903C98DDE9281209903B9824
:101348000890204602F0C6F85D994FF470420F23CA
:1013580001F59070C4F8D00201F1C000C4F8CC02C5
:1013680001F16000C4F8C802C4E9B011A1F88C21E9
:10137800A1F88E311E9804901F9803904998029006
:101388005898079053980690529805905498019051
:101398005E98DDF898B000F59075C4F8E45200F155
:1013A800C005DDF858E1DDF840C14B99C4F8E052BA
:1013B800A0F88C21C4E9B500A0F88E316030C4F8DB
:1013C800DC025F9800F1C005C4F8F45200F1600532
:1013D800C4F8F05200F59075C4F8F852A0F88C21C2
:1013E800C4E9BA00A0F88E31609800F16005C4F82D
:1013F800045300F1C005C4F80853A0F88C2100F587
:101408009072C4F80C2304F52872C4E9BF00A0F850
:101418008E310498C4F894020398C4E9A60B029884
:10142800C4E9C49A82E8035004F51B714822019864
:10143800C4F8B0020598C4F8B4020698C4F8B80213
:101448000798C4F8BC020F98C4F86802109881E89D
:10145800410181A90C98C4F878020B98C4F87C0261
:101468000898C4F880020998C4F884020A98C4F855
:1014780088020D98C4F88C020E98C4F8900204F5FE
:10148800087011F004F893AB04F5047C0FCB8CE8DA
:101498000F000DF5177DBDE8000FF0BD00F0D0BFBF
:1014A80000F0DABF01F04CBB01F0EAB880B56F4636
:1014B80000F001F8FEDEB0B502AFADF5E15D86B033
:1014C8000DF57964204601F0C4FD1BA82146FFF7FD
:1014D800EBFD00F0D9FED8B1A7F114000DF1100E04
:1014E80001210EF59C5400F0E3FE0DF5796000F043
:1014F80012FE2068022817D142F6BB6042F64872F5
:10150800C6F20100C6F201022B210CF062FCFEDEDD
:1015180042F6BB6042F65872C6F20100C6F20102FA
:101528002B210CF056FCFEDE0DF57969E1A84FF48D
:101538008162494610F0ABFF4FF67450C0F20700C5
:1015480000F0BFFD80B100F0B6FEC0B2052817D18B
:1015580042F6BB6042F62872C6F20100C6F20102EA
:101568002B210CF036FCFEDE42F6BB6042F63872E8
:10157800C6F20100C6F201022B210CF02AFCFEDEA5
:101588008DF88F0700F069FE002800F0968300F0C0
:101598004DFE002800F09D834EF200104FF0805160
:1015A800CEF200004160082101604FF48001016023
:1015B8004FF08061C160A7F11400012100F061FEC5
:1015C800C82002F07AF8484602F0F6FCCC460DF541
:1015D800F268BCE87C000DF1100E41460EF5CB5ABE
:1015E8007CC1BCE87C007CC19CE87D0008F1400C13
:1015F8007DC149467CC9ACE87C007CC9ACE87C006C
:1016080091E87D0049468CE87D0008F1800C7CC992
:10161800ACE87C007CC9ACE87C0091E87D004946D8
:101628008CE87D0008F1C00C7CC9ACE87C007CC962
:10163800ACE87C0091E87D0049468CE87D0008F51F
:10164800807C7CC9ACE87C007CC9ACE87C0091E873
:101658007D0049468CE87D0008F5A07C7CC9ACE893
:101668007C007CC9ACE87C0091E87D0049468CE8A8
:101678007D0008F5C07C7CC9ACE87C007CC9ACE87E
:101688007C0091E87D0049468CE87D0008F5E07C07
:101698007CC9ACE87C007CC9ACE87C0091E87D00A2
:1016A80049468CE87D0008F5007C7CC9ACE87C00E4
:1016B8007CC9ACE87C0091E87D0049468CE87D0057
:1016C80008F5107C7CC9ACE87C007CC9ACE87C00DF
:1016D80091E87D0049468CE87D0008F5207C7CC9AE
:1016E800ACE87C007CC9ACE87C0091E87D00494608
:1016F8008CE87D0008F5307C7CC9ACE87C007CC9AE
:10170800ACE87C0091E87D0049468CE87D0008F54E
:10171800407C7CC9ACE87C007CC9ACE87C0091E8E2
:101728007D0049468CE87D0008F5507C7CC9ACE812
:101738007C007CC9ACE87C0091E87D0049468CE8D7
:101748007D0008F5607C7CC9ACE87C007CC9ACE80D
:101758007C0091E87D0049468CE87D0008F5707CA6
:101768007CC9ACE87C007CC9ACE87C0091E87D00D1
:1017780049468CE87D0008F5806C7CC9ACE87C00A3
:101788007CC9ACE87C0091E87D0049468CE87D0086
:1017980008F5886C7CC9ACE87C007CC9ACE87C00A6
:1017A80091E87D0049468CE87D0008F5906C7CC97D
:1017B800ACE87C007CC9ACE87C0091E87D00494637
:1017C8008CE87D0008F5986C7CC9ACE87C007CC985
:1017D800ACE87C0091E87D0049468CE87D0008F57E
:1017E800A06C7CC9ACE87C007CC9ACE87C0091E8C2
:1017F8007D0049468CE87D0008F5A86C7CC9ACE8FA
:101808007C007CC9ACE87C0091E87D0049468CE806
:101818007D0008F5B06C7CC9ACE87C007CC9ACE8FC
:101828007C0091E87D0049468CE87D0008F5B86C9D
:101838007CC9ACE87C007CC9ACE87C0091E87D0000
:1018480049468CE87D0008F5C06C7CC9ACE87C0092
:101858007CC9ACE87C0091E87D0049468CE87D00B5
:1018680008F5C86C7CC9ACE87C007CC9ACE87C0095
:1018780091E87D0049468CE87D0008F5D06C7CC96C
:10188800ACE87C007CC9ACE87C0091E87D00494666
:101898008CE87D0008F5D86C7CC9ACE87C007CC974
:1018A800ACE87C0091E87D0049468CE87D0008F5AD
:1018B800E06C7CC9ACE87C007CC9ACE87C0091E8B1
:1018C8007D0049468CE87D0008F5E86C7CC9ACE8E9
:1018D8007C007CC9ACE87C0091E87D0049468CE836
:1018E8007D0008F5F06C7CC9ACE87C007CC9ACE8EC
:1018F8007C0091E87D0049468CE87D0008F5F86C8D
:101908007CC9ACE87C007CC9ACE87C0091E87D002F
:101918008CE87D00504602F04FFB5146CC467CC90E
:101928000DF1100EACE87C007CC9ACE87C0091E8B5
:101938007D0051468CE87D0009F1400C7CC9ACE87B
:101948007C007CC9ACE87C0091E87D0051468CE8BD
:101958007D0009F1800C7CC9ACE87C007CC9ACE84E
:101968007C0091E87D0051468CE87D0009F1C00CAF
:101978007CC9ACE87C007CC9ACE87C0091E87D00BF
:1019880051468CE87D0009F5807C7CC9ACE87C0078
:101998007CC9ACE87C0091E87D0051468CE87D006C
:1019A80009F5A07C7CC9ACE87C007CC9ACE87C006B
:1019B80091E87D0051468CE87D0009F5C07C7CC922
:1019C800ACE87C007CC9ACE87C0091E87D0051461D
:1019D8008CE87D0009F5E07C7CC9ACE87C007CC91A
:1019E800ACE87C0091E87D0051468CE87D0009F563
:1019F800007C7CC9ACE87C007CC9ACE87C0091E840
:101A08007D0051468CE87D0009F5107C7CC9ACE866
:101A18007C007CC9ACE87C0091E87D0051468CE8EC
:101A28007D0009F5207C7CC9ACE87C007CC9ACE869
:101A38007C0091E87D0051468CE87D0009F5307CFA
:101A48007CC9ACE87C007CC9ACE87C0091E87D00EE
:101A580051468CE87D0009F5407C7CC9ACE87C00E7
:101A68007CC9ACE87C0091E87D0051468CE87D009B
:101A780009F5507C7CC9ACE87C007CC9ACE87C00EA
:101A880091E87D0051468CE87D0009F5607C7CC9B1
:101A9800ACE87C007CC9ACE87C0091E87D0051464C
:101AA8008CE87D0009F5707C7CC9ACE87C007CC9B9
:101AB800ACE87C0091E87D0051468CE87D0009F592
:101AC800806C7CC9ACE87C007CC9ACE87C0091E8FF
:101AD8007D0051468CE87D0009F5886C7CC9ACE82E
:101AE8007C007CC9ACE87C0091E87D0051468CE81C
:101AF8007D0009F5906C7CC9ACE87C007CC9ACE839
:101B08007C0091E87D0051468CE87D0009F5986CD1
:101B18007CC9ACE87C007CC9ACE87C0091E87D001D
:101B280051468CE87D0009F5A06C7CC9ACE87C00C6
:101B38007CC9ACE87C0091E87D0051468CE87D00CA
:101B480009F5A86C7CC9ACE87C007CC9ACE87C00D1
:101B580091E87D0051468CE87D0009F5B06C7CC9A0
:101B6800ACE87C007CC9ACE87C0091E87D0051467B
:101B78008CE87D0009F5B86C7CC9ACE87C007CC9B0
:101B8800ACE87C0091E87D0051468CE87D0009F5C1
:101B9800C06C7CC9ACE87C007CC9ACE87C0091E8EE
:101BA8007D0051468CE87D0009F5C86C7CC9ACE81D
:101BB8007C007CC9ACE87C0091E87D0051468CE84B
:101BC8007D0009F5D06C7CC9ACE87C007CC9ACE828
:101BD8007C0091E87D0051468CE87D0009F5D86CC1
:101BE8007CC9ACE87C007CC9ACE87C0091E87D004D
:101BF80051468CE87D0009F5E06C7CC9ACE87C00B6
:101C08007CC9ACE87C0091E87D0051468CE87D00F9
:101C180009F5E86C7CC9ACE87C007CC9ACE87C00C0
:101C280091E87D0051468CE87D0009F5F06C7CC98F
:101C3800ACE87C007CC9ACE87C0091E87D008CE8CD
:101C48007D0009F5F860BAE86E006EC0BAE86E006B
:101C58006EC09AE87E007EC00EF5BC5680213046E4
:101C68000FF04AFC0DF1100E80210EF5C0552846E4
:101C78000FF042FC0DF1100E20200EF5CB5ACDE9E5
:101C88000006CDE9020541460490504620224B4605
:101C980002F094FA0DF1100E0EF59C50D0F8E00504
:101CA80018BB42F6BB6042F6F862C6F20100C6F203
:101CB80001022B210CF08DF8FEDE42F6BB6042F6E5
:101CC8001872C6F20100C6F201022B210CF081F84D
:101CD800FEDE42F6BB6042F60872C6F20100C6F2AA
:101CE80001022B210CF075F8FEDE52460DF1100EA4
:101CF8000EF5C45178CA0DF1100E084678C092E866
:101D0800780078C00EF5C55002F032F850464FF40E
:101D180000714FF400740FF0EFFB0DF1100E00206E
:101D28000EF59C510DF1100EC1F8E0A70EF59C516F
:101D38000DF1100EC1F8E4470EF59C54C4F8E807FD
:101D4800C4F8EC0746F2A81000F0E9FA58B942F6D0
:101D5800BB6042F6E862C6F20100C6F201022B211E
:101D68000CF037F8FEDEA7F15000C4F8F02700F1B8
:101D7800100B05301890A7F1A80010300590C4F892
:101D8800F437D4F8EC07A7F1140460B934E00DF186
:101D9800100ECDF818A0E0460EF59C54D4F8EC07C8
:101DA800A7F1140440B30DF1100E461E0EF59C5118
:101DB80001F5FC6A9AE82006CA45504624BFAAEBFA
:101DC8000900484580F07581295C204600F098F9A3
:101DD800C0B2022810D10AF101000DF1100EB0EBCB
:101DE800090A18BF82460EF59C50C0F8EC67013E00
:101DF800C0F8E8A7701CDFD10DF28F7000F06CFA04
:101E08000546A7F1A800E1A900F09EF94FF0030AE2
:101E1800E9B2042908BF4FF0060A0B9818BF084614
:101E280057F8A86C0B90032E179105D10DF1100EE1
:101E380006260EF59C5414E0059B354657F8A46C0D
:101E48000DF1100E0A960EF59C5457F8A06C04F587
:101E5800FF6C0FCB099657F89C6C08962E468CE8B9
:101E68000F00A7F1C00000F075FA0546A7F11400AD
:101E78000792994600F039F9139B10F0010208BF48
:101E88000B460C991393002D18BF49460C910D99D8
:101E9800079B18BF19460D911799042904D1062EDE
:101EA80008BF002D00F0EE80002D4FF0040947F820
:101EB80070AC47F8786C08BF4FF00609C00747F8C0
:101EC800809C4FF0050018BF062047F8880C0A9838
:101ED800DDF818A0CDF85C90000A079030E057F8BC
:101EE800809CDDF848C0A7F13006A7F1680ECDF850
:101EF8005C904ECE8EE84E000DF1500E49469EE89D
:101F08002044A7F16806189CCDF864E0E0464ECE60
:101F180047F848EC0DF1100E8BE84E00290CA7F19C
:101F2800D002A170A7F1500147F8500C0EF5C5502A
:101F380025801A9507F84CCC47F844ACFEF7F0F921
:101F4800B9F10801A7F1700018BF0146B9F1080FEF
:101F580009D1C446DDE919E557F8880C07286ED180
:101F6800A7F1580071E00868C446B0F1080218BF2C
:101F78000A46082807D1DDE919E5B9F1070F44D168
:101F8800A7F120004BE01068072803D0062808D1E5
:101F98000720106057F8780C07280BD1A7F1180014
:101FA80026E00621DDF82CC011601192CDE90FC39F
:101FB8000E965BE00DF1100E47F8180C0EF59C56C6
:101FC800A7F1A80006F5FF660DF1100E0EF59C545A
:101FD8004CCED4F804484CC0A7F17800099A119265
:101FE800089A10920A9A0F92079A47F89C4C0E92F8
:101FF8000622DDE919E5026057F8180C06282ED1EB
:1020080008200860B9F1070FBAD00021A7F18000B5
:1020180014910D9916910C9947F8209C1591062159
:10202800016057F8200C06287FF459AF08210820D2
:10203800179047F8801C57F8880C072890D0DDF8CF
:102048004CC047F8580CA7F188000621016057F8E2
:10205800580C06283FF49BAE4FF0080951E7119938
:10206800169110991591DDE90E1C1491A7F1A80697
:10207800DDF85C90A7F1300ECDF848C04ECE8EE862
:102088004E0030E7002A3FF40FAFA7F114050121F5
:10209800284600F0DFF801F016FB2846002100F082
:1020A800D9F8D4F8EC07A7F1140400287FF47BAE24
:1020B800A2E642F69C624946C6F201020BF0A0FE77
:1020C800FEDED0B502AF43F29A01C2F200010C78ED
:1020D8001CB1B4FA84F04009D0BD01220A7000F0A6
:1020E800DBFBB4FA84F04009D0BD80B56F4600F040
:1020F80091FC0146002880B248BF0121C00B80BD79
:1021080080B56F46C8B200F0A3FC0221002808BFC2
:102118000121084680BDD0B502AF044643F29700BE
:10212800C2F20000017800291EBF0220C4F8000492
:10213800D0BD0121017000F001FA204640F20441AF
:102148000FF0DAF9D0BDD4D4F0B503AF4DF804BD23
:102158000D46044600F04CF9B5EE400A0020F1EEB9
:1021680010FA58BF012005F58062D5F80034B5EEA5
:10217800400A111DF1EE10FA39D4002B41D092ED2E
:10218800011A9FED282A80EE011AB4EE421AF1EEE8
:1021980010FA36DC9FED242AB4EE421AF1EE10FA5A
:1021A8002FD405F5007680202946324600F0EAF85B
:1021B80090B381283FBF4FF0000C06EB800205EB7F
:1021C800800302213FBF84E82A0004F10C0181E862
:1021D8004410C4E906003CBF5DF804BBF0BD42F6FC
:1021E80068728021C6F201020DF097FBFEDE9BB1FA
:1021F800C5F80004002081ED000A20605DF804BBEA
:10220800F0BDC5F80004012081ED000A84ED010A43
:1022180020605DF804BBF0BD032020605DF804BBBE
:10222800F0BD00BFC520803F77BE7F3FD0B502AF6D
:1022380043F29600C2F2000004781CB1B4FA84F0AC
:102248004009D0BD0121017000F0A8FAB4FA84F069
:102258004009D0BD084600F095BAD0B502AF43F2A8
:102268009500C2F2000004781CB1B4FA84F0400969
:10227800D0BD0121017000F081FAB4FA84F0400960
:10228800D0BD084600F076BAD0B502AF43F294004C
:10229800C2F2000004781CB1B4FA84F04009D0BD41
:1022A8000121017000F0F4FAB4FA84F04009D0BDBD
:1022B800084600F0E9BA80B56F4643F29800C2F2CA
:1022C8000000017800291CBF052080BD0121017094
:1022D80000F03CFA042080BDD0B502AF044600F0FF
:1022E80021FA0138C1B2072904D88B2222FA01F158
:1022F800C90705D121780420042918BF2070D0BD52
:1023080042F6A07240B2C6F201022178105C04299C
:1023180003D0814204BF0420D0BD2070D0BD80B559
:102328006F4643F29901C2F200010A7822B10020F7
:1023380000210022002380BD00EB400001220A702A
:102348004FF0FF3101EBC00000F0B0F9002100228E
:10235800002380BDD0B502AF044600F0DDF9D4E912
:10236800002381EA030CC4E9000180EA020454EA6C
:102378000C0418BF0124821A61EB030320460021D4
:10238800D0BDD4D4F0B5064672B6144B144D1C68B3
:102398002B6862B69C4238BF04F5C064E01AB042AC
:1023A80028BF3046B0B10F4F01EB80040E4E07EB4B
:1023B800830E06EB830C0133DEF800E0B3F5C06F43
:1023C800DCF800C041F804EB08BF00238C4242F857
:1023D80004CBECD172B62B6062B6F0BD143000208D
:1023E800183000201400002014180020D4D4D4D4AD
:1023F800114B9A68520616D5104A5B6C92ED007A1A
:1024080023F07F43B8EE477A00EE103A9FED085B61
:10241800B7EEC77AB8EEC00B87EE056B20EE060B59
:10242800B7EEC00B7047BFEE000A7047AFF30080ED
:10243800000000000000E8410000384000022020B1
:10244800044B1A6942F004021A611A6942F48012B4
:102458001A617047000038402F4803212F4B304A3B
:10246800A3F5807C70B504682E482469D1779C4216
:1024780038BF9C462C4B01681A68914205D2026805
:10248800196802F120038B4245D22CF01F030CF58A
:102498008071BFF34F8F4FF0E022C2F85C3F2033CA
:1024A8009942FAD8BFF34F8FBFF36F8F00211F4DAA
:1024B8000CF1040EDFED1E6A1E4C5CF831600268F8
:1024C80046F30F265EF831300A4407EE106A43F3EC
:1024D8000F23B8EEC77A07EE903A05EB8203F8EEC1
:1024E800E77A27EE267A67EEA67A83ED007A036804
:1024F8000B44013104EB83032029C3ED007ADCD1BE
:1025080002680D4B2032A3FB02139B0A03EB430323
:10251800A2EB4323036070BD0800002000012020C7
:1025280000800E40143000201830002014000020D5
:102538000000003814180020ABAAAAAA42480321B8
:10254800424B4FF0E02CC26FF0B542F0C00240F2AF
:1025580082443F4E4FF0400E3E4FC2671C6000243D
:1025680099763D4A99771976D97737600426D467E2
:1025780056670626A2F876E0A2F87EE0A2F87C600C
:10258800364E374D1666374E1667374EEC60EE609E
:102598006FF00705D9760823344ECCF80031C36FA5
:1025A80043F44043C367324B32485066186840F4DE
:1025B80080001860186820F400001860186820F47B
:1025C800C01018601868C2E91A6540F48010A5F5B3
:1025D800FC75956718601A6842F480221A601A68B8
:1025E80022F003021A60244AC2F8081141F2B0012D
:1025F800C2F8F8121A68214922F480021A609A680F
:1026080022F4F0629A609A6822F038029A60DA68D6
:1026180042F48012DA60DA6842F00402DA60D0220A
:1026280081F83C204FF08052CCF804211A6942F01E
:1026380004021A611A6942F480121A615C601A680D
:1026480042F400721A60F0BD00C00F4000800E40D6
:102658000800002060900E4000900E4014003840A2
:1026680000C00E40000020205500008008E0FFBF99
:10267800000038400400020200801F4000E400E02F
:10268800084B1B68DA6862B1074AD2E9000130B426
:10269800441C41F100050121C2E9004530BCD96064
:1026A800704770470402202000000020154A164990
:1026B800D36E30B443F440530124144DD3660C60F8
:1026C80000212B68124C03E010330121A34214D8D7
:1026D8009A68002AF8D101B12B6003221860FF2400
:1026E8000C499A604FF0E0234FF0806281F87A40FD
:1026F8000120C3F80C2130BC7047002318462B601A
:1027080030BC704700C00F40004008400402202041
:102718003F41084000E400E0014BD3E90001704765
:102728000000002038B50024254604F10900C0B295
:1027380000F062F8B0FA80F04009A0400134054387
:10274800042CEDB2F1D1284638BD00BF08B50221EE
:10275800092000F063F802210A2000F05FF8022146
:102768000B2000F05BF802210C20BDE8084000F0C7
:1027780055B800BF0146062000F014B80221062013
:1027880000F04CB8044B4FF4003210B1C3F8842069
:102798007047C3F888207047004000420121072095
:1027A80000F03CB8272816D80201104B03EB0010A4
:1027B8009B5810B4C2685C68144205D061B95DF8D2
:1027C800044BC3F888207047836851B1084A5DF804
:1027D800044B1A60704770475DF8044BC3F88420B7
:1027E8007047044A5DF8044B1A607047B82F0160BF
:1027F80038F001003830010027280BD8064B0201B9
:1028080003EB00109A58C36892681A4214BF01205B
:102818000020704700207047B82F0160272827D86C
:102828000201154B012903EB00109B5830B45A687C
:10283800D0E902540DD004290BD022EA04025A60D0
:1028480099B1022915D003290CBF0C4B0C4B2B60F6
:1028580006E0224301295A6007D040F638032B606E
:102868004368152230BC1A60704738232B60F7E79D
:102878007047044B2B60F3E7B82F01603830010034
:102888003800010038F0010001460D20FFF78ABF2B
:1028980001210D20FFF7C2BF07EE900A9FED507A85
:1028A8000422B6EE005AF8EE677A4FF0010C104693
:1028B8009FED4C6A41F6FF71C7EE275A70B407EED8
:1028C800902AF8EEE77A85EEA77A77EE057AFDEE9C
:1028D800E77A17EE903A8B42A8BF0B46012BB8BF98
:1028E800012307EE903AF8EEE76A76EEC76AC6EE7D
:1028F800877AF5EEC07AF1EE10FA48BFF1EE677A02
:10290800F4EEC67AF1EE10FA03D8B0EE676A104614
:102918009C460132212AD2D10021334B334A022569
:1029280019600828324B334C1960334B334E196009
:10293800334B1960334B1970936E43F440539366CD
:1029480000F1FF33D4F80821C8BF00204FEA036321
:10295800D8BF01201660D4F8042103F0F85315609D
:1029680043EA0C03284A43EA40432848C2F838118E
:10297800D4E94526D924346040241560244A0361EB
:102988004FF0E023C16094754FF48002C3F8002132
:10299800836AEB4003F01C030F2B1BD85B082B400A
:1029A8001A4A926A920002F01C020F2A14D8D20323
:1029B80002F44032154913434FF47012CB628B6A0C
:1029C80043F088038B628A614B6923F0805370BCA3
:1029D8004B6170470323E3E74FF44032EAE700BF57
:1029E800001BB74BEC78AD605C30002000C00F4096
:1029F80060300020B82F01608C30002038F00100D2
:102A0800903000209C30002000841F4000C01840F7
:102A180000E400E00B4A0C491368096899420DD09C
:102A280001333F2B04D8194608481160C05C704731
:102A3800002106480B461160C05C70474FF0FF301C
:102A4800704700BF603000205C3000201C30002040
:102A58002DE9F047344F86463B6803F1010CBCF181
:102A6800270F5ED900218C46DFF8CC80D8F80030DB
:102A78008B423ED10A4600252C4C2D4EDFF8BC90E7
:102A880015E0EFF3118303F1FF3ABAF1FE0F43D8D3
:102A9800402B0AD863691B0207D5272A02F10103D4
:102AA80037D01A46F35C0125E3618A421ED1EFF361
:102AB8001383002BEED1EFF31083002BEAD1EFF351
:102AC80005800028DDD00F2802D8EFF31183E1E755
:102AD80000EB0903A3F541631878EFF311830BB1F9
:102AE8009842D5D84028D5D98A42E0D00DB1C8F847
:102AF80000200F4B03F80CE072B60C4A01200D4B76
:102B080039601870936943F40003936162B6BDE8B5
:102B1800F08700221346C5E70DB1C8F80020BDE8CC
:102B2800F0876146A0E700BF8C30002000C0184045
:102B3800643000209C3000209030002000F000E03D
:102B48002E494B6913F4401FF0B41CD0CB6A13F024
:102B5800E06FC3F3026212D0294F2A4B2A4E38681D
:102B68001D68431C013ACC69402B28BF0023AB42A7
:102B780001D01846F45412F0FF02F2D138601F4B0E
:102B88005A69D00230D41D4A906901021DD5536993
:102B98001B021AD51D4B1E4E1C681E4D336808E0DB
:102BA8000133282B28BF0023E95CD161D16A4F0586
:102BB8001FD4A342F4D13360104B9A6922F4000267
:102BC8009A619A6942F480029A6141020AD50B4BD4
:102BD8005A69520206D5104A002111709A6922F4E6
:102BE80080029A61F0BC70475A6942F480125A61B7
:102BF800C9E7A3423360E8D1DEE700BF00C0184050
:102C08005C300020603000201C3000208C30002018
:102C180090300020643000209C300020F0B503AFD5
:102C28004DF804BD0E4600211546044600F01EFC72
:102C3800284640F2E24100F020FC304600F0F0FC6B
:102C480042F650152146C6F201050022284636688C
:102C580000F0B0FCA81C2146002200F0ABFC281DA7
:102C68002146002200F0A6FCA81D2146002200F003
:102C7800A1FC05F108002146002200F09BFC05F1AB
:102C88000A002146002200F095FC05F10C002146BF
:102C9800002200F08FFC05F10E002146002200F012
:102CA80089FC05F110002146002200F083FC05F1A3
:102CB80012002146002200F07DFC05F11400214697
:102CC800002200F077FC05F116002146002200F0F2
:102CD80071FC05F118002146002200F06BFC05F19B
:102CE8001A002146002200F065FC05F11C0021466F
:102CF800002200F05FFC05F11E002146002200F0D2
:102D080059FC20684169890107D5416921F00071A2
:102D18004161204600F09BFB20684169012221F0B7
:102D2800605141612068816962F30D3181612046FB
:102D380000F08DFB2068416941F000714161204637
:102D480000F085FB4FF480503060642030604FF411
:102D5800005070603068002809D4306800285CBFD3
:102D68003068002803D43068B0F1FF3FF2DC2068F7
:102D78000122016962F302010161204600F067FB4C
:102D88002068416921F4E0514161204600F05FFB71
:102D98002068816941F4402181612068416921F0FE
:102DA80000714161204600F052FB206842F6987598
:102DB800C6F201050022416941F44071416128468B
:102DC800214600F0F7FBA81C2146002200F0F2FB88
:102DD800281D2146002200F0EDFBA81D21460022F7
:102DE80000F0E8FB2068022642F680750022C6F251
:102DF8000105816B66F3D84181632068816B41F4DA
:102E0800802181632846214600F0D4FBA81C214676
:102E1800002200F0CFFB281D2146002200F0CAFB4B
:102E2800A81D2146002200F0C5FB206843F2382582
:102E38000322C6F20105816966F3051181612068E4
:102E4800816962F39C61816128462146002200F075
:102E5800B1FBA81C2146002200F0ACFB281D21462E
:102E6800002200F0A7FBA81D2146002200F0A2FBCB
:102E780005F108002146002200F09CFB206817227B
:102E880042F6E415C6F20105C16962F30501C161A4
:102E980020680022C16941F04001C16128462146ED
:102EA80000F088FBA81C2146002200F083FB281DA7
:102EB8002146002200F07EFBA81D2146002200F0DA
:102EC80079FB05F108002146002200F073FB05F1AB
:102ED8000A002146002200F06DFB05F10C00214696
:102EE800002200F067FB05F10E002146002200F0E9
:102EF80061FB206843F24225C6F201050322416ABC
:102F080041F0400141622068416A66F3050141626F
:102F18002846214600F04EFBA81C2146032200F05B
:102F280049FB281D2146032200F044FBA81D214629
:102F3800032200F03FFB05F108002146032200F0C0
:102F480039FB05F10A002146032200F033FB05F1A5
:102F58000C002146032200F02DFB05F10E0021464E
:102F6800032200F027FB05F110002146032200F0A0
:102F780021FB05F112002146032200F01BFB05F19D
:102F880014002146032200F015FB05F11600214626
:102F9800032200F00FFB05F118002146032200F080
:102FA80009FB05F11A002146032200F003FB05F195
:102FB8001C002146032200F0FDFA05F11E002146FF
:102FC800032200F0F7FA05F120002146032200F061
:102FD800F1FA05F122002146032200F0EBFA05F18F
:102FE80024002146032200F0E5FA05F126002146D7
:102FF800032200F0DFFA05F128002146032200F041
:10300800D9FA05F12A002146032200F0D3FA05F186
:103018002C002146032200F0CDFA05F12E002146AE
:10302800032200F0C7FA05F130002146032200F020
:10303800C1FA05F132002146032200F0BBFA05F17E
:103048003400214603225DF804BBBDE8F04000F0DF
:10305800B1BAF0B503AF2DE9000F81B043F29B017F
:103068004FF0010CC2F20001BFF35F8FD1E84F2F80
:10307800C1E843CF002BF9D1BFF35F8F002A01BF0E
:1030880048F20001C4F20D010022C4F22F0201BF70
:1030980002F5542C02F5502E02F54C28A1F50044F7
:1030A80001BFA1F5003501F5F61601F5F413C0E9E5
:1030B800683601BFC0E96A54C0E96C8EC0E96EC1C8
:1030C80001F5005E01BF01F5805640F2040CC4F220
:1030D8002E0C01F5021401BF0CF5FE7501F5004335
:1030E80000F5C07888E8380001BF00F5C67383E8AA
:1030F8001210C0E9666EA1F5404C01BF01F5881EAB
:1031080001F5861801F5841401F5821301BF01F554
:10311800003602F51025C0E9585600F5B47501BF10
:1031280085E81A41C0F87CC1A1F5804C02F51C2E37
:1031380001BF02F5182802F51424A1F5E03301F5C2
:10314800282601BF01F5EE15C0E9505600F5A47513
:1031580085E8184101BFC0E9562C02F5782802F528
:10316800742902F5702401BF02F56C234CF2000C9F
:10317800C4F2070C0CF5004601BF01F5E03E01F56D
:103188008E15C0E9485EC0E94A6101BF00F598752F
:1031980085E81802C0F83C8101F5482801BF01F50F
:1031A800442901F5402A01F53C2B01F5382301BFDC
:1031B80001F5342401F5302501F52C26C0E94065D8
:1031C80001BFC0E94243C0E944BAC0E9469802F5E4
:1031D800302801BF02F52C2902F5282A02F5242BF4
:1031E80002F5861301BF02F5841402F5821502F573
:1031F8008016C0E9386501BFC0E93A43C0E93CBA66
:10320800C0E93E9801F5F01801BF01F59219A1F542
:10321800503AA1F5403BA1F5303301BF01F59014B8
:1032280001F58C1501F58A16C0E9306501BFC0E9C2
:103238003243C0E934BAC0E9369844F2000B01BF02
:10324800C4F2002B0BF500490BF5804A4FF0844877
:1032580001BF01F56C2601F5682401F56425A1F587
:10326800C03301BFC0E9283500F1A80383E850093D
:10327800C0E92EA901BF01F5602801F5E61901F59D
:10328800E81AA1F5203601BF0BF5E03301F5582403
:1032980001F55425C0E9205401BF00F1880484E8F1
:1032A8004804C0E9259EC0F89C8001BFA1F5103EE6
:1032B80001F5FE1801F5001902F5642A01BF02F5AF
:1032C800602302F55C2602F5582501F5A03401BFFC
:1032D80000F1600B8BE87000C0E91B3AC0E91D984B
:1032E80001BFC0F87CE001F5803E02F540480CF5CE
:1032F800804901BF01F5804A01F5F21344F208063E
:10330800C4F2090601BF06F1100506F10804C0E978
:103318001064C0E9125301BFC0E914A9C0E9168EB0
:103328000CF5C03E01F5103801BF01F5801901F513
:103338007C2401F5782302F57C2601BF02F5482597
:10334800C0E9085600F1280585E8180201BFC0E960
:103358000D81C0F83CE002F5442E02F50C2601BFB1
:1033680001F5D21501F5242402F54022A1F5803398
:1033780001BFA1F5A031C0E90013C0E9022C10304B
:1033880001BF80E8704001B0BDE8000FF0BD43F216
:10339800782043F21032C6F20100C6F2010235214C
:1033A8000AF017FDFEDE022070470F207047B0B507
:1033B80002AF054608680C4640F48030086008688B
:1033C80040F040000860222063F31340486040F258
:1033D8006850C0F20C10086240F29510C0F2B200BA
:1033E8004862DC20C0F27A0088627D20C0F2580072
:1033F800C8624B20C0F2400008632F20C0F22E00A4
:103408004863886346F62010C86040F6A3108860B9
:103418004FF4C840C8614FF4C860886140F6C410D2
:10342800C0F6804008613F204861086820F003002A
:1034380010430860086820F480300860C86F402195
:1034480028460EF059F81020C5E91004B0BD0068F0
:1034580003E0816C002908BF7047816C29B1816C39
:1034680000291CBF816C0029F3D170470068426DA8
:1034780022F0030211434165704740F227629142EE
:1034880038BF0A46B2F5487F98BF4FF44872A2F594
:10349800487144F2AF7300688AB25A43C368A1EB1B
:1034A800124189B2490801EB124123F01F0242EA96
:1034B8001111C16004E00168B1F1FF3FD8BF704746
:1034C8000168002905D4016800295CBF016800294A
:1034D800F1D57047F0B503AF2DE9000B84B04FF478
:1034E800007104460EF008F840F20829A4F110050E
:1034F800C2F220090026E8464C46D9E96001039447
:103508000291CDE90060404600F0B0F89DE80F0058
:1035180001360C3445F8100F202E05F104000EC0BA
:10352800EBD104B0BDE8000BF0BD704700F13402E8
:1035380000F1500110467047F0B503AF2DE9000BBC
:1035480044F2E043C4F21F031B68C3F30B2E4FEA97
:10355800135CE6451FBF0124C1F88841DBB24FF474
:103568007A781FBF03FB08F9ACEB0E04D1F8906121
:1035780049F658651FBFCFF6FF7513FB085393FB39
:10358800F4F3C2EA06021FBFC1F89021C0E9003E69
:10359800C0E90291BDE8000B18BFF0BD43F2B0309E
:1035A80043F29432C6F20100C6F2010219210AF070
:1035B80010FCFEDE90F801C0DFE80CF004080C10E7
:1035C80014181C20096801F1680C1AE0096801F157
:1035D8006C0C16E0096801F1700C12E0096801F141
:1035E800740C0EE0096801F1780C0AE0096801F131
:1035F8007C0C06E0096801F1800C02E0096801F121
:10360800840C00780321DCF800304000C0B282400E
:1036180001FA00F023EA00001043CCF800007047DC
:1036280080B56F4600684FF400514FF480524FF058
:10363800400C4FF4803E00E0416103699B04FBD5D8
:103648000369DB0401D44261F7E70369B3F1FF3F83
:10365800F3DC0369DB0306D403695B0648BF80BD5E
:10366800C0F814C0E9E7C0F818E0E6E780B56F468F
:103678000146006820283FBF496801EB40104FF41D
:10368800805100223FBF425000F5805082808271F5
:103698003FBFC2718260C26002613FBF8282C28244
:1036A800826182833CBFC28380BD43F22C422021C9
:1036B800C6F201020AF0A4FBFEDE012101EB500074
:1036C8000138FDD1704730BF7047FEE7704780B5BD
:1036D8006F4682B000680A46019043F2904043F278
:1036E8008441C6F2010001AB00901046C6F2010108
:1036F8000A220BF043FF02B080BDB0B502AF054609
:1037080008460C460BF0AAFE28B128462146BDE81B
:10371800B0400CF0EEBF20460BF0A4FE28B12846BE
:103728002146BDE8B0400DF024B828462146BDE842
:10373800B0400DF09EBB704782B201460020B2F542
:10374800804F38BF012070474FF4FC407047C2B229
:10375800022009047E2A38BF41EA0220704700216E
:103768000181C0E900117047B0B502AFCAB2FF2AA3
:1037780020D04AB2002A25D40368062B64D2C21886
:10378800117101684A1C0021062A026017D10479C8
:1037980090F909C090F90850FF2C90F9063090F97B
:1037A8000720016013D002204FF0000E41EA0E01FD
:1037B8000843B0BD01210160FF21017100210220F1
:1037C8000843B0BD0021016002200843B0BD90F954
:1037D800054002204FF4807E002CE7D4002B58BF10
:1037E800002AE3D4002D58BFBCF1000FDED4E01846
:1037F8001044553000F07F00A84217D184EA030036
:10380800504080F02A00604517D1D0B2D9B200EB01
:10381800C110E2B24FEA022E0104A4F17F00B0FA0F
:1038280080F0400941EA0E010843B0BD02204FF480
:10383800007E41EA0E010843B0BD02204FF4407EED
:1038480041EA0E010843B0BD43F274421846C6F27D
:10385800010206210AF0D4FAFEDEB0B502AF8AB042
:103868000A460178C1B1023009A9099043F2904093
:103878000323C6F20100CDE9003143F2A04143F22F
:10388800A74302901046C6F20101C6F201030722BF
:103898000BF0ECFD0AB0B0BD811C43F2C04343F20B
:1038A800B0440DF1200E08910A21C6F20103C6F2B8
:1038B8000104013043F2CC4C0325CDE9024343F225
:1038C800AD43CDE9041E43F2AA41C6F2010CCDE98D
:1038D80000501046C6F20101C6F201030322CDF8DA
:1038E80018C00BF004FE0AB0B0BD006843F28C5259
:1038F8000B4643F28851C6F20102C6F20101007874
:10390800002808BF11464FF00402184608BF0622D7
:103918000BF09EBD704781684CF6002300F19402BD
:10392800C3F69A33994208BF00F110021068704735
:10393800F0B503AF2DE9000781684CF6002CC3F6FB
:103948009A3C61450BD100F10C0E4FF02808242158
:1039580020244FF01C091825142610230AE000F132
:10396800700E4FF09C08982194244FF090098425FC
:103978008026742350F803A0DEF800308659455994
:103988000459415850F80820C0E902C350F80930DA
:103998008262C0E90841C0E904A6C0E90653BDE84F
:1039A8000007F0BDF0B503AF2DE9000BE2B081468A
:1039B80080684CF600288C46C3F69A38404519D1E1
:1039C80009F10C0E2EA936A8BEE85C000D465CC5B0
:1039D8009EE85C005CC5624600F04AFC38984045A9
:1039E80020D19DF8D8008DF8080043F26050C6F247
:1039F80001002DE0D9E92601D9E92442CDE90801E1
:103A080036A802A9D9E91CE3D9E92065CDE906421F
:103A18006246CDE90465CDE902E300F029FC389857
:103A280040450DD002A836A9B0220EF0CDF902A962
:103A38004846B0220EF0C8F962B0BDE8000BF0BDF0
:103A48009DF8D8008DF8080043F25050C6F20100E6
:103A580043F20853009043F2DC4002AAC6F2010088
:103A6800C6F201032B210AF066FAFEDEF0B503AFB9
:103A78002DE9000FD7B0044680684CF6002B04F1FE
:103A88000C08C3F69A3B584507D1414622A86CC991
:103A98006CC091E86C006CC02FE0D4E924508946D2
:103AA800D4E92612CDE905502AADCDE9071201A9BE
:103AB80094ED2A0A2846D4E91CCE4A46D4E9203691
:103AC800CDE90336CDE901CE00F0D2FBDDF8B090A8
:103AD800D94526D005F10C00DDE92ACAAE4622A94F
:103AE8006CC86CC190E86C0001A86CC10EF12C0187
:103AF800842265460EF0CBFCCB4622A84EC8A8E827
:103B08004E0090E84E0004F12C0088E84E0001A910
:103B180084220EF0BCFC84E8200C57B0BDE8000FEE
:103B2800F0BD9DF8A80043F208538DF8040043F255
:103B38007050C6F2010001AA009043F2DC40C6F2C0
:103B48000100C6F201032B210AF0F5F9FEDED0B51B
:103B580002AF84B0044688684CF60022C3F69A3255
:103B680090420CD0684600F06FFC029838B19DE88E
:103B78000F004FF0000C84E80F1004B0D0BD0020F7
:103B8800A06004B0D0BDD0B502AF04461030B0225A
:103B98000EF01AF94FF400702080D0BDB0B502AF16
:103BA8002DED068B01EE101A0446B2EE040A1E2013
:103BB800B8EE411AB1EE082A21EE000A9FED301A3C
:103BC80020EE020A81EE008A05F0A1FA4FF4FA50BD
:103BD800B0EE409A05F09BFAB0EE40AA9FED290A94
:103BE800B4EE408AF1EE10FAC8BFB0EE408AB0EEEB
:103BF800480A05F06EFA2820B0EE408A05F087FAE8
:103C080042F2107005F083FA902005F080FA012145
:103C1800002221620A2121614FF280010025C0F2B1
:103C2800FA21A16046F26661C4F2A012C4F220151E
:103C380049F69A1EC3F66671C4E914524CF2AC52A6
:103C48000020A1654FF081414FF07E5C4FF07F531B
:103C5800C3F6197EC3F22772C4E90000606260618E
:103C680084ED0C9A84ED0DAA84ED138AC4E90EC381
:103C7800C4E910E2A164A062A061BDEC068BB0BDEE
:103C88000080CA4800007043B0B502AF2DED068B26
:103C980001EE101A0446B2EE040A1E20B8EE411ACC
:103CA800B1EE082A21EE000A9FED2F1A20EE020A33
:103CB80081EE008A05F02BFA4FF4FA50B0EE409AE4
:103CC80005F025FAB0EE40AA9FED280AB4EE408A26
:103CD800F1EE10FAC8BFB0EE408AB0EE480A05F01F
:103CE800F8F92820B0EE408A05F011FA42F2107077
:103CF80005F00DFA902005F00AFA01210022216250
:103D08000A21002521614FF28001C4F2A012C0F2FD
:103D1800FA21C4F2201549F69A1EA1604FF07D5190
:103D2800C4E914524CF2AC520020A1654FF0814115
:103D38004FF07E5C4FF08043C3F6197EC3F22772C2
:103D4800C4E900006062606184ED0C9A84ED0DAAFC
:103D580084ED138AC4E90EC3C4E910E2A164A06229
:103D6800A061BDEC068BB0BD0080CA48000070435E
:103D7800D0B502AFB1E8185000F11C02A2E8185003
:103D880091E81850042182E81850002280F8581051
:103D9800C0E911214CF60121C3F69A31C263816151
:103DA800D0BD80B56F4682B00A4601780239C9B2E3
:103DB800022928BF022161B1012915D143F2AC5172
:103DC8001046C6F201010B2202B0BDE880400BF09C
:103DD8003FBB42F6B0711046C6F20101082202B09C
:103DE800BDE880400BF034BB019043F29C5043F295
:103DF8009251C6F2010001AB00901046C6F20101D3
:103E080007220BF0BBFB02B080BDB0B502AF05685E
:103E180008460C460BF022FB28B128462146BDE88F
:103E2800B0400CF0E6BC20460BF01CFB28B128463D
:103E38002146BDE8B0400CF037BD28462146BDE814
:103E4800B0400DF0A0B87047F0B503AF2DE9000FF2
:103E580081B02DED0E8BA0B0B0EE40BA97ED020AFE
:103E6800B0EE41AA9FED531AB8EE400A1D46B0EED7
:103E7800429A1646B0EE61CA8346B0EE608A80EE7A
:103E880001EAB0EE4A0A05F061F9B0EE40DAB0EEA8
:103E98004C0A05F05BF9304629468DEE00DA0DF044
:103EA800DBFA00EE100A2DEE088A3EEE00EAB0EECC
:103EB8004A0A05F04BF92EEE000AB7EE001AB4EEE6
:103EC800408AF1EE10FAC8BFB0EE480AC1EE000A07
:103ED800B6EE000A05F076F9F0EE4A0A06AEB0EE44
:103EE8004C1A0321F0EE4B1A3046B0EE408A04F02B
:103EF80063F89DF81800E8B90DF15008311D08F174
:103F08000205142228460DF0D5FC0DF104092946B6
:103F1800142248460DF0CEFCF0EE4A0A06AEB0EE8A
:103F2800491A0221F0EE4B1A304604F045F89DF884
:103F3800180068B19DF8190001218BF800108BF862
:103F4800010020B0BDEC0E8B01B0BDE8000FF0BD44
:103F5800311D284614220DF0ADFC0DF16C0A2946DE
:103F6800142250460DF0A6FC99E83E0030463EC0AB
:103F78004046314605F0EBF83046514605F0E7F883
:103F8800B8E80E0006F11C000EC098E82E002EC0FE
:103F98000BF104002ECE2EC03ECE3EC096E83E0069
:103FA8003EC000208BED108ACBF83C008BF8000057
:103FB800C7E700BF286B6E4EF0B503AF4DF8048D10
:103FC8002DED048B94B080464FF47A7005F09FF87D
:103FD8000120B0EE408A05F09AF80220B0EE409A2F
:103FE80005F095F8B0EE402A49F28060B7EE000A75
:103FF80002ADB0EE481AC0F29800F0EE491A0090EF
:10400800284600220023F0EE400AFFF71DFF9DF826
:104018000800002801BF281D3EC8A8E83E003EC889
:1040280001BFA8E83E0090E87E0088E87E0014B052
:1040380002BFBDEC048B5DF8048BF0BD9DF8090050
:1040480043F2E45307F8210C43F22C60C6F2010056
:10405800A7F12102009043F2B750C6F20100C6F260
:1040680001032B2109F067FFFEDEF0B503AF2DE950
:10407800000F81B02DED0E8BA6B093ED0C9A002A9F
:1040880093ED0DAACDE90101039200F08080039819
:10409800B0EE408ADDF808801E464FF0010A00EEB7
:1040A800100A4FEA8019A7F1DE00B8EE40EA851C35
:1040B80015A8041DB0EE4A0A05F048F8B0EE40BA5B
:1040C800AAF1010BB0EE490A05F040F8B0EE40CA7B
:1040D80000EE10BAB8EE400A8BEE0CBAC0EE0E0A2B
:1040E800B0EE4B0A05F06EF8B0EE40DA00EE10AA1A
:1040F800B8EE400AC0EE0E0AB0EE4B0A05F062F8C0
:10410800B0EE40BA2CEE0D0A04F0E3FFB0EE40DA50
:104118002CEE0B0A04F0DDFFB0EE40BAB0EE4D0A0B
:1041280005F014F896ED16DA80EE0D0A04F0D1FFCA
:10413800B0EE40CAB0EE4B0A05F008F82DEE000AC2
:1041480004F0C7FFB0EE402AB068B0EE481AD6E9CE
:104158000023F0EE4C1A0090D6ED0E0A15A896ED45
:104168000F0AFFF771FE9DF85400D0B92846214682
:1041780040220DF09FFB4046294640220DF09AFB55
:10418800B9F140090AF1010A08F1400892D10198F1
:1041980002990160039980ED029A80ED03AA4160BB
:1041A80005E0019A00219DF855001160107126B0B4
:1041B800BDEC0E8B01B0BDE8000FF0BD80B56F46B9
:1041C800D7F808E04FF0000C724507D1D7F810E097
:1041D800724504BFD7F818E0724502D0C0F800C095
:1041E80080BDD7F814C0D7F80CE0C0E90123C0E9B6
:1041F800052C8C46C0E9032EC261C0F800C080BD02
:104208004068704780B56F464B6893423EBF0021B7
:10421800016080BDCB68934220D34B69934222D37F
:10422800CB69934221BF0B68D1F808C0D1F810E0E0
:10423800896921BFC0E90032C0E902C2C0E904E2CD
:10424800C0E9061228BF80BD43F25C6CC6F2010CBF
:104258001046194662460BF060FBFEDE43F23C6CEA
:10426800C6F2010CF4E743F24C6CC6F2010CEFE71E
:10427800F0B503AF2DE9000F81B02DED108BA2B082
:104288000DF1280A044690468946D1E900561146A0
:1042980050466022B0EE408A0DF096FDB0EE480A16
:1042A80006A8294632465346FFF7DFFEDDF818B068
:1042B800BBF1000F00F0B780DDF81D000DF1280AF2
:1042C800DDF821109DF81C30099A04914146CDE98A
:1042D80002305046CDF813206022D9E902560DF07D
:1042E80073FDB0EE480A06A8294632465346FFF742
:1042F800BCFE0698002800F09680B0EE480A9DF8AB
:104308001C200190DDF821000092DDF81D2009999C
:10431800C4F88900C4F88520C4F88C1004F016FF8E
:1043280098ED13BAB0EE409AB0EE4B0A04F00EFFC7
:10433800B0EE40AAB0EE4B0A04F008FFD8E9040139
:10434800B0EE40CA0DF088F898ED060A01EE100AA2
:104358009FED3CEAB7EE00FAB8EE400A80EE0E0A8E
:1043680030EE010A2CEE000AB6EE00CACFEE000AC3
:10437800B0EE4C0A04F026FFB0EE40DAB0EE4B0A7D
:1043880004F0E4FED8E90801B0EE40BA0DF064F894
:1043980098ED0A0A01EE100AB8EE400A80EE0E0AFD
:1043A80030EE010A2BEE000ACFEE000AB0EE4C0AFE
:1043B80004F008FFDDE90301B0EE40BADDF8132090
:1043C800C4F879104146C4F875002046E2676022B7
:1043D800D9E9046AD9E9065998ED11CA0DF0F4FC37
:1043E80089EE0A0A0020C4F8A000009884F8840026
:1043F8000198C4F880000298C4E9246AC4E92659DF
:1044080084F87400C4F870B0BCEEC00A84ED2A8A3F
:1044180084ED18CA84ED19CA84ED1ABA84ED1BDA42
:1044280084ED290A07E04CF600219DF81C00C3F62C
:104438009A312070A16022B0BDEC108B01B0BDE8AC
:10444800000FF0BD286B6E4EF0B503AF2DE9000FDD
:1044580081B02DED068B86B0B0EE608AD1E91C687C
:1044680089468246B8F1000F20D0B0EE409A06EB9C
:104478008815B7EE00AA3446B0EE490A204604F083
:1044880070FE04F11C0004F06CFE94ED0F2A20EE7F
:10449800000A94ED0E1A3AEE423A20EE030A02EEB2
:1044A800010A84ED0E0A4034AC42E5D1D9E9205B1B
:1044B800BBF1000F03961ED0B7EE009A05EB8B16E2
:1044C8002C46B0EE480A204604F04BFE04F11C00CE
:1044D80004F047FE94ED0F2A20EE000A94ED0E1A20
:1044E80039EE423A20EE030A02EE010A84ED0E0A82
:1044F8004034B442E5D1D9E928010130C9F8A00017
:1045080088422ED10020D845CDF808A0C9F8A000CF
:1045180038BFC346BBF1000F27D0039B05F1380213
:10452800D9E9248A0024D9E9261038330026B2456F
:1045380000F0908092ED000A08EB040593ED001A54
:10454800B04231EE000A85ED000A00F08C800D19AA
:104558000136043440324033B34585ED000AE6D1D4
:1045680005E00020CAF808006DE0D9E9248A05A80A
:104578000490BAFA8AF004AAC0F1200000904046DC
:104588005146002300F077FB00EE10AA99ED101AAF
:10459800B8EE400A21EE001ABCEEC10A10EE101A5D
:1045A800481E504567D251456DD2B8EE402A08EBF7
:1045B8008101B7EE000A08EB800091ED003A32EE77
:1045C800412A30EE421A21EE031A90ED003A02EE2B
:1045D800031A99ED182AB4EE412AF1EE10FA08D51B
:1045E80099ED1A3A30EE430A21EE001A02EE031A48
:1045F80003E099ED1B0A22EE001A99ED190A029EB2
:10460800B4EE401A89ED181AF1EE10FA44BF89ED9C
:10461800180AB0EE401A99ED140AD9E9265481EE29
:10462800009A05F0F1F8B0EE408A99ED150A05F008
:10463800EBF838EE000A05EB8400C6E9010586EDC3
:10464800039A86ED000A06B0BDEC068B01B0BDE802
:10465800000FF0BD43F26C625046C6F201025146AB
:1046680009F0CEFBFEDE43F27C620146C6F201028F
:1046780009F0C6FBFEDE43F28C62C6F20102514627
:1046880009F0BEFBFEDE43F29C620846C6F2010258
:10469800514609F0B5FBFEDEF0B503AF4DF8048DC9
:1046A800CA074FF07F0208BF0A0AD0F804C0D0F842
:1046B8000CE0ACEB0E03062B4AD38368046803EBCB
:1046C8000E0565452B4624BFA5EB0C03634542D276
:1046D800FF26E6546B1C634524BFA3EB0C0363451C
:1046E80039D2E254AB1C634524BFA3EB0C036345EA
:1046F80031D24FEAD15804F80380EB1C634524BF3C
:10470800A3EB0C03634526D2C1F30646E6542B1DE2
:10471800634524BFA3EB0C0363451CD208EB114689
:104728001644553606F07F06E6546B1D634524BFD4
:10473800A3EB0C0363450ED20E0C86EAD15151400F
:1047480001F07F0181F02A01E1540EF10601C160F8
:104758005DF8048BF0BD43F2E4621846C6F201022C
:10476800614609F04DFBFEDEF0B503AF4DF804BD20
:104778004A1E4FF0FF33B2FA82F223FA02FE81EAB0
:10478800413282EA524282EA421404EA0E02531A81
:1047980038BF13466FF0010202EA5102A2F1010C80
:1047A8008C4548D28B423DD250F8235050F82C60AB
:1047B80040F82C5040F8236084EA443383EA53439A
:1047C80083EA431404EA0E06731A38BF33468A4252
:1047D80030D28B4226D250F823504FEA510C50F871
:1047E800226040F8225084EA443240F823604CF0BA
:1047F800010C82EA524282EA421202EA0E02531A7B
:1048080038BF13468C4516D28B423FBF50F8231051
:1048180050F82C2040F82C1040F823203CBF5DF8BD
:1048280004BBF0BD43F244721846C6F2010209F017
:10483800E7FAFEDE944643F244726046C6F201028D
:1048480009F0DEFAFEDEF0B503AF2DE9000790EDC2
:10485800000A0C46824632291DD20AF104010120C1
:1048680091ED001AB4EE401AF1EE10FA80F167816A
:10487800B4EE401AF1EE10FA06D4B0EE410A013057
:1048880004318442ECD12046001BB0FA80F0400984
:10489800BDE80007F0BD0AF1040690460120012595
:1048A80096ED001AB4EE401AF1EE10FA80F1478145
:1048B800B4EE401AF1EE10FA0CD4B0EE410A01350C
:1048C800A5424FF0000006F1040638BF0120AC42B3
:1048D800E6D105E1AC4200F00381A5F10109A1454B
:1048E80080F02081C00700F0218156F8040C012DCA
:1048F800306006ED011A09D9504629464A46434612
:1049080000F029F95046294600F07FF90020A54219
:104918001CD216ED010A012096ED001AB4EE401AD9
:10492800F1EE10FA80F10B81B4EE401AF1EE10FAB4
:104938000CD4B0EE410A0135A5424FF0000006F153
:10494800040638BF0120AC42E6D1C9E0A54200F018
:10495800C780A5F10109A14580F0E480C00700F0F7
:10496800E5805AF82500022D5AF829104AF829003E
:104978004AF8251009D3504629464A46434600F0CE
:10498800EAF85046294600F040F90021A54221D214
:104998000AEB89000AEB8502012190ED000A01204B
:1049A80092ED001AB4EE401AF1EE10FA80F1C780C9
:1049B800B4EE401AF1EE10FA0CD4B0EE410A01350B
:1049C800A5424FF0000102F1040238BF0121AC42B8
:1049D800E6D1A4E0A54200F08380A5F10109A14534
:1049E80080F0A080C80700F0A1805AF82500022DA9
:1049F8005AF829104AF829004AF8251009D35046D0
:104A080029464A46434600F0A6F85046294600F093
:104A1800FCF80021A54221D20AEB89000AEB8502A5
:104A2800012190ED000A012092ED001AB4EE401A1F
:104A3800F1EE10FA80F18380B4EE401AF1EE10FA2C
:104A48000CD4B0EE410A0135A5424FF0000102F145
:104A5800040238BF0121AC42E6D160E0A5423FD054
:104A6800A5F10109A1455DD2C8075FD05AF8250014
:104A7800022D5AF829104AF829004AF8251009D3B6
:104A8800504629464A46434600F065F850462946AE
:104A980000F0BBF80021A54220D20AEB89000AEBFE
:104AA8008502012190ED000A012092ED001AB4EE72
:104AB800401AF1EE10FA42D6B4EE401AF1EE10FAAE
:104AC8000CD4B0EE410A0135A5424FF0000102F1C5
:104AD800040238BF0121AC42E7D120E0A54203D14E
:104AE8000120BDE80007F0BDA5F10109A14519D2D3
:104AF800C8071BD05AF82500022D5AF829104AF881
:104B080029004AF8251009D3504629464A46434603
:104B180000F021F85046294600F077F80020BDE85B
:104B28000007F0BD43F25472484602E043F2547263
:104B38002846C6F20102214609F062F9FEDE43F674
:104B4800240043F68802C6F20100C6F201022B21B6
:104B580009F03FF9FEDE80B56F46531E8B4248D2FE
:104B68008A4228BF80BD00EB8203A3F1040C07E052
:104B7800043B83ED000A01320CF1040C8A422BD06D
:104B880000EB820313ED011A93ED000AB4EE410A1B
:104B9800F1EE10FA21D6B4EE410AF1EE10FAEAD598
:104BA800012A83ED001AE3D04FF0010E634613ED9E
:104BB800011AB4EE410AF1EE10FA0ED6B4EE410A2B
:104BC800F1EE10FAD5D583ED001A0EF1010E043B73
:104BD8007245ECD10346CCE780BD43F6240043F68A
:104BE8008802C6F20100C6F201022B2109F0F1F891
:104BF800FEDE43F2647043F29472C6F20100C6F21C
:104C080001022E2109F0E5F8FEDE80B56F4690ED31
:104C1800000A90ED011AB4EE401AF1EE10FA1ED611
:104C2800B4EE401AF1EE10FA58BF80BD021D0329F8
:104C380080ED001A10D3881E92ED011AB4EE401AC6
:104C4800F1EE10FA0BD6B4EE401AF1EE10FA03D5D5
:104C5800A2EC011A0138EFD182ED000A80BD43F6BB
:104C6800240043F68802C6F20100C6F201022B2195
:104C780009F0AFF8FEDEF0B503AF2DE9000FD1B0B3
:104C88008846064615290A9304920DD2B8F1020FF8
:104C980006D304984146012203683046FFF75BFFBC
:104CA80051B0BDE8000FF0BDB8684FF001094FF0F2
:104CB800010A09900AEA090ACDE905860998002837
:104CC80000F097855FEAC97000F015824FEA9801F5
:104CD800B8F1310F01EB410C4FEA410B19D906EB42
:104CE80081004A1E90ED000A06EB820090ED001A42
:104CF800B4EE410AF1EE10FA80F18C85B4EE410A67
:104D0800F1EE10FA07D5B0EE410A134601200A4623
:104D180003E00020DBE000200B46013106EB8105B3
:104D280095ED001AB4EE401AF1EE10FA80F1728592
:104D380006EB8205B4EE401AB0EE402AF1EE10FA06
:104D480048BFB0EE412A95ED003AB4EE432AF1EEA1
:104D580010FA80F15F85B4EE401AF1EE10FAB4EE65
:104D6800432A48BF0130F1EE10FAB4EE401A48BFAA
:104D78000130F1EE10FA48BF0B46B4EE432A06EBB9
:104D88008B01F1EE10FA48BF1346ABF1010291ED29
:104D9800001A06EB820191ED000AB4EE401AF1EE1A
:104DA80010FA80F13785B4EE401AF1EE10FA03D507
:104DB800013011465A4602E05946B0EE410A4BF01E
:104DC800010506EB850494ED001AB4EE401AF1EEE5
:104DD80010FA80F11F8506EB8204B4EE401AB0EE9B
:104DE800402AF1EE10FA48BFB0EE412A94ED003A9D
:104DF800B4EE432AF1EE10FA80F10C85B4EE401AB5
:104E0800F1EE10FAB4EE432A48BF0130F1EE10FA81
:104E1800B4EE401A48BF0130F1EE10FA48BF2946F7
:104E2800B4EE432A06EB8C05F1EE10FA48BF1146A2
:104E3800ACF1010295ED001A06EB820595ED000A2A
:104E4800B4EE401AF1EE10FA80F1E484B4EE401AA0
:104E5800F1EE10FA03D501309646624602E0E646C6
:104E6800B0EE410A0CF1010406EB840595ED001A39
:104E7800B4EE401AF1EE10FA80F1CC8406EB82050C
:104E8800B4EE401AB0EE402AF1EE10FA48BFB0EE88
:104E9800412A95ED003AB4EE401AF1EE10FAB4EE5C
:104EA800432A48BF0130F1EE10FA80F1B384B4EE22
:104EB800401A8B46F1EE10FAB4EE432A48BFA646D4
:104EC800F1EE10FA52BFF44601309446194606EB4B
:104ED800810292ED000A06EB8B0292ED001AB4EE05
:104EE800401AF1EE10FA80F19584B4EE401AF1EE12
:104EF80010FA02D501300D4603E05D468B46B0EE50
:104F0800410A06EB8C0191ED001AB4EE401AF1EE5D
:104F180010FA80F17F8406EB8B01B4EE401AB0EEF4
:104F2800402AF1EE10FA48BFB0EE412A91ED003A5E
:104F3800B4EE401AF1EE10FAB4EE432A48BF01303D
:104F4800F1EE10FA80F16684B4EE401AF1EE10FA30
:104F5800B4EE432A48BF6546F1EE10FA03D50B2894
:104F680008D201305D46B0FA80F040091AEA000F15
:104F78005AD0C8E04FF0FF3000EB580106EB880C20
:104F88004FEA580E032901D2002120E0ACF10803B2
:104F9800A6F110052EF00302002155F8100F043178
:104FA8005C688A422C6058601C6868686C6018608D
:104FB80053F8044CA868AC6043F8040C53F8084C48
:104FC800E868EC6043F8080CA3F11003E5D1C8F3D6
:104FD80041020AB3C843ACEB8E03704456F8214033
:104FE800012A53F8205046F8215043F8204013D0A6
:104FF800AEEB010006EB8105022A03EB800069682D
:1050080050F8083C6B6040F8081C1FBFA96850F8AE
:105018000C2CAA6040F80C1C6FEA0B0008EB00058A
:1050280001201AEA000F6ED10A98002875D045456C
:1050380080F0E7830A9806EB850191ED000A90ED70
:10504800001AB4EE401AF1EE10FA80F1E383B4EEE0
:10505800401AF1EE10FA62D4304650F8042B86ED6F
:10506800000A0A60002196ED000A4246531E994242
:1050780013D200EB810595ED001AB4EE410AF1EE6A
:1050880010FA80F1C783B4EE410AF1EE10FA04D4A5
:10509800013104358B42EED1194606EB8203013A01
:1050A800914219D213ED011AB4EE410AF1EE10FA49
:1050B80080F1B083B4EE410A043BF1EE10FAEED46D
:1050C80050F8215000EB8104013184ED001A1D6075
:1050D800531E9942CDD3E0E7481C86ED000A80456F
:1050E800C0F0B483A8EB000806EB8006B8F1150FF2
:1050F800BFF4E4ADCAE530464146FFF735FB0998F1
:1051080001380990E2E50498414602683046FFF705
:105118009AFB00283FF488AFC2E5059901E006969E
:1051280041468D4240F2044880F08083069B0591F9
:10513800013953F825001A681860002043F8252023
:105148001A1D93ED000A134693ED001AB4EE401AA7
:10515800F1EE10FA80F15E83B4EE401AF1EE10FA27
:1051680004D5013004338142EED108460D46884209
:1051780038BF0546DDE9056303EB8603043B013EC2
:1051880086420ED993ED001AB4EE401AF1EE10FAE9
:1051980080F14083B4EE401A043BF1EE10FAEED5EC
:1051A80000E02E468642C0F059838E4200F25E83AC
:1051B800311A02EB800501964FF0800E05EB810A4B
:1051C800002200264FF0000C4FF0000B4FF0800932
:1051D80003902846029521E0DDF840B00AEB8600EE
:1051E8004646DDF830900B9C08F10106DDF834E006
:1051F8000BF1010B40F2044880ED001A0020E34552
:1052080008BF484605EB80050020964208BFCEF14E
:1052180000000AEB800A4445C0F0AF81AAEB050400
:1052280044451BD296424FF000004FF0000138BFB2
:105238000120E34538BF012101434FEA94006FF094
:105248007F0318BF03EB9400E3452CBF81468646D5
:10525800002904BFA0EB500E4FEA5009E34566D180
:10526800B9F1000F00F0C780CDF834E0C9F1000EA5
:105278000DF1440C0F960326294691ED001AF01EF5
:105288008CF80000B4EE401AF1EE10FA80F1C282F8
:10529800B4EE401A0EEB0600F1EE10FA58BF0CF10E
:1052A800010C02283ED091ED011AB31E8CF8003093
:1052B800B4EE401AF1EE10FA80F1AC82B4EE401A66
:1052C800F1EE10FA58BF0CF1010C01282AD091ED2B
:1052D800021A731E8CF80030B4EE401AF1EE10FA80
:1052E80080F19882B4EE401AF1EE10FA58BF0CF132
:1052F800010CB8B191ED031A8CF80060B4EE401AB5
:10530800F1EE10FA80F18682B4EE401A0436F1EE1E
:1053180010FA0EEB060001F1100158BF0CF1010C58
:105328000328AAD10DF1440B0F9EDDF834E0964214
:1053380069D1BEF1000F64D07046D646AAF10806BE
:105348008246C0F1000A31AACDE90B498146032300
:1053580096ED011AD81E1070B4EE401AF1EE10FA4C
:1053680080F15882B4EE401A0AEB0300F1EE10FA0D
:1053780048BF0132022838D096ED001A991E1170E4
:10538800B4EE401AF1EE10FA80F14482B4EE401AFD
:10539800F1EE10FA48BF0132012826D016ED011AA5
:1053A800591E1170B4EE401AF1EE10FA80F13282F3
:1053B800B4EE401AF1EE10FA48BF0132A8B116ED6A
:1053C800021A1370B4EE401AF1EE10FA80F122823C
:1053D800B4EE401A0433F1EE10FA0AEB0300A6F11A
:1053E800100648BF01320328B2D1F246CE4631AE8C
:1053F800DDE90B4907E00DF1440CE346964202D182
:1054080097E731AA1646901BACEB0B01814238BFD7
:10541800084600283FF4F2AE0BA9B04681E81042D6
:1054280096F800E09BF80010CDF840B06FEA0E0641
:1054380005EB81095AF8263099ED001A45F8213014
:10544800411E3FF4C9AE0238032805D25C46C34664
:1054580011F0030955D1BFE621F003000E9000209A
:10546800CDE90712CDF83C800BEB0006AB466FEA9E
:105478000E017378B27896F8039055F823504AF8DD
:1054880021500F99014404304D788C7891F803E04D
:10549800ED435AF825804BF823805BF822304AF810
:1054A8002530E3435D465AF82340DDF840B045F81F
:1054B800224055F829204AF823206FEA0E025AF8AC
:1054C800223045F82930337955F823604AF82260AC
:1054D80091F804E06FEA0E065AF8261045F82310F2
:1054E8000E998142C0D10F998344CDF840B0014450
:1054F8005C4688468B46DDE9071211F003093FF444
:105508006BAE2046D84610F8011FB9F1010F18F804
:10551800016F10906FEA0E0055F821306FEA060609
:105528004AF820305AF8260045F821003FF454AED6
:105538002146D84611F8020FB9F1020F18F8023FB8
:10554800109155F820104AF826106FEA03065AF809
:10555800261045F820103FF43FAE14F8030F1BF84F
:10556800031F109455F82030D8464AF82630CE4309
:105578005AF8261045F820102EE6E3452DD2ACEB5C
:105588000B00DDF8188010F00300E64665D01EF821
:10559800011D01285AF8042D55F8213045F821201D
:1055A800CAF8003017D0E6465AF8042D1EF8021D36
:1055B800022855F8213045F82120CAF800300AD0D1
:1055C800E6465AF8041D1EF8030D55F8202045F844
:1055D8002010CAF8002050463FE0DDF818809642B7
:1055E80037D2901BDDF80CC010F0030E00F0878056
:1055F8001346B14613F8011DBEF1010F2E686FEA7C
:1056080001015AF8210045F8040B4AF8216019D025
:1056180013462E6813F8021DBEF1020F6FEA01014E
:105628005AF8210045F8040B4AF821600AD01346BD
:105638002E6813F8030DC0435AF8201045F8041BD0
:105648004AF8206028464E46F143114403295BD2AC
:1056580087E02846DDF80CC083E06FEA0B0161445F
:10566800DDF80CC003297CD3AAF10C09AAF11000BB
:10567800002300241090AAF10200CDF838A00F9062
:105688000EEB04020F99F046DE4612F804AC01EB6B
:10569800840112F8036C103B12F8020C12F8012C6A
:1056A80051F802CC55F822B045F822C041F802BCA6
:1056B800F34655F820C0C64651F8062C45F8202078
:1056C80041F806CC55F8260059F82410109A45F8E8
:1056D800261049F8240052F8241055F82A0045F8F5
:1056E8002A1042F82400043C08EB04008345C7D381
:1056F8000E98DDF818801844DDF80CC031E0134628
:10570800F143114403292CD313F804ED34462868D7
:105718009C42DE789A7893F801906FEA06065AF868
:1057280026106FEA020229606FEA09014AF826008A
:105738005AF8226068686E604AF822006FEA0E0024
:105748005AF82120AE68AA604AF8216026465AF81D
:105758002010EA68E96005F110054AF82020D3D343
:1057680028460299444688ED000A401A05990CEB30
:105778009008414562D904EB88054FF0000A4FF0C4
:1057880000092E4656F8040B2060019885ED000AA2
:105798006045A1EB080098BF4FF0010A8045A0F1D1
:1057A800010B38BF4046B0EBD10F28BF4FF00109BD
:1057B800D8450FD2049A41460A9B09980090204682
:1057C800FFF759FAD8460A95B8F1150FBFF472AA2F
:1057D800FFF75CBA049A594609982B460090304660
:1057E800FFF749FA2646B8F1150FBFF463AAFFF789
:1057F8004DBA3046414600F041F851B0BDE8000FBF
:10580800F0BD43F2A4722846C6F20102414608F0F0
:10581800F7FAFEDE43F6240043F68802C6F20100DA
:10582800C6F201022B2108F0D4FAFEDE43F2F4722C
:105838002846C6F2010208F0E3FAFEDE43F6140237
:105848004046C6F2010208F0DBFAFEDE43F2B4720B
:105858004146C6F201020AF03BF8FEDE43F60402B6
:105868003146C6F201020AF07DF8FEDE43F6040274
:105878003046C6F201020AF050F8FEDED0B502AF9B
:105888004A0802D1D0BD002A3FD0013A5400631C17
:105898008B42F8D2944602348C4213D200EB840433
:1058A80094ED000A00EB830494ED001AB4EE401A5C
:1058B800F1EE10FA80F1A380B4EE401AF1EE10FA7E
:1058C80048BF01339E468C456FD28E4575D200EB9A
:1058D8008E0300EB8C0493ED000A94ED001AB4EEED
:1058E800401AF1EE10FA80F18A80B4EE401AF1EE17
:1058F80010FAC8D584ED000A4FEA4E0483ED001A69
:10590800631C8B42F446C6D3BDE7022938BFD0BD1D
:105918008C4602E0BCF1010FB4D9ACF1010C8C4506
:1059280065D250F82C20BCF1020F0368026040F8E1
:105938002C30A7D3002401224FF0000EA31C63458E
:1059480012D200EB830393ED000A00EB820393ED80
:10595800001AB4EE401AF1EE10FA50D6B4EE401A1E
:10596800F1EE10FA48BF01321346E6452DD26345E1
:1059780034D200EB830200EB8E0492ED000A94ED22
:10598800001AB4EE401AF1EE10FA38D6B4EE401A06
:10599800F1EE10FABED584ED000A5C0082ED001A23
:1059A800621C62459E46C9D3B4E743F2D472C6F27C
:1059B8000102604608F024FAFEDE43F2E472704603
:1059C800C6F2010208F01CFAFEDE43F2D4727046F9
:1059D800C6F20102614608F013FAFEDE43F2E472F1
:1059E8001846C6F20102614608F00AFAFEDE43F2E2
:1059F800C472C6F20102604608F002FAFEDE43F6FF
:105A0800980043F6FC02C6F20100C6F201022B21FF
:105A180008F0DFF9FEDE70470020704770477047D6
:105A2800F0B503AF2DE9000F91B0002B3FD102F183
:105A3800100BD2E9009AD2E9026340F21002C2F2D6
:105A480000029BE83008D2F800E040F29032BFF341
:105A58005F8FC2F22002CDE90C630026D2E900C8AC
:105A6800BEF1020FCDE90F450A9190E83E0040696A
:105A780005904FF00100069043F61810C6F2010099
:105A88008DE83E006946CDE9089A0E960B96CDF84A
:105A98001CB008BF4046426943F60C10C6F201002C
:105AA80008BF6046904711B0BDE8000FF0BD43F64F
:105AB8008D1043F6E412C6F20100C6F20102552128
:105AC80008F087F9FEDED4D4F0B503AF2DE9000F56
